:4000000000800020110000009D0100009D01000008B5054B1A6803F53F5302331A6000F037FF00F0BDF800BFFA46004010B5054C237833B9044B13B10448AFF300800123BF
:40004000237010BD2881FF1F00000000141B0000084B10B51BB108480849AFF300800848036803B910BD074B002BFBD0BDE81040184700BF00000000141B00002C81FF1FEA
:400080000881FF1F0000000008B562B601F0A2F900F0A8FC034800F06DFD00F0C7FB00F061FB08BD181B000008B5FFF7EDFF00F005F84FF4FA6001F0FFFAF8E7F0B59BB027
:4000C000344800F057FD012700265DE0384601F067FC354601F06AFC74003444A4001AAB1C4404F8600C00F00FFA04F85F0C00F013FA04F85E0C00F017FA04F85D0C00F0DB
:400100001BFA04F85C0C00F01FFA04F85B0C00F031FA04F85A0C00F027FA04F8590C00F01BFA04F8580C00F02DFA04F8570C00F031FA04F8560C00F035FA04F8550C0024F7
:4001400016E020228DF8042005EB45039B001AA90B44234413F8603C30338DF805308DF806208DF8072001A800F004FD0134E4B20B2CE6D9084800F0FDFC384600F0FAFC3F
:400180007F00FFB20136F6B2072E9FD902A81BB0F0BD00BF701B00007C1B0000FEE700BF08B5104E104D16E029686B68AC68002204E051F8040B43F8040B0432A242F8D16B
:4001C000E868002203E0002143F8041B04328242F9D11035013E002EE6D101F05DFCFFF763FFFEE7010000003822000008B5124A124B1A60124A136843F400731360002319
:400200000AE0032B03D80F4A52F8231000E00E490E4A42F8231001332F2BF2D90C4B1A780C4B1A70094A0C4B1A6000F0BDF800220A4B1A6008BD00BF0004FA050CED00E0BC
:4002400014ED00E0000000009D0100000080FF1FBC7600400481FF1F08ED00E00081FF1FFEE700BFF0B40022174611E050F82760F3B226F0FF0608E001EB420511F812401B
:400280006D78A5550132013BDBB2002BF4D10137162FEBD9F0BC7047064B1B78DBB203F00701054A11701B09013213704422034B1A707047CF0100496E5800407658004097
:4002C00008B50A46002101F018FC08BD08B501F009FC08BD08B501F005FC08BD38B53322264B1A80182326490B7002310A80254A13700222244B1A7008224FF040231A7086
:40030000032203F500731A70204B1B78DBB2204A137010221F4B1A8041F25122023B1A80002419250CE01C4B1B7803F0010343EA440404F003044FF4F07001F09DF8013D62
:400340000DB1032CEFD115B90320FFF789FF134B4FF480721A8007221A70002210490A704820023108701A700222033B1A700D4A137843F00303137038BD00BF80400040B1
:4003800082400040864000400043004008010049A146004022420040254200400440004006400040A243004038B572B6464A137843F00403137000240CE0444963001A199F
:4003C00052000A4423445B00C8589188FFF778FF0134E4B2072CF0D900240FE03B49A3001A1952000A4452F8300F23445B000B4451681A8FFFF76AFF0134E4B2012CEDD908
:40040000324C04F1440004F1A001FFF72BFF304A137843F0020313701032137843F0020313702C4D2B7843F040032B70A2F58632513A137843F010031370274804F24451B2
:400440000822FFF743FF254804F24C510822FFF73DFF234804F254510A22FFF737FF214804F5AC610822FFF731FF1F4804F5AD610822FFF72BFF1D4804F5AE610822FFF75C
:4004800025FF1B4804F5AF610A22FFF71FFF194804F284510822FFF719FF174A137843F008031370154C61232370FFF717FFC12323700122124B1A70FFF7EEFE11482946AC
:4004C0000E22FFF707FF38BDE8460040801B000003500140A043004002510040C251004010510040225100403251004042510040505100406251004022430040004800404A
:4005000004000840B0430040024B1878C0F34000704700BF01510040024B1878C0F38000704700BF01510040024B1878C0F3C000704700BF01510040024B1878C0F3001054
:40054000704700BF01510040024B1878C0F34010704700BF01510040024B187800F00100704700BF41510040014B1878C009704701510040024B1878C0F38010704700BFF1
:4005800001510040024B1878C0F34000704700BF41510040024B1878C0F38000704700BF41510040024B1878C0F3C000704700BF4151004010B50B4C237803F09F032370C2
:4005C000237803F0F00323702378184340F010002070012001F086F8237803F0EF03237010BD00BF2051004070B5354B1A7802F08002D2B21A7033490A7802F0F00242F074
:400600000F020A7001310A7802F0F0020A7001310A7802F0F0020A701A7802F0DF021A701A7842F040021A704FF4CA76002001F059F8234D2B7843F010032B70012001F0A1
:4006400051F8214B1C78E4B22B7803F0EF032B70002001F047F804F00804E4B22B7843F010032B70012001F03DF82B7803F0EF032B7014B90A2001F035F8013E0CB1002E65
:40068000D4D10F4A137803F0BF031370137803F08003DBB213700232137803F0F00313700132137803F0F00343F00F0313700132137803F0F00343F00F03137070BD00BF7C
:4006C00020510040225100402151004010B50446FFF78AFF2009FFF76DFF04F00F00FFF769FF10BD08B5282000F0E6FF0320FFF761FF052000F0E0FF0320FFF75BFF0F20B4
:4007000000F0DAFF0320FFF755FF012000F0D4FF0220FFF74FFF052000F0CEFF0620FFF7D5FF0E20FFF7D2FF2C20FFF7CFFF0820FFF7CCFF0120FFF7C9FF0C20FFF7C6FFB3
:400740000320FFF7C3FF052000F0B6FF08BD00BF08B50C20FFF7BAFF0122014B1A7008BD4481FF1F08B5054B5B7823B9FFF7BAFF0122024B5A70FFF7EBFF08BD4481FF1FEA
:4007800008B50220104900F0D9FF0220072100F0E9FF00220D4B1A7072220D4B1A702022013B1A7003200B4900F0C8FF0320072100F0D8FF0622084B1A70472210331A701A
:4007C0000222B03B1A7008BD490800004681FF1F8A640040DD0800002865004010B500F053FE04460D4A137843F020031370013A137843F010031370094A042313600949AC
:400800000B7843F010030B70082307490B60136000F014FE204600F03BFE10BD9A64004000E100E09864004080E200E008B5054B5B7823B9FFF7A4FF0122024B5A70FFF7BB
:40084000CDFF08BD4681FF1F1C4B1B78DBB213F01E0F05D01A4803F01E0201780A43027003F0200303F0FF022BB3164B1978C9B2154B1B78DBB21548C154154B1B7813F08C
:40088000FF0F02D00121134B19700F490B780133DBB20B700B78DBB23F2B02D900210A4B1970094B1B780C490978DBB28B4202D10121074B1970002AC6D170476964004078
:4008C0004681FF1F4A6400404981FF1F6481FF1F4A81FF1F4B81FF1F4881FF1F13E0104B1B78DBB23F2B02D900220D4B1A700C4A1378DBB20B49CB5CDBB20B490B701378F9
:400900000133DBB21370064B1B78DBB2074A1278934204D0064B1B7813F0040FDFD070474C81FF1FA481FF1F486400404D81FF1F6864004008B50020114900F0FFFE0020C8
:40094000072100F00FFF00220E4B1A7072220E4B1A702022033B1A7001200C4900F0EEFE0120072100F0FEFE0622094B1A70472210331A70022203F5A8731A7008BD00BFC3
:40098000D90B00004F81FF1F8B6500406D0C00002964004010B500F077FD04460D4A137843F020031370033A137843F010031370094A0123136009490B7843F010030B70B0
:4009C000022307490B60136000F046FD204600F05FFD10BD9B65004000E100E09965004080E200E008B5054B5B7823B9FFF7A2FF0122024B5A70FFF7CDFF08BD4F81FF1F6F
:400A00000122134B1A60134A9378DBB2D178C9B2127912F0FF0F01D18B4211D00E4AD05CC0B20133DBB23F2B00D90023094A9370137913F0FF0F06D00022064B1A7102E021
:400A4000064B1878C0B20122054B1A60704700BF80E100E04F81FF1FE481FF1F4B65004000E100E00122134B1A60134A9378D278DBB2934206D1104B1B7913F0FF0F14D093
:400A8000402013E00C4A9378D278DBB2934205D2094AD3789078181AC0B207E0064AD3789078181A4030C0B200E000200122034B1A60704780E100E04F81FF1F00E100E085
:400AC00008B500F0E1FC0B4B1A7842F001021A701A7802F0FE021A7000F0DAFC0121064B1960064B00229A70DA701A715A71044B196008BD9B65004080E100E04F81FF1FEC
:400B000000E100E0164BD9799B79DBB2994205D25A1E914214BF0022012204E0CA1A3F2A14BF00220122002AECD18B4207D10D4B1B7813F0040F02D10B4B187070473F29E5
:400B400000D90021094B58540131054BD971054B1B7813F0020F02D00222054B1A6070474F81FF1F69650040496500402482FF1F00E200E038B5074B5B782BB938BDFFF7F0
:400B8000C1FF0134A4B201E005460024285D0028F5D138BD4F81FF1F08B500F075FC0A4B1A7842F001021A701A7802F0FE021A7000F06EFC0223054A1360054A00219171BF
:400BC000D171044A136008BD9965004080E100E04F81FF1F00E100E01C4B1B78DBB213F01E0F05D01A4803F01E0201780A43027003F0200303F0FF022BB3164B1978C9B271
:400C0000154B1B78DBB21548C154154B1B7813F0FF0F02D00121134B19700F490B780133DBB20B700B78DBB23F2B02D900210A4B1970094B1B780C490978DBB28B4202D18E
:400C40000121074B1970002AC6D17047686500404F81FF1F4B6500405281FF1FE481FF1F5381FF1F5481FF1F5181FF1F13E0104B1B78DBB23F2B02D900220D4B1A700C4ABE
:400C80001378DBB20B49CB5CDBB20B490B7013780133DBB21370064B1B78DBB2074A1278934204D0064B1B7813F0040FDFD070475581FF1F2482FF1F496500405681FF1F86
:400CC00069650040002306E0421812F8012C13449BB2013989B20029F6D1584280B27047004700BF08B58022024B1A7000F0DCFC08BD00BFFA4600402DE9F04182B00C46ED
:400D0000164602AF27F8022D01230B7048701546A270130ACB7002F1040808461FFA88F1FFF7D0FF04F80800731DC0F30720E054063517236355F11D204689B23A469623E1
:400D400000F044FE02B0BDE8F08100BF70B505460E461446084B984203D010B1002000F0A1FC002004E0013CAB191B5D1844C0B2002CF8D170BD00BF0080004008B501384C
:400D80000B2867D8DFE800F0060E161E262E3E36464E565E4942090201F57F3101F5707101225CE04942090201F57F3101F2C131042254E04942090201F57F3101F2C531A0
:400DC00002224CE04942090201F57F3101F2C931042244E04942090201F57F3101F5747101223CE04942090201F57F3101F2D131012234E04942090201F57F3101F2D6313C
:400E000002222CE04942090201F57F3101F2D231022224E04942090201F57F3101F5757102221CE04942090201F57F3101F57671042214E04942090201F57F3101F57771A3
:400E400001220CE04942090201F57F3101F57871042204E0002000F025FC02220021012A02D10878C0B200E00020022A03D10B78487843EA0020042A09D10B78487843EAD0
:400E80000023887843EA0043C87843EA006008BD08B50A4B1B7803F0C003802B0CD10021064B19700220FFF769FF28B102200021FFF764FFFFF714FF08BD00BFFA4600402D
:400EC000F8B5064603203146FFF758FF0130070204203146FFF752FF074403203146FFF74DFF013000020024254608E003785A1ED2B2FD2A00D801252344DCB20130B84269
:400F0000F4D303203146FFF739FF01300002C0080F4B9F4201D0FF0808E04FF4004705E000F190431B782344DCB20130B842F7D36442E4B201203146FFF720FF844202D1FA
:400F40001DB90620F8BD0620F8BD0020F8BD00BFC0FF03002DE9F04FADF51F7D054600F0F1FA10B1002000F09DFB00F027FD62B64FF0000A57460A24D0460DB9FF2300E04F
:400F80002B4652A84FF496710DF2762200F030FD0DB1013CE4B20CB10028EED1002840F00E82BDF87632062B26D99DF84821012A24D19DF84B819DF84A2142EA08284146BC
:400FC00008F107029A421BD8B2F5967F1AD84A1D52AB9E5C0A1D9A5C42EA062606315B5C172B11D108F1040152A889B2FFF76AFEB0420BD100260AE0042608E0042606E0FC
:40100000032604E0032602E0042600E00826002E40F081819DF84C919DF84921A2F131030A2B00F25081DFE813F00B001C004E014400B0004E01B600CB004400DD00420168
:40104000002F00F06A81B8F1000F40F069810020FFF736FFB0FA80F040098DF84C010122A6E1002F00F05F81B8F1010F40F05E81B9F1030F00F25D81C14B1B681B68C3F34F
:401080000742914502D1C3F3072305E0914501D9002301E04FF480738DF84C311B0A8DF84D31FF238DF84E3100238DF84F3104227EE1342A15D1002F00F03E81B8F1030FB5
:4010C00040F03D81A9F14003DBB23F2B02D84FF0100A01E04FF4907A07A80021524600F00CFD002F00F02E81B8F1020F40F22D8107AB03EB0A000DF24F11A8F1030200F06D
:40110000F1FCC244AAF1030A1FFA8AFAA9F14003DBB23F2B05D800F09BFA40234FF0100803E04FF480734FF49078C24540F010819DF84EA19DF84D2142EA0A2A9A4500D3C2
:401140000A26002E40F00981B9F13F0F0FD80AEB092292B28A4B1B681968C1F30F2311F0FF0F01D001339BB29A42C0F0F8804846514607AA434600F0EFF900B10A2600F0E8
:40118000BBFA4FF0000A524612E1002F40F01581042600220CE1002F00F0E6800AEB0803B3F5967F00F2E38007AB03EB0A0053A9424600F097FCC2441FFA8AFA0022F7E094
:4011C000B8F1000F40F0D68004AB6E4A92E8030083E8030053AA82E803004FF0000A01270822E5E0002F00F0C880B8F1030F40F0D1809DF84EB19DF84D3143EA0B2BA9F14E
:401200004003DBB23F2B10D84FEA0B11BBF13F0F01D8334600E00A23002B40F0BE805A481022FFF793FD019011E00BEB09210902BBF1FF0F01D8334600E00A23002B40F0CA
:40124000AF8000204FF48072FFF780FD0190B9F13F0F0FD809F510320BEB02225201002306E0995C01980144C9B2019101339BB21F2BF6D9B9F1030F13D1BBF1FF0F10D19C
:4012800005200021FFF77AFD019B181A00F0FF0906200021FFF772FDC0EB090000F0FF030193019B5B428DF84C31012280E00020FFF706FE10B98022344B1A7000F0F4F9A6
:4012C0000426002274E0324B1B68002B6BD0002F6CD08DF80820ADF80A8053AA0392002104910591069202A804A99847BDF81420B2F5937F03D3069953AB994205D0069B8F
:4013000003B92AB99DF8106052E00E2600224FE00E2600224CE000224AE00426002247E00426002244E00426002241E0042600223EE0042600223BE00426002238E00426D5
:40134000002235E00426002232E0042600222FE04FF0000A032652462AE0002228E04FF0000A0A26524623E00426002220E0032600221DE0042600221AE00426002217E00E
:401380000C81FF1F0C22000000800040FA4600405881FF1F042600220AE01E46002207E01E46002204E00526002201E005260022304652A9FFF7A0FC01E04FF0000A002D3B
:4013C0003FF4DBAD002F7FF4D8AD0DF51F7DBDE8F08F00BF38B50020FFF772FD08B1062400E00024134D2B68002001461A68FFF7ADFC6B681B78C01AC0B24042C0B283424B
:4014000002D12B681B6813B9002000F04BF90A4B1B7803F0C003402B00D024B10020064B1870FFF797FD1420FFF794FDFFF75AFC38BD00BF0C81FF1FFA460040054A1378B2
:4014400043F0010313701032137843F001031370704700BFA2430040054A137843F0020313701032137843F002031370704700BFA2430040000000000230800803D000BF8C
:4014800001380046FCD17047EFF3108072B6704780F31088704700BF10B500F07BF900F029FAD0B900F068FA0446072812D102E0012000F017F90A4B1B7813F0020FF7D01E
:4014C000074B1B7813F0020F04D0054B1B789B0800D1002400F034FA00E00424204610BD2247004010B500F055F900F003FA10BB012000F0E1F9072818D11048022100F079
:401500005BF902280AD102E0012000F0EBF80C4B1B7813F0020FF7D0002409E0084B1B7813F0020FE9D04FF0FF3401E04FF0FF3400F006FA00E00424204610BD6482FF1F03
:401540002247004008B5FFF7A7FF034610B9FFF7C9FF0346184608BD2DE9F041441FE4B23A2C01D9002500E0012510F0800F00D00125412800D901253F2803D8B1F5807FAE
:4015800006D808E0802900D90125102B02D102E0012500E0012502B90125002D50D1984616460F46044600F0A5F9002847D1204639463246434600F019F9064607283AD15D
:4015C00002E0012000F08EF81F4B1B7813F0020FF7D01D4B1B7813F0020F06D01A4B1B789B0805D04FF0FF3603E04FF0FF3600E02E4606BB154B204639461A785B7800F0CB
:4016000035F9072804D0064615E0012000F06AF80D4B1B7813F0020FF7D00B4B1B7813F0020F06D0084B1B789B0804D04FF0FF3601E04FF0FF3600F083F9354600E0042516
:401640002846BDE8F08100BF224700406482FF1F08B5FFF719FF0F4A137843F0080313701032137843F008031370C8220A4B1A700A4A137843F0100313701032137843F00B
:4016800010031370064B1B7813F0200FFAD0FFF7FFFE08BDA043004001470040AC4300400047004001BE7047024A137843F0010313707047F646004010B5044605E0084B1A
:4016C0001868FFF7D9FEA4F50044B4F5004FF6D8034B586800FB04F0FFF7CEFE10BD00BF1481FF1F08B5034B1B7A03FB00F0FFF7C3FE08BD1481FF1F08B5FFF7C5FE00BF0A
:4017000000BF00BF00BF00BF00BF00BF00BF00BF00BF00BF00BF00BF00BF00BF00BF064A13889BB243F0040313801388BFF36F8FFFF7AEFE08BD00BF0048004070B504460B
:401740000E46074B1D681F2802D90020FFF7AAFF04F01F04103455F8240045F8246070BD08ED00E038B504460D46072902D90020FFF798FF1F2C02D90020FFF793FF04F0CA
:401780001F0000F1604000F564406D01EDB2057038BD00BF08B5FFF777FE064A137843F0080313701032137843F008031370FFF76FFE08BDA043004070B506460D46002425
:4017C0000CE00120FFF78EFF064B1B7813F0010FF7D0054B1B7833550134E4B2AC42F3D3204670BD224700402047004070B41D4C247814F0020F2CD01B4CB6252570D525C3
:401800002570022525700234247814F0020F22D1154C2070002404E0165D134D2E700134A4B29C42F8D3B3F5807F16D13F2816D800F5103001EB00214801002305E01A5CF3
:40184000D2B209490A7001339BB21F2BF7D9072006E0042004E0092002E0072000E0072070BC7047224700402047004030B4104C247814F0020F15D00E4CB6252570D8255F
:401880002570052525700234247814F0020F0BD1084C2070080A2070C9B2217022702370072002E0042000E0092030BC704700BF22470040204700400C4B1B7813F0020F74
:4018C0000FD00B4BB6221A70E1221A700E221A7002331B7813F0020F05D1054B187007207047042070470920704700BF224700402047004010B5FFF7C7FD0F4B1B78A3B910
:4019000001220D4B1A700D4B1B6813F0010F0ED00A4A136823F00103136000BF00BF00BF0122054B5A60002402E0042400E00024FFF7AEFD204610BD5C81FF1F04000840C6
:4019400008B5FFF7A1FD0A4B00221A705B68012B0AD1084A136843F00103136000BF00BF00BF0022024B5A60FFF792FD08BD00BF5C81FF1F04000840074B1B7813F0020F25
:4019800008D0064BB6221A70E0221A700D221A7007207047042070472247004020470040014B1A781870704730510040024B187800F00100704700BF0151004008B5FFF7E7
:4019C00011F8FFF77DF8FFF7E7F808BDF8B506460D461746FFF774F8002404E0305DFFF791F80134A4B2AC42F8D33D800020F8BD2DE9F0470746894690461D46002414E02A
:401A0000FFF730F860B1FFF72DF804461920FFF753FEFFF727F88442F5D34FF0000A0BE00120FFF749FE0134A4B205EB85035B009C42E5DB4FF0050A0025A8F8005023E0FB
:401A4000FFF710F886B2B8F8003033449BB2A8F800304B4508D313E0FEF7D2FF78550135ADB20134A4B200E00024B442F4D37B1913F8013C172B07D00520FFF71DFE03E0DC
:401A80009B1BA8F8003003E0FEF7ECFF0028D7D15046BDE8F08700BF0E4B70B51E460E4C0025E41AA410A54204D056F8253098470135F8E700F0AEFB084B094C1E46E41A94
:401AC000A4100025A54204D056F8253098470135F8E770BD2022000020220000202200002822000010B5431E0A44914204D011F8014B03F8014FF8E710BD034602449342B3
:401B000002D003F8011BFAE77047000000230000330000000000000043534520343934303A20576972656C65737320436865737320426F6172640A0A000000006C696D697D
:401B400074207374617274006C696D697420312072656164000000006C696D69742032207265616400000000200000000A000000636865636B696E67200A0D000A0D000096
:401B8000F0510040100000000140000A800A01408005001401408006001B0140000100400140000A004C01400002005001402000000A01400C2100008000801A01408C2176
:401BC00000008000085200400364004003650040020701406608014049090140180A01403C0B0140021701406818014047190140171A01403F1B0140054001400441014030
:401C000004420140074301400347014006480140064C01400B4D0140085001400151014004FF08400940240F2801290134C06407880F89388A728838890F8B72E202E640F4
:401C400000100240041006AC0A030C090D180ED00F24140C1552167117241814191F1B601F4024DC2622291F2B202E202F2D310432E03378341F370339803A083B083F41AB
:401C800040254103450B460C470E481549FF4AFF4BFF4EF04F44500C54015604580459045A045B045F0166C06A406B028450850288028A0C8B018C308E448F0190249240B2
:401CC000944096309A019C40A201A870AA08B001B27CB301B402B502BB02BE11BF14C003C540C9FFCA07CBFFCC40CD20CEF0CF05D008D418D604D804D904DA04DB04DC0160
:401D0000DD01DF01E040E1A8E240E3200050022005500640071009200AA00B020E200F08111012801540170418101A081B011D101E201F042004210627912DC02E202F0644
:401D400035403604371439A03A043F8043084620471049024B024D804F0850085480560457405A025C045F9160086202630266017808790886068E0191A09202A120A280AA
:401D8000A502AA40C0F7C26FC4AACA30CC70CE1ED062D210D6F1D88DE408E640EA048301850289028C018E0E910298229A519C449E31A467A867B102B218B460B501B60716
:401DC000BE04D608D804D904DB04DD90DF0100440102030405400601081009020A200B010C100E080F0110A812011728180419171A201D481E081F20216022052440274458
:401E00002951300231063360370238283A423E143F014040412848024A08511052805A085E40664067016A146B2A70BC72028D018E08C08FC2CFC46FCA0DCC8FCEEFD0070F
:401E4000D20CD612D810E204E60802400430060D0A800E301405163819011E802220264028052A182C022E0C308031013240343C360338803A203E053F014004460449FF89
:401E80004A074BFF4C404D204EF04F05500854185604580459045A045B045D105F01604061A862406320820284B88645885689138AA18B0C8D138F0492469520970599030E
:401EC0009B049CB89E439F08A140A680A90AAAA9AB14B080B218B340B463B50FB607B730B808B980BAA0BB20BE05BF04C026C104C50CC6BEC80DC9FFCAFFCBFFCEF0CF447A
:401F0000D00CD401D604D804D904DA04DB04DC11DD11DF01E6C0EA40EB02000801320426054008800A820E200F0210381651171019201A421B081C041D401E081F052008AE
:401F400021102254250129212B803028324035103840392040C04110470148285220538056415702581059015A485E0263806602670A834086029440951096A099129B11B0
:401F80009D409E40A008A210A624A70AAA04AB01B080B310C0FEC2A9C4F6CA05CC2ECE0CD085D204D68FD8B1040106260C0A0E511C141E491F01249F289F2C803018310198
:401FC0003207346036803E105608580459045B045C115D905F0100400108022003100542072809800C800D280E40102A154217141840190A1B501C011D281E401F28210189
:402000002422250426112C802D402F283180354236203C013E68452447404D404FA0561057015A805E2061C06C2A7480762877288001834C8E4094229E10A601A701B50138
:40204000C0F5C2F1C4F7CAF0CCB8CEF0D070D230D628D8083202338035803708CCF09D809F08A602A7809D809F08A602A78086028F089D809F08A602A780E24086029E204A
:40208000AA20818087809D80A780E220E6100D8066029A029E20C201D80106205C108D8090109E20A180B410C004D604E208E808000301010C030D01100311011C031D0149
:4020C00000FF0000FF000000000000000708080000000000400080404000400000000000007F7F000000000000FFFF00000000000F00000000000000010002050500010032
:4021000000000000C0FF3F0000000000F3200C004C30A300001040000002B300FF7F00004F70900F010100004200000B084F0030040000000C780007030300000F038C4039
:402140007C38000400802A0000000004640502000300EC000CFFFFFF62A0F0410C00000000000212040404040000000100000000000040020010301000101012000000006E
:40218000000000000000000000000000017800070C100000043000004270000F4F019000FF000000F3030C0008020000002040004C4FA330037F00000000B30B8C030038CE
:4021C0000F407C040080AA0000000010250103000600E0C028FFFFFF62A0F0410C000000000002110404040411110001000000000000400200103010001010120000000099
:4022000000000000000000000000000069F0152E00280101F8B500BFF8BC08BC9E46704751000000ED010000F8B500BFF8BC08BC9E4670472D000000482200000881FF1F5D
:402240002000000040010000000000000C1B0000101B00000000C05D80BB000030000000006CDC0200000000000000000000000000000000000000000000000000000000D9
:40228000000000000000000000000000000000000000000000000000000000000000000000000000000000000000000000000000000000000000000000000000000000001E
:4022C00000000000000000000000000000000000000000000000000000000000000000000000000000000000000000000000000000000000000000000000000000000000DE
:402300000080002011230000892400008924000008B500F0BBF800BF10B5054C237833B9044B13B10448AFF300800123237010BD2081FF1F00000000603F0000084B10B538
:402340001BB108480849AFF300800848036803B910BD074B002BFBD0BDE81040184700BF00000000603F00002481FF1F0881FF1F0000000008B562B601F070FA00F0A6FC64
:40238000034800F06BFD00F0C5FB00F05FFB08BD643F000008B5FFF7EDFF00F005F84FF4FA6001F0B3FBF8E7F0B59BB0344800F055FD012700265DE0384601F01BFD354636
:4023C00001F01EFD74003444A4001AAB1C4404F8600C00F00DFA04F85F0C00F011FA04F85E0C00F015FA04F85D0C00F019FA04F85C0C00F01DFA04F85B0C00F02FFA04F8AB
:402400005A0C00F025FA04F8590C00F019FA04F8580C00F02BFA04F8570C00F02FFA04F8560C00F033FA04F8550C002416E020228DF8042005EB45039B001AA90B442344AD
:4024400013F8603C30338DF805308DF806208DF8072001A800F002FD0134E4B20B2CE6D9084800F0FBFC384600F0F8FC7F00FFB20136F6B2072E9FD902A81BB0F0BD00BFB2
:40248000BC3F0000C83F0000FEE700BF08B5104E104D16E029686B68AC68002204E051F8040B43F8040B0432A242F8D1E868002203E0002143F8041B04328242F9D110352C
:4024C000013E002EE6D101F011FDFFF763FFFEE7010000003C40000008B5124A124B1A60124A136843F40073136000230AE0032B03D80F4A52F8231000E00E490E4A42F866
:40250000231001332F2BF2D90C4B1A780C4B1A70094A0C4B1A6000F0B9F800220A4B1A6008BD00BF0004FA050CED00E014ED00E000230000892400000080FF1FBC7600406E
:402540000481FF1F08ED00E00081FF1FFEE700BFF0B40022174611E050F82760F3B226F0FF0608E001EB420511F812406D78A5550132013BDBB2002BF4D10137162FEBD97B
:40258000F0BC7047064B1B78DBB203F00701054A11701B09013213704422034B1A707047CF0100496E5800407658004008B50A46002101F0CCFC08BD38B53322264B1A8087
:4025C000182326490B7002310A80254A13700222244B1A7008224FF040231A70032203F500731A70204B1B78DBB2204A137010221F4B1A8041F25122023B1A8000241925ED
:402600000CE01C4B1B7803F0010343EA440404F003044FF4F07001F04FF9013D0DB1032CEFD115B90320FFF791FF134B4FF480721A8007221A70002210490A70482002319F
:4026400008701A700222033B1A700D4A137843F00303137038BD00BF8040004082400040864000400043004008010049A146004022420040254200400440004006400040C1
:40268000A243004008B501F057FC08BD38B572B6464A137843F00403137000240CE0444963001A1952000A4423445B00C8589188FFF77CFF0134E4B2072CF0D900240FE029
:4026C0003B49A3001A1952000A4452F8300F23445B000B4451681A8FFFF7D4FF0134E4B2012CEDD9334C204604F15C01FFF730FF314A137843F0020313701032137843F040
:40270000020313702D4D2B7843F040032B70A2F58632513A137843F010031370284804F5C0610822FFF7AEFF264804F5C1610822FFF7A8FF244804F5C2610A22FFF7A2FFC3
:40274000224804F21C610822FFF79CFF204804F224610822FFF796FF1E4804F22C610822FFF790FF1C4804F234610A22FFF78AFF1A4804F5C8610822FFF784FF184A1378E3
:4027800043F008031370174C61232370FFF714FFC12323700122144B1A70FFF7F3FE134829460E22FFF76EFF38BD00BFE8460040CC3F00006004004803500140A04300407E
:4027C00002510040C2510040105100402251004032510040425100405051004062510040224300400048004004000840B0430040024B1878C0F34000704700BF01510040B1
:40280000024B1878C0F38000704700BF01510040024B1878C0F3C000704700BF01510040024B1878C0F30010704700BF01510040024B1878C0F34010704700BF0151004098
:40284000024B187800F00100704700BF41510040014B1878C009704701510040024B1878C0F38010704700BF01510040024B1878C0F34000704700BF41510040024B187837
:40288000C0F38000704700BF41510040024B1878C0F3C000704700BF4151004010B50B4C237803F09F032370237803F0F00323702378184340F010002070012001F03CF905
:4028C000237803F0EF03237010BD00BF2051004070B5354B1A7802F08002D2B21A7033490A7802F0F00242F00F020A7001310A7802F0F0020A7001310A7802F0F0020A700C
:402900001A7802F0DF021A701A7842F040021A704FF4CA76002001F00FF9234D2B7843F010032B70012001F007F9214B1C78E4B22B7803F0EF032B70002001F0FDF804F0C3
:402940000804E4B22B7843F010032B70012001F0F3F82B7803F0EF032B7014B90A2001F0EBF8013E0CB1002ED4D10F4A137803F0BF031370137803F08003DBB21370023216
:40298000137803F0F00313700132137803F0F00343F00F0313700132137803F0F00343F00F03137070BD00BF20510040225100402151004010B50446FFF78AFF2009FFF79C
:4029C0006DFF04F00F00FFF769FF10BD08B5282001F09CF80320FFF761FF052001F096F80320FFF75BFF0F2001F090F80320FFF755FF012001F08AF80220FFF74FFF0520EF
:402A000001F084F80620FFF7D5FF0E20FFF7D2FF2C20FFF7CFFF0820FFF7CCFF0120FFF7C9FF0C20FFF7C6FF0320FFF7C3FF052001F06CF808BD00BF08B50C20FFF7BAFF14
:402A40000122014B1A7008BD3C81FF1F08B5054B5B7823B9FFF7BAFF0122024B5A70FFF7EBFF08BD3C81FF1F08B50220104901F08FF80220072101F09FF800220D4B1A7012
:402A800072220D4B1A702022013B1A7003200B4901F07EF80320072101F08EF80622084B1A70472210331A700222B03B1A7008BD312B00003E81FF1F8A640040C52B000008
:402AC0002865004010B500F0FFFE04460D4A137843F020031370013A137843F010031370094A0423136009490B7843F010030B70082307490B60136000F0C2FE204600F0E1
:402B0000E7FE10BD9A64004000E100E09864004080E200E008B5054B5B7823B9FFF7A4FF0122024B5A70FFF7CDFF08BD3E81FF1F1C4B1B78DBB213F01E0F05D01A4803F092
:402B40001E0201780A43027003F0200303F0FF022BB3164B1978C9B2154B1B78DBB21548C154154B1B7813F0FF0F02D00121134B19700F490B780133DBB20B700B78DBB2B0
:402B80003F2B02D900210A4B1970094B1B780C490978DBB28B4202D10121074B1970002AC6D17047696400403E81FF1F4A6400404181FF1F6481FF1F4281FF1F4381FF1FF4
:402BC0004081FF1F13E0104B1B78DBB23F2B02D900220D4B1A700C4A1378DBB20B49CB5CDBB20B490B7013780133DBB21370064B1B78DBB2074A1278934204D0064B1B7852
:402C000013F0040FDFD070474481FF1FA481FF1F486400404581FF1F6864004008B50020114900F0B5FF0020072100F0C5FF00220E4B1A7072220E4B1A702022033B1A70B9
:402C400001200C4900F0A4FF0120072100F0B4FF0622094B1A70472210331A70022203F5A8731A7008BD00BFC12E00004781FF1F8B650040552F00002964004010B500F0D3
:402C800023FE04460D4A137843F020031370033A137843F010031370094A0123136009490B7843F010030B70022307490B60136000F0F4FD204600F00BFE10BD9B6500403D
:402CC00000E100E09965004080E200E008B5054B5B7823B9FFF7A2FF0122024B5A70FFF7CDFF08BD4781FF1F0122134B1A60134A9378DBB2D178C9B2127912F0FF0F01D178
:402D00008B4211D00E4AD05CC0B20133DBB23F2B00D90023094A9370137913F0FF0F06D00022064B1A7102E0064B1878C0B20122054B1A60704700BF80E100E04781FF1F42
:402D4000E481FF1F4B65004000E100E00122134B1A60134A9378D278DBB2934206D1104B1B7913F0FF0F14D0402013E00C4A9378D278DBB2934205D2094AD3789078181A46
:402D8000C0B207E0064AD3789078181A4030C0B200E000200122034B1A60704780E100E04781FF1F00E100E008B500F08DFD0B4B1A7842F001021A701A7802F0FE021A708D
:402DC00000F086FD0121064B1960064B00229A70DA701A715A71044B196008BD9B65004080E100E04781FF1F00E100E0164BD9799B79DBB2994205D25A1E914214BF00225C
:402E0000012204E0CA1A3F2A14BF00220122002AECD18B4207D10D4B1B7813F0040F02D10B4B187070473F2900D90021094B58540131054BD971054B1B7813F0020F02D03A
:402E40000222054B1A6070474781FF1F69650040496500402482FF1F00E200E038B5074B5B782BB938BDFFF7C1FF0134A4B201E005460024285D0028F5D138BD4781FF1F7B
:402E800008B500F021FD0A4B1A7842F001021A701A7802F0FE021A7000F01AFD0223054A1360054A00219171D171044A136008BD9965004080E100E04781FF1F00E100E045
:402EC0001C4B1B78DBB213F01E0F05D01A4803F01E0201780A43027003F0200303F0FF022BB3164B1978C9B2154B1B78DBB21548C154154B1B7813F0FF0F02D00121134BFC
:402F000019700F490B780133DBB20B700B78DBB23F2B02D900210A4B1970094B1B780C490978DBB28B4202D10121074B1970002AC6D17047686500404781FF1F4B6500405B
:402F40004A81FF1FE481FF1F4B81FF1F4C81FF1F4981FF1F13E0104B1B78DBB23F2B02D900220D4B1A700C4A1378DBB20B49CB5CDBB20B490B7013780133DBB21370064B0C
:402F80001B78DBB2074A1278934204D0064B1B7813F0040FDFD070474D81FF1F2482FF1F496500404E81FF1F69650040002306E0421812F8012C13449BB2013989B2002998
:402FC000F6D1584280B270472DE9F04182B00C46164602AF27F8022D01230B7048701546A270130ACB7002F1040808461FFA88F1FFF7DCFF04F80800731DC0F30720E054F3
:40300000063517236355F11D204689B23A46962300F006FF02B0BDE8F08100BF70B505460E461446084B984203D010B1002000F063FD002004E0013CAB191B5D1844C0B265
:40304000002CF8D170BD00BF0080004070B5C0B00E46C0F30745C0F3072120F0FF04002304E01A5D0DF8032001339BB2FF2BF8D9C3B20DF8036028466A4600F009FD00F0D6
:4030800065FD40B070BD00BF012814D838B50DE02002C0F57F3000F57470AC4214BF00210121FFF7D3FF0134E4B201E005460024012CEDD938BD704708B501380B2867D896
:4030C000DFE800F0060E161E262E3E36464E565E4942090201F57F3101F5707101225CE04942090201F57F3101F2C131042254E04942090201F57F3101F2C53102224CE05F
:403100004942090201F57F3101F2C931042244E04942090201F57F3101F5747101223CE04942090201F57F3101F2D131012234E04942090201F57F3101F2D63102222CE0F8
:403140004942090201F57F3101F2D231022224E04942090201F57F3101F5757102221CE04942090201F57F3101F57671042214E04942090201F57F3101F5777101220CE061
:403180004942090201F57F3101F57871042204E0002000F0B1FC02220021012A02D10878C0B200E00020022A03D10B78487843EA0020042A09D10B78487843EA00238878CD
:4031C00043EA0043C87843EA006008BDF8B5064603203146FFF770FF0130070204203146FFF76AFF074403203146FFF765FF013000020024254608E003785A1ED2B2FD2A1A
:4032000000D801252344DCB20130B842F4D303203146FFF751FF01300002C0080F4B9F4201D0FF0808E04FF4004705E000F190431B782344DCB20130B842F7D36442E4B2E7
:4032400001203146FFF738FF844202D11DB90620F8BD0620F8BD0020F8BD00BFC0FF0300012823D8F8B51F4615460E46044603202146FFF721FF80B2421C92B2C0F57F70C7
:40328000013080B2C4F10203DBB290FBF3F31344013B9BB2954201D39D4209D9032E09D1C4F1FF00874207D00020F8BD0D2070470D20F8BD0020F8BD0D20F8BD2DE9F04FA1
:4032C000ADF51D7D054602200121FFF7F5FE804600F058FB10B1002000F00EFC00F098FD62B60A2400270DB9FF2300E02B4650A84FF496710DF26E2200F0A4FD0DB1013CAE
:40330000E4B20CB10028EED1002840F09482BDF86E32062B24D99DF84021012A22D19DF843719DF8422142EA07273946FA1D9A421AD8B2F5967F19D87A1D50AB9E5C3A1DBF
:403340009A5C42EA062606315B5C172B10D1391D50A889B2FFF72AFEB0420BD100260AE0042608E0042606E0032604E0032602E0042600E00826002E40F00E829DF844919F
:403380009DF84121A2F131030A2B00F2DB81DFE813F00B001E0047005C00F8000101170132015C004801BC01BE4B5B79012B40F0F581002F40F0F581BB4B5878FFF706FF3A
:4033C000B0FA80F040098DF8440101222FE2B54B5B79012B40F0E881012F40F0E881B9F1030F00F2E78103200021FFF765FE80B2020A914501D1C3B205E0914501D9002344
:4034000001E04FF480738DF844311B0A8DF84531FF238DF8463100238DF84731042206E2A04B5B79012B40F0C881012F40F0C8814846FFF7CBFE8DF8440105204946FFF741
:403440003BFE8DF845010222F1E1342A1AD1954B5B79012B40F0B781032F40F0B781A9F14003DBB23F2B03D810228E4BDA8003E04FF490728B4BDA8005A80021894BDA88B7
:4034800000F065FD874B5B79012B40F0A281022F40F2A281DFF80CB2BBF806A005AB03EB0A000DF24711FA1E00F046FD07EB0A03033BABF80630A9F14003DBB23F2B04D811
:4034C00000F0F0FA4022102703E04FF480724FF49077744BDB88BB424ED19DF846119DF8453143EA01236F49CB809A4200D80A26002E40F07481B9F13F0F31D803EB09231C
:403500001FFA83FA684B1B782BB903200121FFF7D3FD80B204E003200021FFF7CDFD80B2431C9BB29A4504D200225E4BDA800A267DE1B8F1000F13D05B4B5B78DBB2012B93
:403540000ED8594B587849465246564BDB88FFF787FE0D2804D10022524BDA80064666E14846504BD98805AA3B4600F015FA00B10A2600F0EBFA00E003260022494BDA800D
:4035800055E1484B5B79012B40F02B810022454BDA8050E1434B5B79012B40F02581012F40F025814846FFF711FE002840F022814846FFF769FD3C4B83F80190002236E17B
:4035C000384B5B79012B40F01881364BB3F8069009EB0703B3F5967F00F2128105AB03EB090051A93A4600F0A7FCB9442D4BA3F8069000221BE1002F40F0058102AB2B4AFE
:4036000092E8030083E80300264A0121117251710021D18051AA93E8030082E80300082205E1204B5B79012B40F0F080032F40F0F0809DF846B19DF8453143EA0B2BA9F1EF
:403640004003DBB23F2B10D84FEA0B11BBF13F0F01D8334600E00A23002B40F0DD8014481022FFF7DBFC824611E00BEB09210902BBF1FF0F01D8334600E00A23002B40F00F
:40368000CE8000204FF48072FFF7C8FC8246B9F13F0F17D809F510320BEB0222520100230EE000BF5081FF1F0C81FF1F1040000000800040995C8A445FFA8AFA01339BB2B6
:4036C0001F2BF7D9B9F1030F19D1ABF1FE039BB2012B14D8BBF1FF0B18BF4FF0010B05205946FFF7E9FCC0EB0A0000F0FF0906205946FFF7E1FCC0EB090000F0FF0ACAF1E4
:40370000000A8DF844A1012291E00B200121FFF7D3FC10F0010F03D040224D4B1A7007E04C4B5878FFF752FD10B98022484B1A704FF00009484B83F8089000F0DFF904260D
:403740004A4674E0444B1B68002B6BD04249497901296AD18DF80020ADF8027051AA01920021029103910492684602A99847BDF80C20B2F5937F03D3049951AB994205D022
:40378000049B03B92AB99DF8086050E00E2600224DE00E2600224AE0002248E00426002245E00426002242E0042600223FE0042600223CE00426002239E00426002236E0D8
:4037C0000426002233E00426002230E0042600222DE0042600222AE00426002227E0002225E00426002222E0042600221FE0042600221CE00C26002219E00426002216E075
:403800000326002213E00426002210E0042600220DE0042600220AE01E46002207E01E46002204E00526002201E005260022304650A9FFF7C9FB002D3FF455AD064B5B799D
:40384000012B3FF450AD0DF51D7DBDE8F08F00BFFA4600400C81FF1F5081FF1F08B5074B1B7803F0C003402B04D10020034B1870FFF724FD1420FFF721FD08BDFA46004021
:40388000054A137843F0010313701032137843F001031370704700BFA2430040054A137843F0020313701032137843F002031370704700BFA24300400230800803D000BF4E
:4038C00001380046FCD17047EFF3108072B6704780F31088704700BF10B500F085F900F033FAD0B900F072FA0446072812D102E0012000F021F90A4B1B7813F0020FF7D092
:40390000074B1B7813F0020F04D0054B1B789B0800D1002400F03EFA00E00424204610BD2247004010B500F05FF900F00DFA10BB012000F0EBF9072818D11048022100F0EC
:4039400065F902280AD102E0012000F0F5F80C4B1B7813F0020FF7D0002409E0084B1B7813F0020FE9D04FF0FF3401E04FF0FF3400F010FA00E00424204610BD6482FF1F81
:403980002247004008B5FFF7A7FF034610B9FFF7C9FF0346184608BD2DE9F041441FE4B23A2C01D9002500E0012510F0800F00D00125412800D901253F2803D8B1F5807F4A
:4039C00006D808E0802900D90125102B02D102E0012500E0012502B90125002D50D1984616460F46044600F0AFF9002847D1204639463246434600F023F9064607283AD1E5
:403A000002E0012000F098F81F4B1B7813F0020FF7D01D4B1B7813F0020F06D01A4B1B789B0805D04FF0FF3603E04FF0FF3600E02E4606BB154B204639461A785B7800F05C
:403A40003FF9072804D0064615E0012000F074F80D4B1B7813F0020FF7D00B4B1B7813F0020F06D0084B1B789B0804D04FF0FF3601E04FF0FF3600F08DF9354600E0042594
:403A80002846BDE8F08100BF224700406482FF1F08B53F2801D9102301E04FF48073FFF77BFF08BD08B5FFF70FFF0F4A137843F0080313701032137843F008031370C822BB
:403AC0000A4B1A700A4A137843F0100313701032137843F010031370064B1B7813F0200FFAD0FFF7F5FE08BDA043004001470040AC4300400047004001BE7047024A13786D
:403B000043F0010313707047F646004010B5044605E0084B1868FFF7CFFEA4F50044B4F5004FF6D8034B586800FB04F0FFF7C4FE10BD00BF1081FF1F08B5034B1B7A03FBDD
:403B400000F0FFF7B9FE08BD1081FF1F08B5FFF7BBFE00BF00BF00BF00BF00BF00BF00BF00BF00BF00BF00BF00BF00BF00BF00BF00BF064A13889BB243F004031380138838
:403B8000BFF36F8FFFF7A4FE08BD00BF0048004070B504460E46074B1D681F2802D90020FFF7AAFF04F01F04103455F8240045F8246070BD08ED00E038B504460D460729ED
:403BC00002D90020FFF798FF1F2C02D90020FFF793FF04F01F0000F1604000F564406D01EDB2057038BD00BF08B5FFF76DFE064A137843F0080313701032137843F0080337
:403C00001370FFF765FE08BDA043004070B506460D4600240CE00120FFF78EFF064B1B7813F0010FF7D0054B1B7833550134E4B2AC42F3D3204670BD2247004020470040BD
:403C400070B41D4C247814F0020F2CD01B4CB6252570D5252570022525700234247814F0020F22D1154C2070002404E0165D134D2E700134A4B29C42F8D3B3F5807F16D1E2
:403C80003F2816D800F5103001EB00214801002305E01A5CD2B209490A7001339BB21F2BF7D9072006E0042004E0092002E0072000E0072070BC704722470040204700403A
:403CC00030B4104C247814F0020F15D00E4CB6252570D8252570052525700234247814F0020F0BD1084C2070080A2070C9B2217022702370072002E0042000E0092030BC37
:403D0000704700BF22470040204700400C4B1B7813F0020F0FD00B4BB6221A70E1221A700E221A7002331B7813F0020F05D1054B187007207047042070470920704700BFFF
:403D4000224700402047004010B5FFF7BDFD0F4B1B78A3B901220D4B1A700D4B1B6813F0010F0ED00A4A136823F00103136000BF00BF00BF0122054B5A60002402E0042473
:403D800000E00024FFF7A4FD204610BD5C81FF1F0400084008B5FFF797FD0A4B00221A705B68012B0AD1084A136843F00103136000BF00BF00BF0022024B5A60FFF788FD84
:403DC00008BD00BF5C81FF1F04000840074B1B7813F0020F08D0064BB6221A70E0221A700D221A7007207047042070472247004020470040014B1A78187070473051004048
:403E0000024B187800F00100704700BF0151004008B5FEF75BFFFEF7C7FFFFF731F808BDF8B506460D461746FEF7BEFF002404E0305DFEF7DBFF0134A4B2AC42F8D33D8041
:403E40000020F8BD2DE9F0470746894690461D46002414E0FEF77AFF60B1FEF777FF04461920FFF753FEFEF771FF8442F5D34FF0000A0BE00120FFF749FE0134A4B205EBFF
:403E800085035B009C42E5DB4FF0050A0025A8F8005023E0FEF75AFF86B2B8F8003033449BB2A8F800304B4508D313E0FEF71CFF78550135ADB20134A4B200E00024B442CC
:403EC000F4D37B1913F8013C172B07D00520FFF71DFE03E09B1BA8F8003003E0FEF736FF0028D7D15046BDE8F08700BF0E4B70B51E460E4C0025E41AA410A54204D056F8FD
:403F0000253098470135F8E700F086F8084B094C1E46E41AA4100025A54204D056F8253098470135F8E770BD2440000024400000244000002C40000010B5431E0A44914289
:403F400004D011F8014B03F8014FF8E710BD03460244934202D003F8011BFAE7704700000000000043534520343934303A20576972656C65737320436865737320426F6180
:403F800072640A0A000000006C696D6974207374617274006C696D697420312072656164000000006C696D69742032207265616400000000200000000A0000006368656394
:403FC0006B696E67200A0D000A0D0000F0510040100000000140000A800A01408005001401408006001B0140000100400140000A004C01400002005001402000000A014050
:40400000600900488000801A0140E0090048800069F0152E00280101F8B500BFF8BC08BC9E4670473D230000D9240000F8B500BFF8BC08BC9E4670471923000050400000D6
:404040000881FF1F18000000480100000000000000000000020200000000C05D80BB000030000000006CDC0200000000000000000000000000000000000000000000000062
:404080000000000000000000000000000000000000000000000000000000000000000000000000000000000000000000000000000000000000000000000000000000000000
:4040C00000000000000000000000000000000000000000000000000000000000000000000000000000000000000000000000000000000000000000000000000000000000C0
:404100000080002011410000894200008942000008B500F0BBF800BF10B5054C237833B9044B13B10448AFF300800123237010BD2081FF1F00000000605D0000084B10B5A2
:404140001BB108480849AFF300800848036803B910BD074B002BFBD0BDE81040184700BF00000000605D00002481FF1F0881FF1F0000000008B562B601F070FA00F0A6FC28
:40418000034800F06BFD00F0C5FB00F05FFB08BD645D000008B5FFF7EDFF00F005F84FF4FA6001F0B3FBF8E7F0B59BB0344800F055FD012700265DE0384601F01BFD3546FA
:4041C00001F01EFD74003444A4001AAB1C4404F8600C00F00DFA04F85F0C00F011FA04F85E0C00F015FA04F85D0C00F019FA04F85C0C00F01DFA04F85B0C00F02FFA04F88D
:404200005A0C00F025FA04F8590C00F019FA04F8580C00F02BFA04F8570C00F02FFA04F8560C00F033FA04F8550C002416E020228DF8042005EB45039B001AA90B4423448F
:4042400013F8603C30338DF805308DF806208DF8072001A800F002FD0134E4B20B2CE6D9084800F0FBFC384600F0C0FC7F00FFB20136F6B2072E9FD902A81BB0F0BD00BFCC
:40428000BC5D0000C85D0000FEE700BF08B5104E104D16E029686B68AC68002204E051F8040B43F8040B0432A242F8D1E868002203E0002143F8041B04328242F9D11035D2
:4042C000013E002EE6D101F011FDFFF763FFFEE7010000003C5E000008B5124A124B1A60124A136843F40073136000230AE0032B03D80F4A52F8231000E00E490E4A42F82A
:40430000231001332F2BF2D90C4B1A780C4B1A70094A0C4B1A6000F0B9F800220A4B1A6008BD00BF0004FA050CED00E014ED00E000410000894200000080FF1FBC76004014
:404340000481FF1F08ED00E00081FF1FFEE700BFF0B40022174611E050F82760F3B226F0FF0608E001EB420511F812406D78A5550132013BDBB2002BF4D10137162FEBD95D
:40438000F0BC7047064B1B78DBB203F00701054A11701B09013213704422034B1A707047CF0100496E5800407658004008B50A46002101F0CCFC08BD38B53322264B1A8069
:4043C000182326490B7002310A80254A13700222244B1A7008224FF040231A70032203F500731A70204B1B78DBB2204A137010221F4B1A8041F25122023B1A8000241925CF
:404400000CE01C4B1B7803F0010343EA440404F003044FF4F07001F04FF9013D0DB1032CEFD115B90320FFF791FF134B4FF480721A8007221A70002210490A704820023181
:4044400008701A700222033B1A700D4A137843F00303137038BD00BF8040004082400040864000400043004008010049A146004022420040254200400440004006400040A3
:40448000A243004008B501F057FC08BD38B572B6464A137843F00403137000240CE0444963001A1952000A4423445B00C8589188FFF77CFF0134E4B2072CF0D900240FE00B
:4044C0003B49A3001A1952000A4452F8300F23445B000B4451681A8FFFF7D4FF0134E4B2012CEDD9334C204604F15C01FFF730FF314A137843F0020313701032137843F022
:40450000020313702D4D2B7843F040032B70A2F58632513A137843F010031370284804F5C0610822FFF7AEFF264804F5C1610822FFF7A8FF244804F5C2610A22FFF7A2FFA5
:40454000224804F21C610822FFF79CFF204804F224610822FFF796FF1E4804F22C610822FFF790FF1C4804F234610A22FFF78AFF1A4804F5C8610822FFF784FF184A1378C5
:4045800043F008031370174C61232370FFF714FFC12323700122144B1A70FFF7F3FE134829460E22FFF76EFF38BD00BFE8460040CC5D00002008004803500140A04300407E
:4045C00002510040C2510040105100402251004032510040425100405051004062510040224300400048004004000840B0430040024B1878C0F34000704700BF0151004093
:40460000024B1878C0F38000704700BF01510040024B1878C0F3C000704700BF01510040024B1878C0F30010704700BF01510040024B1878C0F34010704700BF015100407A
:40464000024B187800F00100704700BF41510040014B1878C009704701510040024B1878C0F38010704700BF01510040024B1878C0F34000704700BF41510040024B187819
:40468000C0F38000704700BF41510040024B1878C0F3C000704700BF4151004010B50B4C237803F09F032370237803F0F00323702378184340F010002070012001F03CF9E7
:4046C000237803F0EF03237010BD00BF2051004070B5354B1A7802F08002D2B21A7033490A7802F0F00242F00F020A7001310A7802F0F0020A7001310A7802F0F0020A70EE
:404700001A7802F0DF021A701A7842F040021A704FF4CA76002001F00FF9234D2B7843F010032B70012001F007F9214B1C78E4B22B7803F0EF032B70002001F0FDF804F0A5
:404740000804E4B22B7843F010032B70012001F0F3F82B7803F0EF032B7014B90A2001F0EBF8013E0CB1002ED4D10F4A137803F0BF031370137803F08003DBB213700232F8
:40478000137803F0F00313700132137803F0F00343F00F0313700132137803F0F00343F00F03137070BD00BF20510040225100402151004010B50446FFF78AFF2009FFF77E
:4047C0006DFF04F00F00FFF769FF10BD08B5282001F09CF80320FFF761FF052001F096F80320FFF75BFF0F2001F090F80320FFF755FF012001F08AF80220FFF74FFF0520D1
:4048000001F084F80620FFF7D5FF0E20FFF7D2FF2C20FFF7CFFF0820FFF7CCFF0120FFF7C9FF0C20FFF7C6FF0320FFF7C3FF052001F06CF808BD00BF08B50C20FFF7BAFFF6
:404840000122014B1A7008BD3C81FF1F08B5054B5B7823B9FFF7BAFF0122024B5A70FFF7EBFF08BD3C81FF1F08B50220104901F08FF80220072101F09FF800220D4B1A70F4
:4048800072220D4B1A702022013B1A7003200B4901F07EF80320072101F08EF80622084B1A70472210331A700222B03B1A7008BD314900003E81FF1F8A640040C5490000AE
:4048C0002865004010B500F0FFFE04460D4A137843F020031370013A137843F010031370094A0423136009490B7843F010030B70082307490B60136000F0C2FE204600F0C3
:40490000E7FE10BD9A64004000E100E09864004080E200E008B5054B5B7823B9FFF7A4FF0122024B5A70FFF7CDFF08BD3E81FF1F1C4B1B78DBB213F01E0F05D01A4803F074
:404940001E0201780A43027003F0200303F0FF022BB3164B1978C9B2154B1B78DBB21548C154154B1B7813F0FF0F02D00121134B19700F490B780133DBB20B700B78DBB292
:404980003F2B02D900210A4B1970094B1B780C490978DBB28B4202D10121074B1970002AC6D17047696400403E81FF1F4A6400404181FF1F6481FF1F4281FF1F4381FF1FD6
:4049C0004081FF1F13E0104B1B78DBB23F2B02D900220D4B1A700C4A1378DBB20B49CB5CDBB20B490B7013780133DBB21370064B1B78DBB2074A1278934204D0064B1B7834
:404A000013F0040FDFD070474481FF1FA481FF1F486400404581FF1F6864004008B50020114900F0B5FF0020072100F0C5FF00220E4B1A7072220E4B1A702022033B1A709B
:404A400001200C4900F0A4FF0120072100F0B4FF0622094B1A70472210331A70022203F5A8731A7008BD00BFC14C00004781FF1F8B650040554D00002964004010B500F079
:404A800023FE04460D4A137843F020031370033A137843F010031370094A0123136009490B7843F010030B70022307490B60136000F0F4FD204600F00BFE10BD9B6500401F
:404AC00000E100E09965004080E200E008B5054B5B7823B9FFF7A2FF0122024B5A70FFF7CDFF08BD4781FF1F0122134B1A60134A9378DBB2D178C9B2127912F0FF0F01D15A
:404B00008B4211D00E4AD05CC0B20133DBB23F2B00D90023094A9370137913F0FF0F06D00022064B1A7102E0064B1878C0B20122054B1A60704700BF80E100E04781FF1F24
:404B4000E481FF1F4B65004000E100E00122134B1A60134A9378D278DBB2934206D1104B1B7913F0FF0F14D0402013E00C4A9378D278DBB2934205D2094AD3789078181A28
:404B8000C0B207E0064AD3789078181A4030C0B200E000200122034B1A60704780E100E04781FF1F00E100E008B500F08DFD0B4B1A7842F001021A701A7802F0FE021A706F
:404BC00000F086FD0121064B1960064B00229A70DA701A715A71044B196008BD9B65004080E100E04781FF1F00E100E0164BD9799B79DBB2994205D25A1E914214BF00223E
:404C0000012204E0CA1A3F2A14BF00220122002AECD18B4207D10D4B1B7813F0040F02D10B4B187070473F2900D90021094B58540131054BD971054B1B7813F0020F02D01C
:404C40000222054B1A6070474781FF1F69650040496500402482FF1F00E200E038B5074B5B782BB938BDFFF7C1FF0134A4B201E005460024285D0028F5D138BD4781FF1F5D
:404C800008B500F021FD0A4B1A7842F001021A701A7802F0FE021A7000F01AFD0223054A1360054A00219171D171044A136008BD9965004080E100E04781FF1F00E100E027
:404CC0001C4B1B78DBB213F01E0F05D01A4803F01E0201780A43027003F0200303F0FF022BB3164B1978C9B2154B1B78DBB21548C154154B1B7813F0FF0F02D00121134BDE
:404D000019700F490B780133DBB20B700B78DBB23F2B02D900210A4B1970094B1B780C490978DBB28B4202D10121074B1970002AC6D17047686500404781FF1F4B6500403D
:404D40004A81FF1FE481FF1F4B81FF1F4C81FF1F4981FF1F13E0104B1B78DBB23F2B02D900220D4B1A700C4A1378DBB20B49CB5CDBB20B490B7013780133DBB21370064BEE
:404D80001B78DBB2074A1278934204D0064B1B7813F0040FDFD070474D81FF1F2482FF1F496500404E81FF1F69650040002306E0421812F8012C13449BB2013989B200297A
:404DC000F6D1584280B270472DE9F04182B00C46164602AF27F8022D01230B7048701546A270130ACB7002F1040808461FFA88F1FFF7DCFF04F80800731DC0F30720E054D5
:404E0000063517236355F11D204689B23A46962300F006FF02B0BDE8F08100BF70B505460E461446084B984203D010B1002000F063FD002004E0013CAB191B5D1844C0B247
:404E4000002CF8D170BD00BF0080004070B5C0B00E46C0F30745C0F3072120F0FF04002304E01A5D0DF8032001339BB2FF2BF8D9C3B20DF8036028466A4600F009FD00F0B8
:404E800065FD40B070BD00BF012814D838B50DE02002C0F57F3000F57470AC4214BF00210121FFF7D3FF0134E4B201E005460024012CEDD938BD704708B501380B2867D878
:404EC000DFE800F0060E161E262E3E36464E565E4942090201F57F3101F5707101225CE04942090201F57F3101F2C131042254E04942090201F57F3101F2C53102224CE041
:404F00004942090201F57F3101F2C931042244E04942090201F57F3101F5747101223CE04942090201F57F3101F2D131012234E04942090201F57F3101F2D63102222CE0DA
:404F40004942090201F57F3101F2D231022224E04942090201F57F3101F5757102221CE04942090201F57F3101F57671042214E04942090201F57F3101F5777101220CE043
:404F80004942090201F57F3101F57871042204E0002000F0B1FC02220021012A02D10878C0B200E00020022A03D10B78487843EA0020042A09D10B78487843EA00238878AF
:404FC00043EA0043C87843EA006008BDF8B5064603203146FFF770FF0130070204203146FFF76AFF074403203146FFF765FF013000020024254608E003785A1ED2B2FD2AFC
:4050000000D801252344DCB20130B842F4D303203146FFF751FF01300002C0080F4B9F4201D0FF0808E04FF4004705E000F190431B782344DCB20130B842F7D36442E4B2C9
:4050400001203146FFF738FF844202D11DB90620F8BD0620F8BD0020F8BD00BFC0FF0300012823D8F8B51F4615460E46044603202146FFF721FF80B2421C92B2C0F57F70A9
:40508000013080B2C4F10203DBB290FBF3F31344013B9BB2954201D39D4209D9032E09D1C4F1FF00874207D00020F8BD0D2070470D20F8BD0020F8BD0D20F8BD2DE9F04F83
:4050C000ADF51D7D054602200121FFF7F5FE804600F058FB10B1002000F00EFC00F098FD62B60A2400270DB9FF2300E02B4650A84FF496710DF26E2200F0A4FD0DB1013C90
:40510000E4B20CB10028EED1002840F09482BDF86E32062B24D99DF84021012A22D19DF843719DF8422142EA07273946FA1D9A421AD8B2F5967F19D87A1D50AB9E5C3A1DA1
:405140009A5C42EA062606315B5C172B10D1391D50A889B2FFF72AFEB0420BD100260AE0042608E0042606E0032604E0032602E0042600E00826002E40F00E829DF8449181
:405180009DF84121A2F131030A2B00F2DB81DFE813F00B001E0047005C00F8000101170132015C004801BC01BE4B5B79012B40F0F581002F40F0F581BB4B5878FFF706FF1C
:4051C000B0FA80F040098DF8440101222FE2B54B5B79012B40F0E881012F40F0E881B9F1030F00F2E78103200021FFF765FE80B2020A914501D1C3B205E0914501D9002326
:4052000001E04FF480738DF844311B0A8DF84531FF238DF8463100238DF84731042206E2A04B5B79012B40F0C881012F40F0C8814846FFF7CBFE8DF8440105204946FFF723
:405240003BFE8DF845010222F1E1342A1AD1954B5B79012B40F0B781032F40F0B781A9F14003DBB23F2B03D810228E4BDA8003E04FF490728B4BDA8005A80021894BDA8899
:4052800000F065FD874B5B79012B40F0A281022F40F2A281DFF80CB2BBF806A005AB03EB0A000DF24711FA1E00F046FD07EB0A03033BABF80630A9F14003DBB23F2B04D8F3
:4052C00000F0F0FA4022102703E04FF480724FF49077744BDB88BB424ED19DF846119DF8453143EA01236F49CB809A4200D80A26002E40F07481B9F13F0F31D803EB0923FE
:405300001FFA83FA684B1B782BB903200121FFF7D3FD80B204E003200021FFF7CDFD80B2431C9BB29A4504D200225E4BDA800A267DE1B8F1000F13D05B4B5B78DBB2012B75
:405340000ED8594B587849465246564BDB88FFF787FE0D2804D10022524BDA80064666E14846504BD98805AA3B4600F015FA00B10A2600F0EBFA00E003260022494BDA80EF
:4053800055E1484B5B79012B40F02B810022454BDA8050E1434B5B79012B40F02581012F40F025814846FFF711FE002840F022814846FFF769FD3C4B83F80190002236E15D
:4053C000384B5B79012B40F01881364BB3F8069009EB0703B3F5967F00F2128105AB03EB090051A93A4600F0A7FCB9442D4BA3F8069000221BE1002F40F0058102AB2B4AE0
:4054000092E8030083E80300264A0121117251710021D18051AA93E8030082E80300082205E1204B5B79012B40F0F080032F40F0F0809DF846B19DF8453143EA0B2BA9F1D1
:405440004003DBB23F2B10D84FEA0B11BBF13F0F01D8334600E00A23002B40F0DD8014481022FFF7DBFC824611E00BEB09210902BBF1FF0F01D8334600E00A23002B40F0F1
:40548000CE8000204FF48072FFF7C8FC8246B9F13F0F17D809F510320BEB0222520100230EE000BF5081FF1F0C81FF1F105E000000800040995C8A445FFA8AFA01339BB27A
:4054C0001F2BF7D9B9F1030F19D1ABF1FE039BB2012B14D8BBF1FF0B18BF4FF0010B05205946FFF7E9FCC0EB0A0000F0FF0906205946FFF7E1FCC0EB090000F0FF0ACAF1C6
:40550000000A8DF844A1012291E00B200121FFF7D3FC10F0010F03D040224D4B1A7007E04C4B5878FFF752FD10B98022484B1A704FF00009484B83F8089000F0DFF90426EF
:405540004A4674E0444B1B68002B6BD04249497901296AD18DF80020ADF8027051AA01920021029103910492684602A99847BDF80C20B2F5937F03D3049951AB994205D004
:40558000049B03B92AB99DF8086050E00E2600224DE00E2600224AE0002248E00426002245E00426002242E0042600223FE0042600223CE00426002239E00426002236E0BA
:4055C0000426002233E00426002230E0042600222DE0042600222AE00426002227E0002225E00426002222E0042600221FE0042600221CE00C26002219E00426002216E057
:405600000326002213E00426002210E0042600220DE0042600220AE01E46002207E01E46002204E00526002201E005260022304650A9FFF7C9FB002D3FF455AD064B5B797F
:40564000012B3FF450AD0DF51D7DBDE8F08F00BFFA4600400C81FF1F5081FF1F08B5074B1B7803F0C003402B04D10020034B1870FFF724FD1420FFF721FD08BDFA46004003
:40568000054A137843F0010313701032137843F001031370704700BFA2430040054A137843F0020313701032137843F002031370704700BFA24300400230800803D000BF30
:4056C00001380046FCD17047EFF3108072B6704780F31088704700BF10B500F085F900F033FAD0B900F072FA0446072812D102E0012000F021F90A4B1B7813F0020FF7D074
:40570000074B1B7813F0020F04D0054B1B789B0800D1002400F03EFA00E00424204610BD2247004010B500F05FF900F00DFA10BB012000F0EBF9072818D11048022100F0CE
:4057400065F902280AD102E0012000F0F5F80C4B1B7813F0020FF7D0002409E0084B1B7813F0020FE9D04FF0FF3401E04FF0FF3400F010FA00E00424204610BD6482FF1F63
:405780002247004008B5FFF7A7FF034610B9FFF7C9FF0346184608BD2DE9F041441FE4B23A2C01D9002500E0012510F0800F00D00125412800D901253F2803D8B1F5807F2C
:4057C00006D808E0802900D90125102B02D102E0012500E0012502B90125002D50D1984616460F46044600F0AFF9002847D1204639463246434600F023F9064607283AD1C7
:4058000002E0012000F098F81F4B1B7813F0020FF7D01D4B1B7813F0020F06D01A4B1B789B0805D04FF0FF3603E04FF0FF3600E02E4606BB154B204639461A785B7800F03E
:405840003FF9072804D0064615E0012000F074F80D4B1B7813F0020FF7D00B4B1B7813F0020F06D0084B1B789B0804D04FF0FF3601E04FF0FF3600F08DF9354600E0042576
:405880002846BDE8F08100BF224700406482FF1F08B53F2801D9102301E04FF48073FFF77BFF08BD08B5FFF70FFF0F4A137843F0080313701032137843F008031370C8229D
:4058C0000A4B1A700A4A137843F0100313701032137843F010031370064B1B7813F0200FFAD0FFF7F5FE08BDA043004001470040AC4300400047004001BE7047024A13784F
:4059000043F0010313707047F646004010B5044605E0084B1868FFF7CFFEA4F50044B4F5004FF6D8034B586800FB04F0FFF7C4FE10BD00BF1081FF1F08B5034B1B7A03FBBF
:4059400000F0FFF7B9FE08BD1081FF1F08B5FFF7BBFE00BF00BF00BF00BF00BF00BF00BF00BF00BF00BF00BF00BF00BF00BF00BF00BF064A13889BB243F00403138013881A
:40598000BFF36F8FFFF7A4FE08BD00BF0048004070B504460E46074B1D681F2802D90020FFF7AAFF04F01F04103455F8240045F8246070BD08ED00E038B504460D460729CF
:4059C00002D90020FFF798FF1F2C02D90020FFF793FF04F01F0000F1604000F564406D01EDB2057038BD00BF08B5FFF76DFE064A137843F0080313701032137843F0080319
:405A00001370FFF765FE08BDA043004070B506460D4600240CE00120FFF78EFF064B1B7813F0010FF7D0054B1B7833550134E4B2AC42F3D3204670BD22470040204700409F
:405A400070B41D4C247814F0020F2CD01B4CB6252570D5252570022525700234247814F0020F22D1154C2070002404E0165D134D2E700134A4B29C42F8D3B3F5807F16D1C4
:405A80003F2816D800F5103001EB00214801002305E01A5CD2B209490A7001339BB21F2BF7D9072006E0042004E0092002E0072000E0072070BC704722470040204700401C
:405AC00030B4104C247814F0020F15D00E4CB6252570D8252570052525700234247814F0020F0BD1084C2070080A2070C9B2217022702370072002E0042000E0092030BC19
:405B0000704700BF22470040204700400C4B1B7813F0020F0FD00B4BB6221A70E1221A700E221A7002331B7813F0020F05D1054B187007207047042070470920704700BFE1
:405B4000224700402047004010B5FFF7BDFD0F4B1B78A3B901220D4B1A700D4B1B6813F0010F0ED00A4A136823F00103136000BF00BF00BF0122054B5A60002402E0042455
:405B800000E00024FFF7A4FD204610BD5C81FF1F0400084008B5FFF797FD0A4B00221A705B68012B0AD1084A136843F00103136000BF00BF00BF0022024B5A60FFF788FD66
:405BC00008BD00BF5C81FF1F04000840074B1B7813F0020F08D0064BB6221A70E0221A700D221A7007207047042070472247004020470040014B1A7818707047305100402A
:405C0000024B187800F00100704700BF0151004008B5FEF75BFFFEF7C7FFFFF731F808BDF8B506460D461746FEF7BEFF002404E0305DFEF7DBFF0134A4B2AC42F8D33D8023
:405C40000020F8BD2DE9F0470746894690461D46002414E0FEF77AFF60B1FEF777FF04461920FFF753FEFEF771FF8442F5D34FF0000A0BE00120FFF749FE0134A4B205EBE1
:405C800085035B009C42E5DB4FF0050A0025A8F8005023E0FEF75AFF86B2B8F8003033449BB2A8F800304B4508D313E0FEF71CFF78550135ADB20134A4B200E00024B442AE
:405CC000F4D37B1913F8013C172B07D00520FFF71DFE03E09B1BA8F8003003E0FEF736FF0028D7D15046BDE8F08700BF0E4B70B51E460E4C0025E41AA410A54204D056F8DF
:405D0000253098470135F8E700F086F8084B094C1E46E41AA4100025A54204D056F8253098470135F8E770BD245E0000245E0000245E00002C5E000010B5431E0A449142F3
:405D400004D011F8014B03F8014FF8E710BD03460244934202D003F8011BFAE7704700000000000043534520343934303A20576972656C65737320436865737320426F6162
:405D800072640A0A000000006C696D6974207374617274006C696D697420312072656164000000006C696D69742032207265616400000000200000000A0000006368656376
:405DC0006B696E67200A0D000A0D0000F0510040100000000140000A800A01408005001401408006001B0140000100400140000A004C01400002005001402000000A014032
:405E0000200D00488000801A0140A00D0048800069F0152E00280101F8B500BFF8BC08BC9E4670473D410000D9420000F8B500BFF8BC08BC9E46704719410000505E0000B8
:405E40000881FF1F18000000480100000000000000000000020200000000C05D80BB000030000000006CDC0200000000000000000000000000000000000000000000000044
:405E800000000000000000000000000000000000000000000000000000000000000000000000000000000000000000000000000000000000000000000000000000000000E2
:405EC00000000000000000000000000000000000000000000000000000000000000000000000000000000000000000000000000000000000000000000000000000000000A2
:405F000000800020115F0000956000009560000008B500F0C1F800BF10B5054C237833B9044B13B10448AFF300800123237010BD2081FF1F00000000707B0000084B10B5DE
:405F40001BB108480849AFF300800848036803B910BD074B002BFBD0BDE81040184700BF00000000707B00002481FF1F0881FF1F0000000008B562B601F076FA00F0ACFCD0
:405F8000034800F071FD00F0CBFB00F065FB08BD747B000008B5FFF7EDFF00F005F84FF4FA6001F0BBFBF8E7F0B59BB0374800F05BFD2027002664E0384601F023FD35465D
:405FC00001F026FD74003444A4001AAB1C4404F8560C00F013FA04F8550C00F017FA04F8580C00F01BFA04F8570C00F01FFA04F85A0C00F023FA04F8590C00F035FA04F867
:406000005C0C00F02BFA04F85B0C00F01FFA04F85E0C00F031FA04F85D0C00F035FA04F8600C00F039FA04F85F0C002416E020228DF8042005EB45039B001AA90B4423442F
:4060400013F8603C30338DF805308DF806208DF8072001A800F008FD0134E4B20B2CE6D90B4800F001FD062E02D10137FFB206E016F0010F02D17F00FFB200E0BF08013698
:40608000F6B2072E98D902A81BB0F0BDCC7B0000D87B0000FEE700BF08B5104E104D16E029686B68AC68002204E051F8040B43F8040B0432A242F8D1E868002203E000214B
:4060C00043F8041B04328242F9D11035013E002EE6D101F013FDFFF75DFFFEE7010000004C7C000008B5124A124B1A60124A136843F40073136000230AE0032B03D80F4AC5
:4061000052F8231000E00E490E4A42F8231001332F2BF2D90C4B1A780C4B1A70094A0C4B1A6000F0B9F800220A4B1A6008BD00BF0004FA050CED00E014ED00E0005F00006D
:40614000956000000080FF1FBC7600400481FF1F08ED00E00081FF1FFEE700BFF0B40022174611E050F82760F3B226F0FF0608E001EB420511F812406D78A5550132013BF8
:40618000DBB2002BF4D10137162FEBD9F0BC7047064B1B78DBB203F00701054A11701B09013213704422034B1A707047CF0100496E5800407658004008B50A46002101F067
:4061C000CEFC08BD38B53322264B1A80182326490B7002310A80254A13700222244B1A7008224FF040231A70032203F500731A70204B1B78DBB2204A137010221F4B1A80B4
:4062000041F25122023B1A80002419250CE01C4B1B7803F0010343EA440404F003044FF4F07001F051F9013D0DB1032CEFD115B90320FFF791FF134B4FF480721A8007229C
:406240001A70002210490A704820023108701A700222033B1A700D4A137843F00303137038BD00BF8040004082400040864000400043004008010049A1460040224200401C
:40628000254200400440004006400040A243004008B501F059FC08BD38B572B6464A137843F00403137000240CE0444963001A1952000A4423445B00C8589188FFF77CFF14
:4062C0000134E4B2072CF0D900240FE03B49A3001A1952000A4452F8300F23445B000B4451681A8FFFF7D4FF0134E4B2012CEDD9334C204604F15C01FFF730FF314A1378E5
:4063000043F0020313701032137843F0020313702D4D2B7843F040032B70A2F58632513A137843F010031370284804F5C0610822FFF7AEFF264804F5C1610822FFF7A8FF17
:40634000244804F5C2610A22FFF7A2FF224804F21C610822FFF79CFF204804F224610822FFF796FF1E4804F22C610822FFF790FF1C4804F234610A22FFF78AFF1A4804F515
:40638000C8610822FFF784FF184A137843F008031370174C61232370FFF714FFC12323700122144B1A70FFF7F3FE134829460E22FFF76EFF38BD00BFE8460040DC7B0000A0
:4063C000E00B004803500140A043004002510040C2510040105100402251004032510040425100405051004062510040224300400048004004000840B0430040024B187886
:40640000C0F34000704700BF01510040024B1878C0F38000704700BF01510040024B1878C0F3C000704700BF01510040024B1878C0F30010704700BF01510040024B18786C
:40644000C0F34010704700BF01510040024B187800F00100704700BF41510040014B1878C009704701510040024B1878C0F38010704700BF01510040024B1878C0F3400015
:40648000704700BF41510040024B1878C0F38000704700BF41510040024B1878C0F3C000704700BF4151004010B50B4C237803F09F032370237803F0F003237023781843BB
:4064C00040F010002070012001F03EF9237803F0EF03237010BD00BF2051004070B5354B1A7802F08002D2B21A7033490A7802F0F00242F00F020A7001310A7802F0F00243
:406500000A7001310A7802F0F0020A701A7802F0DF021A701A7842F040021A704FF4CA76002001F011F9234D2B7843F010032B70012001F009F9214B1C78E4B22B7803F07E
:40654000EF032B70002001F0FFF804F00804E4B22B7843F010032B70012001F0F5F82B7803F0EF032B7014B90A2001F0EDF8013E0CB1002ED4D10F4A137803F0BF03137092
:40658000137803F08003DBB213700232137803F0F00313700132137803F0F00343F00F0313700132137803F0F00343F00F03137070BD00BF205100402251004021510040C8
:4065C00010B50446FFF78AFF2009FFF76DFF04F00F00FFF769FF10BD08B5282001F09EF80320FFF761FF052001F098F80320FFF75BFF0F2001F092F80320FFF755FF0120FE
:4066000001F08CF80220FFF74FFF052001F086F80620FFF7D5FF0E20FFF7D2FF2C20FFF7CFFF0820FFF7CCFF0120FFF7C9FF0C20FFF7C6FF0320FFF7C3FF052001F06EF8F0
:4066400008BD00BF08B50C20FFF7BAFF0122014B1A7008BD3C81FF1F08B5054B5B7823B9FFF7BAFF0122024B5A70FFF7EBFF08BD3C81FF1F08B50220104901F091F802206C
:40668000072101F0A1F800220D4B1A7072220D4B1A702022013B1A7003200B4901F080F80320072101F090F80622084B1A70472210331A700222B03B1A7008BD3D670000C5
:4066C0003E81FF1F8A640040D16700002865004010B500F001FF04460D4A137843F020031370013A137843F010031370094A0423136009490B7843F010030B700823074943
:406700000B60136000F0C2FE204600F0E9FE10BD9A64004000E100E09864004080E200E008B5054B5B7823B9FFF7A4FF0122024B5A70FFF7CDFF08BD3E81FF1F1C4B1B7857
:40674000DBB213F01E0F05D01A4803F01E0201780A43027003F0200303F0FF022BB3164B1978C9B2154B1B78DBB21548C154154B1B7813F0FF0F02D00121134B19700F495C
:406780000B780133DBB20B700B78DBB23F2B02D900210A4B1970094B1B780C490978DBB28B4202D10121074B1970002AC6D17047696400403E81FF1F4A6400404181FF1FAF
:4067C0006481FF1F4281FF1F4381FF1F4081FF1F13E0104B1B78DBB23F2B02D900220D4B1A700C4A1378DBB20B49CB5CDBB20B490B7013780133DBB21370064B1B78DBB2B8
:40680000074A1278934204D0064B1B7813F0040FDFD070474481FF1FA481FF1F486400404581FF1F6864004008B50020114900F0B7FF0020072100F0C7FF00220E4B1A7092
:4068400072220E4B1A702022033B1A7001200C4900F0A6FF0120072100F0B6FF0622094B1A70472210331A70022203F5A8731A7008BD00BFCD6A00004781FF1F8B650040D0
:40688000616B00002964004010B500F025FE04460D4A137843F020031370033A137843F010031370094A0123136009490B7843F010030B70022307490B60136000F0F4FD1D
:4068C000204600F00DFE10BD9B65004000E100E09965004080E200E008B5054B5B7823B9FFF7A2FF0122024B5A70FFF7CDFF08BD4781FF1F0122134B1A60134A9378DBB2FF
:40690000D178C9B2127912F0FF0F01D18B4211D00E4AD05CC0B20133DBB23F2B00D90023094A9370137913F0FF0F06D00022064B1A7102E0064B1878C0B20122054B1A6072
:40694000704700BF80E100E04781FF1FE481FF1F4B65004000E100E00122134B1A60134A9378D278DBB2934206D1104B1B7913F0FF0F14D0402013E00C4A9378D278DBB2F1
:40698000934205D2094AD3789078181AC0B207E0064AD3789078181A4030C0B200E000200122034B1A60704780E100E04781FF1F00E100E008B500F08FFD0B4B1A7842F066
:4069C00001021A701A7802F0FE021A7000F088FD0121064B1960064B00229A70DA701A715A71044B196008BD9B65004080E100E04781FF1F00E100E0164BD9799B79DBB275
:406A0000994205D25A1E914214BF0022012204E0CA1A3F2A14BF00220122002AECD18B4207D10D4B1B7813F0040F02D10B4B187070473F2900D90021094B58540131054B1F
:406A4000D971054B1B7813F0020F02D00222054B1A6070474781FF1F69650040496500402482FF1F00E200E038B5074B5B782BB938BDFFF7C1FF0134A4B201E0054600247A
:406A8000285D0028F5D138BD4781FF1F08B500F023FD0A4B1A7842F001021A701A7802F0FE021A7000F01CFD0223054A1360054A00219171D171044A136008BD996500409F
:406AC00080E100E04781FF1F00E100E01C4B1B78DBB213F01E0F05D01A4803F01E0201780A43027003F0200303F0FF022BB3164B1978C9B2154B1B78DBB21548C154154BCE
:406B00001B7813F0FF0F02D00121134B19700F490B780133DBB20B700B78DBB23F2B02D900210A4B1970094B1B780C490978DBB28B4202D10121074B1970002AC6D170470C
:406B4000686500404781FF1F4B6500404A81FF1FE481FF1F4B81FF1F4C81FF1F4981FF1F13E0104B1B78DBB23F2B02D900220D4B1A700C4A1378DBB20B49CB5CDBB20B4988
:406B80000B7013780133DBB21370064B1B78DBB2074A1278934204D0064B1B7813F0040FDFD070474D81FF1F2482FF1F496500404E81FF1F69650040002306E0421812F830
:406BC000012C13449BB2013989B20029F6D1584280B270472DE9F04182B00C46164602AF27F8022D01230B7048701546A270130ACB7002F1040808461FFA88F1FFF7DCFFEA
:406C000004F80800731DC0F30720E054063517236355F11D204689B23A46962300F008FF02B0BDE8F08100BF70B505460E461446084B984203D010B1002000F065FD0020AE
:406C400004E0013CAB191B5D1844C0B2002CF8D170BD00BF0080004070B5C0B00E46C0F30745C0F3072120F0FF04002304E01A5D0DF8032001339BB2FF2BF8D9C3B20DF8D6
:406C8000036028466A4600F00BFD00F067FD40B070BD00BF012814D838B50DE02002C0F57F3000F57470AC4214BF00210121FFF7D3FF0134E4B201E005460024012CEDD903
:406CC00038BD704708B501380B2867D8DFE800F0060E161E262E3E36464E565E4942090201F57F3101F5707101225CE04942090201F57F3101F2C131042254E049420902EE
:406D000001F57F3101F2C53102224CE04942090201F57F3101F2C931042244E04942090201F57F3101F5747101223CE04942090201F57F3101F2D131012234E049420902AD
:406D400001F57F3101F2D63102222CE04942090201F57F3101F2D231022224E04942090201F57F3101F5757102221CE04942090201F57F3101F57671042214E049420902E8
:406D800001F57F3101F5777101220CE04942090201F57F3101F57871042204E0002000F0B3FC02220021012A02D10878C0B200E00020022A03D10B78487843EA0020042A69
:406DC00009D10B78487843EA0023887843EA0043C87843EA006008BDF8B5064603203146FFF770FF0130070204203146FFF76AFF074403203146FFF765FF01300002002462
:406E0000254608E003785A1ED2B2FD2A00D801252344DCB20130B842F4D303203146FFF751FF01300002C0080F4B9F4201D0FF0808E04FF4004705E000F190431B78234479
:406E4000DCB20130B842F7D36442E4B201203146FFF738FF844202D11DB90620F8BD0620F8BD0020F8BD00BFC0FF0300012823D8F8B51F4615460E46044603202146FFF764
:406E800021FF80B2421C92B2C0F57F70013080B2C4F10203DBB290FBF3F31344013B9BB2954201D39D4209D9032E09D1C4F1FF00874207D00020F8BD0D2070470D20F8BDD9
:406EC0000020F8BD0D20F8BD2DE9F04FADF51D7D054602200121FFF7F5FE804600F05AFB10B1002000F010FC00F09AFD62B60A2400270DB9FF2300E02B4650A84FF496717B
:406F00000DF26E2200F0A6FD0DB1013CE4B20CB10028EED1002840F09482BDF86E32062B24D99DF84021012A22D19DF843719DF8422142EA07273946FA1D9A421AD8B2F54F
:406F4000967F19D87A1D50AB9E5C3A1D9A5C42EA062606315B5C172B10D1391D50A889B2FFF72AFEB0420BD100260AE0042608E0042606E0032604E0032602E0042600E000
:406F80000826002E40F00E829DF844919DF84121A2F131030A2B00F2DB81DFE813F00B001E0047005C00F8000101170132015C004801BC01BE4B5B79012B40F0F581002FEF
:406FC00040F0F581BB4B5878FFF706FFB0FA80F040098DF8440101222FE2B54B5B79012B40F0E881012F40F0E881B9F1030F00F2E78103200021FFF765FE80B2020A914590
:4070000001D1C3B205E0914501D9002301E04FF480738DF844311B0A8DF84531FF238DF8463100238DF84731042206E2A04B5B79012B40F0C881012F40F0C8814846FFF743
:40704000CBFE8DF8440105204946FFF73BFE8DF845010222F1E1342A1AD1954B5B79012B40F0B781032F40F0B781A9F14003DBB23F2B03D810228E4BDA8003E04FF4907272
:407080008B4BDA8005A80021894BDA8800F067FD874B5B79012B40F0A281022F40F2A281DFF80CB2BBF806A005AB03EB0A000DF24711FA1E00F048FD07EB0A03033BABF883
:4070C0000630A9F14003DBB23F2B04D800F0F2FA4022102703E04FF480724FF49077744BDB88BB424ED19DF846119DF8453143EA01236F49CB809A4200D80A26002E40F008
:407100007481B9F13F0F31D803EB09231FFA83FA684B1B782BB903200121FFF7D3FD80B204E003200021FFF7CDFD80B2431C9BB29A4504D200225E4BDA800A267DE1B8F16B
:40714000000F13D05B4B5B78DBB2012B0ED8594B587849465246564BDB88FFF787FE0D2804D10022524BDA80064666E14846504BD98805AA3B4600F017FA00B10A2600F0A9
:40718000EDFA00E003260022494BDA8055E1484B5B79012B40F02B810022454BDA8050E1434B5B79012B40F02581012F40F025814846FFF711FE002840F022814846FFF771
:4071C00069FD3C4B83F80190002236E1384B5B79012B40F01881364BB3F8069009EB0703B3F5967F00F2128105AB03EB090051A93A4600F0A9FCB9442D4BA3F80690002291
:407200001BE1002F40F0058102AB2B4A92E8030083E80300264A0121117251710021D18051AA93E8030082E80300082205E1204B5B79012B40F0F080032F40F0F0809DF8AF
