:400000000080002011000000910200009102000008B5054B1A6803F53F5302331A6000F05BFF00F037F900BFFA46004010B5054C237833B9044B13B10448AFF30080012336
:40004000237010BD2881FF1F0000000074240000084B10B51BB108480849AFF300800848036803B910BD074B002BFBD0BDE81040184700BF00000000742400002C81FF1F18
:400080000881FF1F0000000008B562B601F0C6F900F0CCFC034800F091FD00F0EBFB00F085FB08BD7824000008B5FFF7EDFF0023174A1380174A1380174800F07FFD142043
:4000C00000F032F84FF47A7001F062FB134800F075FD6FF0130000F027F84FF47A7001F057FB0F4800F06AFD142000F077F84FF47A7001F04DFB0B4800F060FD6FF0130004
:4001000000F06CF84FF47A7001F042FBD4E700BF6481FF1F6681FF1F9C240000A0240000A8240000AC2400002A4BB3F900300344B3F57A7F4CD82DE9F04105468046012098
:4001400001F0A0F9012001F0C1F9002D07DA012001F0B0F9012001F0D1F9002416E0002001F0A8F9002001F0C9F9F6E7002001F095F9012001F092F9002001F0B3F90120EE
:4001800001F0B0F90A2001F003FB0134204601F033FE06460F46322000FB05F001F02CFE00220D4B01F08EFE02460B463046394602F0FAF80028D9D1064B18884044188089
:4001C000002001F05FF9002001F080F9BDE8F081704700BF6481FF1F0000E03F2A4BB3F900300344B3F57A7F4CD82DE9F04105468046012001F046F9012001F067F9002DB9
:4002000007DA012001F056F9002001F077F9002416E0002001F04EF9012001F06FF9F6E7002001F03BF9012001F038F9002001F059F9012001F056F90A2001F0A9FA0134F3
:40024000204601F0D9FD06460F46322000FB05F001F0D2FD00220D4B01F034FE02460B463046394602F0A0F80028D9D1064B188840441880002001F005F9002001F026F9DB
:40028000BDE8F081704700BF6681FF1F0000E03FFEE700BF08B5104E104D16E029686B68AC68002204E051F8040B43F8040B0432A242F8D1E868002203E0002143F8041BA9
:4002C00004328242F9D11035013E002EE6D102F093F8FFF7E9FEFEE7010000006C2B000008B5124A124B1A60124A136843F40073136000230AE0032B03D80F4A52F823102A
:4003000000E00E490E4A42F8231001332F2BF2D90C4B1A780C4B1A70094A0C4B1A6000F0BDF800220A4B1A6008BD00BF0004FA050CED00E014ED00E0000000009102000010
:400340000080FF1FBC7600400481FF1F08ED00E00081FF1FFEE700BFF0B40022174611E050F82760F3B226F0FF0608E001EB420511F812406D78A5550132013BDBB2002B93
:40038000F4D10137162FEBD9F0BC7047064B1B78DBB203F00701054A11701B09013213704422034B1A707047CF0100496E5800407658004008B50A46002102F04EF808BD71
:4003C00008B502F03FF808BD08B502F03BF808BD38B53322264B1A80182326490B7002310A80254A13700222244B1A7008224FF040231A70032203F500731A70204B1B78FF
:40040000DBB2204A137010221F4B1A8041F25122023B1A80002419250CE01C4B1B7803F0010343EA440404F003044FF4F07001F08FF8013D0DB1032CEFD115B90320FFF7F3
:4004400089FF134B4FF480721A8007221A70002210490A704820023108701A700222033B1A700D4A137843F00303137038BD00BF80400040824000408640004000430040B9
:4004800008010049A146004022420040254200400440004006400040A243004038B572B6464A137843F00403137000240CE0444963001A1952000A4423445B00C85891888E
:4004C000FFF778FF0134E4B2072CF0D900240FE03B49A3001A1952000A4452F8300F23445B000B4451681A8FFFF76AFF0134E4B2012CEDD9324C04F1440004F1A001FFF75F
:400500002BFF304A137843F0020313701032137843F0020313702C4D2B7843F040032B70A2F58632513A137843F010031370274804F244510822FFF743FF254804F24C5192
:400540000822FFF73DFF234804F254510A22FFF737FF214804F5AC610822FFF731FF1F4804F5AD610822FFF72BFF1D4804F5AE610822FFF725FF1B4804F5AF610A22FFF70B
:400580001FFF194804F284510822FFF719FF174A137843F008031370154C61232370FFF717FFC12323700122124B1A70FFF7EEFE114829460E22FFF707FF38BDE8460040CE
:4005C000B424000003500140A043004002510040C2510040105100402251004032510040425100405051004062510040224300400048004004000840B043004010B50B4C00
:40060000237803F09F032370237803F0F00323702378184340F010002070012001F0CEF8237803F0EF03237010BD00BF2051004070B5354B1A7802F08002D2B21A703349C0
:400640000A7802F0F00242F00F020A7001310A7802F0F0020A7001310A7802F0F0020A701A7802F0DF021A701A7842F040021A704FF4CA76002001F0A1F8234D2B7843F041
:4006800010032B70012001F099F8214B1C78E4B22B7803F0EF032B70002001F08FF804F00804E4B22B7843F010032B70012001F085F82B7803F0EF032B7014B90A2001F0E4
:4006C0007DF8013E0CB1002ED4D10F4A137803F0BF031370137803F08003DBB213700232137803F0F00313700132137803F0F00343F00F0313700132137803F0F00343F01E
:400700000F03137070BD00BF20510040225100402151004010B50446FFF78AFF2009FFF76DFF04F00F00FFF769FF10BD08B5282001F02EF80320FFF761FF052001F028F810
:400740000320FFF75BFF0F2001F022F80320FFF755FF012001F01CF80220FFF74FFF052001F016F80620FFF7D5FF0E20FFF7D2FF2C20FFF7CFFF0820FFF7CCFF0120FFF7BA
:40078000C9FF0C20FFF7C6FF0320FFF7C3FF052000F0FEFF08BD00BF08B50C20FFF7BAFF0122014B1A7008BD4481FF1F08B5054B5B7823B9FFF7BAFF0122024B5A70FFF745
:4007C000EBFF08BD4481FF1F08B50220104901F021F80220072101F031F800220D4B1A7072220D4B1A702022013B1A7003200B4901F010F80320072101F020F80622084B00
:400800001A70472210331A700222B03B1A7008BD910800004681FF1F8A640040250900002865004010B500F09BFE04460D4A137843F020031370013A137843F01003137011
:40084000094A0423136009490B7843F010030B70082307490B60136000F05CFE204600F083FE10BD9A64004000E100E09864004080E200E008B5054B5B7823B9FFF7A4FFDC
:400880000122024B5A70FFF7CDFF08BD4681FF1F1C4B1B78DBB213F01E0F05D01A4803F01E0201780A43027003F0200303F0FF022BB3164B1978C9B2154B1B78DBB2154827
:4008C000C154154B1B7813F0FF0F02D00121134B19700F490B780133DBB20B700B78DBB23F2B02D900210A4B1970094B1B780C490978DBB28B4202D10121074B1970002A88
:40090000C6D17047696400404681FF1F4A6400404981FF1F6881FF1F4A81FF1F4B81FF1F4881FF1F13E0104B1B78DBB23F2B02D900220D4B1A700C4A1378DBB20B49CB5C40
:40094000DBB20B490B7013780133DBB21370064B1B78DBB2074A1278934204D0064B1B7813F0040FDFD070474C81FF1FA881FF1F486400404D81FF1F6864004008B5002004
:40098000114900F047FF0020072100F057FF00220E4B1A7072220E4B1A702022033B1A7001200C4900F036FF0120072100F046FF0622094B1A70472210331A70022203F522
:4009C000A8731A7008BD00BF210C00004F81FF1F8B650040B50C00002964004010B500F0BFFD04460D4A137843F020031370033A137843F010031370094A012313600949B2
:400A00000B7843F010030B70022307490B60136000F08EFD204600F0A7FD10BD9B65004000E100E09965004080E200E008B5054B5B7823B9FFF7A2FF0122024B5A70FFF7D9
:400A4000CDFF08BD4F81FF1F0122134B1A60134A9378DBB2D178C9B2127912F0FF0F01D18B4211D00E4AD05CC0B20133DBB23F2B00D90023094A9370137913F0FF0F06D042
:400A80000022064B1A7102E0064B1878C0B20122054B1A60704700BF80E100E04F81FF1FE881FF1F4B65004000E100E00122134B1A60134A9378D278DBB2934206D1104BF8
:400AC0001B7913F0FF0F14D0402013E00C4A9378D278DBB2934205D2094AD3789078181AC0B207E0064AD3789078181A4030C0B200E000200122034B1A60704780E100E06B
:400B00004F81FF1F00E100E008B500F029FD0B4B1A7842F001021A701A7802F0FE021A7000F022FD0121064B1960064B00229A70DA701A715A71044B196008BD9B65004099
:400B400080E100E04F81FF1F00E100E0164BD9799B79DBB2994205D25A1E914214BF0022012204E0CA1A3F2A14BF00220122002AECD18B4207D10D4B1B7813F0040F02D173
:400B80000B4B187070473F2900D90021094B58540131054BD971054B1B7813F0020F02D00222054B1A6070474F81FF1F69650040496500402882FF1F00E200E038B5074B51
:400BC0005B782BB938BDFFF7C1FF0134A4B201E005460024285D0028F5D138BD4F81FF1F08B500F0BDFC0A4B1A7842F001021A701A7802F0FE021A7000F0B6FC0223054A32
:400C00001360054A00219171D171044A136008BD9965004080E100E04F81FF1F00E100E01C4B1B78DBB213F01E0F05D01A4803F01E0201780A43027003F0200303F0FF0296
:400C40002BB3164B1978C9B2154B1B78DBB21548C154154B1B7813F0FF0F02D00121134B19700F490B780133DBB20B700B78DBB23F2B02D900210A4B1970094B1B780C49B1
:400C80000978DBB28B4202D10121074B1970002AC6D17047686500404F81FF1F4B6500405281FF1FE881FF1F5381FF1F5481FF1F5181FF1F13E0104B1B78DBB23F2B02D926
:400CC00000220D4B1A700C4A1378DBB20B49CB5CDBB20B490B7013780133DBB21370064B1B78DBB2074A1278934204D0064B1B7813F0040FDFD070475581FF1F2882FF1FCB
:400D0000496500405681FF1F69650040002306E0421812F8012C13449BB2013989B20029F6D1584280B27047004700BF08B58022024B1A7000F024FD08BD00BFFA4600404B
:400D40002DE9F04182B00C46164602AF27F8022D01230B7048701546A270130ACB7002F1040808461FFA88F1FFF7D0FF04F80800731DC0F30720E054063517236355F11DB0
:400D8000204689B23A46962300F07EFE02B0BDE8F08100BF70B505460E461446084B984203D010B1002000F0E9FC002004E0013CAB191B5D1844C0B2002CF8D170BD00BF66
:400DC0000080004008B501380B2867D8DFE800F0060E161E262E3E36464E565E4942090201F57F3101F5707101225CE04942090201F57F3101F2C131042254E04942090239
:400E000001F57F3101F2C53102224CE04942090201F57F3101F2C931042244E04942090201F57F3101F5747101223CE04942090201F57F3101F2D131012234E0494209020C
:400E400001F57F3101F2D63102222CE04942090201F57F3101F2D231022224E04942090201F57F3101F5757102221CE04942090201F57F3101F57671042214E04942090247
:400E800001F57F3101F5777101220CE04942090201F57F3101F57871042204E0002000F06DFC02220021012A02D10878C0B200E00020022A03D10B78487843EA0020042A0E
:400EC00009D10B78487843EA0023887843EA0043C87843EA006008BD08B50A4B1B7803F0C003802B0CD10021064B19700220FFF769FF28B102200021FFF764FFFFF714FFA7
:400F000008BD00BFFA460040F8B5064603203146FFF758FF0130070204203146FFF752FF074403203146FFF74DFF013000020024254608E003785A1ED2B2FD2A00D8012544
:400F40002344DCB20130B842F4D303203146FFF739FF01300002C0080F4B9F4201D0FF0808E04FF4004705E000F190431B782344DCB20130B842F7D36442E4B20120314648
:400F8000FFF720FF844202D11DB90620F8BD0620F8BD0020F8BD00BFC0FF03002DE9F04FADF51F7D054600F039FB10B1002000F0E5FB00F061FD62B64FF0000A57460A2474
:400FC000D0460DB9FF2300E02B4652A84FF496710DF2762200F06AFD0DB1013CE4B20CB10028EED1002840F00E82BDF87632062B26D99DF84821012A24D19DF84B819DF8B2
:401000004A2142EA0828414608F107029A421BD8B2F5967F1AD84A1D52AB9E5C0A1D9A5C42EA062606315B5C172B11D108F1040152A889B2FFF76AFEB0420BD100260AE08F
:40104000042608E0042606E0032604E0032602E0042600E00826002E40F081819DF84C919DF84921A2F131030A2B00F25081DFE813F00B001C004E014400B0004E01B60035
:40108000CB004400DD004201002F00F06A81B8F1000F40F069810020FFF736FFB0FA80F040098DF84C010122A6E1002F00F05F81B8F1010F40F05E81B9F1030F00F25D81A8
:4010C000C14B1B681B68C3F30742914502D1C3F3072305E0914501D9002301E04FF480738DF84C311B0A8DF84D31FF238DF84E3100238DF84F3104227EE1342A15D1002F17
:4011000000F03E81B8F1030F40F03D81A9F14003DBB23F2B02D84FF0100A01E04FF4907A07A80021524601F098F9002F00F02E81B8F1020F40F22D8107AB03EB0A000DF227
:401140004F11A8F1030201F07DF9C244AAF1030A1FFA8AFAA9F14003DBB23F2B05D800F0E3FA40234FF0100803E04FF480734FF49078C24540F010819DF84EA19DF84D21D4
:4011800042EA0A2A9A4500D30A26002E40F00981B9F13F0F0FD80AEB092292B28A4B1B681968C1F30F2311F0FF0F01D001339BB29A42C0F0F8804846514607AA434600F04F
:4011C00037FA00B10A2600F003FB4FF0000A524612E1002F40F01581042600220CE1002F00F0E6800AEB0803B3F5967F00F2E38007AB03EB0A0053A9424601F023F9C24415
:401200001FFA8AFA0022F7E0B8F1000F40F0D68004AB6E4A92E8030083E8030053AA82E803004FF0000A01270822E5E0002F00F0C880B8F1030F40F0D1809DF84EB19DF8F2
:401240004D3143EA0B2BA9F14003DBB23F2B10D84FEA0B11BBF13F0F01D8334600E00A23002B40F0BE805A481022FFF793FD019011E00BEB09210902BBF1FF0F01D8334677
:4012800000E00A23002B40F0AF8000204FF48072FFF780FD0190B9F13F0F0FD809F510320BEB02225201002306E0995C01980144C9B2019101339BB21F2BF6D9B9F1030F73
:4012C00013D1BBF1FF0F10D105200021FFF77AFD019B181A00F0FF0906200021FFF772FDC0EB090000F0FF030193019B5B428DF84C31012280E00020FFF706FE10B98022CD
:40130000344B1A7000F03CFA0426002274E0324B1B68002B6BD0002F6CD08DF80820ADF80A8053AA0392002104910591069202A804A99847BDF81420B2F5937F03D306996E
:4013400053AB994205D0069B03B92AB99DF8106052E00E2600224FE00E2600224CE000224AE00426002247E00426002244E00426002241E0042600223EE0042600223BE0D4
:401380000426002238E00426002235E00426002232E0042600222FE04FF0000A032652462AE0002228E04FF0000A0A26524623E00426002220E0032600221DE0042600227D
:4013C0001AE00426002217E00C81FF1F402B000000800040FA4600405881FF1F042600220AE01E46002207E01E46002204E00526002201E005260022304652A9FFF7A0FCD8
:4014000001E04FF0000A002D3FF4DBAD002F7FF4D8AD0DF51F7DBDE8F08F00BF38B50020FFF772FD08B1062400E00024134D2B68002001461A68FFF7ADFC6B681B78C01ADE
:40144000C0B24042C0B2834202D12B681B6813B9002000F093F90A4B1B7803F0C003402B00D024B10020064B1870FFF797FD1420FFF794FDFFF75AFC38BD00BF0C81FF1F59
:40148000FA460040044A137803F0FE0300F0010018431070704700BF60510040044A137803F0FD03400000F0020018431070704760510040044A137803F0FB03800000F0F1
:4014C000040018431070704760510040044A137803F0F703C00000F0080018431070704760510040044A137803F0EF03000100F0100018431070704760510040044A137849
:4015000003F0DF03400100F0200018431070704760510040054A137843F0010313701032137843F001031370704700BFA2430040054A137843F0020313701032137843F0B7
:4015400002031370704700BFA2430040000000000230800803D000BF01380046FCD17047EFF3108072B6704780F31088704700BF10B500F07BF900F029FAD0B900F068FA10
:401580000446072812D102E0012000F017F90A4B1B7813F0020FF7D0074B1B7813F0020F04D0054B1B789B0800D1002400F034FA00E00424204610BD2247004010B500F00A
:4015C00055F900F003FA10BB012000F0E1F9072818D11048022100F05BF902280AD102E0012000F0EBF80C4B1B7813F0020FF7D0002409E0084B1B7813F0020FE9D04FF084
:40160000FF3401E04FF0FF3400F006FA00E00424204610BD6882FF1F2247004008B5FFF7A7FF034610B9FFF7C9FF0346184608BD2DE9F041441FE4B23A2C01D9002500E02E
:40164000012510F0800F00D00125412800D901253F2803D8B1F5807F06D808E0802900D90125102B02D102E0012500E0012502B90125002D50D1984616460F46044600F0EE
:40168000A5F9002847D1204639463246434600F019F9064607283AD102E0012000F08EF81F4B1B7813F0020FF7D01D4B1B7813F0020F06D01A4B1B789B0805D04FF0FF36C4
:4016C00003E04FF0FF3600E02E4606BB154B204639461A785B7800F035F9072804D0064615E0012000F06AF80D4B1B7813F0020FF7D00B4B1B7813F0020F06D0084B1B7880
:401700009B0804D04FF0FF3601E04FF0FF3600F083F9354600E004252846BDE8F08100BF224700406882FF1F08B5FFF719FF0F4A137843F0080313701032137843F008030A
:401740001370C8220A4B1A700A4A137843F0100313701032137843F010031370064B1B7813F0200FFAD0FFF7FFFE08BDA043004001470040AC4300400047004001BE704770
:40178000024A137843F0010313707047F646004010B5044605E0084B1868FFF7D9FEA4F50044B4F5004FF6D8034B586800FB04F0FFF7CEFE10BD00BF1481FF1F08B5034B25
:4017C0001B7A03FB00F0FFF7C3FE08BD1481FF1F08B5FFF7C5FE00BF00BF00BF00BF00BF00BF00BF00BF00BF00BF00BF00BF00BF00BF00BF00BF064A13889BB243F004035F
:4018000013801388BFF36F8FFFF7AEFE08BD00BF0048004070B504460E46074B1D681F2802D90020FFF7AAFF04F01F04103455F8240045F8246070BD08ED00E038B50446DB
:401840000D46072902D90020FFF798FF1F2C02D90020FFF793FF04F01F0000F1604000F564406D01EDB2057038BD00BF08B5FFF777FE064A137843F008031370103213788B
:4018800043F008031370FFF76FFE08BDA043004070B506460D4600240CE00120FFF78EFF064B1B7813F0010FF7D0054B1B7833550134E4B2AC42F3D3204670BD22470040C0
:4018C0002047004070B41D4C247814F0020F2CD01B4CB6252570D5252570022525700234247814F0020F22D1154C2070002404E0165D134D2E700134A4B29C42F8D3B3F5C5
:40190000807F16D13F2816D800F5103001EB00214801002305E01A5CD2B209490A7001339BB21F2BF7D9072006E0042004E0092002E0072000E0072070BC7047224700409E
:401940002047004030B4104C247814F0020F15D00E4CB6252570D8252570052525700234247814F0020F0BD1084C2070080A2070C9B2217022702370072002E0042000E048
:40198000092030BC704700BF22470040204700400C4B1B7813F0020F0FD00B4BB6221A70E1221A700E221A7002331B7813F0020F05D1054B18700720704704207047092004
:4019C000704700BF224700402047004010B5FFF7C7FD0F4B1B78A3B901220D4B1A700D4B1B6813F0010F0ED00A4A136823F00103136000BF00BF00BF0122054B5A600024A1
:401A000002E0042400E00024FFF7AEFD204610BD5C81FF1F0400084008B5FFF7A1FD0A4B00221A705B68012B0AD1084A136843F00103136000BF00BF00BF0022024B5A6084
:401A4000FFF792FD08BD00BF5C81FF1F04000840074B1B7813F0020F08D0064BB6221A70E0221A700D221A700720704704207047224700402047004008B5FEF7D7FFFFF7C6
:401A800043F8FFF7ADF808BDF8B506460D461746FFF73AF8002404E0305DFFF757F80134A4B2AC42F8D33D800020F8BD2DE9F0470746894690461D46002414E0FEF7F6FF66
:401AC00060B1FEF7F3FF04461920FFF761FEFEF7EDFF8442F5D34FF0000A0BE00120FFF757FE0134A4B205EB85035B009C42E5DB4FF0050A0025A8F8005023E0FEF7D6FFDB
:401B000086B2B8F8003033449BB2A8F800304B4508D313E0FEF798FF78550135ADB20134A4B200E00024B442F4D37B1913F8013C172B07D00520FFF72BFE03E09B1BA8F8EF
:401B4000003003E0FEF7B2FF0028D7D15046BDE8F08700BF81F0004102E000BF83F0004330B54FEA41044FEA430594EA050F08BF90EA020F1FBF54EA000C55EA020C7FEABC
:401B8000645C7FEA655C00F0E2804FEA5454D4EB5555B8BF6D420CDD2C4480EA020281EA030382EA000083EA010180EA020281EA0303362D88BF30BD11F0004F4FEA013135
:401BC0004FF4801C4CEA113102D0404261EB410113F0004F4FEA03334CEA133302D0524263EB430394EA050F00F0A780A4F10104D5F1200E0DDB02FA0EFC22FA05F28018A5
:401C000041F1000103FA0EF2801843FA05F359410EE0A5F120050EF1200E012A03FA0EFC28BF4CF0020C43FA05F3C01851EBE37101F0004507D54FF0000EDCF1000C7EEB96
:401C400000006EEB0101B1F5801F1BD3B1F5001F0CD349085FEA30004FEA3C0C04F101044FEA445212F5800F80F09A80BCF1004F08BF5FEA500C50F1000041EB045141EAA9
:401C8000050130BD5FEA4C0C404141EB010111F4801FA4F10104E9D191F0000F04BF01460020B1FA81F308BF2033A3F10B03B3F120020CDA0C3208DD02F1140CC2F10C02B1
:401CC00001FA0CF021FA02F10CE002F11402D8BFC2F1200C01FA02F120FA0CFCDCBF41EA0C019040E41AA2BF01EB0451294330BD6FEA04041F3C1CDA0C340EDC04F11404DF
:401D0000C4F1200220FA04F001FA02F340EA030021FA04F345EA030130BDC4F10C04C4F1200220FA02F001FA04F340EA0300294630BD21FA04F0294630BD94F0000F83F4D7
:401D4000801306BF81F480110134013D4EE77FEA645C18BF7FEA655C29D094EA050F08BF90EA020F05D054EA000C04BF1946104630BD91EA030F1EBF0021002030BD5FEAF1
:401D8000545C05D14000494128BF41F0004130BD14F580043CBF01F5801130BD01F0004545F0FE4141F470014FF0000030BD7FEA645C1ABF194610467FEA655C1CBF0B4608
:401DC000024650EA013406BF52EA033591EA030F41F4002130BD00BF90F0000F04BF0021704730B54FF4806404F132044FF000054FF0000150E700BF90F0000F04BF002116
:401E0000704730B54FF4806404F1320410F0004548BF40424FF000013EE700BF42004FEAE2014FEA31014FEA02701FBF12F07F4393F07F4F81F06051704792F0000F14BF1E
:401E400093F07F4F704730B54FF4607401F0004521F0004120E700BF50EA010208BF704730B54FF000050AE050EA010208BF704730B511F0004502D5404261EB41014FF432
:401E8000806404F132045FEA915C3FF4DCAE4FF003025FEADC0C18BF03325FEADC0C18BF033202EBDC02C2F1200300FA03FC20FA02F001FA03FE40EA0E0021FA02F1144422
:401EC000C1E600BF70B54FF0FF0C4CF4E06C1CEA11541DBF1CEA135594EA0C0F95EA0C0F00F0DEF82C4481EA030621EA4C5123EA4C5350EA013518BF52EA033541F480111A
:401F000043F4801338D0A0FB02CE4FF00005E1FB02E506F00042E0FB03E54FF00006E1FB03569CF0000F18BF4EF0010EA4F1FF04B6F5007F64F5407404D25FEA4E0E6D4131
:401F400046EB060642EAC62141EA55514FEAC52040EA5E504FEACE2EB4F1FD0C88BFBCF5E06F1ED8BEF1004F08BF5FEA500E50F1000041EB045170BD06F0004646EA010161
:401F800040EA020081EA0301B4EB5C04C2BFD4EB0C0541EA045170BD41F480114FF0000E013C00F3AB8014F1360FDEBF002001F0004170BDC4F10004203C35DA0C341BDC5A
:401FC00004F11404C4F1200500FA05F320FA04F001FA05F240EA020001F0004221F0004110EBD37021FA04F642EB06015EEA430E08BF20EAD37070BDC4F10C04C4F1200557
:4020000000FA04F320FA05F001FA04F240EA020001F0004110EBD37041F100015EEA430E08BF20EAD37070BDC4F1200500FA05F24EEA020E20FA04F301FA05F243EA0203BE
:4020400021FA04F001F0004121FA04F220EA020000EBD3705EEA430E08BF20EAD37070BD94F0000F0FD101F00046400041EB010111F4801F08BF013CF7D041EA060195F0BC
:40208000000F18BF704703F00046520043EB030313F4801F08BF013DF7D043EA0603704794EA0C0F0CEA135518BF95EA0C0F0CD050EA410618BF52EA4306D1D181EA030133
:4020C00001F000414FF0000070BD50EA410606BF1046194652EA430619D094EA0C0F02D150EA013613D195EA0C0F05D152EA03361CBF104619460AD181EA030101F0004127
:4021000041F0FE4141F470014FF0000070BD41F0FE4141F4780170BD70B54FF0FF0C4CF4E06C1CEA11541DBF1CEA135594EA0C0F95EA0C0F00F0A7F8A4EB050481EA030E4C
:4021400052EA03354FEA013100F088804FEA03334FF0805545EA131343EA12634FEA022245EA111545EA10654FEA00260EF000419D4208BF964244F1FD0404F5407402D2E5
:402180005B084FEA3202B61A65EB03055B084FEA32024FF480104FF4002CB6EB020E75EB030E22BFB61A754640EA0C005B084FEA3202B6EB020E75EB030E22BFB61A7546F3
:4021C00040EA5C005B084FEA3202B6EB020E75EB030E22BFB61A754640EA9C005B084FEA3202B6EB020E75EB030E22BFB61A754640EADC0055EA060E18D04FEA051545EA14
:4022000016754FEA06164FEAC30343EA52734FEAC2025FEA1C1CC0D111F4801F0BD141EA00014FF000004FF0004CB6E711F4801F04BF01430020B4F1FD0C88BFBCF5E06FEB
:402240003FF6AFAEB5EB030C04BFB6EB020C5FEA500C50F1000041EB045170BD0EF0004E4EEA113114EB5C04C2BFD4EB0C0541EA045170BD41F480114FF0000E013C90E62E
:4022800045EA060E8DE60CEA135594EA0C0F08BF95EA0C0F3FF43BAF94EA0C0F0AD150EA01347FF434AF95EA0C0F7FF425AF104619462CE795EA0C0F06D152EA03353FF4F9
:4022C000FDAE1046194622E750EA410618BF52EA43067FF4C5AE50EA41047FF40DAF52EA43057FF4EBAE12E74FF0FF3C06E000BF4FF0010C02E000BF4FF0010C4DF804CD0D
:402300004FEA410C7FEA6C5C4FEA430C18BF7FEA6C5C1BD001B050EA410C0CBF52EA430C91EA030F02BF90EA020F0020704710F1000F91EA030F58BF994208BF90422CBF1A
:40234000D8176FEAE37040F0010070474FEA410C7FEA6C5C02D150EA013C07D14FEA430C7FEA6C5CD6D152EA033CD3D05DF8040B704700BF8446104662468C461946634607
:4023800000E000BF01B5FFF7B7FF002848BF10F1000F01BD4DF808EDFFF7F4FF0CBF012000205DF808FB00BF4DF808EDFFF7EAFF34BF012000205DF808FB00BF4DF808ED3B
:4023C000FFF7E0FF94BF012000205DF808FB00BF4DF808EDFFF7CEFF94BF012000205DF808FB00BF4DF808EDFFF7C4FF34BF012000205DF808FB00BF0E4B70B51E460E4C3B
:402400000025E41AA410A54204D056F8253098470135F8E700F098FB084B094C1E46E41AA4100025A54204D056F8253098470135F8E770BD542B0000542B0000542B000011
:402440005C2B000010B5431E0A44914204D011F8014B03F8014FF8E710BD03460244934202D003F8011BFAE770470000002C00000900000000000000435345203439343088
:402480003A20576972656C65737320436865737320426F6172640A0A0000000078323000782D32300000000079323000792D323000000000F0510040100000000140000AA2
:4024C000800A01408005001401408006001B0140000100400140000A004C01400002005001402000000A0140402A00008000801A0140C02A000080000852004003640040CE
:4025000003650040020701406608014049090140180A01403C0B0140021701406818014047190140171A01403F1B014005400140044101400442014007430140034701400A
:4025400006480140064C01400B4D0140085001400151014004FF08400940240F2801290134C06407880F89388A728838890F8B72E202E64000100240041006AC0A030C090E
:402580000D180ED00F24140C1552167117241814191F1B601F4024DC2622291F2B202E202F2D310432E03378341F370339803A083B083F4140254103450B460C470E48159F
:4025C00049FF4AFF4BFF4EF04F44500C54015604580459045A045B045F0166C06A406B028450850288028A0C8B018C308E448F0190249240944096309A019C40A201A8709A
:40260000AA08B001B27CB301B402B502BB02BE11BF14C003C540C9FFCA07CBFFCC40CD20CEF0CF05D008D418D604D804D904DA04DB04DC01DD01DF01E040E1A8E240E32056
:402640000050022005500640071009200AA00B020E200F08111012801540170418101A081B011D101E201F042004210627912DC02E202F0635403604371439A03A043F80B7
:4026800043084620471049024B024D804F0850085480560457405A025C045F9160086202630266017808790886068E0191A09202A120A280A502AA40C0F7C26FC4AACA3050
:4026C000CC70CE1ED062D210D6F1D88DE408E640EA048301850289028C018E0E910298229A519C449E31A467A867B102B218B460B501B607BE04D608D804D904DB04DD9009
:40270000DF0100440102030405400601081009020A200B010C100E080F0110A812011728180419171A201D481E081F202160220524402744295130023106336037023828A4
:402740003A423E143F014040412848024A08511052805A085E40664067016A146B2A70BC72028D018E08C08FC2CFC46FCA0DCC8FCEEFD007D20CD612D810E204E608024011
:402780000430060D0A800E301405163819011E802220264028052A182C022E0C308031013240343C360338803A203E053F014004460449FF4A074BFF4C404D204EF04F05DE
:4027C000500854185604580459045A045B045D105F01604061A862406320820284B88645885689138AA18B0C8D138F0492469520970599039B049CB89E439F08A140A68069
:40280000A90AAAA9AB14B080B218B340B463B50FB607B730B808B980BAA0BB20BE05BF04C026C104C50CC6BEC80DC9FFCAFFCBFFCEF0CF44D00CD401D604D804D904DA0490
:40284000DB04DC11DD11DF01E6C0EA40EB02000801320426054008800A820E200F0210381651171019201A421B081C041D401E081F05200821102254250129212B8030286D
:40288000324035103840392040C04110470148285220538056415702581059015A485E0263806602670A834086029440951096A099129B119D409E40A008A210A624A70AF1
:4028C000AA04AB01B080B310C0FEC2A9C4F6CA05CC2ECE0CD085D204D68FD8B1040106260C0A0E511C141E491F01249F289F2C80301831013207346036803E105608580454
:4029000059045B045C115D905F0100400108022003100542072809800C800D280E40102A154217141840190A1B501C011D281E401F2821012422250426112C802D402F28B4
:402940003180354236203C013E68452447404D404FA0561057015A805E2061C06C2A7480762877288001834C8E4094229E10A601A701B501C0F5C2F1C4F7CAF0CCB8CEF0E6
:40298000D070D230D628D8083202338035803708CCF09D809F08A602A7809D809F08A602A78086028F089D809F08A602A780E24086029E20AA20818087809D80A780E22008
:4029C000E6100D8066029A029E20C201D80106205C108D8090109E20A180B410C004D604E208E808000301010C030D01100311011C031D0100FF0000FF000000000000001A
:402A00000708080000000000400080404000400000000000007F7F000000000000FFFF00000000000F00000000000000010002050500010000000000C03F3F0000000000A8
:402A4000F3200C004C30A300001040000002B300FF7F00004F70900F010100004200000B084F0030040000000C780007030300000F038C407C38000400802A000000000488
:402A8000640502000300EC000CFFFFFF62A0F0410C00000000000212040404040000000100000000000040020010301000101012000000000000000000000000000000008B
:402AC000017800070C100000043000004270000F4F019000FF000000F3030C0008020000002040004C4FA330037F00000000B30B8C0300380F407C040080AA00000000107C
:402B0000250103000600E0C028FFFFFF62A0F0410C000000000002110404040411110001000000000000400200103010001010120000000000000000000000000000000058
:402B400069F0152E00280101F8B500BFF8BC08BC9E46704751000000E1020000F8B500BFF8BC08BC9E4670472D000000802B00000881FF1F20000000480100000000000075
:402B8000000000006C240000702400000000C05D80BB000030000000006CDC020000000000000000000000000000000000000000000000000000000000000000000000001F
:402BC00000000000000000000000000000000000000000000000000000000000000000000000000000000000000000000000000000000000000000000000000000000000D5
:402C000000800020112C00007D2E00007D2E000008B500F035F900BF10B5054C237833B9044B13B10448AFF300800123237010BD2081FF1F00000000C0510000084B10B53D
:402C40001BB108480849AFF300800848036803B910BD074B002BFBD0BDE81040184700BF00000000C05100002481FF1F0881FF1F0000000008B562B601F094FA00F0CAFCA1
:402C8000034800F08FFD00F0E9FB00F083FB08BDC451000008B5FFF7EDFF0023174A1380174A1380174800F07DFD142000F032F84FF47A7001F016FC134800F073FD6FF026
:402CC000130000F027F84FF47A7001F00BFC0F4800F068FD142000F077F84FF47A7001F001FC0B4800F05EFD6FF0130000F06CF84FF47A7001F0F6FBD4E700BF6481FF1F43
:402D00006681FF1FE8510000EC510000F4510000F85100002A4BB3F900300344B3F57A7F4CD82DE9F04105468046012001F04CFA012001F06DFA002D07DA012001F05CFA8E
:402D4000012001F07DFA002416E0002001F054FA002001F075FAF6E7002001F041FA012001F03EFA002001F05FFA012001F05CFA0A2001F0B7FB0134204601F0E7FE064602
:402D80000F46322000FB05F001F0E0FE00220D4B01F042FF02460B463046394602F0AEF90028D9D1064B188840441880002001F00BFA002001F02CFABDE8F081704700BF22
:402DC0006481FF1F0000E03F2A4BB3F900300344B3F57A7F4CD82DE9F04105468046012001F0F2F9012001F013FA002D07DA012001F002FA002001F023FA002416E000205C
:402E000001F0FAF9012001F01BFAF6E7002001F0E7F9012001F0E4F9002001F005FA012001F002FA0A2001F05DFB0134204601F08DFE06460F46322000FB05F001F086FECA
:402E400000220D4B01F0E8FE02460B463046394602F054F90028D9D1064B188840441880002001F0B1F9002001F0D2F9BDE8F081704700BF6681FF1F0000E03FFEE700BF6A
:402E800008B5104E104D16E029686B68AC68002204E051F8040B43F8040B0432A242F8D1E868002203E0002143F8041B04328242F9D11035013E002EE6D102F047F9FFF77C
:402EC000E9FEFEE7010000007052000008B5124A124B1A60124A136843F40073136000230AE0032B03D80F4A52F8231000E00E490E4A42F8231001332F2BF2D90C4B1A7835
:402F00000C4B1A70094A0C4B1A6000F0B9F800220A4B1A6008BD00BF0004FA050CED00E014ED00E0002C00007D2E00000080FF1FBC7600400481FF1F08ED00E00081FF1FBB
:402F4000FEE700BFF0B40022174611E050F82760F3B226F0FF0608E001EB420511F812406D78A5550132013BDBB2002BF4D10137162FEBD9F0BC7047064B1B78DBB203F0C1
:402F80000701054A11701B09013213704422034B1A707047CF0100496E5800407658004008B50A46002102F002F908BD38B53322264B1A80182326490B7002310A80254ABF
:402FC00013700222244B1A7008224FF040231A70032203F500731A70204B1B78DBB2204A137010221F4B1A8041F25122023B1A80002419250CE01C4B1B7803F0010343EA2A
:40300000440404F003044FF4F07001F041F9013D0DB1032CEFD115B90320FFF791FF134B4FF480721A8007221A70002210490A704820023108701A700222033B1A700D4A68
:40304000137843F00303137038BD00BF8040004082400040864000400043004008010049A146004022420040254200400440004006400040A243004008B502F08DF808BDDE
:4030800038B572B6464A137843F00403137000240CE0444963001A1952000A4423445B00C8589188FFF77CFF0134E4B2072CF0D900240FE03B49A3001A1952000A4452F8C6
:4030C000300F23445B000B4451681A8FFFF7D4FF0134E4B2012CEDD9334C204604F15C01FFF730FF314A137843F0020313701032137843F0020313702D4D2B7843F040035F
:403100002B70A2F58632513A137843F010031370284804F5C0610822FFF7AEFF264804F5C1610822FFF7A8FF244804F5C2610A22FFF7A2FF224804F21C610822FFF79CFF3C
:40314000204804F224610822FFF796FF1E4804F22C610822FFF790FF1C4804F234610A22FFF78AFF1A4804F5C8610822FFF784FF184A137843F008031370174C6123237036
:40318000FFF714FFC12323700122144B1A70FFF7F3FE134829460E22FFF76EFF38BD00BFE8460040005200008005004803500140A043004002510040C251004010510040C0
:4031C0002251004032510040425100405051004062510040224300400048004004000840B043004010B50B4C237803F09F032370237803F0F00323702378184340F01000DD
:403200002070012001F084F9237803F0EF03237010BD00BF2051004070B5354B1A7802F08002D2B21A7033490A7802F0F00242F00F020A7001310A7802F0F0020A70013183
:403240000A7802F0F0020A701A7802F0DF021A701A7842F040021A704FF4CA76002001F057F9234D2B7843F010032B70012001F04FF9214B1C78E4B22B7803F0EF032B7004
:40328000002001F045F904F00804E4B22B7843F010032B70012001F03BF92B7803F0EF032B7014B90A2001F033F9013E0CB1002ED4D10F4A137803F0BF031370137803F0BF
:4032C0008003DBB213700232137803F0F00313700132137803F0F00343F00F0313700132137803F0F00343F00F03137070BD00BF20510040225100402151004010B504462A
:40330000FFF78AFF2009FFF76DFF04F00F00FFF769FF10BD08B5282001F0E4F80320FFF761FF052001F0DEF80320FFF75BFF0F2001F0D8F80320FFF755FF012001F0D2F872
:403340000220FFF74FFF052001F0CCF80620FFF7D5FF0E20FFF7D2FF2C20FFF7CFFF0820FFF7CCFF0120FFF7C9FF0C20FFF7C6FF0320FFF7C3FF052001F0B4F808BD00BF48
:4033800008B50C20FFF7BAFF0122014B1A7008BD3C81FF1F08B5054B5B7823B9FFF7BAFF0122024B5A70FFF7EBFF08BD3C81FF1F08B50220104901F0D7F80220072101F084
:4033C000E7F800220D4B1A7072220D4B1A702022013B1A7003200B4901F0C6F80320072101F0D6F80622084B1A70472210331A700222B03B1A7008BD793400003E81FF1F19
:403400008A6400400D3500002865004010B500F047FF04460D4A137843F020031370013A137843F010031370094A0423136009490B7843F010030B70082307490B601360E4
:4034400000F00AFF204600F02FFF10BD9A64004000E100E09864004080E200E008B5054B5B7823B9FFF7A4FF0122024B5A70FFF7CDFF08BD3E81FF1F1C4B1B78DBB213F008
:403480001E0F05D01A4803F01E0201780A43027003F0200303F0FF022BB3164B1978C9B2154B1B78DBB21548C154154B1B7813F0FF0F02D00121134B19700F490B78013328
:4034C000DBB20B700B78DBB23F2B02D900210A4B1970094B1B780C490978DBB28B4202D10121074B1970002AC6D17047696400403E81FF1F4A6400404181FF1F6881FF1F52
:403500004281FF1F4381FF1F4081FF1F13E0104B1B78DBB23F2B02D900220D4B1A700C4A1378DBB20B49CB5CDBB20B490B7013780133DBB21370064B1B78DBB2074A1278D2
:40354000934204D0064B1B7813F0040FDFD070474481FF1FA881FF1F486400404581FF1F6864004008B50020114900F0FDFF0020072101F00DF800220E4B1A7072220E4BE9
:403580001A702022033B1A7001200C4900F0ECFF0120072100F0FCFF0622094B1A70472210331A70022203F5A8731A7008BD00BF093800004781FF1F8B6500409D38000045
:4035C0002964004010B500F06BFE04460D4A137843F020031370033A137843F010031370094A0123136009490B7843F010030B70022307490B60136000F03CFE204600F0F7
:4036000053FE10BD9B65004000E100E09965004080E200E008B5054B5B7823B9FFF7A2FF0122024B5A70FFF7CDFF08BD4781FF1F0122134B1A60134A9378DBB2D178C9B23D
:40364000127912F0FF0F01D18B4211D00E4AD05CC0B20133DBB23F2B00D90023094A9370137913F0FF0F06D00022064B1A7102E0064B1878C0B20122054B1A60704700BFB3
:4036800080E100E04781FF1FE881FF1F4B65004000E100E00122134B1A60134A9378D278DBB2934206D1104B1B7913F0FF0F14D0402013E00C4A9378D278DBB2934205D2AA
:4036C000094AD3789078181AC0B207E0064AD3789078181A4030C0B200E000200122034B1A60704780E100E04781FF1F00E100E008B500F0D5FD0B4B1A7842F001021A7032
:403700001A7802F0FE021A7000F0CEFD0121064B1960064B00229A70DA701A715A71044B196008BD9B65004080E100E04781FF1F00E100E0164BD9799B79DBB2994205D2FC
:403740005A1E914214BF0022012204E0CA1A3F2A14BF00220122002AECD18B4207D10D4B1B7813F0040F02D10B4B187070473F2900D90021094B58540131054BD971054B2A
:403780001B7813F0020F02D00222054B1A6070474781FF1F69650040496500402882FF1F00E200E038B5074B5B782BB938BDFFF7C1FF0134A4B201E005460024285D002856
:4037C000F5D138BD4781FF1F08B500F069FD0A4B1A7842F001021A701A7802F0FE021A7000F062FD0223054A1360054A00219171D171044A136008BD9965004080E100E072
:403800004781FF1F00E100E01C4B1B78DBB213F01E0F05D01A4803F01E0201780A43027003F0200303F0FF022BB3164B1978C9B2154B1B78DBB21548C154154B1B7813F06B
:40384000FF0F02D00121134B19700F490B780133DBB20B700B78DBB23F2B02D900210A4B1970094B1B780C490978DBB28B4202D10121074B1970002AC6D170476865004088
:403880004781FF1F4B6500404A81FF1FE881FF1F4B81FF1F4C81FF1F4981FF1F13E0104B1B78DBB23F2B02D900220D4B1A700C4A1378DBB20B49CB5CDBB20B490B7013787E
:4038C0000133DBB21370064B1B78DBB2074A1278934204D0064B1B7813F0040FDFD070474D81FF1F2882FF1F496500404E81FF1F69650040002306E0421812F8012C1344A1
:403900009BB2013989B20029F6D1584280B270472DE9F04182B00C46164602AF27F8022D01230B7048701546A270130ACB7002F1040808461FFA88F1FFF7DCFF04F808005C
:40394000731DC0F30720E054063517236355F11D204689B23A46962300F040FF02B0BDE8F08100BF70B505460E461446084B984203D010B1002000F0ABFD002004E0013C06
:40398000AB191B5D1844C0B2002CF8D170BD00BF0080004070B5C0B00E46C0F30745C0F3072120F0FF04002304E01A5D0DF8032001339BB2FF2BF8D9C3B20DF80360284619
:4039C0006A4600F051FD00F0ADFD40B070BD00BF012814D838B50DE02002C0F57F3000F57470AC4214BF00210121FFF7D3FF0134E4B201E005460024012CEDD938BD70478F
:403A000008B501380B2867D8DFE800F0060E161E262E3E36464E565E4942090201F57F3101F5707101225CE04942090201F57F3101F2C131042254E04942090201F57F31E6
:403A400001F2C53102224CE04942090201F57F3101F2C931042244E04942090201F57F3101F5747101223CE04942090201F57F3101F2D131012234E04942090201F57F31A0
:403A800001F2D63102222CE04942090201F57F3101F2D231022224E04942090201F57F3101F5757102221CE04942090201F57F3101F57671042214E04942090201F57F31DB
:403AC00001F5777101220CE04942090201F57F3101F57871042204E0002000F0F9FC02220021012A02D10878C0B200E00020022A03D10B78487843EA0020042A09D10B785F
:403B0000487843EA0023887843EA0043C87843EA006008BDF8B5064603203146FFF770FF0130070204203146FFF76AFF074403203146FFF765FF013000020024254608E05E
:403B400003785A1ED2B2FD2A00D801252344DCB20130B842F4D303203146FFF751FF01300002C0080F4B9F4201D0FF0808E04FF4004705E000F190431B782344DCB2013000
:403B8000B842F7D36442E4B201203146FFF738FF844202D11DB90620F8BD0620F8BD0020F8BD00BFC0FF0300012823D8F8B51F4615460E46044603202146FFF721FF80B2C4
:403BC000421C92B2C0F57F70013080B2C4F10203DBB290FBF3F31344013B9BB2954201D39D4209D9032E09D1C4F1FF00874207D00020F8BD0D2070470D20F8BD0020F8BD49
:403C00000D20F8BD2DE9F04FADF51D7D054602200121FFF7F5FE804600F0A0FB10B1002000F056FC00F0D2FD62B60A2400270DB9FF2300E02B4650A84FF496710DF26E22EF
:403C400000F0DEFD0DB1013CE4B20CB10028EED1002840F09482BDF86E32062B24D99DF84021012A22D19DF843719DF8422142EA07273946FA1D9A421AD8B2F5967F19D893
:403C80007A1D50AB9E5C3A1D9A5C42EA062606315B5C172B10D1391D50A889B2FFF72AFEB0420BD100260AE0042608E0042606E0032604E0032602E0042600E00826002E9D
:403CC00040F00E829DF844919DF84121A2F131030A2B00F2DB81DFE813F00B001E0047005C00F8000101170132015C004801BC01BE4B5B79012B40F0F581002F40F0F58198
:403D0000BB4B5878FFF706FFB0FA80F040098DF8440101222FE2B54B5B79012B40F0E881012F40F0E881B9F1030F00F2E78103200021FFF765FE80B2020A914501D1C3B2E1
:403D400005E0914501D9002301E04FF480738DF844311B0A8DF84531FF238DF8463100238DF84731042206E2A04B5B79012B40F0C881012F40F0C8814846FFF7CBFE8DF82F
:403D8000440105204946FFF73BFE8DF845010222F1E1342A1AD1954B5B79012B40F0B781032F40F0B781A9F14003DBB23F2B03D810228E4BDA8003E04FF490728B4BDA8083
:403DC00005A80021894BDA8801F0F1F9874B5B79012B40F0A281022F40F2A281DFF80CB2BBF806A005AB03EB0A000DF24711FA1E01F0D2F907EB0A03033BABF80630A9F1C8
:403E00004003DBB23F2B04D800F038FB4022102703E04FF480724FF49077744BDB88BB424ED19DF846119DF8453143EA01236F49CB809A4200D80A26002E40F07481B9F1E4
:403E40003F0F31D803EB09231FFA83FA684B1B782BB903200121FFF7D3FD80B204E003200021FFF7CDFD80B2431C9BB29A4504D200225E4BDA800A267DE1B8F1000F13D00B
:403E80005B4B5B78DBB2012B0ED8594B587849465246564BDB88FFF787FE0D2804D10022524BDA80064666E14846504BD98805AA3B4600F05DFA00B10A2600F033FB00E03A
:403EC00003260022494BDA8055E1484B5B79012B40F02B810022454BDA8050E1434B5B79012B40F02581012F40F025814846FFF711FE002840F022814846FFF769FD3C4B3E
:403F000083F80190002236E1384B5B79012B40F01881364BB3F8069009EB0703B3F5967F00F2128105AB03EB090051A93A4601F033F9B9442D4BA3F8069000221BE1002FBD
:403F400040F0058102AB2B4A92E8030083E80300264A0121117251710021D18051AA93E8030082E80300082205E1204B5B79012B40F0F080032F40F0F0809DF846B19DF841
:403F8000453143EA0B2BA9F14003DBB23F2B10D84FEA0B11BBF13F0F01D8334600E00A23002B40F0DD8014481022FFF7DBFC824611E00BEB09210902BBF1FF0F01D83346BB
:403FC00000E00A23002B40F0CE8000204FF48072FFF7C8FC8246B9F13F0F17D809F510320BEB0222520100230EE000BF5081FF1F0C81FF1F4452000000800040995C8A441D
:404000005FFA8AFA01339BB21F2BF7D9B9F1030F19D1ABF1FE039BB2012B14D8BBF1FF0B18BF4FF0010B05205946FFF7E9FCC0EB0A0000F0FF0906205946FFF7E1FCC0EBF9
:40404000090000F0FF0ACAF1000A8DF844A1012291E00B200121FFF7D3FC10F0010F03D040224D4B1A7007E04C4B5878FFF752FD10B98022484B1A704FF00009484B83F891
:40408000089000F027FA04264A4674E0444B1B68002B6BD04249497901296AD18DF80020ADF8027051AA01920021029103910492684602A99847BDF80C20B2F5937F03D34F
:4040C000049951AB994205D0049B03B92AB99DF8086050E00E2600224DE00E2600224AE0002248E00426002245E00426002242E0042600223FE0042600223CE004260022C1
:4041000039E00426002236E00426002233E00426002230E0042600222DE0042600222AE00426002227E0002225E00426002222E0042600221FE0042600221CE00C260022EB
:4041400019E00426002216E00326002213E00426002210E0042600220DE0042600220AE01E46002207E01E46002204E00526002201E005260022304650A9FFF7C9FB002D73
:404180003FF455AD064B5B79012B3FF450AD0DF51D7DBDE8F08F00BFFA4600400C81FF1F5081FF1F08B5074B1B7803F0C003402B04D10020034B1870FFF724FD1420FFF7E1
:4041C00021FD08BDFA460040044A137803F0FE0300F0010018431070704700BF60510040044A137803F0FD03400000F0020018431070704760510040044A137803F0FB0311
:40420000800000F0040018431070704760510040044A137803F0F703C00000F0080018431070704760510040044A137803F0EF03000100F010001843107070476051004044
:40424000044A137803F0DF03400100F0200018431070704760510040054A137843F0010313701032137843F001031370704700BFA2430040054A137843F00203137010322F
:40428000137843F002031370704700BFA24300400230800803D000BF01380046FCD17047EFF3108072B6704780F31088704700BF10B500F085F900F033FAD0B900F072FAC7
:4042C0000446072812D102E0012000F021F90A4B1B7813F0020FF7D0074B1B7813F0020F04D0054B1B789B0800D1002400F03EFA00E00424204610BD2247004010B500F089
:404300005FF900F00DFA10BB012000F0EBF9072818D11048022100F065F902280AD102E0012000F0F5F80C4B1B7813F0020FF7D0002409E0084B1B7813F0020FE9D04FF0E4
:40434000FF3401E04FF0FF3400F010FA00E00424204610BD6882FF1F2247004008B5FFF7A7FF034610B9FFF7C9FF0346184608BD2DE9F041441FE4B23A2C01D9002500E0B7
:40438000012510F0800F00D00125412800D901253F2803D8B1F5807F06D808E0802900D90125102B02D102E0012500E0012502B90125002D50D1984616460F46044600F081
:4043C000AFF9002847D1204639463246434600F023F9064607283AD102E0012000F098F81F4B1B7813F0020FF7D01D4B1B7813F0020F06D01A4B1B789B0805D04FF0FF3639
:4044000003E04FF0FF3600E02E4606BB154B204639461A785B7800F03FF9072804D0064615E0012000F074F80D4B1B7813F0020FF7D00B4B1B7813F0020F06D0084B1B78FE
:404440009B0804D04FF0FF3601E04FF0FF3600F08DF9354600E004252846BDE8F08100BF224700406882FF1F08B53F2801D9102301E04FF48073FFF77BFF08BD08B5FFF7DE
:404480000FFF0F4A137843F0080313701032137843F008031370C8220A4B1A700A4A137843F0100313701032137843F010031370064B1B7813F0200FFAD0FFF7F5FE08BD26
:4044C000A043004001470040AC4300400047004001BE7047024A137843F0010313707047F646004010B5044605E0084B1868FFF7CFFEA4F50044B4F5004FF6D8034B5868E6
:4045000000FB04F0FFF7C4FE10BD00BF1081FF1F08B5034B1B7A03FB00F0FFF7B9FE08BD1081FF1F08B5FFF7BBFE00BF00BF00BF00BF00BF00BF00BF00BF00BF00BF00BF49
:4045400000BF00BF00BF00BF00BF064A13889BB243F0040313801388BFF36F8FFFF7A4FE08BD00BF0048004070B504460E46074B1D681F2802D90020FFF7AAFF04F01F04FA
:40458000103455F8240045F8246070BD08ED00E038B504460D46072902D90020FFF798FF1F2C02D90020FFF793FF04F01F0000F1604000F564406D01EDB2057038BD00BF00
:4045C00008B5FFF76DFE064A137843F0080313701032137843F008031370FFF765FE08BDA043004070B506460D4600240CE00120FFF78EFF064B1B7813F0010FF7D0054BAC
:404600001B7833550134E4B2AC42F3D3204670BD224700402047004070B41D4C247814F0020F2CD01B4CB6252570D5252570022525700234247814F0020F22D1154C2070D6
:40464000002404E0165D134D2E700134A4B29C42F8D3B3F5807F16D13F2816D800F5103001EB00214801002305E01A5CD2B209490A7001339BB21F2BF7D9072006E0042085
:4046800004E0092002E0072000E0072070BC7047224700402047004030B4104C247814F0020F15D00E4CB6252570D8252570052525700234247814F0020F0BD1084C207012
:4046C000080A2070C9B2217022702370072002E0042000E0092030BC704700BF22470040204700400C4B1B7813F0020F0FD00B4BB6221A70E1221A700E221A7002331B785B
:4047000013F0020F05D1054B187007207047042070470920704700BF224700402047004010B5FFF7BDFD0F4B1B78A3B901220D4B1A700D4B1B6813F0010F0ED00A4A1368B1
:4047400023F00103136000BF00BF00BF0122054B5A60002402E0042400E00024FFF7A4FD204610BD5C81FF1F0400084008B5FFF797FD0A4B00221A705B68012B0AD1084A9E
:40478000136843F00103136000BF00BF00BF0022024B5A60FFF788FD08BD00BF5C81FF1F04000840074B1B7813F0020F08D0064BB6221A70E0221A700D221A700720704781
:4047C00004207047224700402047004008B5FEF721FFFEF78DFFFEF7F7FF08BDF8B506460D461746FEF784FF002404E0305DFEF7A1FF0134A4B2AC42F8D33D800020F8BD6A
:404800002DE9F0470746894690461D46002414E0FEF740FF60B1FEF73DFF04461920FFF761FEFEF737FF8442F5D34FF0000A0BE00120FFF757FE0134A4B205EB85035B00B9
:404840009C42E5DB4FF0050A0025A8F8005023E0FEF720FF86B2B8F8003033449BB2A8F800304B4508D313E0FEF7E2FE78550135ADB20134A4B200E00024B442F4D37B19FF
:4048800013F8013C172B07D00520FFF72BFE03E09B1BA8F8003003E0FEF7FCFE0028D7D15046BDE8F08700BF81F0004102E000BF83F0004330B54FEA41044FEA430594EA6C
:4048C000050F08BF90EA020F1FBF54EA000C55EA020C7FEA645C7FEA655C00F0E2804FEA5454D4EB5555B8BF6D420CDD2C4480EA020281EA030382EA000083EA010180EA4B
:40490000020281EA0303362D88BF30BD11F0004F4FEA01314FF4801C4CEA113102D0404261EB410113F0004F4FEA03334CEA133302D0524263EB430394EA050F00F0A78097
:40494000A4F10104D5F1200E0DDB02FA0EFC22FA05F2801841F1000103FA0EF2801843FA05F359410EE0A5F120050EF1200E012A03FA0EFC28BF4CF0020C43FA05F3C01833
:4049800051EBE37101F0004507D54FF0000EDCF1000C7EEB00006EEB0101B1F5801F1BD3B1F5001F0CD349085FEA30004FEA3C0C04F101044FEA445212F5800F80F09A8060
:4049C000BCF1004F08BF5FEA500C50F1000041EB045141EA050130BD5FEA4C0C404141EB010111F4801FA4F10104E9D191F0000F04BF01460020B1FA81F308BF2033A3F1A0
:404A00000B03B3F120020CDA0C3208DD02F1140CC2F10C0201FA0CF021FA02F10CE002F11402D8BFC2F1200C01FA02F120FA0CFCDCBF41EA0C019040E41AA2BF01EB045102
:404A4000294330BD6FEA04041F3C1CDA0C340EDC04F11404C4F1200220FA04F001FA02F340EA030021FA04F345EA030130BDC4F10C04C4F1200220FA02F001FA04F340EAFC
:404A80000300294630BD21FA04F0294630BD94F0000F83F4801306BF81F480110134013D4EE77FEA645C18BF7FEA655C29D094EA050F08BF90EA020F05D054EA000C04BF33
:404AC0001946104630BD91EA030F1EBF0021002030BD5FEA545C05D14000494128BF41F0004130BD14F580043CBF01F5801130BD01F0004545F0FE4141F470014FF0000012
:404B000030BD7FEA645C1ABF194610467FEA655C1CBF0B46024650EA013406BF52EA033591EA030F41F4002130BD00BF90F0000F04BF0021704730B54FF4806404F132049B
:404B40004FF000054FF0000150E700BF90F0000F04BF0021704730B54FF4806404F1320410F0004548BF40424FF000013EE700BF42004FEAE2014FEA31014FEA02701FBF16
:404B800012F07F4393F07F4F81F06051704792F0000F14BF93F07F4F704730B54FF4607401F0004521F0004120E700BF50EA010208BF704730B54FF000050AE050EA010246
:404BC00008BF704730B511F0004502D5404261EB41014FF4806404F132045FEA915C3FF4DCAE4FF003025FEADC0C18BF03325FEADC0C18BF033202EBDC02C2F1200300FA87
:404C000003FC20FA02F001FA03FE40EA0E0021FA02F11444C1E600BF70B54FF0FF0C4CF4E06C1CEA11541DBF1CEA135594EA0C0F95EA0C0F00F0DEF82C4481EA030621EAD1
:404C40004C5123EA4C5350EA013518BF52EA033541F4801143F4801338D0A0FB02CE4FF00005E1FB02E506F00042E0FB03E54FF00006E1FB03569CF0000F18BF4EF0010EF2
:404C8000A4F1FF04B6F5007F64F5407404D25FEA4E0E6D4146EB060642EAC62141EA55514FEAC52040EA5E504FEACE2EB4F1FD0C88BFBCF5E06F1ED8BEF1004F08BF5FEAB7
:404CC000500E50F1000041EB045170BD06F0004646EA010140EA020081EA0301B4EB5C04C2BFD4EB0C0541EA045170BD41F480114FF0000E013C00F3AB8014F1360FDEBF0C
:404D0000002001F0004170BDC4F10004203C35DA0C341BDC04F11404C4F1200500FA05F320FA04F001FA05F240EA020001F0004221F0004110EBD37021FA04F642EB060188
:404D40005EEA430E08BF20EAD37070BDC4F10C04C4F1200500FA04F320FA05F001FA04F240EA020001F0004110EBD37041F100015EEA430E08BF20EAD37070BDC4F1200546
:404D800000FA05F24EEA020E20FA04F301FA05F243EA020321FA04F001F0004121FA04F220EA020000EBD3705EEA430E08BF20EAD37070BD94F0000F0FD101F00046400035
:404DC00041EB010111F4801F08BF013CF7D041EA060195F0000F18BF704703F00046520043EB030313F4801F08BF013DF7D043EA0603704794EA0C0F0CEA135518BF95EA57
:404E00000C0F0CD050EA410618BF52EA4306D1D181EA030101F000414FF0000070BD50EA410606BF1046194652EA430619D094EA0C0F02D150EA013613D195EA0C0F05D155
:404E400052EA03361CBF104619460AD181EA030101F0004141F0FE4141F470014FF0000070BD41F0FE4141F4780170BD70B54FF0FF0C4CF4E06C1CEA11541DBF1CEA135534
:404E800094EA0C0F95EA0C0F00F0A7F8A4EB050481EA030E52EA03354FEA013100F088804FEA03334FF0805545EA131343EA12634FEA022245EA111545EA10654FEA002616
:404EC0000EF000419D4208BF964244F1FD0404F5407402D25B084FEA3202B61A65EB03055B084FEA32024FF480104FF4002CB6EB020E75EB030E22BFB61A754640EA0C0070
:404F00005B084FEA3202B6EB020E75EB030E22BFB61A754640EA5C005B084FEA3202B6EB020E75EB030E22BFB61A754640EA9C005B084FEA3202B6EB020E75EB030E22BF96
:404F4000B61A754640EADC0055EA060E18D04FEA051545EA16754FEA06164FEAC30343EA52734FEAC2025FEA1C1CC0D111F4801F0BD141EA00014FF000004FF0004CB6E7F0
:404F800011F4801F04BF01430020B4F1FD0C88BFBCF5E06F3FF6AFAEB5EB030C04BFB6EB020C5FEA500C50F1000041EB045170BD0EF0004E4EEA113114EB5C04C2BFD4EB85
:404FC0000C0541EA045170BD41F480114FF0000E013C90E645EA060E8DE60CEA135594EA0C0F08BF95EA0C0F3FF43BAF94EA0C0F0AD150EA01347FF434AF95EA0C0F7FF4BC
:4050000025AF104619462CE795EA0C0F06D152EA03353FF4FDAE1046194622E750EA410618BF52EA43067FF4C5AE50EA41047FF40DAF52EA43057FF4EBAE12E74FF0FF3CDF
:4050400006E000BF4FF0010C02E000BF4FF0010C4DF804CD4FEA410C7FEA6C5C4FEA430C18BF7FEA6C5C1BD001B050EA410C0CBF52EA430C91EA030F02BF90EA020F002083
:40508000704710F1000F91EA030F58BF994208BF90422CBFD8176FEAE37040F0010070474FEA410C7FEA6C5C02D150EA013C07D14FEA430C7FEA6C5CD6D152EA033CD3D04C
:4050C0005DF8040B704700BF8446104662468C461946634600E000BF01B5FFF7B7FF002848BF10F1000F01BD4DF808EDFFF7F4FF0CBF012000205DF808FB00BF4DF808EDB6
:40510000FFF7EAFF34BF012000205DF808FB00BF4DF808EDFFF7E0FF94BF012000205DF808FB00BF4DF808EDFFF7CEFF94BF012000205DF808FB00BF4DF808EDFFF7C4FFF0
:4051400034BF012000205DF808FB00BF0E4B70B51E460E4C0025E41AA410A54204D056F8253098470135F8E700F070F8084B094C1E46E41AA4100025A54204D056F82530E6
:4051800098470135F8E770BD5852000058520000585200006052000010B5431E0A44914204D011F8014B03F8014FF8E710BD03460244934202D003F8011BFAE770470000D2
:4051C0000000000043534520343934303A20576972656C65737320436865737320426F6172640A0A0000000078323000782D32300000000079323000792D32300000000045
:40520000F0510040100000000140000A800A01408005001401408006001B0140000100400140000A004C01400002005001402000000A0140800A00488000801A0140000BBC
:405240000048800069F0152E00280101F8B500BFF8BC08BC9E4670473D2C0000CD2E0000F8B500BFF8BC08BC9E467047192C0000805200000881FF1F180000005001000017
:4052800000000000020200000000C05D80BB000030000000006CDC020000000000000000000000000000000000000000000000000000000000000000000000000000000018
:4052C00000000000000000000000000000000000000000000000000000000000000000000000000000000000000000000000000000000000000000000000000000000000AE
:405300000080002011530000955500009555000008B500F041F900BF10B5054C237833B9044B13B10448AFF300800123237010BD2081FF1F00000000D8780000084B10B526
:405340001BB108480849AFF300800848036803B910BD074B002BFBD0BDE81040184700BF00000000D87800002481FF1F0881FF1F0000000008B562B601F0A0FA00F0D6FC23
:40538000034800F09BFD00F0F5FB00F08FFB08BDDC78000008B5FFF7EDFF0023174A1380174A1380174800F089FD142000F032F84FF47A7001F022FC134800F07FFD6FF078
:4053C000130000F027F84FF47A7001F017FC0F4800F074FD142000F07DF84FF47A7001F00DFC0B4800F06AFD6FF0130000F072F84FF47A7001F002FCD4E700BF6481FF1FD3
:405400006681FF1F00790000047900000C790000107900002D4BB3F900300344B3F57A7F52D82DE9F04107468046012001F058FA012001F079FA002F07DA012001F068FA36
:40544000012001F089FA002616E0002001F060FA002001F081FAF6E7002001F04DFA012001F04AFA002001F06BFA012001F068FA0A2001F0C3FB0136304601F0F3FE04465D
:405480000D4687EAE773A3EBE7731BB2322000FB03F001F0E7FE00220D4B01F049FF02460B462046294602F0B5F90028D4D1074B18888044A3F80080002001F011FA002068
:4054C00001F032FABDE8F081704700BF6481FF1F0000E03F2D4BB3F900300344B3F57A7F52D82DE9F04107468046012001F0F8F9012001F019FA002F07DA012001F008FAD5
:40550000002001F029FA002616E0002001F000FA012001F021FAF6E7002001F0EDF9012001F0EAF9002001F00BFA012001F008FA0A2001F063FB0136304601F093FE0446FE
:405540000D4687EAE773A3EBE7731BB2322000FB03F001F087FE00220D4B01F0E9FE02460B462046294602F055F90028D4D1074B18888044A3F80080002001F0B1F9002029
:4055800001F0D2F9BDE8F081704700BF6681FF1F0000E03FFEE700BF08B5104E104D16E029686B68AC68002204E051F8040B43F8040B0432A242F8D1E868002203E00021F4
:4055C00043F8041B04328242F9D11035013E002EE6D102F047F9FFF7DDFEFEE7010000008879000008B5124A124B1A60124A136843F40073136000230AE0032B03D80F4AE7
:4056000052F8231000E00E490E4A42F8231001332F2BF2D90C4B1A780C4B1A70094A0C4B1A6000F0B9F800220A4B1A6008BD00BF0004FA050CED00E014ED00E00053000084
:40564000955500000080FF1FBC7600400481FF1F08ED00E00081FF1FFEE700BFF0B40022174611E050F82760F3B226F0FF0608E001EB420511F812406D78A5550132013B0E
:40568000DBB2002BF4D10137162FEBD9F0BC7047064B1B78DBB203F00701054A11701B09013213704422034B1A707047CF0100496E5800407658004008B50A46002102F071
:4056C00002F908BD38B53322264B1A80182326490B7002310A80254A13700222244B1A7008224FF040231A70032203F500731A70204B1B78DBB2204A137010221F4B1A808E
:4057000041F25122023B1A80002419250CE01C4B1B7803F0010343EA440404F003044FF4F07001F041F9013D0DB1032CEFD115B90320FFF791FF134B4FF480721A800722B7
:405740001A70002210490A704820023108701A700222033B1A700D4A137843F00303137038BD00BF8040004082400040864000400043004008010049A14600402242004027
:40578000254200400440004006400040A243004008B502F08DF808BD38B572B6464A137843F00403137000240CE0444963001A1952000A4423445B00C8589188FFF77CFFEE
:4057C0000134E4B2072CF0D900240FE03B49A3001A1952000A4452F8300F23445B000B4451681A8FFFF7D4FF0134E4B2012CEDD9334C204604F15C01FFF730FF314A1378F0
:4058000043F0020313701032137843F0020313702D4D2B7843F040032B70A2F58632513A137843F010031370284804F5C0610822FFF7AEFF264804F5C1610822FFF7A8FF22
:40584000244804F5C2610A22FFF7A2FF224804F21C610822FFF79CFF204804F224610822FFF796FF1E4804F22C610822FFF790FF1C4804F234610A22FFF78AFF1A4804F520
:40588000C8610822FFF784FF184A137843F008031370174C61232370FFF714FFC12323700122144B1A70FFF7F3FE134829460E22FFF76EFF38BD00BFE84600401879000071
:4058C000600A004803500140A043004002510040C2510040105100402251004032510040425100405051004062510040224300400048004004000840B043004010B50B4CD3
:40590000237803F09F032370237803F0F00323702378184340F010002070012001F084F9237803F0EF03237010BD00BF2051004070B5354B1A7802F08002D2B21A703349B6
:405940000A7802F0F00242F00F020A7001310A7802F0F0020A7001310A7802F0F0020A701A7802F0DF021A701A7842F040021A704FF4CA76002001F057F9234D2B7843F037
:4059800010032B70012001F04FF9214B1C78E4B22B7803F0EF032B70002001F045F904F00804E4B22B7843F010032B70012001F03BF92B7803F0EF032B7014B90A2001F06C
:4059C00033F9013E0CB1002ED4D10F4A137803F0BF031370137803F08003DBB213700232137803F0F00313700132137803F0F00343F00F0313700132137803F0F00343F014
:405A00000F03137070BD00BF20510040225100402151004010B50446FFF78AFF2009FFF76DFF04F00F00FFF769FF10BD08B5282001F0E4F80320FFF761FF052001F0DEF851
:405A40000320FFF75BFF0F2001F0D8F80320FFF755FF012001F0D2F80220FFF74FFF052001F0CCF80620FFF7D5FF0E20FFF7D2FF2C20FFF7CFFF0820FFF7CCFF0120FFF745
:405A8000C9FF0C20FFF7C6FF0320FFF7C3FF052001F0B4F808BD00BF08B50C20FFF7BAFF0122014B1A7008BD3C81FF1F08B5054B5B7823B9FFF7BAFF0122024B5A70FFF74A
:405AC000EBFF08BD3C81FF1F08B50220104901F0D7F80220072101F0E7F800220D4B1A7072220D4B1A702022013B1A7003200B4901F0C6F80320072101F0D6F80622084BDD
:405B00001A70472210331A700222B03B1A7008BD915B00003E81FF1F8A640040255C00002865004010B500F047FF04460D4A137843F020031370013A137843F01003137073
:405B4000094A0423136009490B7843F010030B70082307490B60136000F00AFF204600F02FFF10BD9A64004000E100E09864004080E200E008B5054B5B7823B9FFF7A4FF2D
:405B80000122024B5A70FFF7CDFF08BD3E81FF1F1C4B1B78DBB213F01E0F05D01A4803F01E0201780A43027003F0200303F0FF022BB3164B1978C9B2154B1B78DBB21548DC
:405BC000C154154B1B7813F0FF0F02D00121134B19700F490B780133DBB20B700B78DBB23F2B02D900210A4B1970094B1B780C490978DBB28B4202D10121074B1970002A35
:405C0000C6D17047696400403E81FF1F4A6400404181FF1F6881FF1F4281FF1F4381FF1F4081FF1F13E0104B1B78DBB23F2B02D900220D4B1A700C4A1378DBB20B49CB5C15
:405C4000DBB20B490B7013780133DBB21370064B1B78DBB2074A1278934204D0064B1B7813F0040FDFD070474481FF1FA881FF1F486400404581FF1F6864004008B50020C1
:405C8000114900F0FDFF0020072101F00DF800220E4B1A7072220E4B1A702022033B1A7001200C4900F0ECFF0120072100F0FCFF0622094B1A70472210331A70022203F5FD
:405CC000A8731A7008BD00BF215F00004781FF1F8B650040B55F00002964004010B500F06BFE04460D4A137843F020031370033A137843F010031370094A01231360094914
:405D00000B7843F010030B70022307490B60136000F03CFE204600F053FE10BD9B65004000E100E09965004080E200E008B5054B5B7823B9FFF7A2FF0122024B5A70FFF72A
:405D4000CDFF08BD4781FF1F0122134B1A60134A9378DBB2D178C9B2127912F0FF0F01D18B4211D00E4AD05CC0B20133DBB23F2B00D90023094A9370137913F0FF0F06D0F7
:405D80000022064B1A7102E0064B1878C0B20122054B1A60704700BF80E100E04781FF1FE881FF1F4B65004000E100E00122134B1A60134A9378D278DBB2934206D1104BAD
:405DC0001B7913F0FF0F14D0402013E00C4A9378D278DBB2934205D2094AD3789078181AC0B207E0064AD3789078181A4030C0B200E000200122034B1A60704780E100E018
:405E00004781FF1F00E100E008B500F0D5FD0B4B1A7842F001021A701A7802F0FE021A7000F0CEFD0121064B1960064B00229A70DA701A715A71044B196008BD9B650040F6
:405E400080E100E04781FF1F00E100E0164BD9799B79DBB2994205D25A1E914214BF0022012204E0CA1A3F2A14BF00220122002AECD18B4207D10D4B1B7813F0040F02D128
:405E80000B4B187070473F2900D90021094B58540131054BD971054B1B7813F0020F02D00222054B1A6070474781FF1F69650040496500402882FF1F00E200E038B5074B06
:405EC0005B782BB938BDFFF7C1FF0134A4B201E005460024285D0028F5D138BD4781FF1F08B500F069FD0A4B1A7842F001021A701A7802F0FE021A7000F062FD0223054A8D
:405F00001360054A00219171D171044A136008BD9965004080E100E04781FF1F00E100E01C4B1B78DBB213F01E0F05D01A4803F01E0201780A43027003F0200303F0FF024B
:405F40002BB3164B1978C9B2154B1B78DBB21548C154154B1B7813F0FF0F02D00121134B19700F490B780133DBB20B700B78DBB23F2B02D900210A4B1970094B1B780C495E
:405F80000978DBB28B4202D10121074B1970002AC6D17047686500404781FF1F4B6500404A81FF1FE881FF1F4B81FF1F4C81FF1F4981FF1F13E0104B1B78DBB23F2B02D9FB
:405FC00000220D4B1A700C4A1378DBB20B49CB5CDBB20B490B7013780133DBB21370064B1B78DBB2074A1278934204D0064B1B7813F0040FDFD070474D81FF1F2882FF1F80
:40600000496500404E81FF1F69650040002306E0421812F8012C13449BB2013989B20029F6D1584280B270472DE9F04182B00C46164602AF27F8022D01230B704870154679
:40604000A270130ACB7002F1040808461FFA88F1FFF7DCFF04F80800731DC0F30720E054063517236355F11D204689B23A46962300F040FF02B0BDE8F08100BF70B5054629
:406080000E461446084B984203D010B1002000F0ABFD002004E0013CAB191B5D1844C0B2002CF8D170BD00BF0080004070B5C0B00E46C0F30745C0F3072120F0FF040023D4
:4060C00004E01A5D0DF8032001339BB2FF2BF8D9C3B20DF8036028466A4600F051FD00F0ADFD40B070BD00BF012814D838B50DE02002C0F57F3000F57470AC4214BF0021C2
:406100000121FFF7D3FF0134E4B201E005460024012CEDD938BD704708B501380B2867D8DFE800F0060E161E262E3E36464E565E4942090201F57F3101F5707101225CE0D2
:406140004942090201F57F3101F2C131042254E04942090201F57F3101F2C53102224CE04942090201F57F3101F2C931042244E04942090201F57F3101F5747101223CE066
:406180004942090201F57F3101F2D131012234E04942090201F57F3101F2D63102222CE04942090201F57F3101F2D231022224E04942090201F57F3101F5757102221CE07F
:4061C0004942090201F57F3101F57671042214E04942090201F57F3101F5777101220CE04942090201F57F3101F57871042204E0002000F0F9FC02220021012A02D1087856
:40620000C0B200E00020022A03D10B78487843EA0020042A09D10B78487843EA0023887843EA0043C87843EA006008BDF8B5064603203146FFF770FF0130070204203146F2
:40624000FFF76AFF074403203146FFF765FF013000020024254608E003785A1ED2B2FD2A00D801252344DCB20130B842F4D303203146FFF751FF01300002C0080F4B9F423D
:4062800001D0FF0808E04FF4004705E000F190431B782344DCB20130B842F7D36442E4B201203146FFF738FF844202D11DB90620F8BD0620F8BD0020F8BD00BFC0FF0300F2
:4062C000012823D8F8B51F4615460E46044603202146FFF721FF80B2421C92B2C0F57F70013080B2C4F10203DBB290FBF3F31344013B9BB2954201D39D4209D9032E09D1E5
:40630000C4F1FF00874207D00020F8BD0D2070470D20F8BD0020F8BD0D20F8BD2DE9F04FADF51D7D054602200121FFF7F5FE804600F0A0FB10B1002000F056FC00F0D2FD7B
:4063400062B60A2400270DB9FF2300E02B4650A84FF496710DF26E2200F0DEFD0DB1013CE4B20CB10028EED1002840F09482BDF86E32062B24D99DF84021012A22D19DF80C
:4063800043719DF8422142EA07273946FA1D9A421AD8B2F5967F19D87A1D50AB9E5C3A1D9A5C42EA062606315B5C172B10D1391D50A889B2FFF72AFEB0420BD100260AE0FF
:4063C000042608E0042606E0032604E0032602E0042600E00826002E40F00E829DF844919DF84121A2F131030A2B00F2DB81DFE813F00B001E0047005C00F80001011701EA
:4064000032015C004801BC01BE4B5B79012B40F0F581002F40F0F581BB4B5878FFF706FFB0FA80F040098DF8440101222FE2B54B5B79012B40F0E881012F40F0E881B9F105
:40644000030F00F2E78103200021FFF765FE80B2020A914501D1C3B205E0914501D9002301E04FF480738DF844311B0A8DF84531FF238DF8463100238DF84731042206E283
:40648000A04B5B79012B40F0C881012F40F0C8814846FFF7CBFE8DF8440105204946FFF73BFE8DF845010222F1E1342A1AD1954B5B79012B40F0B781032F40F0B781A9F14F
:4064C0004003DBB23F2B03D810228E4BDA8003E04FF490728B4BDA8005A80021894BDA8801F0F1F9874B5B79012B40F0A281022F40F2A281DFF80CB2BBF806A005AB03EBB4
:406500000A000DF24711FA1E01F0D2F907EB0A03033BABF80630A9F14003DBB23F2B04D800F038FB4022102703E04FF480724FF49077744BDB88BB424ED19DF846119DF883
:40654000453143EA01236F49CB809A4200D80A26002E40F07481B9F13F0F31D803EB09231FFA83FA684B1B782BB903200121FFF7D3FD80B204E003200021FFF7CDFD80B2E8
:40658000431C9BB29A4504D200225E4BDA800A267DE1B8F1000F13D05B4B5B78DBB2012B0ED8594B587849465246564BDB88FFF787FE0D2804D10022524BDA80064666E144
:4065C0004846504BD98805AA3B4600F05DFA00B10A2600F033FB00E003260022494BDA8055E1484B5B79012B40F02B810022454BDA8050E1434B5B79012B40F02581012F0C
:4066000040F025814846FFF711FE002840F022814846FFF769FD3C4B83F80190002236E1384B5B79012B40F01881364BB3F8069009EB0703B3F5967F00F2128105AB03EB54
:40664000090051A93A4601F033F9B9442D4BA3F8069000221BE1002F40F0058102AB2B4A92E8030083E80300264A0121117251710021D18051AA93E8030082E8030008226B
:4066800005E1204B5B79012B40F0F080032F40F0F0809DF846B19DF8453143EA0B2BA9F14003DBB23F2B10D84FEA0B11BBF13F0F01D8334600E00A23002B40F0DD8014489F
:4066C0001022FFF7DBFC824611E00BEB09210902BBF1FF0F01D8334600E00A23002B40F0CE8000204FF48072FFF7C8FC8246B9F13F0F17D809F510320BEB02225201002367
:406700000EE000BF5081FF1F0C81FF1F5C79000000800040995C8A445FFA8AFA01339BB21F2BF7D9B9F1030F19D1ABF1FE039BB2012B14D8BBF1FF0B18BF4FF0010B05209D
:406740005946FFF7E9FCC0EB0A0000F0FF0906205946FFF7E1FCC0EB090000F0FF0ACAF1000A8DF844A1012291E00B200121FFF7D3FC10F0010F03D040224D4B1A7007E08A
:406780004C4B5878FFF752FD10B98022484B1A704FF00009484B83F8089000F027FA04264A4674E0444B1B68002B6BD04249497901296AD18DF80020ADF8027051AA019224
:4067C0000021029103910492684602A99847BDF80C20B2F5937F03D3049951AB994205D0049B03B92AB99DF8086050E00E2600224DE00E2600224AE0002248E004260022C6
:4068000045E00426002242E0042600223FE0042600223CE00426002239E00426002236E00426002233E00426002230E0042600222DE0042600222AE00426002227E000224C
:4068400025E00426002222E0042600221FE0042600221CE00C26002219E00426002216E00326002213E00426002210E0042600220DE0042600220AE01E46002207E01E46E9
:40688000002204E00526002201E005260022304650A9FFF7C9FB002D3FF455AD064B5B79012B3FF450AD0DF51D7DBDE8F08F00BFFA4600400C81FF1F5081FF1F08B5074BA3
:4068C0001B7803F0C003402B04D10020034B1870FFF724FD1420FFF721FD08BDFA460040044A137803F0FE0300F0010018431070704700BF60510040044A137803F0FD03A9
:40690000400000F0020018431070704760510040044A137803F0FB03800000F0040018431070704760510040044A137803F0F703C00000F0080018431070704760510040E0
:40694000044A137803F0EF03000100F0100018431070704760510040044A137803F0DF03400100F0200018431070704760510040054A137843F0010313701032137843F0BF
:4069800001031370704700BFA2430040054A137843F0020313701032137843F002031370704700BFA24300400230800803D000BF01380046FCD17047EFF3108072B670475D
:4069C00080F31088704700BF10B500F085F900F033FAD0B900F072FA0446072812D102E0012000F021F90A4B1B7813F0020FF7D0074B1B7813F0020F04D0054B1B789B0862
:406A000000D1002400F03EFA00E00424204610BD2247004010B500F05FF900F00DFA10BB012000F0EBF9072818D11048022100F065F902280AD102E0012000F0F5F80C4B74
:406A40001B7813F0020FF7D0002409E0084B1B7813F0020FE9D04FF0FF3401E04FF0FF3400F010FA00E00424204610BD6882FF1F2247004008B5FFF7A7FF034610B9FFF7DC
:406A8000C9FF0346184608BD2DE9F041441FE4B23A2C01D9002500E0012510F0800F00D00125412800D901253F2803D8B1F5807F06D808E0802900D90125102B02D102E0C5
:406AC000012500E0012502B90125002D50D1984616460F46044600F0AFF9002847D1204639463246434600F023F9064607283AD102E0012000F098F81F4B1B7813F0020F7E
:406B0000F7D01D4B1B7813F0020F06D01A4B1B789B0805D04FF0FF3603E04FF0FF3600E02E4606BB154B204639461A785B7800F03FF9072804D0064615E0012000F074F8C6
:406B40000D4B1B7813F0020FF7D00B4B1B7813F0020F06D0084B1B789B0804D04FF0FF3601E04FF0FF3600F08DF9354600E004252846BDE8F08100BF224700406882FF1F68
:406B800008B53F2801D9102301E04FF48073FFF77BFF08BD08B5FFF70FFF0F4A137843F0080313701032137843F008031370C8220A4B1A700A4A137843F0100313701032B1
:406BC000137843F010031370064B1B7813F0200FFAD0FFF7F5FE08BDA043004001470040AC4300400047004001BE7047024A137843F0010313707047F646004010B5044609
:406C000005E0084B1868FFF7CFFEA4F50044B4F5004FF6D8034B586800FB04F0FFF7C4FE10BD00BF1081FF1F08B5034B1B7A03FB00F0FFF7B9FE08BD1081FF1F08B5FFF7E4
:406C4000BBFE00BF00BF00BF00BF00BF00BF00BF00BF00BF00BF00BF00BF00BF00BF00BF00BF064A13889BB243F0040313801388BFF36F8FFFF7A4FE08BD00BF0048004077
:406C800070B504460E46074B1D681F2802D90020FFF7AAFF04F01F04103455F8240045F8246070BD08ED00E038B504460D46072902D90020FFF798FF1F2C02D90020FFF74C
:406CC00093FF04F01F0000F1604000F564406D01EDB2057038BD00BF08B5FFF76DFE064A137843F0080313701032137843F008031370FFF765FE08BDA043004070B5064695
:406D00000D4600240CE00120FFF78EFF064B1B7813F0010FF7D0054B1B7833550134E4B2AC42F3D3204670BD224700402047004070B41D4C247814F0020F2CD01B4CB62545
:406D40002570D5252570022525700234247814F0020F22D1154C2070002404E0165D134D2E700134A4B29C42F8D3B3F5807F16D13F2816D800F5103001EB0021480100232A
:406D800005E01A5CD2B209490A7001339BB21F2BF7D9072006E0042004E0092002E0072000E0072070BC7047224700402047004030B4104C247814F0020F15D00E4CB62501
:406DC0002570D8252570052525700234247814F0020F0BD1084C2070080A2070C9B2217022702370072002E0042000E0092030BC704700BF22470040204700400C4B1B7861
:406E000013F0020F0FD00B4BB6221A70E1221A700E221A7002331B7813F0020F05D1054B187007207047042070470920704700BF224700402047004010B5FFF7BDFD0F4B5F
:406E40001B78A3B901220D4B1A700D4B1B6813F0010F0ED00A4A136823F00103136000BF00BF00BF0122054B5A60002402E0042400E00024FFF7A4FD204610BD5C81FF1F98
:406E80000400084008B5FFF797FD0A4B00221A705B68012B0AD1084A136843F00103136000BF00BF00BF0022024B5A60FFF788FD08BD00BF5C81FF1F04000840074B1B786C
:406EC00013F0020F08D0064BB6221A70E0221A700D221A700720704704207047224700402047004008B5FEF721FFFEF78DFFFEF7F7FF08BDF8B506460D461746FEF784FF81
:406F0000002404E0305DFEF7A1FF0134A4B2AC42F8D33D800020F8BD2DE9F0470746894690461D46002414E0FEF740FF60B1FEF73DFF04461920FFF761FEFEF737FF844258
:406F4000F5D34FF0000A0BE00120FFF757FE0134A4B205EB85035B009C42E5DB4FF0050A0025A8F8005023E0FEF720FF86B2B8F8003033449BB2A8F800304B4508D313E029
:406F8000FEF7E2FE78550135ADB20134A4B200E00024B442F4D37B1913F8013C172B07D00520FFF72BFE03E09B1BA8F8003003E0FEF7FCFE0028D7D15046BDE8F08700BF99
:406FC00081F0004102E000BF83F0004330B54FEA41044FEA430594EA050F08BF90EA020F1FBF54EA000C55EA020C7FEA645C7FEA655C00F0E2804FEA5454D4EB5555B8BFE5
:407000006D420CDD2C4480EA020281EA030382EA000083EA010180EA020281EA0303362D88BF30BD11F0004F4FEA01314FF4801C4CEA113102D0404261EB410113F0004FD2
:407040004FEA03334CEA133302D0524263EB430394EA050F00F0A780A4F10104D5F1200E0DDB02FA0EFC22FA05F2801841F1000103FA0EF2801843FA05F359410EE0A5F140
:4070800020050EF1200E012A03FA0EFC28BF4CF0020C43FA05F3C01851EBE37101F0004507D54FF0000EDCF1000C7EEB00006EEB0101B1F5801F1BD3B1F5001F0CD349085A
:4070C0005FEA30004FEA3C0C04F101044FEA445212F5800F80F09A80BCF1004F08BF5FEA500C50F1000041EB045141EA050130BD5FEA4C0C404141EB010111F4801FA4F1DC
:407100000104E9D191F0000F04BF01460020B1FA81F308BF2033A3F10B03B3F120020CDA0C3208DD02F1140CC2F10C0201FA0CF021FA02F10CE002F11402D8BFC2F1200CE8
:4071400001FA02F120FA0CFCDCBF41EA0C019040E41AA2BF01EB0451294330BD6FEA04041F3C1CDA0C340EDC04F11404C4F1200220FA04F001FA02F340EA030021FA04F366
:4071800045EA030130BDC4F10C04C4F1200220FA02F001FA04F340EA0300294630BD21FA04F0294630BD94F0000F83F4801306BF81F480110134013D4EE77FEA645C18BF11
:4071C0007FEA655C29D094EA050F08BF90EA020F05D054EA000C04BF1946104630BD91EA030F1EBF0021002030BD5FEA545C05D14000494128BF41F0004130BD14F5800400
:407200003CBF01F5801130BD01F0004545F0FE4141F470014FF0000030BD7FEA645C1ABF194610467FEA655C1CBF0B46024650EA013406BF52EA033591EA030F41F4002183
