:400000000080002011000000ED000000ED00000008B5054B1A6803F53F5302331A6000F081FF00F065F800BFFA46004010B5054C237833B9044B13B10448AFF3008001232F
:40004000237010BD2881FF1F00000000881B0000084B10B51BB108480849AFF300800848036803B910BD074B002BFBD0BDE81040184700BF00000000881B00002C81FF1F02
:400080000881FF1F0000000008B562B601F0ECF900F0B2FC034800F0B7FD00F019FB00F0B3FA08BD8C1B000010B5FFF7EDFF4FF47A7001F049FB0C4800F0BEFB00F01CFD45
:4000C00048B100F0D9FC044600F07EFB0D2C02D10A2000F079FB00F049FB0028EED000F005FB00F059FDE9E7B01B0000FEE700BF08B5104E104D16E029686B68AC6800225E
:4001000004E051F8040B43F8040B0432A242F8D1E868002203E0002143F8041B04328242F9D11035013E002EE6D101F0EFFCFFF7BBFFFEE701000000CC22000008B5124AE0
:40014000124B1A60124A136843F40073136000230AE0032B03D80F4A52F8231000E00E490E4A42F8231001332F2BF2D90C4B1A780C4B1A70094A0C4B1A6000F0BDF80022BE
:400180000A4B1A6008BD00BF0004FA050CED00E014ED00E000000000ED0000000080FF1FBC7600400481FF1F08ED00E00081FF1FFEE700BFF0B40022174611E050F8276094
:4001C000F3B226F0FF0608E001EB420511F812406D78A5550132013BDBB2002BF4D10137162FEBD9F0BC7047064B1B78DBB203F00701054A11701B09013213704422034B90
:400200001A707047CF0100496E5800407658004008B50A46002101F0AAFC08BD08B501F09BFC08BD08B501F097FC08BD38B53322264B1A80182326490B7002310A80254A18
:4002400013700222244B1A7008224FF040231A70032203F500731A70204B1B78DBB2204A137010221F4B1A8041F25122023B1A80002419250CE01C4B1B7803F0010343EAD7
:40028000440404F003044FF4F07001F03DF9013D0DB1032CEFD115B90320FFF789FF134B4FF480721A8007221A70002210490A704820023108701A700222033B1A700D4A22
:4002C000137843F00303137038BD00BF8040004082400040864000400043004008010049A146004022420040254200400440004006400040A243004038B572B6464A137855
:4003000043F00403137000240CE0444963001A1952000A4423445B00C8589188FFF778FF0134E4B2072CF0D900240FE03B49A3001A1952000A4452F8300F23445B000B4457
:4003400051681A8FFFF76AFF0134E4B2012CEDD9324C04F1440004F1A001FFF72BFF304A137843F0020313701032137843F0020313702C4D2B7843F040032B70A2F58632CD
:40038000513A137843F010031370274804F244510822FFF743FF254804F24C510822FFF73DFF234804F254510A22FFF737FF214804F5AC610822FFF731FF1F4804F5AD611B
:4003C0000822FFF72BFF1D4804F5AE610822FFF725FF1B4804F5AF610A22FFF71FFF194804F284510822FFF719FF174A137843F008031370154C61232370FFF717FFC123DD
:4004000023700122124B1A70FFF7EEFE114829460E22FFF707FF38BDE8460040141C000003500140A043004002510040C2510040105100402251004032510040425100402F
:400440005051004062510040224300400048004004000840B043004010B50B4C237803F09F032370237803F0F00323702378184340F010002070012001F07CF9237803F02E
:40048000EF03237010BD00BF2051004070B5354B1A7802F08002D2B21A7033490A7802F0F00242F00F020A7001310A7802F0F0020A7001310A7802F0F0020A701A7802F07A
:4004C000DF021A701A7842F040021A704FF4CA76002001F04FF9234D2B7843F010032B70012001F047F9214B1C78E4B22B7803F0EF032B70002001F03DF904F00804E4B249
:400500002B7843F010032B70012001F033F92B7803F0EF032B7014B90A2001F02BF9013E0CB1002ED4D10F4A137803F0BF031370137803F08003DBB213700232137803F01C
:40054000F00313700132137803F0F00343F00F0313700132137803F0F00343F00F03137070BD00BF20510040225100402151004010B50446FFF78AFF2009FFF76DFF04F01E
:400580000F00FFF769FF10BD08B5282001F0DCF80320FFF761FF052001F0D6F80320FFF75BFF0F2001F0D0F80320FFF755FF012001F0CAF80220FFF74FFF052001F0C4F806
:4005C0000620FFF7D5FF0E20FFF7D2FF2C20FFF7CFFF0820FFF7CCFF0120FFF7C9FF0C20FFF7C6FF0320FFF7C3FF052001F0ACF808BD00BF08B50C20FFF7BAFF0122014B37
:400600001A7008BD4481FF1F08B5054B5B7823B9FFF7BAFF0122024B5A70FFF7EBFF08BD4481FF1F08B50220104901F0CFF80220072101F0DFF800220D4B1A7072220D4B69
:400640001A702022013B1A7003200B4901F0BEF80320072101F0CEF80622084B1A70472210331A700222B03B1A7008BD5D0800004681FF1F8A640040F108000028650040F1
:4006800010B500F049FF04460D4A137843F020031370013A137843F010031370094A0423136009490B7843F010030B70082307490B60136000F00CFF204600F031FF10BD7F
:4006C0009A64004000E100E09864004080E200E008B5054B5B7823B9FFF7A4FF0122024B5A70FFF7CDFF08BD4681FF1F0422194B1A60194A9378DBB2D178C9B2127912F032
:40070000FF0F01D18B4211D0144AD05CC0B20133DBB23F2B00D900230F4A9370137913F0FF0F13D000220C4B1A710FE00C4B1B78DBB213F0200F06D00A4A1078C0B213F069
:400740001E0F02D102E0002000E000200422064B1A60704780E100E04681FF1F6481FF1F696400404A64004000E100E00422134B1A60134A9378D278DBB2934206D1104BA6
:400780001B7913F0FF0F14D0402013E00C4A9378D278DBB2934205D2094AD3789078181AC0B207E0064AD3789078181A4030C0B200E000200422034B1A60704780E100E0AB
:4007C0004681FF1F00E100E0164BD9799B79DBB2994205D25A1E914214BF0022012204E0CA1A3F2A14BF00220122002AECD18B4207D10D4B1B7813F0040F02D10B4B187063
:4008000070473F2900D90021094B58540131054BD971054B1B7813F0020F02D00822054B1A6070474681FF1F6864004048640040A481FF1F00E200E038B5074B5B782BB987
:4008400038BDFFF7C1FF0134A4B201E005460024285D0028F5D138BD4681FF1F1C4B1B78DBB213F01E0F05D01A4803F01E0201780A43027003F0200303F0FF022BB3164B23
:400880001978C9B2154B1B78DBB21548C154154B1B7813F0FF0F02D00121134B19700F490B780133DBB20B700B78DBB23F2B02D900210A4B1970094B1B780C490978DBB2A6
:4008C0008B4202D10121074B1970002AC6D17047696400404681FF1F4A6400404981FF1F6481FF1F4A81FF1F4B81FF1F4881FF1F13E0104B1B78DBB23F2B02D900220D4B31
:400900001A700C4A1378DBB20B49CB5CDBB20B490B7013780133DBB21370064B1B78DBB2074A1278934204D0064B1B7813F0040FDFD070474C81FF1FA481FF1F48640040AA
:400940004D81FF1F6864004008B50020114900F03DFF0020072100F04DFF00220E4B1A7072220E4B1A702022033B1A7001200C4900F02CFF0120072100F03CFF0622094B91
:400980001A70472210331A70022203F5A8731A7008BD00BF6D0C00004F81FF1F8B650040010D00002964004010B500F0B5FD04460D4A137843F020031370033A137843F059
:4009C00010031370094A0123136009490B7843F010030B70022307490B60136000F086FD204600F09DFD10BD9B65004000E100E09965004080E200E008B5054B5B7823B921
:400A0000FFF7A2FF0122024B5A70FFF7CDFF08BD4F81FF1F0122134B1A60134A9378DBB2D178C9B2127912F0FF0F01D18B4211D00E4AD05CC0B20133DBB23F2B00D9002384
:400A4000094A9370137913F0FF0F06D00022064B1A7102E0064B1878C0B20122054B1A60704700BF80E100E04F81FF1FE481FF1F4B65004000E100E00122194B1A60194A50
:400A80009378DBB2D178C9B2127912F0FF0F01D18B4211D0144AD05CC0B20133DBB23F2B00D900230F4A9370137913F0FF0F13D000220C4B1A710FE00C4B1B78DBB213F053
:400AC000200F06D00A4A1078C0B213F01E0F02D102E0002000E000200122064B1A60704780E100E04F81FF1FE481FF1F686500404B65004000E100E00122134B1A60134A31
:400B00009378D278DBB2934206D1104B1B7913F0FF0F14D0402013E00C4A9378D278DBB2934205D2094AD3789078181AC0B207E0064AD3789078181A4030C0B200E0002024
:400B40000122034B1A60704780E100E04F81FF1F00E100E008B500F0DFFC0B4B1A7842F001021A701A7802F0FE021A7000F0D8FC0121064B1960064B00229A70DA701A71A4
:400B80005A71044B196008BD9B65004080E100E04F81FF1F00E100E0164BD9799B79DBB2994205D25A1E914214BF0022012204E0CA1A3F2A14BF00220122002AECD18B4247
:400BC00007D10D4B1B7813F0040F02D10B4B187070473F2900D90021094B58540131054BD971054B1B7813F0020F02D00222054B1A6070474F81FF1F69650040496500402E
:400C00002482FF1F00E200E038B5074B5B782BB938BDFFF7C1FF0134A4B201E005460024285D0028F5D138BD4F81FF1F08B500F073FC0A4B1A7842F001021A701A7802F016
:400C4000FE021A7000F06CFC0223054A1360054A00219171D171044A136008BD9965004080E100E04F81FF1F00E100E01C4B1B78DBB213F01E0F05D01A4803F01E020178C9
:400C80000A43027003F0200303F0FF022BB3164B1978C9B2154B1B78DBB21548C154154B1B7813F0FF0F02D00121134B19700F490B780133DBB20B700B78DBB23F2B02D9E3
:400CC00000210A4B1970094B1B780C490978DBB28B4202D10121074B1970002AC6D17047686500404F81FF1F4B6500405281FF1FE481FF1F5381FF1F5481FF1F5181FF1F62
:400D000013E0104B1B78DBB23F2B02D900220D4B1A700C4A1378DBB20B49CB5CDBB20B490B7013780133DBB21370064B1B78DBB2074A1278934204D0064B1B7813F0040FF9
:400D4000DFD070475581FF1F2482FF1F496500405681FF1F69650040002306E0421812F8012C13449BB2013989B20029F6D1584280B27047004700BF08B58022024B1A7002
:400D800000F0DAFC08BD00BFFA4600402DE9F04182B00C46164602AF27F8022D01230B7048701546A270130ACB7002F1040808461FFA88F1FFF7D0FF04F80800731DC0F33C
:400DC0000720E054063517236355F11D204689B23A46962300F034FE02B0BDE8F08100BF70B505460E461446084B984203D010B1002000F09FFC002004E0013CAB191B5DD3
:400E00001844C0B2002CF8D170BD00BF0080004008B501380B2867D8DFE800F0060E161E262E3E36464E565E4942090201F57F3101F5707101225CE04942090201F57F311E
:400E400001F2C131042254E04942090201F57F3101F2C53102224CE04942090201F57F3101F2C931042244E04942090201F57F3101F5747101223CE04942090201F57F31B9
:400E800001F2D131012234E04942090201F57F3101F2D63102222CE04942090201F57F3101F2D231022224E04942090201F57F3101F5757102221CE04942090201F57F31D2
:400EC00001F57671042214E04942090201F57F3101F5777101220CE04942090201F57F3101F57871042204E0002000F023FC02220021012A02D10878C0B200E00020022A1D
:400F000003D10B78487843EA0020042A09D10B78487843EA0023887843EA0043C87843EA006008BD08B50A4B1B7803F0C003802B0CD10021064B19700220FFF769FF28B179
:400F400002200021FFF764FFFFF714FF08BD00BFFA460040F8B5064603203146FFF758FF0130070204203146FFF752FF074403203146FFF74DFF013000020024254608E0FB
:400F800003785A1ED2B2FD2A00D801252344DCB20130B842F4D303203146FFF739FF01300002C0080F4B9F4201D0FF0808E04FF4004705E000F190431B782344DCB2013004
:400FC000B842F7D36442E4B201203146FFF720FF844202D11DB90620F8BD0620F8BD0020F8BD00BFC0FF03002DE9F04FADF51F7D054600F0EFFA10B1002000F09BFB00F0BB
:4010000017FD62B64FF0000A57460A24D0460DB9FF2300E02B4652A84FF496710DF2762200F020FD0DB1013CE4B20CB10028EED1002840F00E82BDF87632062B26D99DF8FA
:401040004821012A24D19DF84B819DF84A2142EA0828414608F107029A421BD8B2F5967F1AD84A1D52AB9E5C0A1D9A5C42EA062606315B5C172B11D108F1040152A889B20C
:40108000FFF76AFEB0420BD100260AE0042608E0042606E0032604E0032602E0042600E00826002E40F081819DF84C919DF84921A2F131030A2B00F25081DFE813F00B001D
:4010C0001C004E014400B0004E01B600CB004400DD004201002F00F06A81B8F1000F40F069810020FFF736FFB0FA80F040098DF84C010122A6E1002F00F05F81B8F1010F9F
:4011000040F05E81B9F1030F00F25D81C14B1B681B68C3F30742914502D1C3F3072305E0914501D9002301E04FF480738DF84C311B0A8DF84D31FF238DF84E3100238DF8B3
:401140004F3104227EE1342A15D1002F00F03E81B8F1030F40F03D81A9F14003DBB23F2B02D84FF0100A01E04FF4907A07A80021524600F0FCFC002F00F02E81B8F1020F92
:4011800040F22D8107AB03EB0A000DF24F11A8F1030200F0E1FCC244AAF1030A1FFA8AFAA9F14003DBB23F2B05D800F099FA40234FF0100803E04FF480734FF49078C24537
:4011C00040F010819DF84EA19DF84D2142EA0A2A9A4500D30A26002E40F00981B9F13F0F0FD80AEB092292B28A4B1B681968C1F30F2311F0FF0F01D001339BB29A42C0F08E
:40120000F8804846514607AA434600F0EDF900B10A2600F0B9FA4FF0000A524612E1002F40F01581042600220CE1002F00F0E6800AEB0803B3F5967F00F2E38007AB03EB44
:401240000A0053A9424600F087FCC2441FFA8AFA0022F7E0B8F1000F40F0D68004AB6E4A92E8030083E8030053AA82E803004FF0000A01270822E5E0002F00F0C880B8F167
:40128000030F40F0D1809DF84EB19DF84D3143EA0B2BA9F14003DBB23F2B10D84FEA0B11BBF13F0F01D8334600E00A23002B40F0BE805A481022FFF793FD019011E00BEBBC
:4012C00009210902BBF1FF0F01D8334600E00A23002B40F0AF8000204FF48072FFF780FD0190B9F13F0F0FD809F510320BEB02225201002306E0995C01980144C9B2019148
:4013000001339BB21F2BF6D9B9F1030F13D1BBF1FF0F10D105200021FFF77AFD019B181A00F0FF0906200021FFF772FDC0EB090000F0FF030193019B5B428DF84C3101221B
:4013400080E00020FFF706FE10B98022344B1A7000F0F2F90426002274E0324B1B68002B6BD0002F6CD08DF80820ADF80A8053AA0392002104910591069202A804A99847AB
:40138000BDF81420B2F5937F03D3069953AB994205D0069B03B92AB99DF8106052E00E2600224FE00E2600224CE000224AE00426002247E00426002244E00426002241E04E
:4013C000042600223EE0042600223BE00426002238E00426002235E00426002232E0042600222FE04FF0000A032652462AE0002228E04FF0000A0A26524623E00426002200
:4014000020E0032600221DE0042600221AE00426002217E00C81FF1FA022000000800040FA4600405881FF1F042600220AE01E46002207E01E46002204E00526002201E0FC
:4014400005260022304652A9FFF7A0FC01E04FF0000A002D3FF4DBAD002F7FF4D8AD0DF51F7DBDE8F08F00BF38B50020FFF772FD08B1062400E00024134D2B6800200146AF
:401480001A68FFF7ADFC6B681B78C01AC0B24042C0B2834202D12B681B6813B9002000F049F90A4B1B7803F0C003402B00D024B10020064B1870FFF797FD1420FFF794FDAD
:4014C000FFF75AFC38BD00BF0C81FF1FFA460040054A137843F0010313701032137843F001031370704700BFA2430040054A137843F0020313701032137843F002031370EE
:40150000704700BFA24300400230800803D000BF01380046FCD17047EFF3108072B6704780F31088704700BF10B500F07BF900F029FAD0B900F068FA0446072812D102E09A
:40154000012000F017F90A4B1B7813F0020FF7D0074B1B7813F0020F04D0054B1B789B0800D1002400F034FA00E00424204610BD2247004010B500F055F900F003FA10BB82
:40158000012000F0E1F9072818D11048022100F05BF902280AD102E0012000F0EBF80C4B1B7813F0020FF7D0002409E0084B1B7813F0020FE9D04FF0FF3401E04FF0FF3444
:4015C00000F006FA00E00424204610BD6482FF1F2247004008B5FFF7A7FF034610B9FFF7C9FF0346184608BD2DE9F041441FE4B23A2C01D9002500E0012510F0800F00D074
:401600000125412800D901253F2803D8B1F5807F06D808E0802900D90125102B02D102E0012500E0012502B90125002D50D1984616460F46044600F0A5F9002847D120466F
:4016400039463246434600F019F9064607283AD102E0012000F08EF81F4B1B7813F0020FF7D01D4B1B7813F0020F06D01A4B1B789B0805D04FF0FF3603E04FF0FF3600E011
:401680002E4606BB154B204639461A785B7800F035F9072804D0064615E0012000F06AF80D4B1B7813F0020FF7D00B4B1B7813F0020F06D0084B1B789B0804D04FF0FF360C
:4016C00001E04FF0FF3600F083F9354600E004252846BDE8F08100BF224700406482FF1F08B5FFF719FF0F4A137843F0080313701032137843F008031370C8220A4B1A70EE
:401700000A4A137843F0100313701032137843F010031370064B1B7813F0200FFAD0FFF7FFFE08BDA043004001470040AC4300400047004001BE7047024A137843F00103EE
:4017400013707047F646004010B5044605E0084B1868FFF7D9FEA4F50044B4F5004FF6D8034B586800FB04F0FFF7CEFE10BD00BF1481FF1F08B5034B1B7A03FB00F0FFF7FA
:40178000C3FE08BD1481FF1F08B5FFF7C5FE00BF00BF00BF00BF00BF00BF00BF00BF00BF00BF00BF00BF00BF00BF00BF00BF064A13889BB243F0040313801388BFF36F8F3A
:4017C000FFF7AEFE08BD00BF0048004070B504460E46074B1D681F2802D90020FFF7AAFF04F01F04103455F8240045F8246070BD08ED00E038B504460D46072902D900207C
:40180000FFF798FF1F2C02D90020FFF793FF04F01F0000F1604000F564406D01EDB2057038BD00BF08B5FFF777FE064A137843F0080313701032137843F008031370FFF792
:401840006FFE08BDA043004070B506460D4600240CE00120FFF78EFF064B1B7813F0010FF7D0054B1B7833550134E4B2AC42F3D3204670BD224700402047004070B41D4C83
:40188000247814F0020F2CD01B4CB6252570D5252570022525700234247814F0020F22D1154C2070002404E0165D134D2E700134A4B29C42F8D3B3F5807F16D13F2816D8FE
:4018C00000F5103001EB00214801002305E01A5CD2B209490A7001339BB21F2BF7D9072006E0042004E0092002E0072000E0072070BC7047224700402047004030B4104C33
:40190000247814F0020F15D00E4CB6252570D8252570052525700234247814F0020F0BD1084C2070080A2070C9B2217022702370072002E0042000E0092030BC704700BFE4
:4019400022470040204700400C4B1B7813F0020F0FD00B4BB6221A70E1221A700E221A7002331B7813F0020F05D1054B187007207047042070470920704700BF22470040B0
:401980002047004010B5FFF7C7FD0F4B1B78A3B901220D4B1A700D4B1B6813F0010F0ED00A4A136823F00103136000BF00BF00BF0122054B5A60002402E0042400E00024F2
:4019C000FFF7AEFD204610BD5C81FF1F0400084008B5FFF7A1FD0A4B00221A705B68012B0AD1084A136843F00103136000BF00BF00BF0022024B5A60FFF792FD08BD00BFCA
:401A00005C81FF1F04000840074B1B7813F0020F08D0064BB6221A70E0221A700D221A700720704704207047224700402047004008B5FEF7E1FFFFF78DF8FFF7F7F808BDD6
:401A4000F8B506460D461746FFF784F8002404E0305DFFF7A1F80134A4B2AC42F8D33D800020F8BD2DE9F0470746894690461D46002414E0FFF740F860B1FFF73DF80446E3
:401A80001920FFF761FEFFF737F88442F5D34FF0000A0BE00120FFF757FE0134A4B205EB85035B009C42E5DB4FF0050A0025A8F8005023E0FFF720F886B2B8F80030334446
:401AC0009BB2A8F800304B4508D313E0FEF7A2FF78550135ADB20134A4B200E00024B442F4D37B1913F8013C172B07D00520FFF72BFE03E09B1BA8F8003003E0FEF7FCFFB2
:401B00000028D7D15046BDE8F08700BF0E4B70B51E460E4C0025E41AA410A54204D056F8253098470135F8E700F0BEFB084B094C1E46E41AA4100025A54204D056F8253015
:401B400098470135F8E770BDB4220000B4220000B4220000BC22000010B5431E0A44914204D011F8014B03F8014FF8E710BD03460244934202D003F8011BFAE77047000098
:401B800000230000BB0000000000000043534520343934303A20576972656C65737320436865737320426F6172640D0A0D0A000041540A0A000000006D6F76696E672078B6
:401BC0000D0A0D0A000000006D6F76696E6720790D0A0D0A000000006D6F76696E6720686F6D650D0A0D0A006D61676E6574206E6F77206F6E0D0A0D0A0000006D61676E1B
:401C00006574206E6F77206F66660D0A0D0A000020000000F0510040100000000140000A800A01408005001401408006001B0140000100400140000A004C014000020050E0
:401C400001402000000A0140A02100008000801A0140202200008000085200400364004003650040020701406608014048090140180A01403C0B0140021701406818014060
:401C800047190140171A01403F1B0140054001400441014004420140074301400447014006480140064C01400B4D0140085001400151014004FF08400940240F28022902C9
:401CC00034C06407880F89388A728838890F8B72E202E64000100240041006AC0A030C090D180ED00F24140C1552167117241814191F1B601F4024DC2622291F2B202E20B2
:401D00002F2D310432E03378341F370339803A083B083F4140254103450B460C470E481549FF4AFF4BFF4EF04F44500C54015604580459045A045B045F0166C06A406B0243
:401D40008450850288028A0C8B018C308E448F0190249240944096309A019C40A201A870AA08B001B27CB301B402B502BB02BE11BF14C003C540C9FFCA07CBFFCC40CD20B7
:401D8000CEF0CF05D008D418D604D804D904DA04DB04DC01DD01DF01E040E1A8E240E3200050022005500640071009200AA00B020E200F08111012801540170418101A085E
:401DC0001B011D101E201F042004210627912DC02E202F0635403604371439A03A043F8043084620471049024B024D804F0850085480560457405A025C045F91600862029D
:401E0000630266017808790886068E0191A09202A120A280A502B480C0F7C26FC4AACA30CC70CE1ED062D210D6F1D88DE408E6408301850289028C018E0E910298229A5176
:401E40009C449E31A467A867B102B218B460B501B607BE04D608D804D904DB04DD90DF0100440102030405400601081009020A200B010C100E080F0110A8120117281804B5
:401E800019171A201D481E081F2021602205244027442951300231063360370238283A423E143F014040412848024A08511052805A085C80664067016A146B2A70BC7202A3
:401EC0008D018E08C08FC2CFC46FCA0DCC8FCEEFD007D20CD612D810E204E60802400430060D0A800E301405163819011E802220264028052A182C022E0C30803101324020
:401F0000343C360338803A203E053F014004460449FF4A074BFF4C404D204EF04F05500854185604580459045A045B045D105F01604061A862406320820284B886458856CF
:401F400089138AA18B0C8D138F0492469520970599039B049CB89E439F08A140A680A90AAAA9AB14B080B218B340B463B50FB607B730B808B980BAA0BB20BE05BF04C026BE
:401F8000C104C50CC6BEC80DC9FFCAFFCBFFCEF0CF44D00CD401D604D804D904DA04DB04DC11DD11DF01E6C0EA40EB02000801320426054008800A820E200F0210381651E1
:401FC000171019201A421B081C041D401E081F05200821102254250129212B803028324035103840392040C04110470148285220538056415702581059015A485E0263808C
:402000006602670A834086029440951096A099129B119D409E40A008A210A624A70AAA04AB01B080B310C0FEC2A9C4F6CA05CC2ECE0CD085D204D68FD8B1040106260C0AB3
:402040000E511C141E491F01249F289F2C80301831013207346036803E105608580459045B045C115D905F0100400108022003100542072809800C800D280E40102A15427C
:4020800017141840190A1B501C011D281E401F2821012422250426112C802D402F283180354236203C013E68452447404D404FA0561057015A805E2061C06C2A74807628A4
:4020C00077288001834C8E4094229E10A601A701B501C0F5C2F1C4F7CAF0CCB8CEF0D070D230D628D8083202338035803708CCF09D809F08A602A7809D809F08A602A780BE
:4021000086028F089D809F08A602A780E2408602A620B620EA08818087809D80A780E220E6100D8066029A02A620C201D80102205C108D809010A180A620B410C008D604F6
:40214000E208E808000301010C030D01100311011C031D0100FF0000FF000000000000000708080000000000400080404000400000000000007F7F000000000000FFFF0070
:40218000000000000F00000000000000020005020200020000000000C0FF3F0000000000F3200C004C30A300001040000002B300FF7F00004F70900F010100004200000B97
:4021C000084F0030040000000C780007030300000F038C407C38000400802A0000000004640502000300EC000CFFFFFF62A0F0410C000000000002120404040400000001B8
:402200000000000000004002001030100010101200000000000000000000000000000000017800070C100000043000004270000F4F019000FF000000F3030C00080200005E
:40224000002040004C4FA330037F00000000B30B8C0300380F407C040080AA0000000010250103000600E0C028FFFFFF62A0F0410C00000000000211040404041111000107
:40228000000000000000400200103010001010120000000000000000000000000000000069F0152E00280101F8B500BFF8BC08BC9E467047510000003D010000F8B500BF1A
:4022C000F8BC08BC9E4670472D000000E02200000881FF1F20000000400100000000000000000000801B0000841B00000000C05D80BB000030000000006CDC020000000088
:402300000080002011230000D5230000D523000008B500F061F800BF10B5054C237833B9044B13B10448AFF300800123237010BD2081FF1F00000000C0300000084B10B5AB
:402340001BB108480849AFF300800848036803B910BD074B002BFBD0BDE81040184700BF00000000C03000002481FF1F0881FF1F0000000008B562B600F0B0FC034800F029
:4023800061FD00F017FB00F0B1FA08BDC430000010B5FFF7EFFF4FF47A7000F00BFE0C4800F0BCFB00F0E8FC48B100F0A5FC044600F07CFB0D2C02D10A2000F077FB00F008
:4023C00047FB0028EED000F003FB00F003FDE9E7E8300000FEE700BF08B5104E104D16E029686B68AC68002204E051F8040B43F8040B0432A242F8D1E868002203E0002164
:4024000043F8041B04328242F9D11035013E002EE6D100F01BFEFFF7BBFFFEE701000000B431000008B5124A124B1A60124A136843F40073136000230AE0032B03D80F4A3E
:4024400052F8231000E00E490E4A42F8231001332F2BF2D90C4B1A780C4B1A70094A0C4B1A6000F0B9F800220A4B1A6008BD00BF0004FA050CED00E014ED00E000230000A6
:40248000D52300000080FF1FBC7600400481FF1F08ED00E00081FF1FFEE700BFF0B40022174611E050F82760F3B226F0FF0608E001EB420511F812406D78A5550132013BF2
:4024C000DBB2002BF4D10137162FEBD9F0BC7047064B1B78DBB203F00701054A11701B09013213704422034B1A707047CF0100496E5800407658004008B50A46002100F065
:40250000D6FD08BD38B53322264B1A80182326490B7002310A80254A13700222244B1A7008224FF040231A70032203F500731A70204B1B78DBB2204A137010221F4B1A80A7
:4025400041F25122023B1A80002419250CE01C4B1B7803F0010343EA440404F003044FF4F07000F015FD013D0DB1032CEFD115B90320FFF791FF134B4FF480721A800722D2
:402580001A70002210490A704820023108701A700222033B1A700D4A137843F00303137038BD00BF8040004082400040864000400043004008010049A14600402242004019
:4025C000254200400440004006400040A243004008B500F061FD08BD38B572B6464A137843F00403137000240CE0444963001A1952000A4423445B00C8589188FFF77CFF09
:402600000134E4B2072CF0D900240FE03B49A3001A1952000A4452F8300F23445B000B4451681A8FFFF7D4FF0134E4B2012CEDD9334C204604F15C01FFF730FF314A1378E1
:4026400043F0020313701032137843F0020313702D4D2B7843F040032B70A2F58632513A137843F010031370284804F5C0610822FFF7AEFF264804F5C1610822FFF7A8FF14
:40268000244804F5C2610A22FFF7A2FF224804F21C610822FFF79CFF204804F224610822FFF796FF1E4804F22C610822FFF790FF1C4804F234610A22FFF78AFF1A4804F512
:4026C000C8610822FFF784FF184A137843F008031370174C61232370FFF714FFC12323700122144B1A70FFF7F3FE134829460E22FFF76EFF38BD00BFE84600404C31000077
:402700006004004803500140A043004002510040C2510040105100402251004032510040425100405051004062510040224300400048004004000840B043004010B50B4CCA
:40274000237803F09F032370237803F0F00323702378184340F010002070012000F040FC237803F0EF03237010BD00BF2051004070B5354B1A7802F08002D2B21A703349EA
:402780000A7802F0F00242F00F020A7001310A7802F0F0020A7001310A7802F0F0020A701A7802F0DF021A701A7842F040021A704FF4CA76002000F013FC234D2B7843F06B
:4027C00010032B70012000F00BFC214B1C78E4B22B7803F0EF032B70002000F001FC04F00804E4B22B7843F010032B70012000F0F7FB2B7803F0EF032B7014B90A2000F026
:40280000EFFB013E0CB1002ED4D10F4A137803F0BF031370137803F08003DBB213700232137803F0F00313700132137803F0F00343F00F0313700132137803F0F00343F047
:402840000F03137070BD00BF20510040225100402151004010B50446FFF78AFF2009FFF76DFF04F00F00FFF769FF10BD08B5282000F0A0FB0320FFF761FF052000F09AFBC7
:402880000320FFF75BFF0F2000F094FB0320FFF755FF012000F08EFB0220FFF74FFF052000F088FB0620FFF7D5FF0E20FFF7D2FF2C20FFF7CFFF0820FFF7CCFF0120FFF7FD
:4028C000C9FF0C20FFF7C6FF0320FFF7C3FF052000F070FB08BD00BF08B50C20FFF7BAFF0122014B1A7008BD3C81FF1F08B5054B5B7823B9FFF7BAFF0122024B5A70FFF77E
:40290000EBFF08BD3C81FF1F08B50220104900F071FB0220072100F081FB00220D4B1A7072220D4B1A702022013B1A7003200B4900F060FB0320072100F070FB0622084B5E
:402940001A70472210331A700222B03B1A7008BD412B00003E81FF1F8A640040D52B00002865004010B500F01BFB04460D4A137843F020031370013A137843F01003137096
:40298000094A0423136009490B7843F010030B70082307490B60136000F0DCFA204600F003FB10BD9A64004000E100E09864004080E200E008B5054B5B7823B9FFF7A4FF82
:4029C0000122024B5A70FFF7CDFF08BD3E81FF1F0422194B1A60194A9378DBB2D178C9B2127912F0FF0F01D18B4211D0144AD05CC0B20133DBB23F2B00D900230F4A9370DC
:402A0000137913F0FF0F13D000220C4B1A710FE00C4B1B78DBB213F0200F06D00A4A1078C0B213F01E0F02D102E0002000E000200422064B1A60704780E100E03E81FF1F8B
:402A40005081FF1F696400404A64004000E100E00422134B1A60134A9378D278DBB2934206D1104B1B7913F0FF0F14D0402013E00C4A9378D278DBB2934205D2094AD37809
:402A80009078181AC0B207E0064AD3789078181A4030C0B200E000200422034B1A60704780E100E03E81FF1F00E100E0164BD9799B79DBB2994205D25A1E914214BF002202
:402AC000012204E0CA1A3F2A14BF00220122002AECD18B4207D10D4B1B7813F0040F02D10B4B187070473F2900D90021094B58540131054BD971054B1B7813F0020F02D07E
:402B00000822054B1A6070473E81FF1F68640040486400409081FF1F00E200E038B5074B5B782BB938BDFFF7C1FF0134A4B201E005460024285D0028F5D138BD3E81FF1F63
:402B40001C4B1B78DBB213F01E0F05D01A4803F01E0201780A43027003F0200303F0FF022BB3164B1978C9B2154B1B78DBB21548C154154B1B7813F0FF0F02D00121134B7F
:402B800019700F490B780133DBB20B700B78DBB23F2B02D900210A4B1970094B1B780C490978DBB28B4202D10121074B1970002AC6D17047696400403E81FF1F4A640040EA
:402BC0004181FF1F5081FF1F4281FF1F4381FF1F4081FF1F13E0104B1B78DBB23F2B02D900220D4B1A700C4A1378DBB20B49CB5CDBB20B490B7013780133DBB21370064B48
:402C00001B78DBB2074A1278934204D0064B1B7813F0040FDFD070474481FF1F9081FF1F486400404581FF1F6864004008B50020114900F0DFF90020072100F0EFF9002261
:402C40000E4B1A7072220E4B1A702022033B1A7001200C4900F0CEF90120072100F0DEF90622094B1A70472210331A70022203F5A8731A7008BD00BF692E00004781FF1FB5
:402C80008B650040FD2E00002964004010B500F087F904460D4A137843F020031370033A137843F010031370094A0123136009490B7843F010030B70022307490B6013604E
:402CC00000F056F9204600F06FF910BD9B65004000E100E09965004080E200E008B5054B5B7823B9FFF7A2FF0122024B5A70FFF7CDFF08BD4781FF1F0122194B1A60194A2B
:402D00009378DBB2D178C9B2127912F0FF0F01D18B4211D0144AD05CC0B20133DBB23F2B00D900230F4A9370137913F0FF0F13D000220C4B1A710FE00C4B1B78DBB213F0B0
:402D4000200F06D00A4A1078C0B213F01E0F02D102E0002000E000200122064B1A60704780E100E04781FF1FD081FF1F686500404B65004000E100E00122134B1A60134AAA
:402D80009378D278DBB2934206D1104B1B7913F0FF0F14D0402013E00C4A9378D278DBB2934205D2094AD3789078181AC0B207E0064AD3789078181A4030C0B200E0002082
:402DC0000122034B1A60704780E100E04781FF1F00E100E0164BD9799B79DBB2994205D25A1E914214BF0022012204E0CA1A3F2A14BF00220122002AECD18B4207D10D4BB3
:402E00001B7813F0040F02D10B4B187070473F2900D90021094B58540131054BD971054B1B7813F0020F02D00222054B1A6070474781FF1F69650040496500401082FF1F53
:402E400000E200E038B5074B5B782BB938BDFFF7C1FF0134A4B201E005460024285D0028F5D138BD4781FF1F1C4B1B78DBB213F01E0F05D01A4803F01E0201780A4302708D
:402E800003F0200303F0FF022BB3164B1978C9B2154B1B78DBB21548C154154B1B7813F0FF0F02D00121134B19700F490B780133DBB20B700B78DBB23F2B02D900210A4B0A
:402EC0001970094B1B780C490978DBB28B4202D10121074B1970002AC6D17047686500404781FF1F4B6500404A81FF1FD081FF1F4B81FF1F4C81FF1F4981FF1F13E0104BA4
:402F00001B78DBB23F2B02D900220D4B1A700C4A1378DBB20B49CB5CDBB20B490B7013780133DBB21370064B1B78DBB2074A1278934204D0064B1B7813F0040FDFD07047BF
:402F40004D81FF1F1082FF1F496500404E81FF1F69650040054A137843F0010313701032137843F001031370704700BFA2430040054A137843F0020313701032137843F081
:402F800002031370704700BFA2430040000000000230800803D000BF01380046FCD17047EFF3108072B6704780F31088704700BF01BE704710B5044605E0084B1868FFF79A
:402FC000E7FFA4F50044B4F5004FF6D8034B586800FB04F0FFF7DCFF10BD00BF0C81FF1F08B5034B1B7A03FB00F0FFF7D1FF08BD0C81FF1F70B504460E46074B1D681F289E
:4030000002D90020FFF7D4FF04F01F04103455F8240045F8246070BD08ED00E038B504460D46072902D90020FFF7C2FF1F2C02D90020FFF7BDFF04F01F0000F1604000F540
:4030400064406D01EDB2057038BD00BF0E4B70B51E460E4C0025E41AA410A54204D056F8253098470135F8E700F092F8084B094C1E46E41AA4100025A54204D056F8253056
:4030800098470135F8E770BD9C3100009C3100009C310000A431000010B5431E0A44914204D011F8014B03F8014FF8E710BD03460244934202D003F8011BFAE77047000067
:4030C0000000000043534520343934303A20576972656C65737320436865737320426F6172640D0A0D0A000041540A0A000000006D6F76696E6720780D0A0D0A0000000011
:403100006D6F76696E6720790D0A0D0A000000006D6F76696E6720686F6D650D0A0D0A006D61676E6574206E6F77206F6E0D0A0D0A0000006D61676E6574206E6F77206F17
:4031400066660D0A0D0A000020000000F0510040100000000140000A800A01408005001401408006001B0140000100400140000A004C01400002005001402000000A0140BB
:40318000600900488000801A0140E00900488000F8B500BFF8BC08BC9E4670473D23000025240000F8B500BFF8BC08BC9E46704719230000C83100000881FF1F18000000B7
:4031C0003001000000000000000000000000C05D80BB000030000000006CDC02000000000000000000000000000000000000000000000000000000000000000000000000CC
:40320000000000000000000000000000000000000000000000000000000000000000000000000000000000000000000000000000000000000000000000000000000000008E
:40324000000000000000000000000000000000000000000000000000000000000000000000000000000000000000000000000000000000000000000000000000000000004E
:40328000000000000000000000000000000000000000000000000000000000000000000000000000000000000000000000000000000000000000000000000000000000000E
:4032C00000000000000000000000000000000000000000000000000000000000000000000000000000000000000000000000000000000000000000000000000000000000CE
:020000040003F7
:40FFC00068112300002200000040320000000000000000000000000000000000000000000000000000000000000000000000000000000000000000000000000000000000D1
:0200000480007A
:4000000000000000000000000000000000000000000000000000000000000000000000000000000000000000000000000000000000000000000000000000000000000000C0
:400040000000000000000000000000000000000000000000000000000000000000000000000000000000000000000000000000000000000000000000000000000000000080
:400080000000000000000000000000000000000000000000000000000000000000000000000000000000000000000000000000000000000000000000000000000000000040
:4000C0000000000000000000000000000000000000000000000000000000000000000000000000000000000000000000000000000000000000000000000000000000000000
:4001000000000000000000000000000000000000000000000000000000000000000000000000000000000000000000000000000000000000000000000000000000000000BF
:40014000000000000000000000000000000000000000000000000000000000000000000000000000000000000000000000000000000000000000000000000000000000007F
:40018000000000000000000000000000000000000000000000000000000000000000000000000000000000000000000000000000000000000000000000000000000000003F
:4001C00000000000000000000000000000000000000000000000000000000000000000000000000000000000000000000000000000000000000000000000000000000000FF
:4002000000000000000000000000000000000000000000000000000000000000000000000000000000000000000000000000000000000000000000000000000000000000BE
:40024000000000000000000000000000000000000000000000000000000000000000000000000000000000000000000000000000000000000000000000000000000000007E
:40028000000000000000000000000000000000000000000000000000000000000000000000000000000000000000000000000000000000000000000000000000000000003E
:4002C00000000000000000000000000000000000000000000000000000000000000000000000000000000000000000000000000000000000000000000000000000000000FE
:4003000000000000000000000000000000000000000000000000000000000000000000000000000000000000000000000000000000000000000000000000000000000000BD
:40034000000000000000000000000000000000000000000000000000000000000000000000000000000000000000000000000000000000000000000000000000000000007D
:40038000000000000000000000000000000000000000000000000000000000000000000000000000000000000000000000000000000000000000000000000000000000003D
:4003C00000000000000000000000000000000000000000000000000000000000000000000000000000000000000000000000000000000000000000000000000000000000FD
:4004000000000000000000000000000000000000000000000000000000000000000000000000000000000000000000000000000000000000000000000000000000000000BC
:400440000000000000000000000000000000000000000000000000000000000000000000085200400364004003650040020701406608014048090140180A01403C0B01401D
:40048000021701406818014047190140171A01403F1B0140054001400441014004420140074301400447014006480140064C01400B4D0140085001400151014004FF084097
:4004C0000940240F2802290234C06407880F89388A728838890F8B72E202E64000100240041006AC0A030C090D180ED00F24140C1552167117241814191F1B601F4024DC22
:400500002622291F2B202E202F2D310432E03378341F370339803A083B083F4140254103450B460C470E481549FF4AFF4BFF4EF04F44500C54015604580459045A045B04CF
:400540005F0166C06A406B028450850288028A0C8B018C308E448F0190249240944096309A019C40A201A870AA08B001B27CB301B402B502BB02BE11BF14C003C540C9FFC6
:40058000CA07CBFFCC40CD20CEF0CF05D008D418D604D804D904DA04DB04DC01DD01DF01E040E1A8E240E3200050022005500640071009200AA00B020E200F08111012809C
:4005C0001540170418101A081B011D101E201F042004210627912DC02E202F0635403604371439A03A043F8043084620471049024B024D804F0850085480560457405A0217
:400600005C045F9160086202630266017808790886068E0191A09202A120A280A502B480C0F7C26FC4AACA30CC70CE1ED062D210D6F1D88DE408E6408301850289028C0146
:400640008E0E910298229A519C449E31A467A867B102B218B460B501B607BE04D608D804D904DB04DD90DF0100440102030405400601081009020A200B010C100E080F011F
:4006800010A812011728180419171A201D481E081F2021602205244027442951300231063360370238283A423E143F014040412848024A08511052805A085C806640670148
:4006C0006A146B2A70BC72028D018E08C08FC2CFC46FCA0DCC8FCEEFD007D20CD612D810E204E60802400430060D0A800E301405163819011E802220264028052A182C0213
:400700002E0C308031013240343C360338803A203E053F014004460449FF4A074BFF4C404D204EF04F05500854185604580459045A045B045D105F01604061A862406320C2
:40074000820284B88645885689138AA18B0C8D138F0492469520970599039B049CB89E439F08A140A680A90AAAA9AB14B080B218B340B463B50FB607B730B808B980BAA0B4
:40078000BB20BE05BF04C026C104C50CC6BEC80DC9FFCAFFCBFFCEF0CF44D00CD401D604D804D904DA04DB04DC11DD11DF01E6C0EA40EB02000801320426054008800A82A0
:4007C0000E200F0210381651171019201A421B081C041D401E081F05200821102254250129212B803028324035103840392040C041104701482852205380564157025810F5
:4008000059015A485E0263806602670A834086029440951096A099129B119D409E40A008A210A624A70AAA04AB01B080B310C0FEC2A9C4F6CA05CC2ECE0CD085D204D68F5C
:40084000D8B1040106260C0A0E511C141E491F01249F289F2C80301831013207346036803E105608580459045B045C115D905F0100400108022003100542072809800C80D8
:400880000D280E40102A154217141840190A1B501C011D281E401F2821012422250426112C802D402F283180354236203C013E68452447404D404FA0561057015A805E20F1
:4008C00061C06C2A7480762877288001834C8E4094229E10A601A701B501C0F5C2F1C4F7CAF0CCB8CEF0D070D230D628D8083202338035803708CCF09D809F08A602A78020
:400900009D809F08A602A78086028F089D809F08A602A780E2408602A620B620EA08818087809D80A780E220E6100D8066029A02A620C201D80102205C108D809010A180A7
:40094000A620B410C008D604E208E808000301010C030D01100311011C031D0100FF0000F3200C004C30A300001040000002B300FF7F00004F70900F010100004200000B80
:40098000084F0030040000000C780007030300000F038C407C38000400802A0000000004640502000300EC000CFFFFFF62A0F0410C00000000000212040404040000000110
:4009C0000000000000004002001030100010101200000000000000000000000000000000017800070C100000043000004270000F4F019000FF000000F3030C0008020000B7
:400A0000002040004C4FA330037F00000000B30B8C0300380F407C040080AA0000000010250103000600E0C028FFFFFF62A0F0410C0000000000021104040404111100015F
:400A40000000000000004002001030100010101200000000000000000000000000000000FF000000000000000708080000000000400080404000400000000000007F7F001E
:400A80000000000000FFFF00000000000F00000000000000020005020200020000000000C0FF3F00000000000000000000000000000000000000000000000000000000001E
:400AC00000000000000000000000000000000000000000000000000000000000000000000000000000000000000000000000000000000000000000000000000000000000F6
:400B000000000000000000000000000000000000000000000000000000000000000000000000000000000000000000000000000000000000000000000000000000000000B5
:400B40000000000000000000000000000000000000000000000000000000000000000000000000000000000000000000000000000000000000000000000000000000000075
:400B80000000000000000000000000000000000000000000000000000000000000000000000000000000000000000000000000000000000000000000000000000000000035
:0200000490006A
:0400000000004005B7
:0200000490105A
:04000000BC90ACAF55
:0200000490303A
:0200000027C80F
:0200000490402A
:4000000000000000000000000000000000000000000000000000000000000000000000000000000000000000000000000000000000000000000000000000000000000000C0
:400040000000000000000000000000000000000000000000000000000000000000000000000000000000000000000000000000000000000000000000000000000000000080
:400080000000000000000000000000000000000000000000000000000000000000000000000000000000000000000000000000000000000000000000000000000000000040
:4000C0000000000000000000000000000000000000000000000000000000000000000000000000000000000000000000000000000000000000000000000000000000000000
:0200000490501A
:0C00000000012E15F06900012E291831B6
:00000001FF