:4000000000800020110000009D1200009D12000008B5054B1A6803F53F5302331A6002F059F801F03DF900BFFA46004010B5054C237833B9044B13B10448AFF300800123FE
:40004000237010BDA081FF1F00000000803A0000084B10B51BB108480849AFF300800848036803B910BD074B002BFBD0BDE81040184700BF00000000803A0000A481FF1FE4
:400080000881FF1F0000000008B562B602F0C4FA01F08AFD034801F08FFE01F0F1FB01F08BFB08BD843A000030B597B00021069107A83C2203F009FC01F0F6FD68B9FDE031
:4000C000204601F041FE16AB2B4403F8404C01F0EBFD0028FBD0013500E0002501F0A4FD04460D28ECD1764801F066FE01F00AFE06A803F0FAFBC2B20023029303930493E3
:4001000005939DF81830653B142B00F2D780DFE803F05FD5D359D5D5D598D5D5D5D5D575D5C6D5D5AB0B3200032A0AD8C6E016AA1A4412F8401C16AA1A4402F8531C013332
:4001400000E00323C2B29A42F1DC9DF81A302D2B07D102A803F084FB404200B200F0D6F805E002A803F07CFB00B200F0CFF8554801F022FEA2E0032A0AD89FE016AA1A4401
:4001800012F8401C16AA1A4402F8531C013300E00323C2B29A42F1DC9DF81A302D2B07D102A803F05DFB404200B200F007F905E002A803F055FB00B200F000F9424801F0EB
:4001C000FBFD7BE000F052F9404801F0F5FD75E09DF81A306F2B0AD19DF81B306E2B06D1012002F0A3FA3A4801F0E6FD66E0002002F09CFA374801F0DFFD5FE000F098F90D
:4002000000251BE00023019320238DF806308DF8043005EB45039B0023442F4AD35C30338DF8053001A801F0C7FD013400E000240B2CE7DD294801F0BFFD0135072DF6DD44
:400240003CE002F065FA4130C0B201F07DFD244801F0B2FD02F064FA4130C0B201F074FD1E4801F0A9FD29E01E481F4900F08CFC01F0A2FD1D481E4900F086FC01F09CFD7E
:400280001C4D1D4C2846214600F07EFC01F094FD2846214600F078FC01F08EFD0EE0174B0B225A6000221A600A22DA6003229A600FCB00F047FB01E000F0C6FF17B030BD48
:4002C000A43A0000A83A0000B83A0000C83A0000D83A0000EC3A0000F481FF1FB03A0000003B0000043B0000103B0000143B00001C3B0000203B0000283B00005882FF1F74
:4003000008B5FFF7C1FEFFF7CFFEFCE7F8B50546284B1A8813B2034442F210718B4247D884B22244234B1A80012002F0A9F9012002F0CAF9002D08DA012002F0B9F90120C7
:4003400002F0DAF965422DB205E0002002F0B0F9002002F0D1F900240FE0002002F09CF9012002F099F9002002F0BAF9012002F0B7F90A2002F040FC0134204602F070FF7B
:4003800006460F4605EB8500400002F069FF0022094B02F0CBFF02460B463046394603F037FA0028D9D102F06BF9002002F08CF9F8BD00BF6882FF1F0000E03FF8B5054657
:4003C000284BB3F90030034442F21072934248D8012002F055F9012002F076F9ACB2214A138823441380002D08DA002002F060F9012002F081F965422DB205E0012002F0F6
:4004000057F9002002F078F900240FE0002002F043F9012002F040F9002002F061F9012002F05EF90A2002F0E7FB0134204602F017FF06460F4605EB8500400002F010FF6E
:400440000022094B02F072FF02460B463046394603F0DEF90028D9D102F012F9002002F033F9F8BD6C82FF1F0000E03F10B5012002F006F9012002F027F902F049F90446D6
:4004800002F04EF931E0A8B9012002F011F9012002F032F9002002F0FFF8012002F0FCF8002002F01DF9012002F01AF90A2002F0A3FB15E0A4B9002002F0FAF8012002F0B5
:4004C0001BF9002002F0E8F8012002F0E5F8002002F006F9012002F003F90A2002F08CFB02F016F9044602F01BF9002CCBD00028C9D0002002F0C4F8002002F0E5F800238A
:40050000074A1380074A13800B21074A1180074A13802320FFF7FAFE0F20FFF74FFF10BD6882FF1F6C82FF1FF281FF1F6A82FF1F10B5022002F012F9022002F085F9022049
:4005400002F09AF9022002F0AFF9022002F0C4F9022002F0D9F9022002F0EEF9022002F003FA0C2002F070F9012002F061F902F001F9DD4CA07202F005F9E07202F00AF925
:40058000207202F00FF9607202F014F9A07102F019F9E07102F01EF9207102F023F9607102F026F9A07002F02BF9E07002F030F9207002F035F96070002002F039F9022077
:4005C00002F042F90C2002F0C9F8012002F0BAF802F0D0F8A07502F0D5F8E07502F0DAF8207502F0DFF8607502F0E4F8A07402F0E9F8E07402F0EEF8207402F0F3F860742A
:4006000002F0F6F8A07302F0FBF8E07302F000F9207302F005F96073002002F093F8022002F09CF80C2002F03FF9012002F030F902F0A0F884F8220002F0A4F884F8230022
:4006400002F0A8F884F8200002F0ACF884F8210002F0B0F8A07702F0B5F8E07702F0BAF8207702F0BFF8607702F0C2F8A07602F0C7F8E07602F0CCF8207602F0D1F8607611
:40068000002002F005F9022002F00EF90C2002F0F3F8012002F0E4F802F06CF884F82E0002F070F884F82F0002F074F884F82C0002F078F884F82D0002F07CF884F82A00F5
:4006C00002F080F884F82B0002F084F884F8280002F088F884F8290002F08AF884F8260002F08EF884F8270002F092F884F8240002F096F884F82500002002F0B1F8022075
:4007000002F0BAF80C2002F0FFF8012002F0F0F802F030F884F83A0002F034F884F83B0002F038F884F8380002F03CF884F8390002F040F884F8360002F044F884F83700F2
:4007400002F048F884F8340002F04CF884F8350002F04EF884F8320002F052F884F8330002F056F884F8300002F05AF884F83100002002F0BDF8022002F0C6F80C2002F04B
:40078000ABF8012002F09CF801F0F4FF84F8460001F0F8FF84F8470001F0FCFF84F8440002F000F884F8450002F004F884F8420002F008F884F8430002F00CF884F8400038
:4007C00002F010F884F8410002F012F884F83E0002F016F884F83F0002F01AF884F83C0002F01EF884F83D00002002F069F8022002F072F80C2002F0B7F8012002F0A8F8E3
:4008000001F0B8FF84F8520001F0BCFF84F8530001F0C0FF84F8500001F0C4FF84F8510001F0C8FF84F84E0001F0CCFF84F84F0001F0D0FF84F84C0001F0D4FF84F84D00AC
:4008400001F0D6FF84F84A0001F0DAFF84F84B0001F0DEFF84F8480001F0E2FF84F84900002002F075F8022002F07EF80C2002F063F8012002F054F801F07CFF84F85E000B
:4008800001F080FF84F85F0001F084FF84F85C0001F088FF84F85D0001F08CFF84F85A0001F090FF84F85B0001F094FF84F8580001F098FF84F8590001F09AFF84F8560096
:4008C00001F09EFF84F8570001F0A2FF84F8540001F0A6FF84F85500002002F021F8022002F02AF810BD00BFF481FF1F08B500EB800000EB8003580000B2FFF707FD08BDEF
:4009000008B5C0EB802300EB8303C0EBC300430018B2FFF753FD08BD08B5C0EBC02300EB8303C0EBC30000B2FFF748FD08BD00BF08B500EB800000EB800000B2FFF7E6FCFD
:4009400008BD00BF2DE9F04F85B004AC04E90F00DDF80090664DB5F90000C9EB0000FFF7CFFF019F634CB4F90000C01BFFF7BEFFDDF808A0A5F800A0DDF80CB0A4F800B05E
:4009800041F2883002F038F9012001F0CFFECAEB0905CBEB070685EAE578A8EBE57886EAE674A4EBE674A0452FD113E005FB01F393FBF4F34B4406FB01F292FBF4F23A44A0
:4009C00003EB43039B0013444B4AD35C03B10130013101E001210020A142E7DD68B183E096FBF4F000B2FFF791FC95FBF8F0404200B2FFF7E3FC013700E0002704EB440310
:400A000003EB0313BB42EBDC6EE015B108E0013300E00123A342FADD3046FFF767FF63E016B108E0013300E001234345FADD2846FFF766FF58E05F4504DB05DC052F06DC28
:400A4000012706E0012704E04FF0FF3701E04FF0FF377842FFF76CFFD14506DC08DBBAF1030F08DC4FF0FF3907E04FF0FF3904E04FF0010901E04FF001091DB94846FFF774
:400A80004BFF12E0002D08DD95FBF8F809EB450000FB08F0FFF740FF07E095FBF8F5C9EB480000FB05F0FFF737FF1EB93846FFF73FFF12E0002E08DD96FBF4F407EB46004C
:400AC00000FB04F0FFF734FF07E096FBF4F6C7EB440000FB06F0FFF72BFFC9F10000FFF71BFF002001F022FE05B0BDE8F08F00BF6A82FF1FF281FF1FF481FF1FF8B500AF58
:400B000002F07AF800F00AFF06463030C0B201F01BF9F31D23F00703ADEB030D6D461648164902F0DAFE002421E02846144902F0F6FEB0B100F0B2FE285501F005F92D5D59
:400B4000303DEDB200F0AAFE0E4801F035F9002404E000F0A3FE084B18550134A542F8DC07E000F09BFE285501F0EEF80134A642DBDC0148BD46F8BDE881FF1FBC81FF1F98
:400B80002C3B0000343B000070B506460C461A4800F02AFF4FF47A70FFF7B0FF037853BB164800F021FF6420FFF7A8FF037813BB204600F019FF6420FFF7A0FF0378D3B960
:400BC0000F4800F011FF4FF47A70FFF797FF03788BB9002503E0705D00F0CEFE0135204602F03EFEA842F6DC304600F0FDFE40F6C410FFF783FF70BD383B0000603B0000F1
:400C0000A43A000038B5164801F0D6F8154C0023237015481549FFF7B7FF154D20462946012202F06AFE28783030C0B201F08CF8104801F0C1F82378012B01D0032B06D114
:400C40000D4801F0B9F801220C4B1A6005E00C4801F0B2F80022094B1A60084B186838BD6C3B0000E882FF1F0C81FF1F103B0000E881FF1F7C3B0000843B00005482FF1FE7
:400C8000903B000038B51E4801F096F81D4C002323701D481D49FFF777FF1D4D20462946012202F02AFE28783030C0B201F04CF8184801F081F82378112B06D1164801F057
:400CC0007BF80222154B1A6017E0212B06D1144801F072F80422114B1A600EE0222B06D1104801F069F803220C4B1A6005E00E4801F062F80122094B1A60084B186838BDC5
:400D0000A03B0000E882FF1F1481FF1F1C3B0000E881FF1F7C3B0000AC3B00005482FF1FB43B0000C03B0000CC3B000010B5214801F042F8204C0023237020482049FFF7FA
:400D400023FF20461F49012202F0D7FD10E041F2883001F051FF19481949FFF715FF164C20461849012202F0C8FD204601F024F8114B1A78A2F12103DBB2012BE7D8112AE3
:400D800003D10222104B1A6010E0212A06D10F4801F012F804220C4B1A6007E0222A05D10B4801F009F80322074B1A60064B186810BD00BFE83B0000E882FF1F1C81FF1F09
:400DC000283B0000E881FF1F5482FF1FB43B0000C03B000010B582B0384800F0EDFF0022374B1A7017E041F2883001F005FF35483549FFF7C9FE324C20463449082202F09E
:400E00007CFD204600F0D8FF2378312B03D101222F4B1A6003E02A4B5B78002BE3D0284B1A78312A03D10120294B186044E0244B59788DF804108DF80520DA788DF806203C
:400E40009A788DF807205A798DF8002019798DF80110D8798DF802009B798DF80330AAB1A1B198B193B1684600F0A6FF9DF80020184B5A609DF801201A609DF80220DA6000
:400E80009DF803209A600FCBFFF75CFD01A800F093FF9DF804200F4B5A609DF805201A609DF80620DA609DF807209A600FCBFFF749FD0420064B186002B010BDF03B0000D3
:400EC000D082FF1F1C81FF1F283B0000E881FF1F5482FF1F5882FF1F38B53F4B00221A605A609A60DA60012838D0154670E005EB45039B002344394AD35C012B1BD105EB20
:400F000045029200224436498A5CA2B903F1663383FB0432E317C3EBA20303EB83035B00E31A012B03D82F4800F046FF0FE02A4B1D605C600BE053B905EB45039B002344D7
:400F4000274AD35C012B02D1234B9D60DC60013400E000240B2CCADD013500E00025072DF7DD38BD05EB45039B0023441C4AD35C012B1BD105EB4502920022441A498A5C7D
:400F8000A2B903F1663383FB0432E317C3EBA20303EB83035B00E31A012B03D8114800F00BFF0FE00C4B1D605C600BE053B905EB45039B0023440C4AD35C012B02D1064B9D
:400FC0009D60DC60013400E000240B2CCADD0135072DF9DD38BD00BFD882FF1FF882FF1F5883FF1FF83B00007082FF1F0E2825D8DFE800F008260A0C0E10121416181A1C8B
:401000001E20220030207047322070473320704734207047352070473620704737207047382070473920704741207047422070474320704744207047452070474620704746
:4010400031207047F0B58FB0724800F0B5FEFFF76FFA71487149602202F02CFC00250A950B950C950D95069507950895099525E04FF47A7001F0C0FDFFF75AFA6848674916
:40108000602202F017FC0120FFF726FF654B1A680A9259680B9198680C90DB680D930AB1072A0BD1062909D1591A11F1020F02D0022903D101E0012500E001250A9C34B9FB
:4010C0000B9B23B90C9B13B90D9B002BD0D00B98FFF78CFF8DF814002046FFF787FF8DF815000D9C2046FFF781FF8DF816000C98FFF77CFF8DF817004B4B83FB0432E3173A
:40110000C3EBA20303EB83035B00E31A012B2CD95DBB33E04FF47A7001F06EFDFFF708FA42483E49602202F0C5FB0220FFF7D4FE3C4B1F680697586807909C680894DE689C
:40114000099695B9FFF752FF8DF814003846FFF74DFF8DF815003046FFF748FF8DF816002046FFF743FF8DF81700069B33B9079B23B9089B13B9099B002BCBD02E238DF806
:4011800004306D238DF805306F238DF8063076238DF8073065238DF8083020238DF809309DF814208DF80A208DF80B309DF815208DF80C208DF80D309DF816208DF80E20D6
:4011C0008DF80F309DF817308DF810300022184B1A7008E001A81749FFF7D6FC14481649092202F08AFB124B1B78002BF2D0012B06D0124800F0E0FD0422114B1A6005E07E
:40120000104800F0D9FD03220D4B1A600C4B18680FB0F0BD1C3C0000F882FF1FF481FF1F5883FF1FD882FF1F676666667082FF1FEC82FF1F243C0000E881FF1F283C0000E2
:401240005482FF1F4C3C000008B5124C00232360FFF70CF9FFF7D6FC20600E4B1B682BB90D4800F0A9FDFFF7CDFCF6E7012B02D1FFF708FDF1E7022B02D1FFF757FDECE7B8
:40128000032B02D1FFF7A6FDE7E7042BE5D1FFF7D9FEE2E75482FF1F5C3C0000FEE700BF08B5104E104D16E029686B68AC68002204E051F8040B43F8040B0432A242F8D1AA
:4012C000E868002203E0002143F8041B04328242F9D11035013E002EE6D102F0C5FAFFF70FF8FEE7010000003844000008B5124A124B1A60124A136843F4007313600023DA
:401300000AE0032B03D80F4A52F8231000E00E490E4A42F8231001332F2BF2D90C4B1A780C4B1A70094A0C4B1A6000F0BDF800220A4B1A6008BD00BF0004FA050CED00E0AB
:4013400014ED00E0000000009D1200000080FF1FBC7600400481FF1F08ED00E00081FF1FFEE700BFF0B40022174611E050F82760F3B226F0FF0608E001EB420511F81240F9
:401380006D78A5550132013BDBB2002BF4D10137162FEBD9F0BC7047064B1B78DBB203F00701054A11701B09013213704422034B1A707047CF0100496E5800407658004086
:4013C00008B50A46002102F080FA08BD08B502F071FA08BD08B502F06DFA08BD38B53322264B1A80182326490B7002310A80254A13700222244B1A7008224FF040231A7040
:40140000032203F500731A70204B1B78DBB2204A137010221F4B1A8041F25122023B1A80002419250CE01C4B1B7803F0010343EA440404F003044FF4F07001F0BDFA013D2F
:401440000DB1032CEFD115B90320FFF789FF134B4FF480721A8007221A70002210490A704820023108701A700222033B1A700D4A137843F00303137038BD00BF80400040A0
:4014800082400040864000400043004008010049A146004022420040254200400440004006400040A243004038B572B6464A137843F00403137000240CE0444963001A198E
:4014C00052000A4423445B00C8589188FFF778FF0134E4B2072CF0D900240FE03B49A3001A1952000A4452F8300F23445B000B4451681A8FFFF76AFF0134E4B2012CEDD9F7
:40150000324C04F1440004F1A001FFF72BFF304A137843F0020313701032137843F0020313702C4D2B7843F040032B70A2F58632513A137843F010031370274804F24451A1
:401540000822FFF743FF254804F24C510822FFF73DFF234804F254510A22FFF737FF214804F5AC610822FFF731FF1F4804F5AD610822FFF72BFF1D4804F5AE610822FFF74B
:4015800025FF1B4804F5AF610A22FFF71FFF194804F284510822FFF719FF174A137843F008031370154C61232370FFF717FFC12323700122124B1A70FFF7EEFE114829469B
:4015C0000E22FFF707FF38BDE84600407C3C000003500140A043004002510040C251004010510040225100403251004042510040505100406251004022430040004800401C
:4016000004000840B043004010B50B4C237803F09F032370237803F0F00323702378184340F010002070012001F0FCFA237803F0EF03237010BD00BF2051004070B5354B75
:401640001A7802F08002D2B21A7033490A7802F0F00242F00F020A7001310A7802F0F0020A7001310A7802F0F0020A701A7802F0DF021A701A7842F040021A704FF4CA7691
:40168000002001F0CFFA234D2B7843F010032B70012001F0C7FA214B1C78E4B22B7803F0EF032B70002001F0BDFA04F00804E4B22B7843F010032B70012001F0B3FA2B788C
:4016C00003F0EF032B7014B90A2001F0ABFA013E0CB1002ED4D10F4A137803F0BF031370137803F08003DBB213700232137803F0F00313700132137803F0F00343F00F03D0
:4017000013700132137803F0F00343F00F03137070BD00BF20510040225100402151004010B50446FFF78AFF2009FFF76DFF04F00F00FFF769FF10BD08B5282001F05CFA25
:401740000320FFF761FF052001F056FA0320FFF75BFF0F2001F050FA0320FFF755FF012001F04AFA0220FFF74FFF052001F044FA0620FFF7D5FF0E20FFF7D2FF2C20FFF709
:40178000CFFF0820FFF7CCFF0120FFF7C9FF0C20FFF7C6FF0320FFF7C3FF052001F02CFA08BD00BF08B50C20FFF7BAFF0122014B1A7008BDC881FF1F08B5054B5B7823B998
:4017C000FFF7BAFF0122024B5A70FFF7EBFF08BDC881FF1F08B50220104901F04FFA0220072101F05FFA00220D4B1A7072220D4B1A702022013B1A7003200B4901F03EFACC
:401800000320072101F04EFA0622084B1A70472210331A700222B03B1A7008BD0D1A0000CA81FF1F8A640040A11A00002865004010B501F0C9F804460D4A137843F020034C
:401840001370013A137843F010031370094A0423136009490B7843F010030B70082307490B60136001F08CF8204601F0B1F810BD9A64004000E100E09864004080E200E0BB
:4018800008B5054B5B7823B9FFF7A4FF0122024B5A70FFF7CDFF08BDCA81FF1F0422194B1A60194A9378DBB2D178C9B2127912F0FF0F01D18B4211D0144AD05CC0B201339B
:4018C000DBB23F2B00D900230F4A9370137913F0FF0F13D000220C4B1A710FE00C4B1B78DBB213F0200F06D00A4A1078C0B213F01E0F02D102E0002000E000200422064BDD
:401900001A60704780E100E0CA81FF1FB883FF1F696400404A64004000E100E00422134B1A60134A9378D278DBB2934206D1104B1B7913F0FF0F14D0402013E00C4A937836
:40194000D278DBB2934205D2094AD3789078181AC0B207E0064AD3789078181A4030C0B200E000200422034B1A60704780E100E0CA81FF1F00E100E0164BD9799B79DBB298
:40198000994205D25A1E914214BF0022012204E0CA1A3F2A14BF00220122002AECD18B4207D10D4B1B7813F0040F02D10B4B187070473F2900D90021094B58540131054BF0
:4019C000D971054B1B7813F0020F02D00822054B1A607047CA81FF1F6864004048640040F883FF1F00E200E038B5074B5B782BB938BDFFF7C1FF0134A4B201E005460024F1
:401A0000285D0028F5D138BDCA81FF1F1C4B1B78DBB213F01E0F05D01A4803F01E0201780A43027003F0200303F0FF022BB3164B1978C9B2154B1B78DBB21548C154154BF5
:401A40001B7813F0FF0F02D00121134B19700F490B780133DBB20B700B78DBB23F2B02D900210A4B1970094B1B780C490978DBB28B4202D10121074B1970002AC6D170471D
:401A800069640040CA81FF1F4A640040CD81FF1FB883FF1FCE81FF1FCF81FF1FCC81FF1F13E0104B1B78DBB23F2B02D900220D4B1A700C4A1378DBB20B49CB5CDBB20B4936
:401AC0000B7013780133DBB21370064B1B78DBB2074A1278934204D0064B1B7813F0040FDFD07047D081FF1FF883FF1F48640040D181FF1F6864004008B50020114901F0AF
:401B0000BDF80020072101F0CDF800220E4B1A7072220E4B1A702022033B1A7001200C4901F0ACF80120072101F0BCF80622094B1A70472210331A70022203F5A8731A7076
:401B400008BD00BF1D1E0000D381FF1F8B650040B11E00002964004010B500F035FF04460D4A137843F020031370033A137843F010031370094A0123136009490B7843F0F7
:401B800010030B70022307490B60136000F006FF204600F01DFF10BD9B65004000E100E09965004080E200E008B5054B5B7823B9FFF7A2FF0122024B5A70FFF7CDFF08BD7B
:401BC000D381FF1F0122134B1A60134A9378DBB2D178C9B2127912F0FF0F01D18B4211D00E4AD05CC0B20133DBB23F2B00D90023094A9370137913F0FF0F06D00022064B4B
:401C00001A7102E0064B1878C0B20122054B1A60704700BF80E100E0D381FF1F3884FF1F4B65004000E100E00122194B1A60194A9378DBB2D178C9B2127912F0FF0F01D116
:401C40008B4211D0144AD05CC0B20133DBB23F2B00D900230F4A9370137913F0FF0F13D000220C4B1A710FE00C4B1B78DBB213F0200F06D00A4A1078C0B213F01E0F02D1F4
:401C800002E0002000E000200122064B1A60704780E100E0D381FF1F3884FF1F686500404B65004000E100E00122134B1A60134A9378D278DBB2934206D1104B1B7913F05A
:401CC000FF0F14D0402013E00C4A9378D278DBB2934205D2094AD3789078181AC0B207E0064AD3789078181A4030C0B200E000200122034B1A60704780E100E0D381FF1F7E
:401D000000E100E008B500F05FFE0B4B1A7842F001021A701A7802F0FE021A7000F058FE0121064B1960064B00229A70DA701A715A71044B196008BD9B65004080E100E0C6
:401D4000D381FF1F00E100E0164BD9799B79DBB2994205D25A1E914214BF0022012204E0CA1A3F2A14BF00220122002AECD18B4207D10D4B1B7813F0040F02D10B4B187040
:401D800070473F2900D90021094B58540131054BD971054B1B7813F0020F02D00222054B1A607047D381FF1F69650040496500407884FF1F00E200E038B5074B5B782BB990
:401DC00038BDFFF7C1FF0134A4B201E005460024285D0028F5D138BDD381FF1F08B500F0F3FD0A4B1A7842F001021A701A7802F0FE021A7000F0ECFD0223054A1360054A23
:401E000000219171D171044A136008BD9965004080E100E0D381FF1F00E100E01C4B1B78DBB213F01E0F05D01A4803F01E0201780A43027003F0200303F0FF022BB3164B83
:401E40001978C9B2154B1B78DBB21548C154154B1B7813F0FF0F02D00121134B19700F490B780133DBB20B700B78DBB23F2B02D900210A4B1970094B1B780C490978DBB2D0
:401E80008B4202D10121074B1970002AC6D1704768650040D381FF1F4B650040D681FF1F3884FF1FD781FF1FD881FF1FD581FF1F13E0104B1B78DBB23F2B02D900220D4BC1
:401EC0001A700C4A1378DBB20B49CB5CDBB20B490B7013780133DBB21370064B1B78DBB2074A1278934204D0064B1B7813F0040FDFD07047D981FF1F7884FF1F496500406F
:401F0000DA81FF1F69650040002306E0421812F8012C13449BB2013989B20029F6D1584280B27047004700BF08B58022024B1A7000F05AFE08BD00BFFA4600402DE9F04125
:401F400082B00C46164602AF27F8022D01230B7048701546A270130ACB7002F1040808461FFA88F1FFF7D0FF04F80800731DC0F30720E054063517236355F11D204689B244
:401F80003A46962300F0B4FF02B0BDE8F08100BF70B505460E461446084B984203D010B1002000F01FFE002004E0013CAB191B5D1844C0B2002CF8D170BD00BF00800040C6
:401FC00008B501380B2867D8DFE800F0060E161E262E3E36464E565E4942090201F57F3101F5707101225CE04942090201F57F3101F2C131042254E04942090201F57F3141
:4020000001F2C53102224CE04942090201F57F3101F2C931042244E04942090201F57F3101F5747101223CE04942090201F57F3101F2D131012234E04942090201F57F31FA
:4020400001F2D63102222CE04942090201F57F3101F2D231022224E04942090201F57F3101F5757102221CE04942090201F57F3101F57671042214E04942090201F57F3135
:4020800001F5777101220CE04942090201F57F3101F57871042204E0002000F0A3FD02220021012A02D10878C0B200E00020022A03D10B78487843EA0020042A09D10B780E
:4020C000487843EA0023887843EA0043C87843EA006008BD08B50A4B1B7803F0C003802B0CD10021064B19700220FFF769FF28B102200021FFF764FFFFF714FF08BD00BF6E
:40210000FA460040F8B5064603203146FFF758FF0130070204203146FFF752FF074403203146FFF74DFF013000020024254608E003785A1ED2B2FD2A00D801252344DCB2C1
:402140000130B842F4D303203146FFF739FF01300002C0080F4B9F4201D0FF0808E04FF4004705E000F190431B782344DCB20130B842F7D36442E4B201203146FFF720FF16
:40218000844202D11DB90620F8BD0620F8BD0020F8BD00BFC0FF03002DE9F04FADF51F7D054600F06FFC10B1002000F01BFD00F097FE62B64FF0000A57460A24D0460DB9F5
:4021C000FF2300E02B4652A84FF496710DF2762200F0A0FE0DB1013CE4B20CB10028EED1002840F00E82BDF87632062B26D99DF84821012A24D19DF84B819DF84A2142EAAE
:402200000828414608F107029A421BD8B2F5967F1AD84A1D52AB9E5C0A1D9A5C42EA062606315B5C172B11D108F1040152A889B2FFF76AFEB0420BD100260AE0042608E002
:40224000042606E0032604E0032602E0042600E00826002E40F081819DF84C919DF84921A2F131030A2B00F25081DFE813F00B001C004E014400B0004E01B600CB00440026
:40228000DD004201002F00F06A81B8F1000F40F069810020FFF736FFB0FA80F040098DF84C010122A6E1002F00F05F81B8F1010F40F05E81B9F1030F00F25D81C14B1B6816
:4022C0001B68C3F30742914502D1C3F3072305E0914501D9002301E04FF480738DF84C311B0A8DF84D31FF238DF84E3100238DF84F3104227EE1342A15D1002F00F03E81E5
:40230000B8F1030F40F03D81A9F14003DBB23F2B02D84FF0100A01E04FF4907A07A80021524601F0D2FA002F00F02E81B8F1020F40F22D8107AB03EB0A000DF24F11A8F190
:40234000030201F0B7FAC244AAF1030A1FFA8AFAA9F14003DBB23F2B05D800F019FC40234FF0100803E04FF480734FF49078C24540F010819DF84EA19DF84D2142EA0A2AE8
:402380009A4500D30A26002E40F00981B9F13F0F0FD80AEB092292B28A4B1B681968C1F30F2311F0FF0F01D001339BB29A42C0F0F8804846514607AA434600F06DFB00B184
:4023C0000A2600F039FC4FF0000A524612E1002F40F01581042600220CE1002F00F0E6800AEB0803B3F5967F00F2E38007AB03EB0A0053A9424601F05DFAC2441FFA8AFAD6
:402400000022F7E0B8F1000F40F0D68004AB6E4A92E8030083E8030053AA82E803004FF0000A01270822E5E0002F00F0C880B8F1030F40F0D1809DF84EB19DF84D3143EAD2
:402440000B2BA9F14003DBB23F2B10D84FEA0B11BBF13F0F01D8334600E00A23002B40F0BE805A481022FFF793FD019011E00BEB09210902BBF1FF0F01D8334600E00A2303
:40248000002B40F0AF8000204FF48072FFF780FD0190B9F13F0F0FD809F510320BEB02225201002306E0995C01980144C9B2019101339BB21F2BF6D9B9F1030F13D1BBF1DE
:4024C000FF0F10D105200021FFF77AFD019B181A00F0FF0906200021FFF772FDC0EB090000F0FF030193019B5B428DF84C31012280E00020FFF706FE10B98022344B1A7042
:4025000000F072FB0426002274E0324B1B68002B6BD0002F6CD08DF80820ADF80A8053AA0392002104910591069202A804A99847BDF81420B2F5937F03D3069953AB994255
:4025400005D0069B03B92AB99DF8106052E00E2600224FE00E2600224CE000224AE00426002247E00426002244E00426002241E0042600223EE0042600223BE0042600224F
:4025800038E00426002235E00426002232E0042600222FE04FF0000A032652462AE0002228E04FF0000A0A26524623E00426002220E0032600221DE0042600221AE0042693
:4025C000002217E02081FF1F0843000000800040FA460040DC81FF1F042600220AE01E46002207E01E46002204E00526002201E005260022304652A9FFF7A0FC01E04FF052
:40260000000A002D3FF4DBAD002F7FF4D8AD0DF51F7DBDE8F08F00BF38B50020FFF772FD08B1062400E00024134D2B68002001461A68FFF7ADFC6B681B78C01AC0B24042F8
:40264000C0B2834202D12B681B6813B9002000F0C9FA0A4B1B7803F0C003402B00D024B10020064B1870FFF797FD1420FFF794FDFFF75AFC38BD00BF2081FF1FFA46004070
:40268000044A137803F0FE0300F0010018431070704700BF60510040044A137803F0FD03400000F0020018431070704760510040044A137803F0FB03800000F00400184300
:4026C0001070704760510040044A137803F0F703C00000F0080018431070704760510040044A137803F0EF03000100F0100018431070704760510040044A137803F0DF03C1
:40270000400100F0200018431070704760510040024B1878C0F38010704700BF61510040014B1878C009704761510040044A137803F0F703C00000F00800184310707047DF
:40274000C0510040044A137803F0FE0300F0010018431070704700BF30510040044A137803F0F10300F00E0018431070704700BF18500040024B187800F00100704700BF3D
:4027800001510040024B1878C0F34000704700BF01510040024B1878C0F38000704700BF01510040024B1878C0F3C000704700BF01510040024B1878C0F30010704700BF29
:4027C00001510040024B1878C0F34010704700BF01510040024B1878C0F38010704700BF01510040014B1878C009704701510040024B187800F00100704700BF4151004033
:40280000024B1878C0F34000704700BF41510040024B1878C0F38000704700BF41510040024B1878C0F3C000704700BF41510040044A137803F0FD03400000F00200184337
:402840001070704730510040044A137803F0F10300F00E0018431070704700BF19500040044A137803F0FB03800000F0040018431070704730510040044A137803F0F10357
:4028800000F00E0018431070704700BF1A500040044A137803F0F703C00000F0080018431070704730510040044A137803F0F10300F00E0018431070704700BF1B50004094
:4028C000044A137803F0EF03000100F0100018431070704730510040044A137803F0F10300F00E0018431070704700BF1C500040044A137803F0DF03400100F020001843B1
:402900001070704730510040044A137803F0F10300F00E0018431070704700BF1D500040044A137803F0BF03800100F0400018431070704730510040044A137803F0F10391
:4029400000F00E0018431070704700BF1E500040044A137803F07F03C001C0B203431370704700BF30510040044A137803F0F10300F00E0018431070704700BF1F5000401B
:40298000054A137843F0010313701032137843F001031370704700BFA2430040054A137843F0020313701032137843F002031370704700BFA24300400230800803D000BF5D
:4029C00001380046FCD17047EFF3108072B6704780F31088704700BF10B500F07BF900F029FAD0B900F068FA0446072812D102E0012000F017F90A4B1B7813F0020FF7D0C9
:402A0000074B1B7813F0020F04D0054B1B789B0800D1002400F034FA00E00424204610BD2247004010B500F055F900F003FA10BB012000F0E1F9072818D11048022100F023
:402A40005BF902280AD102E0012000F0EBF80C4B1B7813F0020FF7D0002409E0084B1B7813F0020FE9D04FF0FF3401E04FF0FF3400F006FA00E00424204610BDB884FF1F58
:402A80002247004008B5FFF7A7FF034610B9FFF7C9FF0346184608BD2DE9F041441FE4B23A2C01D9002500E0012510F0800F00D00125412800D901253F2803D8B1F5807F59
:402AC00006D808E0802900D90125102B02D102E0012500E0012502B90125002D50D1984616460F46044600F0A5F9002847D1204639463246434600F019F9064607283AD108
:402B000002E0012000F08EF81F4B1B7813F0020FF7D01D4B1B7813F0020F06D01A4B1B789B0805D04FF0FF3603E04FF0FF3600E02E4606BB154B204639461A785B7800F075
:402B400035F9072804D0064615E0012000F06AF80D4B1B7813F0020FF7D00B4B1B7813F0020F06D0084B1B789B0804D04FF0FF3601E04FF0FF3600F083F9354600E00425C1
:402B80002846BDE8F08100BF22470040B884FF1F08B5FFF719FF0F4A137843F0080313701032137843F008031370C8220A4B1A700A4A137843F0100313701032137843F060
:402BC00010031370064B1B7813F0200FFAD0FFF7FFFE08BDA043004001470040AC4300400047004001BE7047024A137843F0010313707047F646004010B5044605E0084BC5
:402C00001868FFF7D9FEA4F50044B4F5004FF6D8034B586800FB04F0FFF7CEFE10BD00BF2881FF1F08B5034B1B7A03FB00F0FFF7C3FE08BD2881FF1F08B5FFF7C5FE00BF8C
:402C400000BF00BF00BF00BF00BF00BF00BF00BF00BF00BF00BF00BF00BF00BF00BF064A13889BB243F0040313801388BFF36F8FFFF7AEFE08BD00BF0048004070B50446B6
:402C80000E46074B1D681F2802D90020FFF7AAFF04F01F04103455F8240045F8246070BD08ED00E038B504460D46072902D90020FFF798FF1F2C02D90020FFF793FF04F075
:402CC0001F0000F1604000F564406D01EDB2057038BD00BF08B5FFF777FE064A137843F0080313701032137843F008031370FFF76FFE08BDA043004070B506460D460024D0
:402D00000CE00120FFF78EFF064B1B7813F0010FF7D0054B1B7833550134E4B2AC42F3D3204670BD224700402047004070B41D4C247814F0020F2CD01B4CB6252570D5256D
:402D40002570022525700234247814F0020F22D1154C2070002404E0165D134D2E700134A4B29C42F8D3B3F5807F16D13F2816D800F5103001EB00214801002305E01A5C9E
:402D8000D2B209490A7001339BB21F2BF7D9072006E0042004E0092002E0072000E0072070BC7047224700402047004030B4104C247814F0020F15D00E4CB6252570D8250A
:402DC0002570052525700234247814F0020F0BD1084C2070080A2070C9B2217022702370072002E0042000E0092030BC704700BF22470040204700400C4B1B7813F0020F1F
:402E00000FD00B4BB6221A70E1221A700E221A7002331B7813F0020F05D1054B187007207047042070470920704700BF224700402047004010B5FFF7C7FD0F4B1B78A3B9BA
:402E400001220D4B1A700D4B1B6813F0010F0ED00A4A136823F00103136000BF00BF00BF0122054B5A60002402E0042400E00024FFF7AEFD204610BDE081FF1F04000840ED
:402E800008B5FFF7A1FD0A4B00221A705B68012B0AD1084A136843F00103136000BF00BF00BF0022024B5A60FFF792FD08BD00BFE081FF1F04000840074B1B7813F0020F4C
:402EC00008D0064BB6221A70E0221A700D221A700720704704207047224700402047004008B5FEF761FEFEF70DFFFEF777FF08BDF8B506460D461746FEF704FF002404E00E
:402F0000305DFEF721FF0134A4B2AC42F8D33D800020F8BD2DE9F0470746894690461D46002414E0FEF7C0FE60B1FEF7BDFE04461920FFF761FEFEF7B7FE8442F5D34FF09C
:402F4000000A0BE00120FFF757FE0134A4B205EB85035B009C42E5DB4FF0050A0025A8F8005023E0FEF7A0FE86B2B8F8003033449BB2A8F800304B4508D313E0FEF722FEDC
:402F800078550135ADB20134A4B200E00024B442F4D37B1913F8013C172B07D00520FFF72BFE03E09B1BA8F8003003E0FEF77CFE0028D7D15046BDE8F08700BF81F000417C
:402FC00002E000BF83F0004330B54FEA41044FEA430594EA050F08BF90EA020F1FBF54EA000C55EA020C7FEA645C7FEA655C00F0E2804FEA5454D4EB5555B8BF6D420CDD3F
:403000002C4480EA020281EA030382EA000083EA010180EA020281EA0303362D88BF30BD11F0004F4FEA01314FF4801C4CEA113102D0404261EB410113F0004F4FEA03333B
:403040004CEA133302D0524263EB430394EA050F00F0A780A4F10104D5F1200E0DDB02FA0EFC22FA05F2801841F1000103FA0EF2801843FA05F359410EE0A5F120050EF1CB
:40308000200E012A03FA0EFC28BF4CF0020C43FA05F3C01851EBE37101F0004507D54FF0000EDCF1000C7EEB00006EEB0101B1F5801F1BD3B1F5001F0CD349085FEA300045
:4030C0004FEA3C0C04F101044FEA445212F5800F80F09A80BCF1004F08BF5FEA500C50F1000041EB045141EA050130BD5FEA4C0C404141EB010111F4801FA4F10104E9D1D6
:4031000091F0000F04BF01460020B1FA81F308BF2033A3F10B03B3F120020CDA0C3208DD02F1140CC2F10C0201FA0CF021FA02F10CE002F11402D8BFC2F1200C01FA02F1F9
:4031400020FA0CFCDCBF41EA0C019040E41AA2BF01EB0451294330BD6FEA04041F3C1CDA0C340EDC04F11404C4F1200220FA04F001FA02F340EA030021FA04F345EA030161
:4031800030BDC4F10C04C4F1200220FA02F001FA04F340EA0300294630BD21FA04F0294630BD94F0000F83F4801306BF81F480110134013D4EE77FEA645C18BF7FEA655C5A
:4031C00029D094EA050F08BF90EA020F05D054EA000C04BF1946104630BD91EA030F1EBF0021002030BD5FEA545C05D14000494128BF41F0004130BD14F580043CBF01F579
:40320000801130BD01F0004545F0FE4141F470014FF0000030BD7FEA645C1ABF194610467FEA655C1CBF0B46024650EA013406BF52EA033591EA030F41F4002130BD00BF08
:4032400090F0000F04BF0021704730B54FF4806404F132044FF000054FF0000150E700BF90F0000F04BF0021704730B54FF4806404F1320410F0004548BF40424FF0000104
:403280003EE700BF42004FEAE2014FEA31014FEA02701FBF12F07F4393F07F4F81F06051704792F0000F14BF93F07F4F704730B54FF4607401F0004521F0004120E700BF34
:4032C00050EA010208BF704730B54FF000050AE050EA010208BF704730B511F0004502D5404261EB41014FF4806404F132045FEA915C3FF4DCAE4FF003025FEADC0C18BFA2
:4033000003325FEADC0C18BF033202EBDC02C2F1200300FA03FC20FA02F001FA03FE40EA0E0021FA02F11444C1E600BF70B54FF0FF0C4CF4E06C1CEA11541DBF1CEA1355C5
:4033400094EA0C0F95EA0C0F00F0DEF82C4481EA030621EA4C5123EA4C5350EA013518BF52EA033541F4801143F4801338D0A0FB02CE4FF00005E1FB02E506F00042E0FB44
:4033800003E54FF00006E1FB03569CF0000F18BF4EF0010EA4F1FF04B6F5007F64F5407404D25FEA4E0E6D4146EB060642EAC62141EA55514FEAC52040EA5E504FEACE2EA8
:4033C000B4F1FD0C88BFBCF5E06F1ED8BEF1004F08BF5FEA500E50F1000041EB045170BD06F0004646EA010140EA020081EA0301B4EB5C04C2BFD4EB0C0541EA045170BD81
:4034000041F480114FF0000E013C00F3AB8014F1360FDEBF002001F0004170BDC4F10004203C35DA0C341BDC04F11404C4F1200500FA05F320FA04F001FA05F240EA020058
:4034400001F0004221F0004110EBD37021FA04F642EB06015EEA430E08BF20EAD37070BDC4F10C04C4F1200500FA04F320FA05F001FA04F240EA020001F0004110EBD3703A
:4034800041F100015EEA430E08BF20EAD37070BDC4F1200500FA05F24EEA020E20FA04F301FA05F243EA020321FA04F001F0004121FA04F220EA020000EBD3705EEA430E92
:4034C00008BF20EAD37070BD94F0000F0FD101F00046400041EB010111F4801F08BF013CF7D041EA060195F0000F18BF704703F00046520043EB030313F4801F08BF013D46
:40350000F7D043EA0603704794EA0C0F0CEA135518BF95EA0C0F0CD050EA410618BF52EA4306D1D181EA030101F000414FF0000070BD50EA410606BF1046194652EA430687
:4035400019D094EA0C0F02D150EA013613D195EA0C0F05D152EA03361CBF104619460AD181EA030101F0004141F0FE4141F470014FF0000070BD41F0FE4141F4780170BDE3
:4035800070B54FF0FF0C4CF4E06C1CEA11541DBF1CEA135594EA0C0F95EA0C0F00F0A7F8A4EB050481EA030E52EA03354FEA013100F088804FEA03334FF0805545EA1313D6
:4035C00043EA12634FEA022245EA111545EA10654FEA00260EF000419D4208BF964244F1FD0404F5407402D25B084FEA3202B61A65EB03055B084FEA32024FF480104FF422
:40360000002CB6EB020E75EB030E22BFB61A754640EA0C005B084FEA3202B6EB020E75EB030E22BFB61A754640EA5C005B084FEA3202B6EB020E75EB030E22BFB61A754658
:4036400040EA9C005B084FEA3202B6EB020E75EB030E22BFB61A754640EADC0055EA060E18D04FEA051545EA16754FEA06164FEAC30343EA52734FEAC2025FEA1C1CC0D183
:4036800011F4801F0BD141EA00014FF000004FF0004CB6E711F4801F04BF01430020B4F1FD0C88BFBCF5E06F3FF6AFAEB5EB030C04BFB6EB020C5FEA500C50F1000041EB72
:4036C000045170BD0EF0004E4EEA113114EB5C04C2BFD4EB0C0541EA045170BD41F480114FF0000E013C90E645EA060E8DE60CEA135594EA0C0F08BF95EA0C0F3FF43BAF34
:4037000094EA0C0F0AD150EA01347FF434AF95EA0C0F7FF425AF104619462CE795EA0C0F06D152EA03353FF4FDAE1046194622E750EA410618BF52EA43067FF4C5AE50EA29
:4037400041047FF40DAF52EA43057FF4EBAE12E74FF0FF3C06E000BF4FF0010C02E000BF4FF0010C4DF804CD4FEA410C7FEA6C5C4FEA430C18BF7FEA6C5C1BD001B050EAC1
:40378000410C0CBF52EA430C91EA030F02BF90EA020F0020704710F1000F91EA030F58BF994208BF90422CBFD8176FEAE37040F0010070474FEA410C7FEA6C5C02D150EA5C
:4037C000013C07D14FEA430C7FEA6C5CD6D152EA033CD3D05DF8040B704700BF8446104662468C461946634600E000BF01B5FFF7B7FF002848BF10F1000F01BD4DF808ED82
:40380000FFF7F4FF0CBF012000205DF808FB00BF4DF808EDFFF7EAFF34BF012000205DF808FB00BF4DF808EDFFF7E0FF94BF012000205DF808FB00BF4DF808EDFFF7CEFF61
:4038400094BF012000205DF808FB00BF4DF808EDFFF7C4FF34BF012000205DF808FB00BF00210A2200F0FAB80E4B70B51E460E4C0025E41AA410A54204D056F82530984720
:403880000135F8E700F0C6FD084B094C1E46E41AA4100025A54204D056F8253098470135F8E770BD2044000020440000204400002844000010B5431E0A44914204D011F822
:4038C000014B03F8014FF8E710BD03460244934202D003F8011BFAE77047034611F8012B03F8012B002AF9D17047034613F8012B002AFBD1181A01387047034610B532B1C7
:4039000011F8014B013A03F8014B002CF7D11A44934203D0002103F8011BF9E710BD30B5037823B90B78002B18BF002030BD03461A7801303AB100228C5C34B19D5CA5423D
:40394000F5D10132F8E7104630BD184630BD00002DE9F0470F46404CD4F800903D4615F801EB09EB0E04667806F0080404F0FF060CB12F46F2E774462D2C03D1BD1C7C783D
:40398000012603E02B2C04BF7C78BD1C13B1102B0AD15AE0302C56D12C7804F0DF04582C4CD16C7810230235002E14BF4FF000486FF00048B8FBF3FA0027BE4603FB1A887B
:4039C00009EB040C9CF801C01CF0040F01D0303C0BE01CF0030C1BD0BCF1010F0CBF4FF0370C4FF0570CCCEB04049C4210DAB7F1FF3F0AD0D64506D801D1444503DC03FBFD
:403A00000E4E012701E04FF0FF3715F8014BD7E77C1C73460AD1002E4FF0220114BF4FF000436FF0004301602AB911E00EB1CEF100036AB107B1691E116009E03024002BF9
:403A4000B2D10823B0E70A23AEE7302CACD1A3E71846BDE8F08700BF9C81FF1F30B505460C461346034A294610682246BDE83040FFF76EBF9881FF1F004500000E0000002F
:403A80000000000043534520343934303A20576972656C65737320436865737320426F6172640D0A0D0A00006D6F76696E6720780D0A0D0A000000006D6F76696E672079C7
:403AC0000D0A0D0A000000006D6F76696E6720686F6D650D0A0D0A006D61676E6574206E6F77206F6E0D0A0D0A0000006D61676E6574206E6F77206F66660D0A0D0A00007D
:403B0000200000002E636F6E6E65637400000000380000002E72656164790000360000002E67696200000000340000002B4950442C0000000A0D210041542B434950535459
:403B40004152543D22544350222C223139322E3136382E3137332E31222C3636360D0A0041542B43495053454E443D004E4F54434F4E4E45435445440A0000003C2D686549
:403B800072650A00436F6E6E65637465642E0A004E6F7420636F6E6E65637465642E0A00434F4E4E45435445440A000052656164792E0000596F7572207475726E2E000097
:403BC0005468656972207475726E2E00436F6E6E656374696F6E205374617465204661696C7572652E00000052454144590A000057414954494E4700446F206E6F74207025
:403C000069636B2075702067726176657961726420706965636573210A0000004D4F56494E47000031330000496E76616C6964206D6F76652C20706C6561736520756E64A0
:403C40006F206368616E6765732E0A0056616C6964206D6F76652E0A00000000417474656D7074696E6720746F20636F6E6E65637420616761696E2E0A000000F0510040A2
:403C8000100000000140000A800A01408005001401408006001B0140000100400140000A004C01400002005001402000000A0140084200008000801A01408842000080001C
:403CC000085200400364004003650040020701406608014048090140180A01403C0B0140021701406818014047190140171A01403F1B014005400140044101400442014009
:403D0000074301400447014006480140064C01400B4D0140085001400151014004FF08400940240F2802290234C06407880F89388A728838890F8B72E202E6400010024005
:403D4000041006AC0A030C090D180ED00F24140C1552167117241814191F1B601F4024DC2622291F2B202E202F2D310432E03378341F370339803A083B083F414025410333
:403D8000450B460C470E481549FF4AFF4BFF4EF04F44500C54015604580459045A045B045F0166C06A406B028450850288028A0C8B018C308E448F019024924094409630A0
:403DC0009A019C40A201A870AA08B001B27CB301B402B502BB02BE11BF14C003C540C9FFCA07CBFFCC40CD20CEF0CF05D008D418D604D804D904DA04DB04DC01DD01DF011B
:403E0000E040E1A8E240E3200050022005500640071009200AA00B020E200F08111012801540170418101A081B011D101E201F042004210627912DC02E202F063540360432
:403E4000371439A03A043F8043084620471049024B024D804F0850085480560457405A025C045F9160086202630266017808790886068E0191A09202A120A280A502B4805D
:403E8000C0F7C26FC4AACA30CC70CE1ED062D210D6F1D88DE408E6408301850289028C018E0E910298229A519C449E31A467A867B102B218B460B501B607BE04D608D804F8
:403EC000D904DB04DD90DF0100440102030405400601081009020A200B010C100E080F0110A812011728180419171A201D481E081F202160220524402744295130023106D0
:403F00003360370238283A423E143F014040412848024A08511052805A085C80664067016A146B2A70BC72028D018E08C08FC2CFC46FCA0DCC8FCEEFD007D20CD612D810E5
:403F4000E204E60802400430060D0A800E301405163819011E802220264028052A182C022E0C308031013240343C360338803A203E053F014004460449FF4A074BFF4C40EF
:403F80004D204EF04F05500854185604580459045A045B045D105F01604061A862406320820284B88645885689138AA18B0C8D138F0492469520970599039B049CB89E4340
:403FC0009F08A140A680A90AAAA9AB14B080B218B340B463B50FB607B730B808B980BAA0BB20BE05BF04C026C104C50CC6BEC80DC9FFCAFFCBFFCEF0CF44D00CD401D604A2
:40400000D804D904DA04DB04DC11DD11DF01E6C0EA40EB02000801320426054008800A820E200F0210381651171019201A421B081C041D401E081F0520082110225425014B
:4040400029212B803028324035103840392040C04110470148285220538056415702581059015A485E0263806602670A834086029440951096A099129B119D409E40A008F9
:40408000A210A624A70AAA04AB01B080B310C0FEC2A9C4F6CA05CC2ECE0CD085D204D68FD8B1040106260C0A0E511C141E491F01249F289F2C803018310132073460368057
:4040C0003E105608580459045B045C115D905F0100400108022003100542072809800C800D280E40102A154217141840190A1B501C011D281E401F28210124222504261145
:404100002C802D402F283180354236203C013E68452447404D404FA0561057015A805E2061C06C2A7480762877288001834C8E4094229E10A601A701B501C0F5C2F1C4F79A
:40414000CAF0CCB8CEF0D070D230D628D8083202338035803708CCF09D809F08A602A7809D809F08A602A78086028F089D809F08A602A780E2408602A620B620EA0881807B
:4041800087809D80A780E220E6100D8066029A02A620C201D80102205C108D809010A180A620B410C008D604E208E808000301010C030D01100311011C031D0100FF0000E4
:4041C000FF000000000000000708080000000000400080404000400000000000007F7F000000000000FFFF00000000000F0000000000000002000502020002000000000011
:40420000C0FF3F0000000000F3200C004C30A300001040000002B300FF7F00004F70900F010100004200000B084F0030040000000C780007030300000F038C407C38000460
:4042400000802A0000000004640502000300EC000CFFFFFF62A0F0410C00000000000212040404040000000100000000000040020010301000101012000000000000000005
:404280000000000000000000017800070C100000043000004270000F4F019000FF000000F3030C0008020000002040004C4FA330037F00000000B30B8C0300380F407C04DE
:4042C0000080AA0000000010250103000600E0C028FFFFFF62A0F0410C00000000000211040404041111000100000000000040020010301000101012000000000000000047
:40430000000000000000000069F0152E0028010143000020202020202020202028282828282020202020202020202020202020202020208810101010101010101010101004
:4043400010101004040404040404040404101010101010104141414141410101010101010101010101010101010101010101101010101010424242424242020202020202E3
:404380000202020202020202020202020202101010102000000000000000000000000000000000000000000000000000000000000000000000000000000000000000000081
:4043C00000000000000000000000000000000000000000000000000000000000000000000000000000000000000000000000000000000000000000000000000000000000BD
:404400000000000000000000000000000000000000000000F8B500BFF8BC08BC9E46704751000000ED120000F8B500BFF8BC08BC9E4670472D000000484400000881FF1FCE
:404440009800000020030000000000002E636F6E6E6563742E726561647900002E676962783A00007C3A00000000C05D80BB000030000000006CDC0200000000000000008C
:4044800000000000000000000000000000000000000000000000000010430000000000000000000000000000000000000000000000000000000000000000000000000000A9
:4044C0000000000000000000000000000000000000000000000000003881FF1F12430000000000000000000000000000000000000000000000000000000000000000000090
:404500000080002011450000215900002159000008B501F007FA00BF10B5054C237833B9044B13B10448AFF300800123237010BD9881FF1F00000000AC760000084B10B510
:404540001BB108480849AFF300800848036803B910BD074B002BFBD0BDE81040184700BF00000000AC7600009C81FF1F0881FF1F0000000008B562B601F056FE034801F0B3
:4045800029FF01F0BDFC01F057FC08BDB076000030B599B00024089409A821463C2202F073FF0694ADF81C4001F08CFE68B92EE1204601F0D7FE18AB2B4403F8404C01F016
:4045C00081FE0028FBD0013500E0002501F03AFE04460D28ECD18F4801F0FCFE01F0A0FE08A802F061FFC2B2002302930393049305939DF82030653B142B00F20881DFE85F
:4046000013F069000601E8006300060106010601A200060106010601EB0006017F000601D00006010601B50015003C00032A0AD8EDE018AA1A4412F8401C18AA1A4402F818
:404640005B1C013300E00323C2B29A42F1DC9DF822302D2B07D102A802F0C8FE404200B200F00AF905E002A802F0C0FE00B200F003F9694801F0AEFEC9E0032A0AD8C6E043
:4046800018AA1A4412F8401C18AA1A4402F85B1C013300E00323C2B29A42F1DC9DF822302D2B07D102A802F0A1FE404200B200F03BF905E002A802F099FE00B200F034F9FB
:4046C000564801F087FEA2E000F086F9544801F081FE9CE09DF822306F2B0AD19DF823306E2B06D1012001F053FF4E4801F072FE8DE0002001F04CFF4B4801F06BFE86E002
:4047000000F0CCF900251BE00023019320238DF806308DF8043005EB45039B002344434AD35C30338DF8053001A801F053FE013400E000240B2CE7DD3D4801F04BFE01350F
:40474000072DF6DD63E001F015FF4130C0B201F009FE384801F03EFE01F014FF4130C0B201F000FE324801F035FE50E03248334900F04EFD01F02EFE3148324900F048FD47
:4047800001F028FE304D314C2846214600F040FD01F020FE2846214600F03AFD01F01AFE35E02B4C2B4BB3F9003063602A4BB3F9003023600DF1230002F018FEE0600DF1F6
:4047C000210002F013FEA06094E80F0000F0E8FB1DE001F07BF81AE0204801F0FBFD204BB3F9000006A90A2202F041FE01F0F2FD1C4801F0EFFD1C4BB3F9000006A90A2259
:4048000002F035FE01F0E6FD094801F0E3FD19B030BD00BFD0760000D4760000E4760000F47600000477000018770000E081FF1FDC7600002C770000307700003C770000BC
:4048400040770000487700004C770000547700004482FF1FDE81FF1F5682FF1F587700005482FF1F607700005882FF1F08B5FFF781FEFFF78DFEFCE7F8B50546284B1A88A8
:4048800013B2034440F281218B4247D884B22244234B1A80012001F025FE012001F046FE002D08DA012001F035FE012001F056FE65422DB205E0002001F02CFE002001F08C
:4048C0004DFE00240FE0002001F018FE012001F015FE002001F036FE012001F033FE0A2001F0F0FE0134204602F04AF906460F4605EB8500400002F043F90022094B02F0C1
:40490000A5F902460B463046394602F011FC0028D9D101F0E7FD002001F008FEF8BD00BF5482FF1F0000E03FF8B50546284BB3F900300344B3F5D77F48D8012001F0D2FD7A
:40494000012001F0F3FDACB2214A138823441380002D08DA002001F0DDFD012001F0FEFD65422DB205E0012001F0D4FD002001F0F5FD00240FE0002001F0C0FD012001F08C
:40498000BDFD002001F0DEFD012001F0DBFD0A2001F098FE0134204602F0F2F806460F4605EB8500400002F0EBF80022094B02F04DF902460B463046394602F0B9FB00280A
:4049C000D9D101F08FFD002001F0B0FDF8BD00BF5882FF1F0000E03F10B5012001F082FD012001F0A3FD01F0C5FD044601F0CAFD31E0A8B9012001F08DFD012001F0AEFDBF
:404A0000002001F07BFD012001F078FD002001F099FD012001F096FD0A2001F053FE15E0A4B9002001F076FD012001F097FD002001F064FD012001F061FD002001F082FDC0
:404A4000012001F07FFD0A2001F03CFE01F092FD044601F097FD002CCBD00028C9D0002001F040FD002001F061FD0023074A1380074A13800B21074A1180074A138025209D
:404A8000FFF7FAFE0F20FFF74FFF10BD5482FF1F5882FF1FDE81FF1F5682FF1F10B5022001F068FE022001F07DFE022001F092FE022001F0A7FE022001F0BCFE022001F062
:404AC000D1FE022001F0E6FE022001F0FBFE0C2001F068FE012001F059FE01F065FDDD4CA07201F069FDE07201F06EFD207201F073FD607201F078FDA07101F07DFDE0716D
:404B000001F082FD207101F087FD607101F08AFDA07001F08FFDE07001F094FD207001F099FD6070002001F031FE022001F03AFE0C2001F01FFE012001F010FE01F034FD69
:404B4000A07501F039FDE07501F03EFD207501F043FD607501F048FDA07401F04DFDE07401F052FD207401F057FD607401F05AFDA07301F05FFDE07301F064FD207301F046
:404B800069FD6073002001F0E9FD022001F0F2FD0C2001F037FE012001F028FE01F004FD84F8220001F008FD84F8230001F00CFD84F8200001F010FD84F8210001F014FDE1
:404BC000A07701F019FDE07701F01EFD207701F023FD607701F026FDA07601F02BFDE07601F030FD207601F035FD6076002001F0FDFD022001F006FE0C2001F0EBFD012027
:404C000001F0DCFD01F0D0FC84F82E0001F0D4FC84F82F0001F0D8FC84F82C0001F0DCFC84F82D0001F0E0FC84F82A0001F0E4FC84F82B0001F0E8FC84F8280001F0ECFCBB
:404C400084F8290001F0EEFC84F8260001F0F2FC84F8270001F0F6FC84F8240001F0FAFC84F82500002001F0A9FD022001F0B2FD0C2001F0F7FD012001F0E8FD01F094FC83
:404C800084F83A0001F098FC84F83B0001F09CFC84F8380001F0A0FC84F8390001F0A4FC84F8360001F0A8FC84F8370001F0ACFC84F8340001F0B0FC84F8350001F0B2FCC2
:404CC00084F8320001F0B6FC84F8330001F0BAFC84F8300001F0BEFC84F83100002001F0B5FD022001F0BEFD0C2001F0A3FD012001F094FD01F058FC84F8460001F05CFCC8
:404D000084F8470001F060FC84F8440001F064FC84F8450001F068FC84F8420001F06CFC84F8430001F070FC84F8400001F074FC84F8410001F076FC84F83E0001F07AFCAB
:404D400084F83F0001F07EFC84F83C0001F082FC84F83D00002001F061FD022001F06AFD0C2001F0AFFD012001F0A0FD01F01CFC84F8520001F020FC84F8530001F024FC08
:404D800084F8500001F028FC84F8510001F02CFC84F84E0001F030FC84F84F0001F034FC84F84C0001F038FC84F84D0001F03AFC84F84A0001F03EFC84F84B0001F042FC95
:404DC00084F8480001F046FC84F84900002001F06DFD022001F076FD0C2001F05BFD012001F04CFD01F0E0FB84F85E0001F0E4FB84F85F0001F0E8FB84F85C0001F0ECFB51
:404E000084F85D0001F0F0FB84F85A0001F0F4FB84F85B0001F0F8FB84F8580001F0FCFB84F8590001F0FEFB84F8560001F002FC84F8570001F006FC84F8540001F00AFC83
:404E400084F85500002001F019FD022001F022FD10BD00BFE081FF1F08B500EB400000EB001000B2FFF708FD08BD00BF08B500EB400000EB0010404200B2FFF755FD08BDC5
:404E800008B501F07DFE0022064B01F0DFFE02460B46104603F1004102F072F900B2FFF743FD08BD0080394008B501F069FE0022044B01F0CBFE02F063F900B2FFF7DCFC53
:404EC00008BD00BF0080394008B50D4BB3F900006FF0320303FB00F000F25723094AB2F90020094880FB0210A0EBE27000B2181A064B1B88C01A00B2FFF7BEFC08BD00BF15
:404F0000DE81FF1F5682FF1F565555555482FF1FD0B51F4BB3F90000D0F10B0000D50330801000EB40040F3402F00CFA01F03AFE13A3D3E9002301F089FE02460B4612A1CA
:404F4000D1E9000101F0CEFC06460F46114BB3F9000002F0F7F901F025FE02460B463046394601F073FE02F00BF920440A4B1C88001B00B2FFF7D8FCD0BD00BFAFF30080D4
:404F80009A9999999999D93F6666666666A64940DE81FF1F5682FF1F5882FF1FAFF300802DE9F04385B004AC04E90F00DDF80C80B8F10B0F00F2DD80DDF80890B9F1000FC5
:404FC000C0F2D780B9F1070F00F3D380FFF766FD009C694EB6F90000001BFFF747FF019F664DB5F90000C01BFFF736FFA6F80090A5F800804FF47A7001F064FB012001F00F
:40500000C7FAC8EB0705B4EB09060FD022E005FB02F393FBF1F3FB1A04EB440189000B445749CB5C03B10130013201E00122002085EAE571A1EBE5719142E8DA50B9284623
:40504000FFF70AFFFFF740FFFFF762FF002001F09FFA8EE07DB122E006FB02F393FBF1F3E31A03EB43039B003B444549CB5C03B10130013201E00122002086EAE671A1EB66
:40508000E6719142E8DA50B93046FFF7EFFEFFF71BFFFFF73DFF002001F07AFA69E0B84504DC05DB052F06DC012706E0012704E04FF0FF3701E04FF0FF377842FFF7F4FE38
:4050C000A14506DB08DCB9F1030F07DC4FF0FF3405E04FF0FF3402E0012400E001241EB92046FFF7CDFE1AE0002E0CDD86EAE673A3EBE67396FBF3F304EB460000FB03F038
:40510000FFF7BEFE0BE086EAE670A0EBE67096FBF0F6C4EB400000FB06F0FFF7B1FE1DB93846FFF7C1FE1AE0002D0CDD85EAE573A3EBE57395FBF3F307EB450000FB03F0CE
:40514000FFF7B2FE0BE085EAE570A0EBE57095FBF0F5C7EB400000FB05F0FFF7A5FE6042FFF78EFEFFF7B0FEFFF7D2FE002001F00FFA05B0BDE8F0835682FF1FDE81FF1F22
:40518000E081FF1FF8B500AF01F09CFA00F006FF06463030C0B201F0E5F8F31D23F00703ADEB030D6D461648164902F075F9002421E02846144902F091F9B0B100F0AEFE9E
:4051C000285501F0CFF82D5D303DEDB200F0A6FE0E4801F0FFF8002404E000F09FFE084B18550134A542F8DC07E000F097FE285501F0B8F80134A642DBDC0148BD46F8BD6E
:40520000D481FF1FB481FF1F687700007077000070B506460C46194800F026FF4FF47A70FFF7B0FF03783BBB154800F01DFF6420FFF7A8FF0378FBB9204600F015FF6420BF
:40524000FFF7A0FF0378BBB90E4800F00DFF4FF47A70FFF797FF037873B9002503E0705D00F0CAFE0135204602F0C0F8A842F6DC40F6C410FFF786FF70BD00BF747700000D
:405280009C770000D076000038B5164801F0A2F8154C0023237015481549FFF7B9FF154D20462946012202F007F928783030C0B201F058F8104801F08DF82378012B01D0DA
:4052C000032B06D10D4801F085F801220C4B1A6005E00C4801F07EF80022094B1A60084B186838BDA8770000D482FF1F0C81FF1F3C770000D481FF1FB8770000C0770000D0
:405300004082FF1FCC77000038B51E4801F062F81D4C002323701D481D49FFF779FF1D4D20462946012202F0C7F828783030C0B201F018F8184801F04DF82378112B06D18A
:40534000164801F047F80222154B1A6017E0212B06D1144801F03EF80422114B1A600EE0222B06D1104801F035F803220C4B1A6005E00E4801F02EF80122094B1A60084BF4
:40538000186838BDDC770000D482FF1F1481FF1F48770000D481FF1FB8770000E87700004082FF1FF0770000FC7700000878000010B5214801F00EF8204C00232370204855
:4053C0002049FFF725FF20461F49012202F074F810E041F2883001F075F919481949FFF717FF164C20461849012202F065F8204600F0F0FF114B1A78A2F12103DBB2012B94
:40540000E7D8112A03D10222104B1A6010E0212A06D10F4800F0DEFF04220C4B1A6007E0222A05D10B4800F0D5FF0322074B1A60064B186810BD00BF24780000D482FF1FFA
:405440001C81FF1F54770000D481FF1F4082FF1FF0770000FC77000010B582B0384800F0B9FF0022374B1A7017E041F2883001F029F935483549FFF7CBFE324C204634491C
:40548000082202F019F8204600F0A4FF2378312B03D101222F4B1A6003E02A4B5B78002BE3D0284B1A78312A03D10120294B186044E0244B59788DF804108DF80520DA78A1
:4054C0008DF806209A788DF807205A798DF8002019798DF80110D8798DF802009B798DF80330AAB1A1B198B193B1684600F072FF9DF80020184B5A609DF801201A609DF81F
:405500000220DA609DF803209A600FCBFFF748FD01A800F05FFF9DF804200F4B5A609DF805201A609DF80620DA609DF807209A600FCBFFF735FD0420064B186002B010BD37
:405540002C780000BC82FF1F1C81FF1F54770000D481FF1F4082FF1F4482FF1F38B53F4B00221A605A609A60DA60012838D0154670E005EB45039B002344394AD35C012B79
:405580001BD105EB45029200224436498A5CA2B903F1663383FB0432E317C3EBA20303EB83035B00E31A012B03D82F4800F012FF0FE02A4B1D605C600BE053B905EB45036B
:4055C0009B002344274AD35C012B02D1234B9D60DC60013400E000240B2CCADD013500E00025072DF7DD38BD05EB45039B0023441C4AD35C012B1BD105EB450292002244FE
:405600001A498A5CA2B903F1663383FB0432E317C3EBA20303EB83035B00E31A012B03D8114800F0D7FE0FE00C4B1D605C600BE053B905EB45039B0023440C4AD35C012BE6
:4056400002D1064B9D60DC60013400E000240B2CCADD0135072DF9DD38BD00BFC482FF1FE482FF1F4483FF1F347800005C82FF1F0E2825D8DFE800F008260A0C0E101214DB
:4056800016181A1C1E2022000020704702207047032070470420704705207047062070470720704708207047092070470A2070470B2070470C2070470D2070470E207047FC
:4056C0000F20704701207047F0B58FB0724800F081FEFFF7E3F971487149602201F0C9FE00250A950B950C950D95069507950895099525E04FF47A7000F0E4FFFFF7CEF985
:4057000068486749602201F0B4FE0120FFF726FF654B1A680A9259680B9198680C90DB680D930AB1072A0BD1062909D1591A11F1020F02D0022903D101E0012500E00125C9
:405740000A9C34B90B9B23B90C9B13B90D9B002BD0D00B98FFF78CFF8DF814002046FFF787FF8DF815000D9C2046FFF781FF8DF816000C98FFF77CFF8DF817004B4B83FB10
:405780000432E317C3EBA20303EB83035B00E31A012B2CD95DBB33E04FF47A7000F092FFFFF77CF942483E49602201F062FE0220FFF7D4FE3C4B1F680697586807909C6851
:4057C0000894DE68099695B9FFF752FF8DF814003846FFF74DFF8DF815003046FFF748FF8DF816002046FFF743FF8DF81700069B33B9079B23B9089B13B9099B002BCBD034
:405800002E238DF804306D238DF805306F238DF8063076238DF8073065238DF8083020238DF809309DF814208DF80A208DF80B309DF815208DF80C208DF80D309DF81620EC
:405840008DF80E208DF80F309DF817308DF810300022184B1A7008E001A81749FFF7D8FC14481649092201F027FE124B1B78002BF2D0012B06D0124800F0ACFD0422114BF6
:405880001A6005E0104800F0A5FD03220D4B1A600C4B18680FB0F0BD58780000E482FF1FE081FF1F4483FF1FC482FF1F676666665C82FF1FD882FF1F60780000D481FF1FF1
:4058C000647800004082FF1F8878000008B5124C00232360FFF780F8FFF7D6FC20600E4B1B682BB90D4800F075FDFFF7CDFCF6E7012B02D1FFF708FDF1E7022B02D1FFF79A
:4059000057FDECE7032B02D1FFF7A6FDE7E7042BE5D1FFF7D9FEE2E74082FF1F98780000FEE700BF08B5104E104D16E029686B68AC68002204E051F8040B43F8040B043205
:40594000A242F8D1E868002203E0002143F8041B04328242F9D11035013E002EE6D101F049FDFEF783FFFEE701000000487A000008B5124A124B1A60124A136843F40073B6
:40598000136000230AE0032B03D80F4A52F8231000E00E490E4A42F8231001332F2BF2D90C4B1A780C4B1A70094A0C4B1A6000F0B9F800220A4B1A6008BD00BF0004FA052C
:4059C0000CED00E014ED00E000450000215900000080FF1FBC7600400481FF1F08ED00E00081FF1FFEE700BFF0B40022174611E050F82760F3B226F0FF0608E001EB4205A5
:405A000011F812406D78A5550132013BDBB2002BF4D10137162FEBD9F0BC7047064B1B78DBB203F00701054A11701B09013213704422034B1A707047CF0100496E58004072
:405A40007658004008B50A46002101F01DFD08BD38B53322264B1A80182326490B7002310A80254A13700222244B1A7008224FF040231A70032203F500731A70204B1B786E
:405A8000DBB2204A137010221F4B1A8041F25122023B1A80002419250CE01C4B1B7803F0010343EA440404F003044FF4F07000F0F7FD013D0DB1032CEFD115B90320FFF7B1
:405AC00091FF134B4FF480721A8007221A70002210490A704820023108701A700222033B1A700D4A137843F00303137038BD00BF80400040824000408640004000430040DB
:405B000008010049A146004022420040254200400440004006400040A243004008B501F0A8FC08BD38B572B6464A137843F00403137000240CE0444963001A1952000A449B
:405B400023445B00C8589188FFF77CFF0134E4B2072CF0D900240FE03B49A3001A1952000A4452F8300F23445B000B4451681A8FFFF7D4FF0134E4B2012CEDD9334C20467D
:405B800004F15C01FFF730FF314A137843F0020313701032137843F0020313702D4D2B7843F040032B70A2F58632513A137843F010031370284804F5C0610822FFF7AEFF72
:405BC000264804F5C1610822FFF7A8FF244804F5C2610A22FFF7A2FF224804F21C610822FFF79CFF204804F224610822FFF796FF1E4804F22C610822FFF790FF1C4804F2E8
:405C000034610A22FFF78AFF1A4804F5C8610822FFF784FF184A137843F008031370174C61232370FFF714FFC12323700122144B1A70FFF7F3FE134829460E22FFF76EFF05
:405C400038BD00BFE8460040B8780000A008004803500140A043004002510040C251004010510040225100403251004042510040505100406251004022430040004800405A
:405C800004000840B043004010B50B4C237803F09F032370237803F0F00323702378184340F010002070012000F022FD237803F0EF03237010BD00BF2051004070B5354B87
:405CC0001A7802F08002D2B21A7033490A7802F0F00242F00F020A7001310A7802F0F0020A7001310A7802F0F0020A701A7802F0DF021A701A7842F040021A704FF4CA76CB
:405D0000002000F0F5FC234D2B7843F010032B70012000F0EDFC214B1C78E4B22B7803F0EF032B70002000F0E3FC04F00804E4B22B7843F010032B70012000F0D9FC2B7829
:405D400003F0EF032B7014B90A2000F0D1FC013E0CB1002ED4D10F4A137803F0BF031370137803F08003DBB213700232137803F0F00313700132137803F0F00343F00F03E2
:405D800013700132137803F0F00343F00F03137070BD00BF20510040225100402151004010B50446FFF78AFF2009FFF76DFF04F00F00FFF769FF10BD08B5282000F082FC38
:405DC0000320FFF761FF052000F07CFC0320FFF75BFF0F2000F076FC0320FFF755FF012000F070FC0220FFF74FFF052000F06AFC0620FFF7D5FF0E20FFF7D2FF2C20FFF7A7
:405E0000CFFF0820FFF7CCFF0120FFF7C9FF0C20FFF7C6FF0320FFF7C3FF052000F052FC08BD00BF08B50C20FFF7BAFF0122014B1A7008BDC081FF1F08B5054B5B7823B9B2
:405E4000FFF7BAFF0122024B5A70FFF7EBFF08BDC081FF1F08B50220104900F053FC0220072100F063FC00220D4B1A7072220D4B1A702022013B1A7003200B4900F042FCFE
:405E80000320072100F052FC0622084B1A70472210331A700222B03B1A7008BD8D600000C281FF1F8A640040216100002865004010B500F0FDFB04460D4A137843F02003C6
:405EC0001370013A137843F010031370094A0423136009490B7843F010030B70082307490B60136000F0BEFB204600F0E5FB10BD9A64004000E100E09864004080E200E08B
:405F000008B5054B5B7823B9FFF7A4FF0122024B5A70FFF7CDFF08BDC281FF1F0422194B1A60194A9378DBB2D178C9B2127912F0FF0F01D18B4211D0144AD05CC0B20133DC
:405F4000DBB23F2B00D900230F4A9370137913F0FF0F13D000220C4B1A710FE00C4B1B78DBB213F0200F06D00A4A1078C0B213F01E0F02D102E0002000E000200422064B16
:405F80001A60704780E100E0C281FF1FA483FF1F696400404A64004000E100E00422134B1A60134A9378D278DBB2934206D1104B1B7913F0FF0F14D0402013E00C4A93788C
:405FC000D278DBB2934205D2094AD3789078181AC0B207E0064AD3789078181A4030C0B200E000200422034B1A60704780E100E0C281FF1F00E100E0164BD9799B79DBB2DA
:40600000994205D25A1E914214BF0022012204E0CA1A3F2A14BF00220122002AECD18B4207D10D4B1B7813F0040F02D10B4B187070473F2900D90021094B58540131054B29
:40604000D971054B1B7813F0020F02D00822054B1A607047C281FF1F6864004048640040E483FF1F00E200E038B5074B5B782BB938BDFFF7C1FF0134A4B201E00546002446
:40608000285D0028F5D138BDC281FF1F1C4B1B78DBB213F01E0F05D01A4803F01E0201780A43027003F0200303F0FF022BB3164B1978C9B2154B1B78DBB21548C154154B37
:4060C0001B7813F0FF0F02D00121134B19700F490B780133DBB20B700B78DBB23F2B02D900210A4B1970094B1B780C490978DBB28B4202D10121074B1970002AC6D1704757
:4061000069640040C281FF1F4A640040C581FF1FA483FF1FC681FF1FC781FF1FC481FF1F13E0104B1B78DBB23F2B02D900220D4B1A700C4A1378DBB20B49CB5CDBB20B49AB
:406140000B7013780133DBB21370064B1B78DBB2074A1278934204D0064B1B7813F0040FDFD07047C881FF1FE483FF1F48640040C981FF1F6864004008B50020114900F00D
:40618000C1FA0020072100F0D1FA00220E4B1A7072220E4B1A702022033B1A7001200C4900F0B0FA0120072100F0C0FA0622094B1A70472210331A70022203F5A8731A709B
:4061C00008BD00BFF9630000CB81FF1F8B6500408D6400002964004010B500F069FA04460D4A137843F020031370033A137843F010031370094A0123136009490B7843F0C7
:4062000010030B70022307490B60136000F038FA204600F051FA10BD9B65004000E100E09965004080E200E008B5054B5B7823B9FFF7A2FF0122024B5A70FFF7CDFF08BD58
:40624000CB81FF1F0122194B1A60194A9378DBB2D178C9B2127912F0FF0F01D18B4211D0144AD05CC0B20133DBB23F2B00D900230F4A9370137913F0FF0F13D000220C4B61
:406280001A710FE00C4B1B78DBB213F0200F06D00A4A1078C0B213F01E0F02D102E0002000E000200122064B1A60704780E100E0CB81FF1F2484FF1F686500404B6500407F
:4062C00000E100E00122134B1A60134A9378D278DBB2934206D1104B1B7913F0FF0F14D0402013E00C4A9378D278DBB2934205D2094AD3789078181AC0B207E0064AD37810
:406300009078181A4030C0B200E000200122034B1A60704780E100E0CB81FF1F00E100E008B500F0C5F90B4B1A7842F001021A701A7802F0FE021A7000F0BEF90121064BF9
:406340001960064B00229A70DA701A715A71044B196008BD9B65004080E100E0CB81FF1F00E100E0164BD9799B79DBB2994205D25A1E914214BF0022012204E0CA1A3F2AB4
:4063800014BF00220122002AECD18B4207D10D4B1B7813F0040F02D10B4B187070473F2900D90021094B58540131054BD971054B1B7813F0020F02D00222054B1A60704734
:4063C000CB81FF1F69650040496500406484FF1F00E200E038B5074B5B782BB938BDFFF7C1FF0134A4B201E005460024285D0028F5D138BDCB81FF1F1C4B1B78DBB213F097
:406400001E0F05D01A4803F01E0201780A43027003F0200303F0FF022BB3164B1978C9B2154B1B78DBB21548C154154B1B7813F0FF0F02D00121134B19700F490B78013378
:40644000DBB20B700B78DBB23F2B02D900210A4B1970094B1B780C490978DBB28B4202D10121074B1970002AC6D1704768650040CB81FF1F4B650040CE81FF1F2484FF1FC7
:40648000CF81FF1FD081FF1FCD81FF1F13E0104B1B78DBB23F2B02D900220D4B1A700C4A1378DBB20B49CB5CDBB20B490B7013780133DBB21370064B1B78DBB2074A12787C
:4064C000934204D0064B1B7813F0040FDFD07047D181FF1F6484FF1F49650040D281FF1F69650040044A137803F0FE0300F0010018431070704700BF60510040044A1378D7
:4065000003F0FD03400000F0020018431070704760510040044A137803F0FB03800000F0040018431070704760510040044A137803F0F703C00000F00800184310707047E2
:4065400060510040044A137803F0EF03000100F0100018431070704760510040044A137803F0DF03400100F0200018431070704760510040024B1878C0F38010704700BFD0
:4065800061510040014B1878C009704761510040044A137803F0F703C00000F00800184310707047C0510040024B187800F00100704700BF01510040024B1878C0F3400094
:4065C000704700BF01510040024B1878C0F38000704700BF01510040024B1878C0F3C000704700BF01510040024B1878C0F30010704700BF01510040024B1878C0F340109B
:40660000704700BF01510040024B1878C0F38010704700BF01510040014B1878C009704701510040024B187800F00100704700BF41510040024B1878C0F34000704700BFE0
:4066400041510040024B1878C0F38000704700BF41510040024B1878C0F3C000704700BF41510040054A137843F0010313701032137843F001031370704700BFA2430040A2
:40668000054A137843F0020313701032137843F002031370704700BFA2430040000000000230800803D000BF01380046FCD17047EFF3108072B6704780F31088704700BF01
:4066C00001BE704710B5044605E0084B1868FFF7E7FFA4F50044B4F5004FF6D8034B586800FB04F0FFF7DCFF10BD00BF2081FF1F08B5034B1B7A03FB00F0FFF7D1FF08BDAC
:406700002081FF1F70B504460E46074B1D681F2802D90020FFF7D4FF04F01F04103455F8240045F8246070BD08ED00E038B504460D46072902D90020FFF7C2FF1F2C02D9D4
:406740000020FFF7BDFF04F01F0000F1604000F564406D01EDB2057038BD00BF044A137803F0FE0300F0010018431070704700BF30510040044A137803F0F10300F00E0046
:4067800018431070704700BF18500040044A137803F0FD03400000F0020018431070704730510040044A137803F0F10300F00E0018431070704700BF19500040044A1378FE
:4067C00003F0FB03800000F0040018431070704730510040044A137803F0F10300F00E0018431070704700BF1A500040044A137803F0F703C00000F0080018431070704718
:4068000030510040044A137803F0F10300F00E0018431070704700BF1B500040044A137803F0EF03000100F0100018431070704730510040044A137803F0F10300F00E000D
:4068400018431070704700BF1C500040044A137803F0DF03400100F0200018431070704730510040044A137803F0F10300F00E0018431070704700BF1D500040044A137834
:4068800003F0BF03800100F0400018431070704730510040044A137803F0F10300F00E0018431070704700BF1E500040044A137803F07F03C001C0B203431370704700BFA2
:4068C00030510040044A137803F0F10300F00E0018431070704700BF1F50004081F0004102E000BF83F0004330B54FEA41044FEA430594EA050F08BF90EA020F1FBF54EA2C
:40690000000C55EA020C7FEA645C7FEA655C00F0E2804FEA5454D4EB5555B8BF6D420CDD2C4480EA020281EA030382EA000083EA010180EA020281EA0303362D88BF30BD60
:4069400011F0004F4FEA01314FF4801C4CEA113102D0404261EB410113F0004F4FEA03334CEA133302D0524263EB430394EA050F00F0A780A4F10104D5F1200E0DDB02FAD1
:406980000EFC22FA05F2801841F1000103FA0EF2801843FA05F359410EE0A5F120050EF1200E012A03FA0EFC28BF4CF0020C43FA05F3C01851EBE37101F0004507D54FF064
:4069C000000EDCF1000C7EEB00006EEB0101B1F5801F1BD3B1F5001F0CD349085FEA30004FEA3C0C04F101044FEA445212F5800F80F09A80BCF1004F08BF5FEA500C50F138
:406A0000000041EB045141EA050130BD5FEA4C0C404141EB010111F4801FA4F10104E9D191F0000F04BF01460020B1FA81F308BF2033A3F10B03B3F120020CDA0C3208DD0B
:406A400002F1140CC2F10C0201FA0CF021FA02F10CE002F11402D8BFC2F1200C01FA02F120FA0CFCDCBF41EA0C019040E41AA2BF01EB0451294330BD6FEA04041F3C1CDA74
:406A80000C340EDC04F11404C4F1200220FA04F001FA02F340EA030021FA04F345EA030130BDC4F10C04C4F1200220FA02F001FA04F340EA0300294630BD21FA04F02946CA
:406AC00030BD94F0000F83F4801306BF81F480110134013D4EE77FEA645C18BF7FEA655C29D094EA050F08BF90EA020F05D054EA000C04BF1946104630BD91EA030F1EBFA4
:406B00000021002030BD5FEA545C05D14000494128BF41F0004130BD14F580043CBF01F5801130BD01F0004545F0FE4141F470014FF0000030BD7FEA645C1ABF1946104619
:406B40007FEA655C1CBF0B46024650EA013406BF52EA033591EA030F41F4002130BD00BF90F0000F04BF0021704730B54FF4806404F132044FF000054FF0000150E700BF65
:406B800090F0000F04BF0021704730B54FF4806404F1320410F0004548BF40424FF000013EE700BF42004FEAE2014FEA31014FEA02701FBF12F07F4393F07F4F81F06051F9
:406BC000704792F0000F14BF93F07F4F704730B54FF4607401F0004521F0004120E700BF50EA010208BF704730B54FF000050AE050EA010208BF704730B511F0004502D59D
:406C0000404261EB41014FF4806404F132045FEA915C3FF4DCAE4FF003025FEADC0C18BF03325FEADC0C18BF033202EBDC02C2F1200300FA03FC20FA02F001FA03FE40EA75
:406C40000E0021FA02F11444C1E600BF70B54FF0FF0C4CF4E06C1CEA11541DBF1CEA135594EA0C0F95EA0C0F00F0DEF82C4481EA030621EA4C5123EA4C5350EA013518BF12
:406C800052EA033541F4801143F4801338D0A0FB02CE4FF00005E1FB02E506F00042E0FB03E54FF00006E1FB03569CF0000F18BF4EF0010EA4F1FF04B6F5007F64F5407453
:406CC00004D25FEA4E0E6D4146EB060642EAC62141EA55514FEAC52040EA5E504FEACE2EB4F1FD0C88BFBCF5E06F1ED8BEF1004F08BF5FEA500E50F1000041EB045170BDD9
:406D000006F0004646EA010140EA020081EA0301B4EB5C04C2BFD4EB0C0541EA045170BD41F480114FF0000E013C00F3AB8014F1360FDEBF002001F0004170BDC4F10004C0
:406D4000203C35DA0C341BDC04F11404C4F1200500FA05F320FA04F001FA05F240EA020001F0004221F0004110EBD37021FA04F642EB06015EEA430E08BF20EAD37070BD86
:406D8000C4F10C04C4F1200500FA04F320FA05F001FA04F240EA020001F0004110EBD37041F100015EEA430E08BF20EAD37070BDC4F1200500FA05F24EEA020E20FA04F376
:406DC00001FA05F243EA020321FA04F001F0004121FA04F220EA020000EBD3705EEA430E08BF20EAD37070BD94F0000F0FD101F00046400041EB010111F4801F08BF013C49
:406E0000F7D041EA060195F0000F18BF704703F00046520043EB030313F4801F08BF013DF7D043EA0603704794EA0C0F0CEA135518BF95EA0C0F0CD050EA410618BF52EA41
:406E40004306D1D181EA030101F000414FF0000070BD50EA410606BF1046194652EA430619D094EA0C0F02D150EA013613D195EA0C0F05D152EA03361CBF104619460AD1A0
:406E800081EA030101F0004141F0FE4141F470014FF0000070BD41F0FE4141F4780170BD70B54FF0FF0C4CF4E06C1CEA11541DBF1CEA135594EA0C0F95EA0C0F00F0A7F8F2
:406EC000A4EB050481EA030E52EA03354FEA013100F088804FEA03334FF0805545EA131343EA12634FEA022245EA111545EA10654FEA00260EF000419D4208BF964244F186
:406F0000FD0404F5407402D25B084FEA3202B61A65EB03055B084FEA32024FF480104FF4002CB6EB020E75EB030E22BFB61A754640EA0C005B084FEA3202B6EB020E75EB20
:406F4000030E22BFB61A754640EA5C005B084FEA3202B6EB020E75EB030E22BFB61A754640EA9C005B084FEA3202B6EB020E75EB030E22BFB61A754640EADC0055EA060E33
:406F800018D04FEA051545EA16754FEA06164FEAC30343EA52734FEAC2025FEA1C1CC0D111F4801F0BD141EA00014FF000004FF0004CB6E711F4801F04BF01430020B4F104
:406FC000FD0C88BFBCF5E06F3FF6AFAEB5EB030C04BFB6EB020C5FEA500C50F1000041EB045170BD0EF0004E4EEA113114EB5C04C2BFD4EB0C0541EA045170BD41F4801111
:407000004FF0000E013C90E645EA060E8DE60CEA135594EA0C0F08BF95EA0C0F3FF43BAF94EA0C0F0AD150EA01347FF434AF95EA0C0F7FF425AF104619462CE795EA0C0FA9
:4070400006D152EA03353FF4FDAE1046194622E750EA410618BF52EA43067FF4C5AE50EA41047FF40DAF52EA43057FF4EBAE12E74FF0FF3C06E000BF4FF0010C02E000BF23
:407080004FF0010C4DF804CD4FEA410C7FEA6C5C4FEA430C18BF7FEA6C5C1BD001B050EA410C0CBF52EA430C91EA030F02BF90EA020F0020704710F1000F91EA030F58BF4A
:4070C000994208BF90422CBFD8176FEAE37040F0010070474FEA410C7FEA6C5C02D150EA013C07D14FEA430C7FEA6C5CD6D152EA033CD3D05DF8040B704700BF844610465D
:4071000062468C461946634600E000BF01B5FFF7B7FF002848BF10F1000F01BD4DF808EDFFF7F4FF0CBF012000205DF808FB00BF4DF808EDFFF7EAFF34BF012000205DF8E7
:4071400008FB00BF4DF808EDFFF7E0FF94BF012000205DF808FB00BF4DF808EDFFF7CEFF94BF012000205DF808FB00BF4DF808EDFFF7C4FF34BF012000205DF808FB00BFAD
:407180004FEA410212F5001215D211D56FF47873B3EB625212D94FEAC12343F0004343EA505311F0004F23FA02F018BF404270474FF00000704750EA013005D111F0004098
:4071C00008BF6FF0004070474FF00000704700BF80F0004002E000BF81F0004142001FBF5FEA410392EA030F7FEA226C7FEA236C6AD04FEA1262D2EB1363C1BFD21841408B
:4072000048404140B8BF5B42192B88BF704710F0004F40F4000020F07F4018BF404211F0004F41F4000121F07F4118BF494292EA030F3FD0A2F1010241FA03FC10EB0C0017
