:400000000080002011000000B1080000B108000008B5054B1A6803F53F5302331A6001F081FA00F047FC00BFFA46004010B5054C237833B9044B13B10448AFF300800123B5
:40004000237010BD9081FF1F000000005C2E0000084B10B51BB108480849AFF300800848036803B910BD074B002BFBD0BDE81040184700BF000000005C2E00009481FF1F64
:400080000881FF1F0000000008B562B601F0ECFC00F0DCFF034801F0B7F800F0FBFE00F095FE08BD602E000010B584B0FFF7ECFF002001E001F020F80028FBD001F006F8B0
:4000C0008DF8080000230CE001F016F800E000200028F9D000F0FAFF04AB234403F8080C23465C1CE4B204AA134413F8083C0D2B01D0072CEBD99DF80800A0F16503142BC6
:40010000D6D801A252F823F017020000B1000000B10000000D020000B1000000B1000000B1000000B1000000B1000000B1000000B1000000B1000000B10000004702000005
:40014000B1000000B1000000B1000000B1000000B10000005D010000B501000001F01CF8022C0BD8A4E704AA1A4412F8081C04AA1A4402F80F1C0133DBB200E00323A3423E
:40018000F1D301A802F094FDC0B201F005F89DF80A302D2B07D101A802F08AFD404200B200F0BEF884E701A802F082FD00B200F0B7F87DE700F0F0FF022C0BD878E704AABD
:4001C0001A4412F8081C04AA1A4402F80F1C0133DBB200E00323A342F1D301A802F068FDC0B200F0D9FF9DF80A302D2B07D101A802F05EFD404200B200F0F2F858E701A8AD
:4002000002F056FD00B200F0EBF851E700F0C4FF00F020F84CE700F0BFFF9DF80A306F2B0AD19DF80B306E2B06D1084800F0ECFF012001F0A3FC3BE7054800F0E5FF00205D
:4002400001F09CFC34E700F02BF931E7842E0000882E000038B5012001F03AFC012001F05BFC01F07DFC044601F082FC0546274800F0CAFF3AE0ADB9012001F041FC012022
:4002800001F062FC002001F02FFC012001F02CFC002001F04DFC012001F04AFC142001F013FE15E0A4B9002001F02AFC012001F04BFC002001F018FC012001F015FC002047
:4002C00001F036FC012001F033FC142001F0FCFD01F046FC044601F04BFC054614B10C4800F092FF15B10B4800F08EFF002CC2D0002DC0D0002001F0EBFB002001F00CFCC1
:400300000023054A1380054A138038BD8C2E0000982E0000A82E00002C82FF1F2E82FF1FF8B505462C4B1A8813B20344B3F57A7F4AD884B22244284B1A80012001F0C8FB93
:40034000012001F0E9FB002D08DA012001F0D8FB012001F0F9FB65422DB205E0002001F0CFFB002001F0F0FB00240FE0002001F0BBFB012001F0B8FB002001F0D9FB0120A6
:4003800001F0D6FB142001F09FFD0134204602F08FF906460F46284602F08AF90CA3D3E9002302F0EBF900220C4B02F0E7F902460B463046394602F053FC0028D6D101F0E3
:4003C00087FB002001F0A8FBF8BD00BFAFF300803333333333B351402C82FF1F0000E03FF8B505462C4BB3F900300344B3F57A7F4BD8012001F06CFB012001F08DFBACB23C
:40040000254A138823441380002D08DA002001F077FB012001F098FB65422DB205E0012001F06EFB002001F08FFB00240FE0002001F05AFB012001F057FB002001F078FB9F
:40044000012001F075FB142001F03EFD0134204602F02EF906460F46284602F029F90CA3D3E9002302F08AF900220C4B02F086F902460B463046394602F0F2FB0028D6D19A
:4004800001F026FB002001F047FBF8BDAFF300803333333333B351402E82FF1F0000E03F30B583B0F94800F0AFFE022001F08CFE022001F0A1FE022001F0B6FE022001F0B1
:4004C000CBFE022001F0E0FE022001F0F5FE022001F00AFF022001F01FFF0C2001F08CFE012001F07DFE01F055FBE94CA07201F059FBE07201F05EFB207201F063FB60729F
:4005000001F068FBA07101F06DFBE07101F072FB207101F077FB607101F07AFBA07001F07FFBE07001F084FB207001F089FB6070002001F055FE022001F05EFE0C2001F023
:4005400043FE012001F034FE01F024FBA07501F029FBE07501F02EFB207501F033FB607501F038FBA07401F03DFBE07401F042FB207401F047FB607401F04AFBA07301F00C
:400580004FFBE07301F054FB207301F059FB6073002001F00DFE022001F016FE0C2001F05BFE012001F04CFE01F0F4FA84F8220001F0F8FA84F8230001F0FCFA84F820001C
:4005C00001F000FB84F8210001F004FBA07701F009FBE07701F00EFB207701F013FB607701F016FBA07601F01BFBE07601F020FB207601F025FB6076002001F021FE022068
:4006000001F02AFE0C2001F00FFE012001F000FE01F0C0FA84F82E0001F0C4FA84F82F0001F0C8FA84F82C0001F0CCFA84F82D0001F0D0FA84F82A0001F0D4FA84F82B0036
:4006400001F0D8FA84F8280001F0DCFA84F8290001F0DEFA84F8260001F0E2FA84F8270001F0E6FA84F8240001F0EAFA84F82500002001F0CDFD022001F0D6FD0C2001F007
:400680001BFE012001F00CFE01F084FA84F83A0001F088FA84F83B0001F08CFA84F8380001F090FA84F8390001F094FA84F8360001F098FA84F8370001F09CFA84F83400BD
:4006C00001F0A0FA84F8350001F0A2FA84F8320001F0A6FA84F8330001F0AAFA84F8300001F0AEFA84F83100002001F0D9FD022001F0E2FD0C2001F0C7FD012001F0B8FD3B
:4007000001F048FA84F8460001F04CFA84F8470001F050FA84F8440001F054FA84F8450001F058FA84F8420001F05CFA84F8430001F060FA84F8400001F064FA84F84100B5
:4007400001F066FA84F83E0001F06AFA84F83F0001F06EFA84F83C0001F072FA84F83D00002001F085FD022001F08EFD0C2001F0D3FD012001F0C4FD01F00CFA84F8520081
:4007800001F010FA84F8530001F014FA84F8500001F018FA84F8510001F01CFA84F84E0001F020FA84F84F0001F024FA84F84C0001F028FA84F84D0001F02AFA84F84A009F
:4007C00001F02EFA84F84B0001F032FA84F8480001F036FA84F84900002001F091FD022001F09AFD0C2001F07FFD012001F070FD01F0D0F984F85E0001F0D4F984F85F00C4
:4008000001F0D8F984F85C0001F0DCF984F85D0001F0E0F984F85A0001F0E4F984F85B0001F0E8F984F8580001F0ECF984F8590001F0EEF984F8560001F0F2F984F8570090
:4008400001F0F6F984F8540001F0FAF984F85500002001F03DFD022001F046FD002521E020228DF8042005EB45039B0023440849CB5C30338DF805308DF806208DF807203B
:4008800001A800F0C1FC0134E4B204E0C02E0000AC81FF1F00240B2CE2D9044800F0B4FC0135EDB2072DF5D903B030BDCC2E0000FEE700BF08B5104E104D16E029686B6811
:4008C000AC68002204E051F8040B43F8040B0432A242F8D1E868002203E0002143F8041B04328242F9D11035013E002EE6D102F0E3F9FFF7D9FBFEE7010000008C3600001C
:4009000008B5124A124B1A60124A136843F40073136000230AE0032B03D80F4A52F8231000E00E490E4A42F8231001332F2BF2D90C4B1A780C4B1A70094A0C4B1A6000F0B4
:40094000BDF800220A4B1A6008BD00BF0004FA050CED00E014ED00E000000000B10800000080FF1FBC7600400481FF1F08ED00E00081FF1FFEE700BFF0B40022174611E0F8
:4009800050F82760F3B226F0FF0608E001EB420511F812406D78A5550132013BDBB2002BF4D10137162FEBD9F0BC7047064B1B78DBB203F00701054A11701B0901321370AD
:4009C0004422034B1A707047CF0100496E5800407658004008B50A46002102F09EF908BD08B502F08FF908BD08B502F08BF908BD38B53322264B1A80182326490B700231C0
:400A00000A80254A13700222244B1A7008224FF040231A70032203F500731A70204B1B78DBB2204A137010221F4B1A8041F25122023B1A80002419250CE01C4B1B7803F047
:400A4000010343EA440404F003044FF4F07001F01BF9013D0DB1032CEFD115B90320FFF789FF134B4FF480721A8007221A70002210490A704820023108701A700222033B2C
:400A80001A700D4A137843F00303137038BD00BF8040004082400040864000400043004008010049A146004022420040254200400440004006400040A243004038B572B6C7
:400AC000464A137843F00403137000240CE0444963001A1952000A4423445B00C8589188FFF778FF0134E4B2072CF0D900240FE03B49A3001A1952000A4452F8300F23441F
:400B00005B000B4451681A8FFFF76AFF0134E4B2012CEDD9324C04F1440004F1A001FFF72BFF304A137843F0020313701032137843F0020313702C4D2B7843F040032B70AA
:400B4000A2F58632513A137843F010031370274804F244510822FFF743FF254804F24C510822FFF73DFF234804F254510A22FFF737FF214804F5AC610822FFF731FF1F480B
:400B800004F5AD610822FFF72BFF1D4804F5AE610822FFF725FF1B4804F5AF610A22FFF71FFF194804F284510822FFF719FF174A137843F008031370154C61232370FFF708
:400BC00017FFC12323700122124B1A70FFF7EEFE114829460E22FFF707FF38BDE8460040D02E000003500140A043004002510040C251004010510040225100403251004073
:400C0000425100405051004062510040224300400048004004000840B043004010B50B4C237803F09F032370237803F0F00323702378184340F010002070012001F05AF943
:400C4000237803F0EF03237010BD00BF2051004070B5354B1A7802F08002D2B21A7033490A7802F0F00242F00F020A7001310A7802F0F0020A7001310A7802F0F0020A70A8
:400C80001A7802F0DF021A701A7842F040021A704FF4CA76002001F02DF9234D2B7843F010032B70012001F025F9214B1C78E4B22B7803F0EF032B70002001F01BF904F005
:400CC0000804E4B22B7843F010032B70012001F011F92B7803F0EF032B7014B90A2001F009F9013E0CB1002ED4D10F4A137803F0BF031370137803F08003DBB21370023275
:400D0000137803F0F00313700132137803F0F00343F00F0313700132137803F0F00343F00F03137070BD00BF20510040225100402151004010B50446FFF78AFF2009FFF738
:400D40006DFF04F00F00FFF769FF10BD08B5282001F0BAF80320FFF761FF052001F0B4F80320FFF75BFF0F2001F0AEF80320FFF755FF012001F0A8F80220FFF74FFF052013
:400D800001F0A2F80620FFF7D5FF0E20FFF7D2FF2C20FFF7CFFF0820FFF7CCFF0120FFF7C9FF0C20FFF7C6FF0320FFF7C3FF052001F08AF808BD00BF08B50C20FFF7BAFF75
:400DC0000122014B1A7008BD0C82FF1F08B5054B5B7823B9FFF7BAFF0122024B5A70FFF7EBFF08BD0C82FF1F08B50220104901F0ADF80220072101F0BDF800220D4B1A70D1
:400E000072220D4B1A702022013B1A7003200B4901F09CF80320072101F0ACF80622084B1A70472210331A700222B03B1A7008BDB10E00000E82FF1F8A640040450F0000D0
:400E40002865004010B500F027FF04460D4A137843F020031370013A137843F010031370094A0423136009490B7843F010030B70082307490B60136000F0EAFE204600F02C
:400E80000FFF10BD9A64004000E100E09864004080E200E008B5054B5B7823B9FFF7A4FF0122024B5A70FFF7CDFF08BD0E82FF1F1C4B1B78DBB213F01E0F05D01A4803F035
:400EC0001E0201780A43027003F0200303F0FF022BB3164B1978C9B2154B1B78DBB21548C154154B1B7813F0FF0F02D00121134B19700F490B780133DBB20B700B78DBB24D
:400F00003F2B02D900210A4B1970094B1B780C490978DBB28B4202D10121074B1970002AC6D17047696400400E82FF1F4A6400401182FF1F3082FF1F1282FF1F1382FF1F7F
:400F40001082FF1F13E0104B1B78DBB23F2B02D900220D4B1A700C4A1378DBB20B49CB5CDBB20B490B7013780133DBB21370064B1B78DBB2074A1278934204D0064B1B781D
:400F800013F0040FDFD070471482FF1F7082FF1F486400401582FF1F6864004008B50020114900F0D3FF0020072100F0E3FF00220E4B1A7072220E4B1A702022033B1A70AB
:400FC00001200C4900F0C2FF0120072100F0D2FF0622094B1A70472210331A70022203F5A8731A7008BD00BF6D1200001782FF1F8B650040011300002964004010B500F043
:401000004BFE04460D4A137843F020031370033A137843F010031370094A0123136009490B7843F010030B70022307490B60136000F01CFE204600F033FE10BD9B65004060
:4010400000E100E09965004080E200E008B5054B5B7823B9FFF7A2FF0122024B5A70FFF7CDFF08BD1782FF1F0122134B1A60134A9378DBB2D178C9B2127912F0FF0F01D143
:401080008B4211D00E4AD05CC0B20133DBB23F2B00D90023094A9370137913F0FF0F06D00022064B1A7102E0064B1878C0B20122054B1A60704700BF80E100E01782FF1F0E
:4010C000B082FF1F4B65004000E100E010B50123064A1360064A147800211170054A13602402FFF7C1FF204380B210BD80E100E01782FF1F00E100E00122134B1A60134AB4
:401100009378D278DBB2934206D1104B1B7913F0FF0F14D0402013E00C4A9378D278DBB2934205D2094AD3789078181AC0B207E0064AD3789078181A4030C0B200E000201E
:401140000122034B1A60704780E100E01782FF1F00E100E008B500F09FFD0B4B1A7842F001021A701A7802F0FE021A7000F098FD0121064B1960064B00229A70DA701A7153
:401180005A71044B196008BD9B65004080E100E01782FF1F00E100E0164BD9799B79DBB2994205D25A1E914214BF0022012204E0CA1A3F2A14BF00220122002AECD18B4278
:4011C00007D10D4B1B7813F0040F02D10B4B187070473F2900D90021094B58540131054BD971054B1B7813F0020F02D00222054B1A6070471782FF1F69650040496500405F
:40120000F082FF1F00E200E038B5074B5B782BB938BDFFF7C1FF0134A4B201E005460024285D0028F5D138BD1782FF1F08B500F033FD0A4B1A7842F001021A701A7802F0BA
:40124000FE021A7000F02CFD0223054A1360054A00219171D171044A136008BD9965004080E100E01782FF1F00E100E01C4B1B78DBB213F01E0F05D01A4803F01E02017839
:401280000A43027003F0200303F0FF022BB3164B1978C9B2154B1B78DBB21548C154154B1B7813F0FF0F02D00121134B19700F490B780133DBB20B700B78DBB23F2B02D9DD
:4012C00000210A4B1970094B1B780C490978DBB28B4202D10121074B1970002AC6D17047686500401782FF1F4B6500401A82FF1FB082FF1F1B82FF1F1C82FF1F1982FF1FA2
:4013000013E0104B1B78DBB23F2B02D900220D4B1A700C4A1378DBB20B49CB5CDBB20B490B7013780133DBB21370064B1B78DBB2074A1278934204D0064B1B7813F0040FF3
:40134000DFD070471D82FF1FF082FF1F496500401E82FF1F69650040002306E0421812F8012C13449BB2013989B20029F6D1584280B27047004700BF08B58022024B1A709E
:4013800000F09AFD08BD00BFFA4600402DE9F04182B00C46164602AF27F8022D01230B7048701546A270130ACB7002F1040808461FFA88F1FFF7D0FF04F80800731DC0F375
:4013C0000720E054063517236355F11D204689B23A46962300F0B4FF02B0BDE8F08100BF70B505460E461446084B984203D010B1002000F05FFD002004E0013CAB191B5D8B
:401400001844C0B2002CF8D170BD00BF0080004008B501380B2867D8DFE800F0060E161E262E3E36464E565E4942090201F57F3101F5707101225CE04942090201F57F3118
:4014400001F2C131042254E04942090201F57F3101F2C53102224CE04942090201F57F3101F2C931042244E04942090201F57F3101F5747101223CE04942090201F57F31B3
:4014800001F2D131012234E04942090201F57F3101F2D63102222CE04942090201F57F3101F2D231022224E04942090201F57F3101F5757102221CE04942090201F57F31CC
:4014C00001F57671042214E04942090201F57F3101F5777101220CE04942090201F57F3101F57871042204E0002000F0E3FC02220021012A02D10878C0B200E00020022A57
:4015000003D10B78487843EA0020042A09D10B78487843EA0023887843EA0043C87843EA006008BD08B50A4B1B7803F0C003802B0CD10021064B19700220FFF769FF28B173
:4015400002200021FFF764FFFFF714FF08BD00BFFA460040F8B5064603203146FFF758FF0130070204203146FFF752FF074403203146FFF74DFF013000020024254608E0F5
:4015800003785A1ED2B2FD2A00D801252344DCB20130B842F4D303203146FFF739FF01300002C0080F4B9F4201D0FF0808E04FF4004705E000F190431B782344DCB20130FE
:4015C000B842F7D36442E4B201203146FFF720FF844202D11DB90620F8BD0620F8BD0020F8BD00BFC0FF03002DE9F04FADF51F7D054600F0AFFB10B1002000F05BFC00F033
:4016000097FE62B64FF0000A57460A24D0460DB9FF2300E02B4652A84FF496710DF2762200F0A0FE0DB1013CE4B20CB10028EED1002840F00E82BDF87632062B26D99DF8F2
:401640004821012A24D19DF84B819DF84A2142EA0828414608F107029A421BD8B2F5967F1AD84A1D52AB9E5C0A1D9A5C42EA062606315B5C172B11D108F1040152A889B206
:40168000FFF76AFEB0420BD100260AE0042608E0042606E0032604E0032602E0042600E00826002E40F081819DF84C919DF84921A2F131030A2B00F25081DFE813F00B0017
:4016C0001C004E014400B0004E01B600CB004400DD004201002F00F06A81B8F1000F40F069810020FFF736FFB0FA80F040098DF84C010122A6E1002F00F05F81B8F1010F99
:4017000040F05E81B9F1030F00F25D81C14B1B681B68C3F30742914502D1C3F3072305E0914501D9002301E04FF480738DF84C311B0A8DF84D31FF238DF84E3100238DF8AD
:401740004F3104227EE1342A15D1002F00F03E81B8F1030F40F03D81A9F14003DBB23F2B02D84FF0100A01E04FF4907A07A80021524601F0D2FA002F00F02E81B8F1020FB7
:4017800040F22D8107AB03EB0A000DF24F11A8F1030201F0B7FAC244AAF1030A1FFA8AFAA9F14003DBB23F2B05D800F059FB40234FF0100803E04FF480734FF49078C2459B
:4017C00040F010819DF84EA19DF84D2142EA0A2A9A4500D30A26002E40F00981B9F13F0F0FD80AEB092292B28A4B1B681968C1F30F2311F0FF0F01D001339BB29A42C0F088
:40180000F8804846514607AA434600F0ADFA00B10A2600F079FB4FF0000A524612E1002F40F01581042600220CE1002F00F0E6800AEB0803B3F5967F00F2E38007AB03EBBC
:401840000A0053A9424601F05DFAC2441FFA8AFA0022F7E0B8F1000F40F0D68004AB6E4A92E8030083E8030053AA82E803004FF0000A01270822E5E0002F00F0C880B8F18C
:40188000030F40F0D1809DF84EB19DF84D3143EA0B2BA9F14003DBB23F2B10D84FEA0B11BBF13F0F01D8334600E00A23002B40F0BE805A481022FFF793FD019011E00BEBB6
:4018C00009210902BBF1FF0F01D8334600E00A23002B40F0AF8000204FF48072FFF780FD0190B9F13F0F0FD809F510320BEB02225201002306E0995C01980144C9B2019142
:4019000001339BB21F2BF6D9B9F1030F13D1BBF1FF0F10D105200021FFF77AFD019B181A00F0FF0906200021FFF772FDC0EB090000F0FF030193019B5B428DF84C31012215
:4019400080E00020FFF706FE10B98022344B1A7000F0B2FA0426002274E0324B1B68002B6BD0002F6CD08DF80820ADF80A8053AA0392002104910591069202A804A99847E4
:40198000BDF81420B2F5937F03D3069953AB994205D0069B03B92AB99DF8106052E00E2600224FE00E2600224CE000224AE00426002247E00426002244E00426002241E048
:4019C000042600223EE0042600223BE00426002238E00426002235E00426002232E0042600222FE04FF0000A032652462AE0002228E04FF0000A0A26524623E004260022FA
:401A000020E0032600221DE0042600221AE00426002217E00C81FF1F5C35000000800040FA4600402082FF1F042600220AE01E46002207E01E46002204E00526002201E05E
:401A400005260022304652A9FFF7A0FC01E04FF0000A002D3FF4DBAD002F7FF4D8AD0DF51F7DBDE8F08F00BF38B50020FFF772FD08B1062400E00024134D2B6800200146A9
:401A80001A68FFF7ADFC6B681B78C01AC0B24042C0B2834202D12B681B6813B9002000F009FA0A4B1B7803F0C003402B00D024B10020064B1870FFF797FD1420FFF794FDE6
:401AC000FFF75AFC38BD00BF0C81FF1FFA460040044A137803F0FE0300F0010018431070704700BF60510040044A137803F0FD03400000F00200184310707047605100403A
:401B0000044A137803F0FB03800000F0040018431070704760510040044A137803F0F703C00000F0080018431070704760510040044A137803F0EF03000100F010001843C9
:401B40001070704760510040044A137803F0DF03400100F0200018431070704760510040024B1878C0F38010704700BF61510040014B1878C009704761510040044A13780C
:401B800003F0F703C00000F00800184310707047C0510040024B187800F00100704700BF01510040024B1878C0F34000704700BF01510040024B1878C0F38000704700BF69
:401BC00001510040024B1878C0F3C000704700BF01510040024B1878C0F30010704700BF01510040024B1878C0F34010704700BF01510040024B1878C0F38010704700BFD5
:401C000001510040014B1878C009704701510040024B187800F00100704700BF41510040024B1878C0F34000704700BF41510040024B1878C0F38000704700BF415100409E
:401C4000024B1878C0F3C000704700BF41510040054A137843F0010313701032137843F001031370704700BFA2430040054A137843F0020313701032137843F002031370F9
:401C8000704700BFA24300400230800803D000BF01380046FCD17047EFF3108072B6704780F31088704700BF10B500F07BF900F029FAD0B900F068FA0446072812D102E013
:401CC000012000F017F90A4B1B7813F0020FF7D0074B1B7813F0020F04D0054B1B789B0800D1002400F034FA00E00424204610BD2247004010B500F055F900F003FA10BBFB
:401D0000012000F0E1F9072818D11048022100F05BF902280AD102E0012000F0EBF80C4B1B7813F0020FF7D0002409E0084B1B7813F0020FE9D04FF0FF3401E04FF0FF34BC
:401D400000F006FA00E00424204610BD3083FF1F2247004008B5FFF7A7FF034610B9FFF7C9FF0346184608BD2DE9F041441FE4B23A2C01D9002500E0012510F0800F00D01F
:401D80000125412800D901253F2803D8B1F5807F06D808E0802900D90125102B02D102E0012500E0012502B90125002D50D1984616460F46044600F0A5F9002847D12046E8
:401DC00039463246434600F019F9064607283AD102E0012000F08EF81F4B1B7813F0020FF7D01D4B1B7813F0020F06D01A4B1B789B0805D04FF0FF3603E04FF0FF3600E08A
:401E00002E4606BB154B204639461A785B7800F035F9072804D0064615E0012000F06AF80D4B1B7813F0020FF7D00B4B1B7813F0020F06D0084B1B789B0804D04FF0FF3684
:401E400001E04FF0FF3600F083F9354600E004252846BDE8F08100BF224700403083FF1F08B5FFF719FF0F4A137843F0080313701032137843F008031370C8220A4B1A7099
:401E80000A4A137843F0100313701032137843F010031370064B1B7813F0200FFAD0FFF7FFFE08BDA043004001470040AC4300400047004001BE7047024A137843F0010367
:401EC00013707047F646004010B5044605E0084B1868FFF7D9FEA4F50044B4F5004FF6D8034B586800FB04F0FFF7CEFE10BD00BF1481FF1F08B5034B1B7A03FB00F0FFF773
:401F0000C3FE08BD1481FF1F08B5FFF7C5FE00BF00BF00BF00BF00BF00BF00BF00BF00BF00BF00BF00BF00BF00BF00BF00BF064A13889BB243F0040313801388BFF36F8FB2
:401F4000FFF7AEFE08BD00BF0048004070B504460E46074B1D681F2802D90020FFF7AAFF04F01F04103455F8240045F8246070BD08ED00E038B504460D46072902D90020F4
:401F8000FFF798FF1F2C02D90020FFF793FF04F01F0000F1604000F564406D01EDB2057038BD00BF08B5FFF777FE064A137843F0080313701032137843F008031370FFF70B
:401FC0006FFE08BDA043004070B506460D4600240CE00120FFF78EFF064B1B7813F0010FF7D0054B1B7833550134E4B2AC42F3D3204670BD224700402047004070B41D4CFC
:40200000247814F0020F2CD01B4CB6252570D5252570022525700234247814F0020F22D1154C2070002404E0165D134D2E700134A4B29C42F8D3B3F5807F16D13F2816D876
:4020400000F5103001EB00214801002305E01A5CD2B209490A7001339BB21F2BF7D9072006E0042004E0092002E0072000E0072070BC7047224700402047004030B4104CAB
:40208000247814F0020F15D00E4CB6252570D8252570052525700234247814F0020F0BD1084C2070080A2070C9B2217022702370072002E0042000E0092030BC704700BF5D
:4020C00022470040204700400C4B1B7813F0020F0FD00B4BB6221A70E1221A700E221A7002331B7813F0020F05D1054B187007207047042070470920704700BF2247004029
:402100002047004010B5FFF7C7FD0F4B1B78A3B901220D4B1A700D4B1B6813F0010F0ED00A4A136823F00103136000BF00BF00BF0122054B5A60002402E0042400E000246A
:40214000FFF7AEFD204610BD2482FF1F0400084008B5FFF7A1FD0A4B00221A705B68012B0AD1084A136843F00103136000BF00BF00BF0022024B5A60FFF792FD08BD00BF79
:402180002482FF1F04000840074B1B7813F0020F08D0064BB6221A70E0221A700D221A7007207047042070472247004020470040044A137803F0FE0300F0010018431070A4
:4021C000704700BF30510040044A137803F0F10300F00E0018431070704700BF18500040044A137803F0FD03400000F0020018431070704730510040044A137803F0F103E0
:4022000000F00E0018431070704700BF19500040044A137803F0FB03800000F0040018431070704730510040044A137803F0F10300F00E0018431070704700BF1A5000405C
:40224000044A137803F0F703C00000F0080018431070704730510040044A137803F0F10300F00E0018431070704700BF1B500040044A137803F0EF03000100F010001843B9
:402280001070704730510040044A137803F0F10300F00E0018431070704700BF1C500040044A137803F0DF03400100F0200018431070704730510040044A137803F0F10359
:4022C00000F00E0018431070704700BF1D500040044A137803F0BF03800100F0400018431070704730510040044A137803F0F10300F00E0018431070704700BF1E50004093
:40230000044A137803F07F03C001C0B203431370704700BF30510040044A137803F0F10300F00E0018431070704700BF1F50004008B5FEF78BFEFEF70DFFFEF777FF08BDF2
:40234000F8B506460D461746FEF704FF002404E0305DFEF721FF0134A4B2AC42F8D33D800020F8BD2DE9F0470746894690461D46002414E0FEF7C0FE60B1FEF7BDFE0446C4
:402380001920FFF7A1FDFEF7B7FE8442F5D34FF0000A0BE00120FFF797FD0134A4B205EB85035B009C42E5DB4FF0050A0025A8F8005023E0FEF7A0FE86B2B8F800303344B5
:4023C0009BB2A8F800304B4508D313E0FEF74CFE78550135ADB20134A4B200E00024B442F4D37B1913F8013C172B07D00520FFF76BFD03E09B1BA8F8003003E0FEF77CFE42
:402400000028D7D15046BDE8F08700BF81F0004102E000BF83F0004330B54FEA41044FEA430594EA050F08BF90EA020F1FBF54EA000C55EA020C7FEA645C7FEA655C00F0D2
:40244000E2804FEA5454D4EB5555B8BF6D420CDD2C4480EA020281EA030382EA000083EA010180EA020281EA0303362D88BF30BD11F0004F4FEA01314FF4801C4CEA1131EF
:4024800002D0404261EB410113F0004F4FEA03334CEA133302D0524263EB430394EA050F00F0A780A4F10104D5F1200E0DDB02FA0EFC22FA05F2801841F1000103FA0EF203
:4024C000801843FA05F359410EE0A5F120050EF1200E012A03FA0EFC28BF4CF0020C43FA05F3C01851EBE37101F0004507D54FF0000EDCF1000C7EEB00006EEB0101B1F5FD
:40250000801F1BD3B1F5001F0CD349085FEA30004FEA3C0C04F101044FEA445212F5800F80F09A80BCF1004F08BF5FEA500C50F1000041EB045141EA050130BD5FEA4C0C4D
:40254000404141EB010111F4801FA4F10104E9D191F0000F04BF01460020B1FA81F308BF2033A3F10B03B3F120020CDA0C3208DD02F1140CC2F10C0201FA0CF021FA02F177
:402580000CE002F11402D8BFC2F1200C01FA02F120FA0CFCDCBF41EA0C019040E41AA2BF01EB0451294330BD6FEA04041F3C1CDA0C340EDC04F11404C4F1200220FA04F036
:4025C00001FA02F340EA030021FA04F345EA030130BDC4F10C04C4F1200220FA02F001FA04F340EA0300294630BD21FA04F0294630BD94F0000F83F4801306BF81F4801196
:402600000134013D4EE77FEA645C18BF7FEA655C29D094EA050F08BF90EA020F05D054EA000C04BF1946104630BD91EA030F1EBF0021002030BD5FEA545C05D14000494136
:4026400028BF41F0004130BD14F580043CBF01F5801130BD01F0004545F0FE4141F470014FF0000030BD7FEA645C1ABF194610467FEA655C1CBF0B46024650EA013406BF13
:4026800052EA033591EA030F41F4002130BD00BF90F0000F04BF0021704730B54FF4806404F132044FF000054FF0000150E700BF90F0000F04BF0021704730B54FF4806406
:4026C00004F1320410F0004548BF40424FF000013EE700BF42004FEAE2014FEA31014FEA02701FBF12F07F4393F07F4F81F06051704792F0000F14BF93F07F4F704730B52C
:402700004FF4607401F0004521F0004120E700BF50EA010208BF704730B54FF000050AE050EA010208BF704730B511F0004502D5404261EB41014FF4806404F132045FEAFE
:40274000915C3FF4DCAE4FF003025FEADC0C18BF03325FEADC0C18BF033202EBDC02C2F1200300FA03FC20FA02F001FA03FE40EA0E0021FA02F11444C1E600BF70B54FF0E7
:40278000FF0C4CF4E06C1CEA11541DBF1CEA135594EA0C0F95EA0C0F00F0DEF82C4481EA030621EA4C5123EA4C5350EA013518BF52EA033541F4801143F4801338D0A0FBAE
:4027C00002CE4FF00005E1FB02E506F00042E0FB03E54FF00006E1FB03569CF0000F18BF4EF0010EA4F1FF04B6F5007F64F5407404D25FEA4E0E6D4146EB060642EAC62186
:4028000041EA55514FEAC52040EA5E504FEACE2EB4F1FD0C88BFBCF5E06F1ED8BEF1004F08BF5FEA500E50F1000041EB045170BD06F0004646EA010140EA020081EA03014D
:40284000B4EB5C04C2BFD4EB0C0541EA045170BD41F480114FF0000E013C00F3AB8014F1360FDEBF002001F0004170BDC4F10004203C35DA0C341BDC04F11404C4F1200545
:4028800000FA05F320FA04F001FA05F240EA020001F0004221F0004110EBD37021FA04F642EB06015EEA430E08BF20EAD37070BDC4F10C04C4F1200500FA04F320FA05F075
:4028C00001FA04F240EA020001F0004110EBD37041F100015EEA430E08BF20EAD37070BDC4F1200500FA05F24EEA020E20FA04F301FA05F243EA020321FA04F001F00041B5
:4029000021FA04F220EA020000EBD3705EEA430E08BF20EAD37070BD94F0000F0FD101F00046400041EB010111F4801F08BF013CF7D041EA060195F0000F18BF704703F0A4
:402940000046520043EB030313F4801F08BF013DF7D043EA0603704794EA0C0F0CEA135518BF95EA0C0F0CD050EA410618BF52EA4306D1D181EA030101F000414FF0000089
:4029800070BD50EA410606BF1046194652EA430619D094EA0C0F02D150EA013613D195EA0C0F05D152EA03361CBF104619460AD181EA030101F0004141F0FE4141F47001B9
:4029C0004FF0000070BD41F0FE4141F4780170BD70B54FF0FF0C4CF4E06C1CEA11541DBF1CEA135594EA0C0F95EA0C0F00F0A7F8A4EB050481EA030E52EA03354FEA0131BB
:402A000000F088804FEA03334FF0805545EA131343EA12634FEA022245EA111545EA10654FEA00260EF000419D4208BF964244F1FD0404F5407402D25B084FEA3202B61A5B
:402A400065EB03055B084FEA32024FF480104FF4002CB6EB020E75EB030E22BFB61A754640EA0C005B084FEA3202B6EB020E75EB030E22BFB61A754640EA5C005B084FEAA8
:402A80003202B6EB020E75EB030E22BFB61A754640EA9C005B084FEA3202B6EB020E75EB030E22BFB61A754640EADC0055EA060E18D04FEA051545EA16754FEA06164FEA54
:402AC000C30343EA52734FEAC2025FEA1C1CC0D111F4801F0BD141EA00014FF000004FF0004CB6E711F4801F04BF01430020B4F1FD0C88BFBCF5E06F3FF6AFAEB5EB030CFB
:402B000004BFB6EB020C5FEA500C50F1000041EB045170BD0EF0004E4EEA113114EB5C04C2BFD4EB0C0541EA045170BD41F480114FF0000E013C90E645EA060E8DE60CEAFA
:402B4000135594EA0C0F08BF95EA0C0F3FF43BAF94EA0C0F0AD150EA01347FF434AF95EA0C0F7FF425AF104619462CE795EA0C0F06D152EA03353FF4FDAE1046194622E773
:402B800050EA410618BF52EA43067FF4C5AE50EA41047FF40DAF52EA43057FF4EBAE12E74FF0FF3C06E000BF4FF0010C02E000BF4FF0010C4DF804CD4FEA410C7FEA6C5CF6
:402BC0004FEA430C18BF7FEA6C5C1BD001B050EA410C0CBF52EA430C91EA030F02BF90EA020F0020704710F1000F91EA030F58BF994208BF90422CBFD8176FEAE37040F03E
:402C0000010070474FEA410C7FEA6C5C02D150EA013C07D14FEA430C7FEA6C5CD6D152EA033CD3D05DF8040B704700BF8446104662468C461946634600E000BF01B5FFF7BE
:402C4000B7FF002848BF10F1000F01BD4DF808EDFFF7F4FF0CBF012000205DF808FB00BF4DF808EDFFF7EAFF34BF012000205DF808FB00BF4DF808EDFFF7E0FF94BF012074
:402C800000205DF808FB00BF4DF808EDFFF7CEFF94BF012000205DF808FB00BF4DF808EDFFF7C4FF34BF012000205DF808FB00BF00210A2200F0C0B80E4B70B51E460E4C06
:402CC0000025E41AA410A54204D056F8253098470135F8E700F0C8FC084B094C1E46E41AA4100025A54204D056F8253098470135F8E770BD74360000743600007436000097
:402D00007C36000010B5431E0A44914204D011F8014B03F8014FF8E710BD03460244934202D003F8011BFAE7704700002DE9F0470F46404CD4F800903D4615F801EB09EB9B
:402D40000E04667806F0080404F0FF060CB12F46F2E774462D2C03D1BD1C7C78012603E02B2C04BF7C78BD1C13B1102B0AD15AE0302C56D12C7804F0DF04582C4CD16C7821
:402D800010230235002E14BF4FF000486FF00048B8FBF3FA0027BE4603FB1A8809EB040C9CF801C01CF0040F01D0303C0BE01CF0030C1BD0BCF1010F0CBF4FF0370C4FF020
:402DC000570CCCEB04049C4210DAB7F1FF3F0AD0D64506D801D1444503DC03FB0E4E012701E04FF0FF3715F8014BD7E77C1C73460AD1002E4FF0220114BF4FF000436FF097
:402E0000004301602AB911E00EB1CEF100036AB107B1691E116009E03024002BB2D10823B0E70A23AEE7302CACD1A3E71846BDE8F08700BF8881FF1F30B505460C461346C1
:402E4000034A294610682246BDE83040FFF76EBF8481FF1F00380000AA0000000000000043534520343934303A20576972656C65737320436865737320426F6172640A0AD3
:402E8000000000006F6E00006F6666006C696D6974207374617274006C696D697420312072656164000000006C696D69742032207265616400000000200000000A0000000A
:402EC000636865636B696E67200A0D000A0D0000F0510040100000000140000A800A01408005001401408006001B0140000100400140000A004C0140000200500140200019
:402F0000000A01405C3400008000801A0140DC3400008000085200400364004003650040020701406608014049090140180A01403C0B0140021701406818014047190140AF
:402F4000171A01403F1B0140054001400441014004420140074301400347014006480140064C01400B4D0140085001400151014004FF08400940240F2801290134C064073B
:402F8000880F89388A728838890F8B72E202E64000100240041006AC0A030C090D180ED00F24140C1552167117241814191F1B601F4024DC2622291F2B202E202F2D3104AD
:402FC00032E03378341F370339803A083B083F4140254103450B460C470E481549FF4AFF4BFF4EF04F44500C54015604580459045A045B045F0166C06A406B0284508502A7
:4030000088028A0C8B018C308E448F0190249240944096309A019C40A201A870AA08B001B27CB301B402B502BB02BE11BF14C003C540C9FFCA07CBFFCC40CD20CEF0CF05AD
:40304000D008D418D604D804D904DA04DB04DC01DD01DF01E040E1A8E240E3200050022005500640071009200AA00B020E200F08111012801540170418101A081B011D10D4
:403080001E201F042004210627912DC02E202F0635403604371439A03A043F8043084620471049024B024D804F0850085480560457405A025C045F91600862026302660147
:4030C0007808790886068E0191A09202A120A280A502AA40C0F7C26FC4AACA30CC70CE1ED062D210D6F1D88DE408E640EA048301850289028C018E0E910298229A519C44EC
:403100009E31A467A867B102B218B460B501B607BE04D608D804D904DB04DD90DF0100440102030405400601081009020A200B010C100E080F0110A8120117281804191792
:403140001A201D481E081F2021602205244027442951300231063360370238283A423E143F014040412848024A08511052805A085E40664067016A146B2A70BC72028D01B0
:403180008E08C08FC2CFC46FCA0DCC8FCEEFD007D20CD612D810E204E60802400430060D0A800E301405163819011E802220264028052A182C022E0C308031013240343C6B
:4031C000360338803A203E053F014004460449FF4A074BFF4C404D204EF04F05500854185604580459045A045B045D105F01604061A862406320820284B8864588568913D1
:403200008AA18B0C8D138F0492469520970599039B049CB89E439F08A140A680A90AAAA9AB14B080B218B340B463B50FB607B730B808B980BAA0BB20BE05BF04C026C104C2
:40324000C50CC6BEC80DC9FFCAFFCBFFCEF0CF44D00CD401D604D804D904DA04DB04DC11DD11DF01E6C0EA40EB02000801320426054008800A820E200F02103816511710AC
:4032800019201A421B081C041D401E081F05200821102254250129212B803028324035103840392040C04110470148285220538056415702581059015A485E026380660278
:4032C000670A834086029440951096A099129B119D409E40A008A210A624A70AAA04AB01B080B310C0FEC2A9C4F6CA05CC2ECE0CD085D204D68FD8B1040106260C0A0E51EA
:403300001C141E491F01249F289F2C80301831013207346036803E105608580459045B045C115D905F0100400108022003100542072809800C800D280E40102A15421714DD
:403340001840190A1B501C011D281E401F2821012422250426112C802D402F283180354236203C013E68452447404D404FA0561057015A805E2061C06C2A7480762877285D
:403380008001834C8E4094229E10A601A701B501C0F5C2F1C4F7CAF0CCB8CEF0D070D230D628D8083202338035803708CCF09D809F08A602A7809D809F08A602A780860202
:4033C0008F089D809F08A602A780E24086029E20AA20818087809D80A780E220E6100D8066029A029E20C201D80106205C108D8090109E20A180B410C004D604E208E808E8
:40340000000301010C030D01100311011C031D0100FF0000FF000000000000000708080000000000400080404000400000000000007F7F000000000000FFFF000000000077
:403440000F00000000000000010002050500010000000000C0FF3F0000000000F3200C004C30A300001040000002B300FF7F00004F70900F010100004200000B084F00303C
:40348000040000000C780007030300000F038C407C38000400802A0000000004640502000300EC000CFFFFFF62A0F0410C000000000002120404040400000001000000006C
:4034C00000004002001030100010101200000000000000000000000000000000017800070C100000043000004270000F4F019000FF000000F3030C0008020000002040002C
:403500004C4FA330037F00000000B30B8C0300380F407C040080AA0000000010250103000600E0C028FFFFFF62A0F0410C0000000000021104040404111100010000000094
:403540000000400200103010001010120000000000000000000000000000000069F0152E002801014300002020202020202020202828282828202020202020202020202036
:403580002020202020202088101010101010101010101010101010040404040404040404041010101010101041414141414101010101010101010101010101010101010183
:4035C0000101101010101010424242424242020202020202020202020202020202020202020210101010200000000000000000000000000000000000000000000000000055
:40360000000000000000000000000000000000000000000000000000000000000000000000000000000000000000000000000000000000000000000000000000000000008A
:4036400000000000000000000000000000000000000000000000000000000000000000000000000000000000F8B500BFF8BC08BC9E4670475100000001090000F8B500BF04
:40368000F8BC08BC9E4670472D000000A03600000881FF1F88000000A80100000000000000000000542E0000582E00000000C05D80BB000030000000006CDC020000000042
:4036C0000000000000000000000000000000000000000000000000000000000064350000000000000000000000000000000000000000000000000000000000000000000031
:40370000000000000000000000000000000000000000000000000000000000002481FF1F66350000000000000000000000000000000000000000000000000000000000002B
:403740000000000000000000000000000000000000000000000000000000000000000000000000000000000000000000000000000000000000000000000000000000000049
:403780000000000000000000000000000000000000000000000000000000000000000000000000000000000000000000000000000000000000000000000000000000000009
:4037C00000000000000000000000000000000000000000000000000000000000000000000000000000000000000000000000000000000000000000000000000000000000C9
:403800000080002011380000994000009940000008B500F043FC00BF10B5054C237833B9044B13B10448AFF300800123237010BD8881FF1F00000000F4580000084B10B515
:403840001BB108480849AFF300800848036803B910BD074B002BFBD0BDE81040184700BF00000000F45800008C81FF1F0881FF1F0000000008B562B600F0DAFF034801F022
:4038800093F800F0F9FE00F093FE08BDF858000010B584B0FFF7EEFF002001E001F01EF80028FBD001F004F88DF8080000230CE001F014F800E000200028F9D000F0F8FFCB
:4038C00004AB234403F8080C23465C1CE4B204AA134413F8083C0D2B01D0072CEBD99DF80800A0F16503142BD6D801A252F823F0FF3900009938000099380000F53900004D
:403900009938000099380000993800009938000099380000993800009938000099380000993800002F3A000099380000993800009938000099380000993800004539000032
:403940009D39000000F0F8FF022C0BD8A4E704AA1A4412F8081C04AA1A4402F80F1C0133DBB200E00323A342F1D301A801F0F0FEC0B200F0E1FF9DF80A302D2B07D101A8A1
:4039800001F0E6FE404200B200F0BEF884E701A801F0DEFE00B200F0B7F87DE700F0CCFF022C0BD878E704AA1A4412F8081C04AA1A4402F80F1C0133DBB200E00323A34280
:4039C000F1D301A801F0C4FEC0B200F0B5FF9DF80A302D2B07D101A801F0BAFE404200B200F0F2F858E701A801F0B2FE00B200F0EBF851E700F0A0FF00F020F84CE700F032
:403A00009BFF9DF80A306F2B0AD19DF80B306E2B06D1084800F0C8FF012001F0A3F83BE7054800F0C1FF002001F09CF834E700F02BF931E71C5900002059000038B50120AD
:403A400001F03AF8012001F05BF801F07DF8044601F082F80546274800F0A6FF3AE0ADB9012001F041F8012001F062F8002001F02FF8012001F02CF8002001F04DF8012038
:403A800001F04AF8142001F005F915E0A4B9002001F02AF8012001F04BF8002001F018F8012001F015F8002001F036F8012001F033F8142001F0EEF801F046F8044601F0A5
:403AC0004BF8054614B10C4800F06EFF15B10B4800F06AFF002CC2D0002DC0D0002000F0EBFF002001F00CF80023054A1380054A138038BD2459000030590000405900004B
:403B00001882FF1F1A82FF1FF8B505462C4B1A8813B20344B3F57A7F4AD884B22244284B1A80012000F0C8FF012000F0E9FF002D08DA012000F0D8FF012000F0F9FF654212
:403B40002DB205E0002000F0CFFF002000F0F0FF00240FE0002000F0BBFF012000F0B8FF002000F0D9FF012000F0D6FF142001F091F80134204601F0EBFA06460F46284603
:403B800001F0E6FA0CA3D3E9002301F047FB00220C4B01F043FB02460B463046394601F0AFFD0028D6D100F087FF002000F0A8FFF8BD00BFAFF300803333333333B35140CB
:403BC0001882FF1F0000E03FF8B505462C4BB3F900300344B3F57A7F4BD8012000F06CFF012000F08DFFACB2254A138823441380002D08DA002000F077FF012000F098FFE0
:403C000065422DB205E0012000F06EFF002000F08FFF00240FE0002000F05AFF012000F057FF002000F078FF012000F075FF142001F030F80134204601F08AFA06460F4610
:403C4000284601F085FA0CA3D3E9002301F0E6FA00220C4B01F0E2FA02460B463046394601F04EFD0028D6D100F026FF002000F047FFF8BDAFF300803333333333B35140A3
:403C80001A82FF1F0000E03F30B583B0F94800F08BFE022001F056F8022001F06BF8022001F080F8022001F095F8022001F0AAF8022001F0BFF8022001F0D4F8022001F0E6
:403CC000E9F80C2001F056F8012001F047F800F055FFE94CA07200F059FFE07200F05EFF207200F063FF607200F068FFA07100F06DFFE07100F072FF207100F077FF6071C1
:403D000000F07AFFA07000F07FFFE07000F084FF207000F089FF6070002001F01FF8022001F028F80C2001F00DF8012000F0FEFF00F024FFA07500F029FFE07500F02EFFC4
:403D4000207500F033FF607500F038FFA07400F03DFFE07400F042FF207400F047FF607400F04AFFA07300F04FFFE07300F054FF207300F059FF6073002000F0D7FF022057
:403D800000F0E0FF0C2001F025F8012001F016F800F0F4FE84F8220000F0F8FE84F8230000F0FCFE84F8200000F000FF84F8210000F004FFA07700F009FFE07700F00EFF6D
:403DC000207700F013FF607700F016FFA07600F01BFFE07600F020FF207600F025FF6076002000F0EBFF022000F0F4FF0C2000F0D9FF012000F0CAFF00F0C0FE84F82E0024
:403E000000F0C4FE84F82F0000F0C8FE84F82C0000F0CCFE84F82D0000F0D0FE84F82A0000F0D4FE84F82B0000F0D8FE84F8280000F0DCFE84F8290000F0DEFE84F8260050
:403E400000F0E2FE84F8270000F0E6FE84F8240000F0EAFE84F82500002000F097FF022000F0A0FF0C2000F0E5FF012000F0D6FF00F084FE84F83A0000F088FE84F83B0050
:403E800000F08CFE84F8380000F090FE84F8390000F094FE84F8360000F098FE84F8370000F09CFE84F8340000F0A0FE84F8350000F0A2FE84F8320000F0A6FE84F833003A
:403EC00000F0AAFE84F8300000F0AEFE84F83100002000F0A3FF022000F0ACFF0C2000F091FF012000F082FF00F048FE84F8460000F04CFE84F8470000F050FE84F8440095
:403F000000F054FE84F8450000F058FE84F8420000F05CFE84F8430000F060FE84F8400000F064FE84F8410000F066FE84F83E0000F06AFE84F83F0000F06EFE84F83C0023
:403F400000F072FE84F83D00002000F04FFF022000F058FF0C2000F09DFF012000F08EFF00F00CFE84F8520000F010FE84F8530000F014FE84F8500000F018FE84F85100D5
:403F800000F01CFE84F84E0000F020FE84F84F0000F024FE84F84C0000F028FE84F84D0000F02AFE84F84A0000F02EFE84F84B0000F032FE84F8480000F036FE84F849000D
:403FC000002000F05BFF022000F064FF0C2000F049FF012000F03AFF00F0D0FD84F85E0000F0D4FD84F85F0000F0D8FD84F85C0000F0DCFD84F85D0000F0E0FD84F85A001F
:4040000000F0E4FD84F85B0000F0E8FD84F8580000F0ECFD84F8590000F0EEFD84F8560000F0F2FD84F8570000F0F6FD84F8540000F0FAFD84F85500002000F007FF02207F
:4040400000F010FF002521E020228DF8042005EB45039B0023440849CB5C30338DF805308DF806208DF8072001A800F09DFC0134E4B204E058590000A481FF1F00240B2CDA
:40408000E2D9044800F090FC0135EDB2072DF5D903B030BD64590000FEE700BF08B5104E104D16E029686B68AC68002204E051F8040B43F8040B0432A242F8D1E8680022C2
:4040C00003E0002143F8041B04328242F9D11035013E002EE6D101F03FFBFFF7D9FBFEE701000000D45A000008B5124A124B1A60124A136843F40073136000230AE0032B0D
:4041000003D80F4A52F8231000E00E490E4A42F8231001332F2BF2D90C4B1A780C4B1A70094A0C4B1A6000F0B9F800220A4B1A6008BD00BF0004FA050CED00E014ED00E0B8
:4041400000380000994000000080FF1FBC7600400481FF1F08ED00E00081FF1FFEE700BFF0B40022174611E050F82760F3B226F0FF0608E001EB420511F812406D78A5556B
:404180000132013BDBB2002BF4D10137162FEBD9F0BC7047064B1B78DBB203F00701054A11701B09013213704422034B1A707047CF0100496E5800407658004008B50A462A
:4041C000002101F0FAFA08BD38B53322264B1A80182326490B7002310A80254A13700222244B1A7008224FF040231A70032203F500731A70204B1B78DBB2204A137010229C
:404200001F4B1A8041F25122023B1A80002419250CE01C4B1B7803F0010343EA440404F003044FF4F07000F023FD013D0DB1032CEFD115B90320FFF791FF134B4FF48072A6
:404240001A8007221A70002210490A704820023108701A700222033B1A700D4A137843F00303137038BD00BF8040004082400040864000400043004008010049A14600401D
:4042800022420040254200400440004006400040A243004008B501F085FA08BD38B572B6464A137843F00403137000240CE0444963001A1952000A4423445B00C8589188D7
:4042C000FFF77CFF0134E4B2072CF0D900240FE03B49A3001A1952000A4452F8300F23445B000B4451681A8FFFF7D4FF0134E4B2012CEDD9334C204604F15C01FFF730FF9A
:40430000314A137843F0020313701032137843F0020313702D4D2B7843F040032B70A2F58632513A137843F010031370284804F5C0610822FFF7AEFF264804F5C1610822CE
:40434000FFF7A8FF244804F5C2610A22FFF7A2FF224804F21C610822FFF79CFF204804F224610822FFF796FF1E4804F22C610822FFF790FF1C4804F234610A22FFF78AFFF3
:404380001A4804F5C8610822FFF784FF184A137843F008031370174C61232370FFF714FFC12323700122144B1A70FFF7F3FE134829460E22FFF76EFF38BD00BFE8460040BC
:4043C000685900000007004803500140A043004002510040C2510040105100402251004032510040425100405051004062510040224300400048004004000840B0430040A6
:4044000010B50B4C237803F09F032370237803F0F00323702378184340F010002070012000F04EFC237803F0EF03237010BD00BF2051004070B5354B1A7802F08002D2B2E9
:404440001A7033490A7802F0F00242F00F020A7001310A7802F0F0020A7001310A7802F0F0020A701A7802F0DF021A701A7842F040021A704FF4CA76002000F021FC234D50
:404480002B7843F010032B70012000F019FC214B1C78E4B22B7803F0EF032B70002000F00FFC04F00804E4B22B7843F010032B70012000F005FC2B7803F0EF032B7014B962
:4044C0000A2000F0FDFB013E0CB1002ED4D10F4A137803F0BF031370137803F08003DBB213700232137803F0F00313700132137803F0F00343F00F0313700132137803F069
:40450000F00343F00F03137070BD00BF20510040225100402151004010B50446FFF78AFF2009FFF76DFF04F00F00FFF769FF10BD08B5282000F0AEFB0320FFF761FF05203B
:4045400000F0A8FB0320FFF75BFF0F2000F0A2FB0320FFF755FF012000F09CFB0220FFF74FFF052000F096FB0620FFF7D5FF0E20FFF7D2FF2C20FFF7CFFF0820FFF7CCFF7A
:404580000120FFF7C9FF0C20FFF7C6FF0320FFF7C3FF052000F07EFB08BD00BF08B50C20FFF7BAFF0122014B1A7008BD0482FF1F08B5054B5B7823B9FFF7BAFF0122024B73
:4045C0005A70FFF7EBFF08BD0482FF1F08B50220104900F07FFB0220072100F08FFB00220D4B1A7072220D4B1A702022013B1A7003200B4900F06EFB0320072100F07EFB3C
:404600000622084B1A70472210331A700222B03B1A7008BD954600000682FF1F8A640040294700002865004010B500F029FB04460D4A137843F020031370013A137843F01E
:4046400010031370094A0423136009490B7843F010030B70082307490B60136000F0ECFA204600F011FB10BD9A64004000E100E09864004080E200E008B5054B5B7823B98A
:40468000FFF7A4FF0122024B5A70FFF7CDFF08BD0682FF1F1C4B1B78DBB213F01E0F05D01A4803F01E0201780A43027003F0200303F0FF022BB3164B1978C9B2154B1B7879
:4046C000DBB21548C154154B1B7813F0FF0F02D00121134B19700F490B780133DBB20B700B78DBB23F2B02D900210A4B1970094B1B780C490978DBB28B4202D10121074B13
:404700001970002AC6D17047696400400682FF1F4A6400400982FF1F1C82FF1F0A82FF1F0B82FF1F0882FF1F13E0104B1B78DBB23F2B02D900220D4B1A700C4A1378DBB250
:404740000B49CB5CDBB20B490B7013780133DBB21370064B1B78DBB2074A1278934204D0064B1B7813F0040FDFD070470C82FF1F5C82FF1F486400400D82FF1F68640040F1
:4047800008B50020114900F0A5FA0020072100F0B5FA00220E4B1A7072220E4B1A702022033B1A7001200C4900F094FA0120072100F0A4FA0622094B1A70472210331A70BF
:4047C000022203F5A8731A7008BD00BFCD4900000F82FF1F8B650040614A00002964004010B500F04DFA04460D4A137843F020031370033A137843F010031370094A0123FE
:40480000136009490B7843F010030B70022307490B60136000F01EFA204600F035FA10BD9B65004000E100E09965004080E200E008B5054B5B7823B9FFF7A2FF0122024B7E
:404840005A70FFF7CDFF08BD0F82FF1F0122134B1A60134A9378DBB2D178C9B2127912F0FF0F01D18B4211D00E4AD05CC0B20133DBB23F2B00D90023094A9370137913F067
:40488000FF0F06D00022064B1A7102E0064B1878C0B20122054B1A60704700BF80E100E00F82FF1F9C82FF1F4B65004000E100E010B50123064A1360064A14780021117077
:4048C000054A13602402FFF7C1FF204380B210BD80E100E00F82FF1F00E100E00122134B1A60134A9378D278DBB2934206D1104B1B7913F0FF0F14D0402013E00C4A937889
:40490000D278DBB2934205D2094AD3789078181AC0B207E0064AD3789078181A4030C0B200E000200122034B1A60704780E100E00F82FF1F00E100E0164BD9799B79DBB265
:40494000994205D25A1E914214BF0022012204E0CA1A3F2A14BF00220122002AECD18B4207D10D4B1B7813F0040F02D10B4B187070473F2900D90021094B58540131054B00
:40498000D971054B1B7813F0020F02D00222054B1A6070470F82FF1F6965004049650040DC82FF1F00E200E038B5074B5B782BB938BDFFF7C1FF0134A4B201E005460024DA
:4049C000285D0028F5D138BD0F82FF1F1C4B1B78DBB213F01E0F05D01A4803F01E0201780A43027003F0200303F0FF022BB3164B1978C9B2154B1B78DBB21548C154154BC0
:404A00001B7813F0FF0F02D00121134B19700F490B780133DBB20B700B78DBB23F2B02D900210A4B1970094B1B780C490978DBB28B4202D10121074B1970002AC6D170472D
:404A4000686500400F82FF1F4B6500401282FF1F9C82FF1F1382FF1F1482FF1F1182FF1F13E0104B1B78DBB23F2B02D900220D4B1A700C4A1378DBB20B49CB5CDBB20B4903
:404A80000B7013780133DBB21370064B1B78DBB2074A1278934204D0064B1B7813F0040FDFD070471582FF1FDC82FF1F496500401682FF1F69650040044A137803F0FE03A7
:404AC00000F0010018431070704700BF60510040044A137803F0FD03400000F0020018431070704760510040044A137803F0FB03800000F004001843107070476051004041
:404B0000044A137803F0F703C00000F0080018431070704760510040044A137803F0EF03000100F0100018431070704760510040044A137803F0DF03400100F020001843D8
:404B40001070704760510040024B1878C0F38010704700BF61510040014B1878C009704761510040044A137803F0F703C00000F00800184310707047C0510040024B1878F9
:404B800000F00100704700BF01510040024B1878C0F34000704700BF01510040024B1878C0F38000704700BF01510040024B1878C0F3C000704700BF01510040024B1878D7
:404BC000C0F30010704700BF01510040024B1878C0F34010704700BF01510040024B1878C0F38010704700BF01510040014B1878C009704701510040024B187800F001001E
:404C0000704700BF41510040024B1878C0F34000704700BF41510040024B1878C0F38000704700BF41510040024B1878C0F3C000704700BF41510040054A137843F0010313
:404C400013701032137843F001031370704700BFA2430040054A137843F0020313701032137843F002031370704700BFA24300400230800803D000BF01380046FCD1704788
:404C8000EFF3108072B6704780F31088704700BF01BE704710B5044605E0084B1868FFF7E7FFA4F50044B4F5004FF6D8034B586800FB04F0FFF7DCFF10BD00BF0C81FF1F61
:404CC00008B5034B1B7A03FB00F0FFF7D1FF08BD0C81FF1F70B504460E46074B1D681F2802D90020FFF7D4FF04F01F04103455F8240045F8246070BD08ED00E038B5044685
:404D00000D46072902D90020FFF7C2FF1F2C02D90020FFF7BDFF04F01F0000F1604000F564406D01EDB2057038BD00BF044A137803F0FE0300F0010018431070704700BFC4
:404D400030510040044A137803F0F10300F00E0018431070704700BF18500040044A137803F0FD03400000F0020018431070704730510040044A137803F0F10300F00E00AC
:404D800018431070704700BF19500040044A137803F0FB03800000F0040018431070704730510040044A137803F0F10300F00E0018431070704700BF1A500040044A1378D6
:404DC00003F0F703C00000F0080018431070704730510040044A137803F0F10300F00E0018431070704700BF1B500040044A137803F0EF03000100F01000184310707047B0
:404E000030510040044A137803F0F10300F00E0018431070704700BF1C500040044A137803F0DF03400100F0200018431070704730510040044A137803F0F10300F00E00E6
:404E400018431070704700BF1D500040044A137803F0BF03800100F0400018431070704730510040044A137803F0F10300F00E0018431070704700BF1E500040044A13780C
:404E800003F07F03C001C0B203431370704700BF30510040044A137803F0F10300F00E0018431070704700BF1F50004081F0004102E000BF83F0004330B54FEA41044FEAE7
:404EC000430594EA050F08BF90EA020F1FBF54EA000C55EA020C7FEA645C7FEA655C00F0E2804FEA5454D4EB5555B8BF6D420CDD2C4480EA020281EA030382EA000083EAEB
:404F0000010180EA020281EA0303362D88BF30BD11F0004F4FEA01314FF4801C4CEA113102D0404261EB410113F0004F4FEA03334CEA133302D0524263EB430394EA050F3C
:404F400000F0A780A4F10104D5F1200E0DDB02FA0EFC22FA05F2801841F1000103FA0EF2801843FA05F359410EE0A5F120050EF1200E012A03FA0EFC28BF4CF0020C43FAE6
:404F800005F3C01851EBE37101F0004507D54FF0000EDCF1000C7EEB00006EEB0101B1F5801F1BD3B1F5001F0CD349085FEA30004FEA3C0C04F101044FEA445212F5800F14
:404FC00080F09A80BCF1004F08BF5FEA500C50F1000041EB045141EA050130BD5FEA4C0C404141EB010111F4801FA4F10104E9D191F0000F04BF01460020B1FA81F308BFF7
:405000002033A3F10B03B3F120020CDA0C3208DD02F1140CC2F10C0201FA0CF021FA02F10CE002F11402D8BFC2F1200C01FA02F120FA0CFCDCBF41EA0C019040E41AA2BF56
:4050400001EB0451294330BD6FEA04041F3C1CDA0C340EDC04F11404C4F1200220FA04F001FA02F340EA030021FA04F345EA030130BDC4F10C04C4F1200220FA02F001FAD6
:4050800004F340EA0300294630BD21FA04F0294630BD94F0000F83F4801306BF81F480110134013D4EE77FEA645C18BF7FEA655C29D094EA050F08BF90EA020F05D054EADB
:4050C000000C04BF1946104630BD91EA030F1EBF0021002030BD5FEA545C05D14000494128BF41F0004130BD14F580043CBF01F5801130BD01F0004545F0FE4141F470017C
:405100004FF0000030BD7FEA645C1ABF194610467FEA655C1CBF0B46024650EA013406BF52EA033591EA030F41F4002130BD00BF90F0000F04BF0021704730B54FF4806481
:4051400004F132044FF000054FF0000150E700BF90F0000F04BF0021704730B54FF4806404F1320410F0004548BF40424FF000013EE700BF42004FEAE2014FEA31014FEA35
:4051800002701FBF12F07F4393F07F4F81F06051704792F0000F14BF93F07F4F704730B54FF4607401F0004521F0004120E700BF50EA010208BF704730B54FF000050AE02D
:4051C00050EA010208BF704730B511F0004502D5404261EB41014FF4806404F132045FEA915C3FF4DCAE4FF003025FEADC0C18BF03325FEADC0C18BF033202EBDC02C2F161
:40520000200300FA03FC20FA02F001FA03FE40EA0E0021FA02F11444C1E600BF70B54FF0FF0C4CF4E06C1CEA11541DBF1CEA135594EA0C0F95EA0C0F00F0DEF82C4481EAC2
:40524000030621EA4C5123EA4C5350EA013518BF52EA033541F4801143F4801338D0A0FB02CE4FF00005E1FB02E506F00042E0FB03E54FF00006E1FB03569CF0000F18BF25
:405280004EF0010EA4F1FF04B6F5007F64F5407404D25FEA4E0E6D4146EB060642EAC62141EA55514FEAC52040EA5E504FEACE2EB4F1FD0C88BFBCF5E06F1ED8BEF1004F74
:4052C00008BF5FEA500E50F1000041EB045170BD06F0004646EA010140EA020081EA0301B4EB5C04C2BFD4EB0C0541EA045170BD41F480114FF0000E013C00F3AB8014F1D8
:40530000360FDEBF002001F0004170BDC4F10004203C35DA0C341BDC04F11404C4F1200500FA05F320FA04F001FA05F240EA020001F0004221F0004110EBD37021FA04F6D4
:4053400042EB06015EEA430E08BF20EAD37070BDC4F10C04C4F1200500FA04F320FA05F001FA04F240EA020001F0004110EBD37041F100015EEA430E08BF20EAD37070BDE6
:40538000C4F1200500FA05F24EEA020E20FA04F301FA05F243EA020321FA04F001F0004121FA04F220EA020000EBD3705EEA430E08BF20EAD37070BD94F0000F0FD101F0DB
:4053C0000046400041EB010111F4801F08BF013CF7D041EA060195F0000F18BF704703F00046520043EB030313F4801F08BF013DF7D043EA0603704794EA0C0F0CEA135521
:4054000018BF95EA0C0F0CD050EA410618BF52EA4306D1D181EA030101F000414FF0000070BD50EA410606BF1046194652EA430619D094EA0C0F02D150EA013613D195EAEA
:405440000C0F05D152EA03361CBF104619460AD181EA030101F0004141F0FE4141F470014FF0000070BD41F0FE4141F4780170BD70B54FF0FF0C4CF4E06C1CEA11541DBFAB
:405480001CEA135594EA0C0F95EA0C0F00F0A7F8A4EB050481EA030E52EA03354FEA013100F088804FEA03334FF0805545EA131343EA12634FEA022245EA111545EA106501
:4054C0004FEA00260EF000419D4208BF964244F1FD0404F5407402D25B084FEA3202B61A65EB03055B084FEA32024FF480104FF4002CB6EB020E75EB030E22BFB61A754641
:4055000040EA0C005B084FEA3202B6EB020E75EB030E22BFB61A754640EA5C005B084FEA3202B6EB020E75EB030E22BFB61A754640EA9C005B084FEA3202B6EB020E75EB4C
:40554000030E22BFB61A754640EADC0055EA060E18D04FEA051545EA16754FEA06164FEAC30343EA52734FEAC2025FEA1C1CC0D111F4801F0BD141EA00014FF000004FF0E1
:40558000004CB6E711F4801F04BF01430020B4F1FD0C88BFBCF5E06F3FF6AFAEB5EB030C04BFB6EB020C5FEA500C50F1000041EB045170BD0EF0004E4EEA113114EB5C04D6
:4055C000C2BFD4EB0C0541EA045170BD41F480114FF0000E013C90E645EA060E8DE60CEA135594EA0C0F08BF95EA0C0F3FF43BAF94EA0C0F0AD150EA01347FF434AF95EA04
:405600000C0F7FF425AF104619462CE795EA0C0F06D152EA03353FF4FDAE1046194622E750EA410618BF52EA43067FF4C5AE50EA41047FF40DAF52EA43057FF4EBAE12E7C5
:405640004FF0FF3C06E000BF4FF0010C02E000BF4FF0010C4DF804CD4FEA410C7FEA6C5C4FEA430C18BF7FEA6C5C1BD001B050EA410C0CBF52EA430C91EA030F02BF90EA34
:40568000020F0020704710F1000F91EA030F58BF994208BF90422CBFD8176FEAE37040F0010070474FEA410C7FEA6C5C02D150EA013C07D14FEA430C7FEA6C5CD6D152EAF7
:4056C000033CD3D05DF8040B704700BF8446104662468C461946634600E000BF01B5FFF7B7FF002848BF10F1000F01BD4DF808EDFFF7F4FF0CBF012000205DF808FB00BF08
:405700004DF808EDFFF7EAFF34BF012000205DF808FB00BF4DF808EDFFF7E0FF94BF012000205DF808FB00BF4DF808EDFFF7CEFF94BF012000205DF808FB00BF4DF808ED69
:40574000FFF7C4FF34BF012000205DF808FB00BF00210A2200F0C0B80E4B70B51E460E4C0025E41AA410A54204D056F8253098470135F8E700F09CF9084B094C1E46E41A7C
:40578000A4100025A54204D056F8253098470135F8E770BDBC5A0000BC5A0000BC5A0000C45A000010B5431E0A44914204D011F8014B03F8014FF8E710BD03460244934266
:4057C00002D003F8011BFAE7704700002DE9F0470F46404CD4F800903D4615F801EB09EB0E04667806F0080404F0FF060CB12F46F2E774462D2C03D1BD1C7C78012603E07A
:405800002B2C04BF7C78BD1C13B1102B0AD15AE0302C56D12C7804F0DF04582C4CD16C7810230235002E14BF4FF000486FF00048B8FBF3FA0027BE4603FB1A8809EB040CE2
:405840009CF801C01CF0040F01D0303C0BE01CF0030C1BD0BCF1010F0CBF4FF0370C4FF0570CCCEB04049C4210DAB7F1FF3F0AD0D64506D801D1444503DC03FB0E4E0127DE
:4058800001E04FF0FF3715F8014BD7E77C1C73460AD1002E4FF0220114BF4FF000436FF0004301602AB911E00EB1CEF100036AB107B1691E116009E03024002BB2D1082331
:4058C000B0E70A23AEE7302CACD1A3E71846BDE8F08700BF8081FF1F30B505460C461346034A294610682246BDE83040FFF76EBF7C81FF1F000000004353452034393430FE
:405900003A20576972656C65737320436865737320426F6172640A0A000000006F6E00006F6666006C696D6974207374617274006C696D69742031207265616400000000DC
:405940006C696D69742032207265616400000000200000000A000000636865636B696E67200A0D000A0D0000F0510040100000000140000A800A014080050014014080063F
:40598000001B0140000100400140000A004C01400002005001402000000A0140000C00488000801A0140800C004880004300002020202020202020202828282828202020E6
:4059C0002020202020202020202020202020208810101010101010101010101010101004040404040404040404101010101010104141414141410101010101010101010127
:405A000001010101010101010101101010101010424242424242020202020202020202020202020202020202020210101010200000000000000000000000000000000000E8
:405A40000000000000000000000000000000000000000000000000000000000000000000000000000000000000000000000000000000000000000000000000000000000026
:405A8000000000000000000000000000000000000000000000000000000000000000000000000000000000000000000000000000F8B500BFF8BC08BC9E4670473D380000F2
:405AC000E9400000F8B500BFF8BC08BC9E46704719380000E85A00000881FF1F800000009801000000000000000000000000C05D80BB000030000000006CDC0200000000D9
:405B000000000000000000000000000000000000000000000000000000000000AC590000000000000000000000000000000000000000000000000000000000000000000060
:405B4000000000000000000000000000000000000000000000000000000000001C81FF1FAE5900000000000000000000000000000000000000000000000000000000000063
:405B800000000000000000000000000000000000000000000000000000000000000000000000000000000000000000000000000000000000000000000000000000000000E5
:405BC00000000000000000000000000000000000000000000000000000000000000000000000000000000000000000000000000000000000000000000000000000000000A5
:405C00000000000000000000000000000000000000000000000000000000000000000000000000000000000000000000000000000000000000000000000000000000000064
:405C40000000000000000000000000000000000000000000000000000000000000000000000000000000000000000000000000000000000000000000000000000000000024
:020000040003F7
:40FFC0006C113800003700000040320000000000000000000000000000000000000000000000000000000000000000000000000000000000000000000000000000000000A3
:0200000480007A
:4000000000000000000000000000000000000000000000000000000000000000000000000000000000000000000000000000000000000000000000000000000000000000C0
:400040000000000000000000000000000000000000000000000000000000000000000000000000000000000000000000000000000000000000000000000000000000000080
:400080000000000000000000000000000000000000000000000000000000000000000000000000000000000000000000000000000000000000000000000000000000000040
:4000C0000000000000000000000000000000000000000000000000000000000000000000000000000000000000000000000000000000000000000000000000000000000000
:4001000000000000000000000000000000000000000000000000000000000000000000000000000000000000000000000000000000000000000000000000000000000000BF
:40014000000000000000000000000000000000000000000000000000000000000000000000000000000000000000000000000000000000000000000000000000000000007F
:40018000000000000000000000000000000000000000000000000000000000000000000000000000000000000000000000000000000000000000000000000000000000003F
:4001C00000000000000000000000000000000000000000000000000000000000000000000000000000000000000000000000000000000000000000000000000000000000FF
:4002000000000000000000000000000000000000000000000000000000000000000000000000000000000000000000000000000000000000000000000000000000000000BE
:40024000000000000000000000000000000000000000000000000000000000000000000000000000000000000000000000000000000000000000000000000000000000007E
:40028000000000000000000000000000000000000000000000000000000000000000000000000000000000000000000000000000000000000000000000000000000000003E
:4002C00000000000000000000000000000000000000000000000000000000000000000000000000000000000000000000000000000000000000000000000000000000000FE
:4003000000000000000000000000000000000000000000000000000000000000000000000000000000000000000000000000000000000000000000000000000000000000BD
:40034000000000000000000000000000000000000000000000000000000000000000000000000000000000000000000000000000000000000000000000000000000000007D
:40038000000000000000000000000000000000000000000000000000000000000000000000000000000000000000000000000000000000000000000000000000000000003D
:4003C00000000000000000000000000000000000000000000000000000000000000000000000000000000000000000000000000000000000000000000000000000000000FD
:4004000000000000000000000000000000000000000000000000000000000000000000000000000000000000000000000000000000000000000000000000000000000000BC
:40044000000000000000000000000000000000000000000000000000000000000000000000000000000000000000000000000000000000000000000000000000000000007C
:40048000000000000000000000000000000000000000000000000000000000000000000000000000000000000000000000000000000000000000000000000000000000003C
:4004C00000000000000000000000000000000000000000000000000000000000000000000000000000000000000000000000000000000000000000000000000000000000FC
:4005000000000000000000000000000000000000000000000000000000000000000000000000000000000000000000000000000000000000000000000000000000000000BB
:40054000000000000000000000000000000000000000000000000000000000000000000000000000000000000000000000000000000000000000000000000000000000007B
:40058000000000000000000000000000000000000000000000000000000000000000000000000000000000000000000000000000000000000000000000000000000000003B
:4005C00000000000000000000000000000000000000000000000000000000000000000000000000000000000000000000000000000000000000000000000000000000000FB
:4006000000000000000000000000000000000000000000000000000000000000000000000000000000000000000000000000000000000000000000000000000000000000BA
:40064000000000000000000000000000000000000000000000000000000000000000000000000000000000000000000000000000000000000000000000000000000000007A
:40068000000000000000000000000000000000000000000000000000000000000000000000000000000000000000000000000000000000000000000000000000000000003A
:4006C00000000000000000000000000000000000000000000000000000000000000000000000000000000000000000000000000000000000000000000000000000000000FA
:40070000085200400364004003650040020701406608014049090140180A01403C0B0140021701406818014047190140171A01403F1B0140054001400441014004420140FD
:40074000074301400347014006480140064C01400B4D0140085001400151014004FF08400940240F2801290134C06407880F89388A728838890F8B72E202E64000100240FE
:40078000041006AC0A030C090D180ED00F24140C1552167117241814191F1B601F4024DC2622291F2B202E202F2D310432E03378341F370339803A083B083F414025410329
:4007C000450B460C470E481549FF4AFF4BFF4EF04F44500C54015604580459045A045B045F0166C06A406B028450850288028A0C8B018C308E448F01902492409440963096
:400800009A019C40A201A870AA08B001B27CB301B402B502BB02BE11BF14C003C540C9FFCA07CBFFCC40CD20CEF0CF05D008D418D604D804D904DA04DB04DC01DD01DF0110
:40084000E040E1A8E240E3200050022005500640071009200AA00B020E200F08111012801540170418101A081B011D101E201F042004210627912DC02E202F063540360428
:40088000371439A03A043F8043084620471049024B024D804F0850085480560457405A025C045F9160086202630266017808790886068E0191A09202A120A280A502AA409D
:4008C000C0F7C26FC4AACA30CC70CE1ED062D210D6F1D88DE408E640EA048301850289028C018E0E910298229A519C449E31A467A867B102B218B460B501B607BE04D608DC
:40090000D804D904DB04DD90DF0100440102030405400601081009020A200B010C100E080F0110A812011728180419171A201D481E081F2021602205244027442951300220
:4009400031063360370238283A423E143F014040412848024A08511052805A085E40664067016A146B2A70BC72028D018E08C08FC2CFC46FCA0DCC8FCEEFD007D20CD612CA
:40098000D810E204E60802400430060D0A800E301405163819011E802220264028052A182C022E0C308031013240343C360338803A203E053F014004460449FF4A074BFF89
:4009C0004C404D204EF04F05500854185604580459045A045B045D105F01604061A862406320820284B88645885689138AA18B0C8D138F0492469520970599039B049CB88B
:400A00009E439F08A140A680A90AAAA9AB14B080B218B340B463B50FB607B730B808B980BAA0BB20BE05BF04C026C104C50CC6BEC80DC9FFCAFFCBFFCEF0CF44D00CD40190
:400A4000D604D804D904DA04DB04DC11DD11DF01E6C0EA40EB02000801320426054008800A820E200F0210381651171019201A421B081C041D401E081F052008211022548D
:400A8000250129212B803028324035103840392040C04110470148285220538056415702581059015A485E0263806602670A834086029440951096A099129B119D409E4071
:400AC000A008A210A624A70AAA04AB01B080B310C0FEC2A9C4F6CA05CC2ECE0CD085D204D68FD8B1040106260C0A0E511C141E491F01249F289F2C8030183101320734605B
:400B000036803E105608580459045B045C115D905F0100400108022003100542072809800C800D280E40102A154217141840190A1B501C011D281E401F28210124222504BB
:400B400026112C802D402F283180354236203C013E68452447404D404FA0561057015A805E2061C06C2A7480762877288001834C8E4094229E10A601A701B501C0F5C2F114
:400B8000C4F7CAF0CCB8CEF0D070D230D628D8083202338035803708CCF09D809F08A602A7809D809F08A602A78086028F089D809F08A602A780E24086029E20AA208180BC
:400BC00087809D80A780E220E6100D8066029A029E20C201D80106205C108D8090109E20A180B410C004D604E208E808000301010C030D01100311011C031D0100FF0000EA
:400C0000F3200C004C30A300001040000002B300FF7F00004F70900F010100004200000B084F0030040000000C780007030300000F038C407C38000400802A0000000004E6
:400C4000640502000300EC000CFFFFFF62A0F0410C0000000000021204040404000000010000000000004002001030100010101200000000000000000000000000000000E9
:400C8000017800070C100000043000004270000F4F019000FF000000F3030C0008020000002040004C4FA330037F00000000B30B8C0300380F407C040080AA0000000010DA
:400CC000250103000600E0C028FFFFFF62A0F0410C0000000000021104040404111100010000000000004002001030100010101200000000000000000000000000000000B7
:400D0000FF000000000000000708080000000000400080404000400000000000007F7F000000000000FFFF00000000000F0000000000000001000205050001000000000004
:400D4000C0FF3F0000000000000000000000000000000000000000000000000000000000000000000000000000000000000000000000000000000000000000000000000075
:400D80000000000000000000000000000000000000000000000000000000000000000000000000000000000000000000000000000000000000000000000000000000000033
:400DC00000000000000000000000000000000000000000000000000000000000000000000000000000000000000000000000000000000000000000000000000000000000F3
:400E000000000000000000000000000000000000000000000000000000000000000000000000000000000000000000000000000000000000000000000000000000000000B2
:400E40000000000000000000000000000000000000000000000000000000000000000000000000000000000000000000000000000000000000000000000000000000000072
:0200000490006A
:0400000000004005B7
:0200000490105A
:04000000BC90ACAF55
:0200000490303A
:02000000F2F21A
:0200000490402A
:4000000000000000000000000000000000000000000000000000000000000000000000000000000000000000000000000000000000000000000000000000000000000000C0
:400040000000000000000000000000000000000000000000000000000000000000000000000000000000000000000000000000000000000000000000000000000000000080
:400080000000000000000000000000000000000000000000000000000000000000000000000000000000000000000000000000000000000000000000000000000000000040
:4000C0000000000000000000000000000000000000000000000000000000000000000000000000000000000000000000000000000000000000000000000000000000000000
:0200000490501A
:0C00000000012E15F06900012E38E35BB2
:00000001FF