:400000000080002011000000A90B0000A90B000008B5054B1A6803F53F5302331A6001F0DFFC00F0C3FD00BFFA46004010B5054C237833B9044B13B10448AFF300800123E2
:40004000237010BD9081FF1F000000006C330000084B10B51BB108480849AFF300800848036803B910BD074B002BFBD0BDE81040184700BF000000006C3300009481FF1F3A
:400080000881FF1F0000000008B562B601F04AFF01F010FA034801F015FB01F077F801F011F808BD7033000030B597B00021069107A83C2203F091F801F07CFA68B9FAE0B2
:4000C000204601F0C7FA16AB2B4403F8404C01F071FA0028FBD0013500E0002501F02AFA04460D28ECD1754801F0ECFA01F090FA06A803F082F8C2B20023029303930493D3
:4001000005939DF81830653B142B00F2D480DFE803F05FD2D259D2D2D298D2D2D2D2D275D2C6D2D2AB0B3200032A0AD8C3E016AA1A4412F8401C16AA1A4402F8531C01335D
:4001400000E00323C2B29A42F1DC9DF81A302D2B07D102A803F00CF8404200B200F028F905E002A803F004F800B200F021F9544801F0A8FA9FE0032A0AD89CE016AA1A44D6
:4001800012F8401C16AA1A4402F8531C013300E00323C2B29A42F1DC9DF81A302D2B07D102A802F0E5FF404200B200F059F905E002A802F0DDFF00B200F052F9414801F032
:4001C00081FA78E000F0A0F83F4801F07BFA72E09DF81A306F2B0AD19DF81B306E2B06D1012001F029FF394801F06CFA63E0002001F022FF364801F065FA5CE000F088F9BF
:4002000000251BE00023019320238DF806308DF8043005EB45039B0023442E4AD35C30338DF8053001A801F04DFA013400E000240B2CE7DD284801F045FA0135072DF6DD40
:4002400039E001F0EBFE4130C0B201F003FA234801F038FA01F0EAFE4130C0B201F0FAF91D4801F02FFA26E01D481E4900F068FC01F028FA1C481D4900F062FC01F022FAAF
:400280001B4D1C4C2846214600F05AFC01F01AFA2846214600F054FC01F014FA0BE0164B0B225A6000221A600A22DA6003229A600FCB00F037FB17B030BD00BF90330000B4
:4002C00094330000A4330000B4330000C4330000D8330000E481FF1F9C330000EC330000F0330000FC33000000340000083400000C340000143400004482FF1F08B5FFF725
:40030000C3FEFFF7D1FEFCE710B5012001F03EFE012001F05FFE01F081FE044601F086FE31E0A8B9012001F049FE012001F06AFE002001F037FE012001F034FE002001F0C3
:4003400055FE012001F052FE0A2002F0DDF815E0A4B9002001F032FE012001F053FE002001F020FE012001F01DFE002001F03EFE012001F03BFE0A2002F0C6F801F04EFED6
:40038000044601F053FE002CCBD00028C9D0002001F0FCFD002001F01DFE0023024A1380024A138010BD00BF5482FF1F5682FF1FF8B50546284B1A8813B2034442F21071CE
:4003C0008B4247D884B22244234B1A80012001F0DDFD012001F0FEFD002D08DA012001F0EDFD012001F00EFE65422DB205E0002001F0E4FD002001F005FE00240FE00020A7
:4004000001F0D0FD012001F0CDFD002001F0EEFD012001F0EBFD0A2002F076F80134204602F0A6FB06460F4605EB8500400002F09FFB0022094B02F001FC02460B4630461E
:40044000394602F06DFE0028D9D101F09FFD002001F0C0FDF8BD00BF5482FF1F0000E03FF8B50546284BB3F90030034442F21072934248D8012001F089FD012001F0AAFD62
:40048000ACB2214A138823441380002D08DA002001F094FD012001F0B5FD65422DB205E0012001F08BFD002001F0ACFD00240FE0002001F077FD012001F074FD002001F07E
:4004C00095FD012001F092FD0A2002F01DF80134204602F04DFB06460F4605EB8500400002F046FB0022094B02F0A8FB02460B463046394602F014FE0028D9D101F046FD97
:40050000002001F067FDF8BD5682FF1F0000E03F10B5022001F0A8FD022001F01BFE022001F030FE022001F045FE022001F05AFE022001F06FFE022001F084FE022001F0A9
:4005400099FE0C2001F006FE012001F0F7FD01F097FDDD4CA07201F09BFDE07201F0A0FD207201F0A5FD607201F0AAFDA07101F0AFFDE07101F0B4FD207101F0B9FD60715B
:4005800001F0BCFDA07001F0C1FDE07001F0C6FD207001F0CBFD6070002001F0CFFD022001F0D8FD0C2001F05FFD012001F050FD01F066FDA07501F06BFDE07501F070FDA3
:4005C000207501F075FD607501F07AFDA07401F07FFDE07401F084FD207401F089FD607401F08CFDA07301F091FDE07301F096FD207301F09BFD6073002001F029FD022075
:4006000001F032FD0C2001F0D5FD012001F0C6FD01F036FD84F8220001F03AFD84F8230001F03EFD84F8200001F042FD84F8210001F046FDA07701F04BFDE07701F050FD9F
:40064000207701F055FD607701F058FDA07601F05DFDE07601F062FD207601F067FD6076002001F09BFD022001F0A4FD0C2001F089FD012001F07AFD01F002FD84F82E0098
:4006800001F006FD84F82F0001F00AFD84F82C0001F00EFD84F82D0001F012FD84F82A0001F016FD84F82B0001F01AFD84F8280001F01EFD84F8290001F020FD84F82600F8
:4006C00001F024FD84F8270001F028FD84F8240001F02CFD84F82500002001F047FD022001F050FD0C2001F095FD012001F086FD01F0C6FC84F83A0001F0CAFC84F83B0004
:4007000001F0CEFC84F8380001F0D2FC84F8390001F0D6FC84F8360001F0DAFC84F8370001F0DEFC84F8340001F0E2FC84F8350001F0E4FC84F8320001F0E8FC84F83300E9
:4007400001F0ECFC84F8300001F0F0FC84F83100002001F053FD022001F05CFD0C2001F041FD012001F032FD01F08AFC84F8460001F08EFC84F8470001F092FC84F844004B
:4007800001F096FC84F8450001F09AFC84F8420001F09EFC84F8430001F0A2FC84F8400001F0A6FC84F8410001F0A8FC84F83E0001F0ACFC84F83F0001F0B0FC84F83C00D3
:4007C00001F0B4FC84F83D00002001F0FFFC022001F008FD0C2001F04DFD012001F03EFD01F04EFC84F8520001F052FC84F8530001F056FC84F8500001F05AFC84F851008D
:4008000001F05EFC84F84E0001F062FC84F84F0001F066FC84F84C0001F06AFC84F84D0001F06CFC84F84A0001F070FC84F84B0001F074FC84F8480001F078FC84F84900BC
:40084000002001F00BFD022001F014FD0C2001F0F9FC012001F0EAFC01F012FC84F85E0001F016FC84F85F0001F01AFC84F85C0001F01EFC84F85D0001F022FC84F85A00D2
:4008800001F026FC84F85B0001F02AFC84F8580001F02EFC84F8590001F030FC84F8560001F034FC84F8570001F038FC84F8540001F03CFC84F85500002001F0B7FC0220BB
:4008C00001F0C0FC10BD00BFE481FF1F08B500EB800000EB8003580000B2FFF769FD08BD08B5C0EB802300EB8303C0EBC300430018B2FFF7B5FD08BD08B5C0EBC02300EBE1
:400900008303C0EBC30000B2FFF7AAFD08BD00BF08B500EB800000EB800000B2FFF748FD08BD00BF2DE9F04784B004AC04E90F0041F2883001F0E8FDDDF80080DDF808A02C
:40094000CAEB08050198039BC61A85EAE577A7EBE57786EAE674A4EBE674A74235D114E005FB01F393FBF4F3434406FB01F292FBF4F2024403EB43039B0013444C4AD35CC7
:400980000BB10EF1010E013102E001214FF0000EA142E5DDBEF1000F0ED085E096FBF4F000B2FFF705FD95FBF7F0404200B2FFF757FD08F1010801E04FF0000804EB4403D0
:4009C00003EB03134345E9DC6EE015B108E0013300E00123A342FADD3046FFF777FF63E016B108E0013300E00123BB42FADD2846FFF776FF58E0984205DB07DC052808DC17
:400A00004FF0010907E04FF0010904E04FF0FF3901E04FF0FF39C9F10000FFF779FFD04506DC08DBBAF1030F08DC4FF0FF3807E04FF0FF3804E04FF0010801E04FF00108BF
:400A40001DB94046FFF758FF12E0002D08DD95FBF7F708EB450000FB07F0FFF74DFF07E095FBF7F5C8EB470000FB05F0FFF744FF1EB94846FFF74CFF12E0002E08DD96FB1D
:400A8000F4F409EB460000FB04F0FFF741FF07E096FBF4F6C9EB440000FB06F0FFF738FFC8F10000FFF728FF04B0BDE8F08700BFE481FF1FF8B500AF01F026FD00F0B4FB80
:400AC00006463030C0B200F0C5FDF31D23F00703ADEB030D6D46174908460C3102F085FB002422E02846144902F08FFBB8B100F05BFB285500F0AEFD2D5D303DEDB200F087
:400B000053FB0E4800F0DEFD002405E000F04CFB3030084B18550134A542F7DC07E000F043FB285500F096FD0134A642DADC0148BD46F8BDAC81FF1F183400002034000023
:400B400038B505460C46154800F0D4FB4FF47A70FFF7B0FF0378FBB9114800F0CBFB6420FFF7A8FF0378BBB9204600F0C3FB6420FFF7A0FF03787BB90A4800F0BBFB4FF498
:400B80007A70FFF797FF037833B9284600F0B2FB40F6C410FFF78EFF38BD00BF243400004C34000090330000FEE700BF08B5104E104D16E029686B68AC68002204E051F898
:400BC000040B43F8040B0432A242F8D1E868002203E0002143F8041B04328242F9D11035013E002EE6D102F0C7FAFFF787FBFEE701000000143C000008B5124A124B1A606B
:400C0000124A136843F40073136000230AE0032B03D80F4A52F8231000E00E490E4A42F8231001332F2BF2D90C4B1A780C4B1A70094A0C4B1A6000F0BDF800220A4B1A60FB
:400C400008BD00BF0004FA050CED00E014ED00E000000000A90B00000080FF1FBC7600400481FF1F08ED00E00081FF1FFEE700BFF0B40022174611E050F82760F3B226F016
:400C8000FF0608E001EB420511F812406D78A5550132013BDBB2002BF4D10137162FEBD9F0BC7047064B1B78DBB203F00701054A11701B09013213704422034B1A7070473F
:400CC000CF0100496E5800407658004008B50A46002102F082FA08BD08B502F073FA08BD08B502F06FFA08BD38B53322264B1A80182326490B7002310A80254A1370022263
:400D0000244B1A7008224FF040231A70032203F500731A70204B1B78DBB2204A137010221F4B1A8041F25122023B1A80002419250CE01C4B1B7803F0010343EA440404F077
:400D400003044FF4F07001F0BFFA013D0DB1032CEFD115B90320FFF789FF134B4FF480721A8007221A70002210490A704820023108701A700222033B1A700D4A137843F052
:400D80000303137038BD00BF8040004082400040864000400043004008010049A146004022420040254200400440004006400040A243004038B572B6464A137843F004030E
:400DC000137000240CE0444963001A1952000A4423445B00C8589188FFF778FF0134E4B2072CF0D900240FE03B49A3001A1952000A4452F8300F23445B000B4451681A8F65
:400E0000FFF76AFF0134E4B2012CEDD9324C04F1440004F1A001FFF72BFF304A137843F0020313701032137843F0020313702C4D2B7843F040032B70A2F58632513A13784E
:400E400043F010031370274804F244510822FFF743FF254804F24C510822FFF73DFF234804F254510A22FFF737FF214804F5AC610822FFF731FF1F4804F5AD610822FFF746
:400E80002BFF1D4804F5AE610822FFF725FF1B4804F5AF610A22FFF71FFF194804F284510822FFF719FF174A137843F008031370154C61232370FFF717FFC123237001227C
:400EC000124B1A70FFF7EEFE114829460E22FFF707FF38BDE84600405834000003500140A043004002510040C25100401051004022510040325100404251004050510040DE
:400F000062510040224300400048004004000840B043004010B50B4C237803F09F032370237803F0F00323702378184340F010002070012001F0FEFA237803F0EF0323703C
:400F400010BD00BF2051004070B5354B1A7802F08002D2B21A7033490A7802F0F00242F00F020A7001310A7802F0F0020A7001310A7802F0F0020A701A7802F0DF021A70C9
:400F80001A7842F040021A704FF4CA76002001F0D1FA234D2B7843F010032B70012001F0C9FA214B1C78E4B22B7803F0EF032B70002001F0BFFA04F00804E4B22B7843F08A
:400FC00010032B70012001F0B5FA2B7803F0EF032B7014B90A2001F0ADFA013E0CB1002ED4D10F4A137803F0BF031370137803F08003DBB213700232137803F0F0031370AC
:401000000132137803F0F00343F00F0313700132137803F0F00343F00F03137070BD00BF20510040225100402151004010B50446FFF78AFF2009FFF76DFF04F00F00FFF7C4
:4010400069FF10BD08B5282001F05EFA0320FFF761FF052001F058FA0320FFF75BFF0F2001F052FA0320FFF755FF012001F04CFA0220FFF74FFF052001F046FA0620FFF790
:40108000D5FF0E20FFF7D2FF2C20FFF7CFFF0820FFF7CCFF0120FFF7C9FF0C20FFF7C6FF0320FFF7C3FF052001F02EFA08BD00BF08B50C20FFF7BAFF0122014B1A7008BDB5
:4010C000C481FF1F08B5054B5B7823B9FFF7BAFF0122024B5A70FFF7EBFF08BDC481FF1F08B50220104901F051FA0220072101F061FA00220D4B1A7072220D4B1A7020221A
:40110000013B1A7003200B4901F040FA0320072101F050FA0622084B1A70472210331A700222B03B1A7008BD19130000C681FF1F8A640040AD1300002865004010B501F026
:40114000CBF804460D4A137843F020031370013A137843F010031370094A0423136009490B7843F010030B70082307490B60136001F08CF8204601F0B3F810BD9A640040BA
:4011800000E100E09864004080E200E008B5054B5B7823B9FFF7A4FF0122024B5A70FFF7CDFF08BDC681FF1F0422194B1A60194A9378DBB2D178C9B2127912F0FF0F01D145
:4011C0008B4211D0144AD05CC0B20133DBB23F2B00D900230F4A9370137913F0FF0F13D000220C4B1A710FE00C4B1B78DBB213F0200F06D00A4A1078C0B213F01E0F02D17F
:4012000002E0002000E000200422064B1A60704780E100E0C681FF1F5882FF1F696400404A64004000E100E00422134B1A60134A9378D278DBB2934206D1104B1B7913F0CF
:40124000FF0F14D0402013E00C4A9378D278DBB2934205D2094AD3789078181AC0B207E0064AD3789078181A4030C0B200E000200422034B1A60704780E100E0C681FF1F12
:4012800000E100E0164BD9799B79DBB2994205D25A1E914214BF0022012204E0CA1A3F2A14BF00220122002AECD18B4207D10D4B1B7813F0040F02D10B4B187070473F295E
:4012C00000D90021094B58540131054BD971054B1B7813F0020F02D00822054B1A607047C681FF1F68640040486400409882FF1F00E200E038B5074B5B782BB938BDFFF77C
:40130000C1FF0134A4B201E005460024285D0028F5D138BDC681FF1F1C4B1B78DBB213F01E0F05D01A4803F01E0201780A43027003F0200303F0FF022BB3164B1978C9B2B7
:40134000154B1B78DBB21548C154154B1B7813F0FF0F02D00121134B19700F490B780133DBB20B700B78DBB23F2B02D900210A4B1970094B1B780C490978DBB28B4202D147
:401380000121074B1970002AC6D1704769640040C681FF1F4A640040C981FF1F5882FF1FCA81FF1FCB81FF1FC881FF1F13E0104B1B78DBB23F2B02D900220D4B1A700C4AB1
:4013C0001378DBB20B49CB5CDBB20B490B7013780133DBB21370064B1B78DBB2074A1278934204D0064B1B7813F0040FDFD07047CC81FF1F9882FF1F48640040CD81FF1FDF
:401400006864004008B50020114901F0BFF80020072101F0CFF800220E4B1A7072220E4B1A702022033B1A7001200C4901F0AEF80120072101F0BEF80622094B1A704722CF
:4014400010331A70022203F5A8731A7008BD00BF29170000CF81FF1F8B650040BD1700002964004010B500F037FF04460D4A137843F020031370033A137843F0100313705A
:40148000094A0123136009490B7843F010030B70022307490B60136000F006FF204600F01FFF10BD9B65004000E100E09965004080E200E008B5054B5B7823B9FFF7A2FF4F
:4014C0000122024B5A70FFF7CDFF08BDCF81FF1F0122134B1A60134A9378DBB2D178C9B2127912F0FF0F01D18B4211D00E4AD05CC0B20133DBB23F2B00D90023094A93707B
:40150000137913F0FF0F06D00022064B1A7102E0064B1878C0B20122054B1A60704700BF80E100E0CF81FF1FD882FF1F4B65004000E100E00122194B1A60194A9378DBB2CE
:40154000D178C9B2127912F0FF0F01D18B4211D0144AD05CC0B20133DBB23F2B00D900230F4A9370137913F0FF0F13D000220C4B1A710FE00C4B1B78DBB213F0200F06D01B
:401580000A4A1078C0B213F01E0F02D102E0002000E000200122064B1A60704780E100E0CF81FF1FD882FF1F686500404B65004000E100E00122134B1A60134A9378D278A1
:4015C000DBB2934206D1104B1B7913F0FF0F14D0402013E00C4A9378D278DBB2934205D2094AD3789078181AC0B207E0064AD3789078181A4030C0B200E000200122034B3E
:401600001A60704780E100E0CF81FF1F00E100E008B500F061FE0B4B1A7842F001021A701A7802F0FE021A7000F05AFE0121064B1960064B00229A70DA701A715A71044BA8
:40164000196008BD9B65004080E100E0CF81FF1F00E100E0164BD9799B79DBB2994205D25A1E914214BF0022012204E0CA1A3F2A14BF00220122002AECD18B4207D10D4BE6
:401680001B7813F0040F02D10B4B187070473F2900D90021094B58540131054BD971054B1B7813F0020F02D00222054B1A607047CF81FF1F69650040496500401883FF1F5A
:4016C00000E200E038B5074B5B782BB938BDFFF7C1FF0134A4B201E005460024285D0028F5D138BDCF81FF1F08B500F0F5FD0A4B1A7842F001021A701A7802F0FE021A7083
:4017000000F0EEFD0223054A1360054A00219171D171044A136008BD9965004080E100E0CF81FF1F00E100E01C4B1B78DBB213F01E0F05D01A4803F01E0201780A430270C6
:4017400003F0200303F0FF022BB3164B1978C9B2154B1B78DBB21548C154154B1B7813F0FF0F02D00121134B19700F490B780133DBB20B700B78DBB23F2B02D900210A4B61
:401780001970094B1B780C490978DBB28B4202D10121074B1970002AC6D1704768650040CF81FF1F4B650040D281FF1FD882FF1FD381FF1FD481FF1FD181FF1F13E0104B4A
:4017C0001B78DBB23F2B02D900220D4B1A700C4A1378DBB20B49CB5CDBB20B490B7013780133DBB21370064B1B78DBB2074A1278934204D0064B1B7813F0040FDFD0704717
:40180000D581FF1F1883FF1F49650040D681FF1F69650040002306E0421812F8012C13449BB2013989B20029F6D1584280B27047004700BF08B58022024B1A7000F05CFE5E
:4018400008BD00BFFA4600402DE9F04182B00C46164602AF27F8022D01230B7048701546A270130ACB7002F1040808461FFA88F1FFF7D0FF04F80800731DC0F30720E054DC
:40188000063517236355F11D204689B23A46962300F0B6FF02B0BDE8F08100BF70B505460E461446084B984203D010B1002000F021FE002004E0013CAB191B5D1844C0B28E
:4018C000002CF8D170BD00BF0080004008B501380B2867D8DFE800F0060E161E262E3E36464E565E4942090201F57F3101F5707101225CE04942090201F57F3101F2C1313D
:40190000042254E04942090201F57F3101F2C53102224CE04942090201F57F3101F2C931042244E04942090201F57F3101F5747101223CE04942090201F57F3101F2D131DE
:40194000012234E04942090201F57F3101F2D63102222CE04942090201F57F3101F2D231022224E04942090201F57F3101F5757102221CE04942090201F57F3101F576711F
:40198000042214E04942090201F57F3101F5777101220CE04942090201F57F3101F57871042204E0002000F0A5FD02220021012A02D10878C0B200E00020022A03D10B7855
:4019C000487843EA0020042A09D10B78487843EA0023887843EA0043C87843EA006008BD08B50A4B1B7803F0C003802B0CD10021064B19700220FFF769FF28B102200021C3
:401A0000FFF764FFFFF714FF08BD00BFFA460040F8B5064603203146FFF758FF0130070204203146FFF752FF074403203146FFF74DFF013000020024254608E003785A1E80
:401A4000D2B2FD2A00D801252344DCB20130B842F4D303203146FFF739FF01300002C0080F4B9F4201D0FF0808E04FF4004705E000F190431B782344DCB20130B842F7D368
:401A80006442E4B201203146FFF720FF844202D11DB90620F8BD0620F8BD0020F8BD00BFC0FF03002DE9F04FADF51F7D054600F071FC10B1002000F01DFD00F099FE62B6FD
:401AC0004FF0000A57460A24D0460DB9FF2300E02B4652A84FF496710DF2762200F0A2FE0DB1013CE4B20CB10028EED1002840F00E82BDF87632062B26D99DF84821012A45
:401B000024D19DF84B819DF84A2142EA0828414608F107029A421BD8B2F5967F1AD84A1D52AB9E5C0A1D9A5C42EA062606315B5C172B11D108F1040152A889B2FFF76AFE77
:401B4000B0420BD100260AE0042608E0042606E0032604E0032602E0042600E00826002E40F081819DF84C919DF84921A2F131030A2B00F25081DFE813F00B001C004E0145
:401B80004400B0004E01B600CB004400DD004201002F00F06A81B8F1000F40F069810020FFF736FFB0FA80F040098DF84C010122A6E1002F00F05F81B8F1010F40F05E8130
:401BC000B9F1030F00F25D81C14B1B681B68C3F30742914502D1C3F3072305E0914501D9002301E04FF480738DF84C311B0A8DF84D31FF238DF84E3100238DF84F31042252
:401C00007EE1342A15D1002F00F03E81B8F1030F40F03D81A9F14003DBB23F2B02D84FF0100A01E04FF4907A07A80021524601F0D4FA002F00F02E81B8F1020F40F22D81B6
:401C400007AB03EB0A000DF24F11A8F1030201F0B9FAC244AAF1030A1FFA8AFAA9F14003DBB23F2B05D800F01BFC40234FF0100803E04FF480734FF49078C24540F0108130
:401C80009DF84EA19DF84D2142EA0A2A9A4500D30A26002E40F00981B9F13F0F0FD80AEB092292B28A4B1B681968C1F30F2311F0FF0F01D001339BB29A42C0F0F88048467E
:401CC000514607AA434600F06FFB00B10A2600F03BFC4FF0000A524612E1002F40F01581042600220CE1002F00F0E6800AEB0803B3F5967F00F2E38007AB03EB0A0053A972
:401D0000424601F05FFAC2441FFA8AFA0022F7E0B8F1000F40F0D68004AB6E4A92E8030083E8030053AA82E803004FF0000A01270822E5E0002F00F0C880B8F1030F40F089
:401D4000D1809DF84EB19DF84D3143EA0B2BA9F14003DBB23F2B10D84FEA0B11BBF13F0F01D8334600E00A23002B40F0BE805A481022FFF793FD019011E00BEB09210902FE
:401D8000BBF1FF0F01D8334600E00A23002B40F0AF8000204FF48072FFF780FD0190B9F13F0F0FD809F510320BEB02225201002306E0995C01980144C9B2019101339BB231
:401DC0001F2BF6D9B9F1030F13D1BBF1FF0F10D105200021FFF77AFD019B181A00F0FF0906200021FFF772FDC0EB090000F0FF030193019B5B428DF84C31012280E0002052
:401E0000FFF706FE10B98022344B1A7000F074FB0426002274E0324B1B68002B6BD0002F6CD08DF80820ADF80A8053AA0392002104910591069202A804A99847BDF81420F3
:401E4000B2F5937F03D3069953AB994205D0069B03B92AB99DF8106052E00E2600224FE00E2600224CE000224AE00426002247E00426002244E00426002241E00426002220
:401E80003EE0042600223BE00426002238E00426002235E00426002232E0042600222FE04FF0000A032652462AE0002228E04FF0000A0A26524623E00426002220E0032658
:401EC00000221DE0042600221AE00426002217E00C81FF1FE43A000000800040FA460040D881FF1F042600220AE01E46002207E01E46002204E00526002201E00526002232
:401F0000304652A9FFF7A0FC01E04FF0000A002D3FF4DBAD002F7FF4D8AD0DF51F7DBDE8F08F00BF38B50020FFF772FD08B1062400E00024134D2B68002001461A68FFF7B9
:401F4000ADFC6B681B78C01AC0B24042C0B2834202D12B681B6813B9002000F0CBFA0A4B1B7803F0C003402B00D024B10020064B1870FFF797FD1420FFF794FDFFF75AFC8B
:401F800038BD00BF0C81FF1FFA460040044A137803F0FE0300F0010018431070704700BF60510040044A137803F0FD03400000F0020018431070704760510040044A1378E8
:401FC00003F0FB03800000F0040018431070704760510040044A137803F0F703C00000F0080018431070704760510040044A137803F0EF03000100F01000184310707047A7
:4020000060510040044A137803F0DF03400100F0200018431070704760510040024B1878C0F38010704700BF61510040014B1878C009704761510040044A137803F0F70391
:40204000C00000F00800184310707047C0510040044A137803F0FE0300F0010018431070704700BF30510040044A137803F0F10300F00E0018431070704700BF185000403E
:40208000024B187800F00100704700BF01510040024B1878C0F34000704700BF01510040024B1878C0F38000704700BF01510040024B1878C0F3C000704700BF0151004002
:4020C000024B1878C0F30010704700BF01510040024B1878C0F34010704700BF01510040024B1878C0F38010704700BF01510040014B1878C009704701510040024B18785D
:4021000000F00100704700BF41510040024B1878C0F34000704700BF41510040024B1878C0F38000704700BF41510040024B1878C0F3C000704700BF41510040044A137885
:4021400003F0FD03400000F0020018431070704730510040044A137803F0F10300F00E0018431070704700BF19500040044A137803F0FB03800000F004001843107070475F
:4021800030510040044A137803F0F10300F00E0018431070704700BF1A500040044A137803F0F703C00000F0080018431070704730510040044A137803F0F10300F00E0016
:4021C00018431070704700BF1B500040044A137803F0EF03000100F0100018431070704730510040044A137803F0F10300F00E0018431070704700BF1C500040044A13783D
:4022000003F0DF03400100F0200018431070704730510040044A137803F0F10300F00E0018431070704700BF1D500040044A137803F0BF03800100F0400018431070704798
:4022400030510040044A137803F0F10300F00E0018431070704700BF1E500040044A137803F07F03C001C0B203431370704700BF30510040044A137803F0F10300F00E00A1
:4022800018431070704700BF1F500040054A137843F0010313701032137843F001031370704700BFA2430040054A137843F0020313701032137843F002031370704700BFD5
:4022C000A2430040000000000230800803D000BF01380046FCD17047EFF3108072B6704780F31088704700BF10B500F07BF900F029FAD0B900F068FA0446072812D102E043
:40230000012000F017F90A4B1B7813F0020FF7D0074B1B7813F0020F04D0054B1B789B0800D1002400F034FA00E00424204610BD2247004010B500F055F900F003FA10BBB4
:40234000012000F0E1F9072818D11048022100F05BF902280AD102E0012000F0EBF80C4B1B7813F0020FF7D0002409E0084B1B7813F0020FE9D04FF0FF3401E04FF0FF3476
:4023800000F006FA00E00424204610BD5883FF1F2247004008B5FFF7A7FF034610B9FFF7C9FF0346184608BD2DE9F041441FE4B23A2C01D9002500E0012510F0800F00D0B1
:4023C0000125412800D901253F2803D8B1F5807F06D808E0802900D90125102B02D102E0012500E0012502B90125002D50D1984616460F46044600F0A5F9002847D12046A2
:4024000039463246434600F019F9064607283AD102E0012000F08EF81F4B1B7813F0020FF7D01D4B1B7813F0020F06D01A4B1B789B0805D04FF0FF3603E04FF0FF3600E043
:402440002E4606BB154B204639461A785B7800F035F9072804D0064615E0012000F06AF80D4B1B7813F0020FF7D00B4B1B7813F0020F06D0084B1B789B0804D04FF0FF363E
:4024800001E04FF0FF3600F083F9354600E004252846BDE8F08100BF224700405883FF1F08B5FFF719FF0F4A137843F0080313701032137843F008031370C8220A4B1A702B
:4024C0000A4A137843F0100313701032137843F010031370064B1B7813F0200FFAD0FFF7FFFE08BDA043004001470040AC4300400047004001BE7047024A137843F0010321
:4025000013707047F646004010B5044605E0084B1868FFF7D9FEA4F50044B4F5004FF6D8034B586800FB04F0FFF7CEFE10BD00BF1481FF1F08B5034B1B7A03FB00F0FFF72C
:40254000C3FE08BD1481FF1F08B5FFF7C5FE00BF00BF00BF00BF00BF00BF00BF00BF00BF00BF00BF00BF00BF00BF00BF00BF064A13889BB243F0040313801388BFF36F8F6C
:40258000FFF7AEFE08BD00BF0048004070B504460E46074B1D681F2802D90020FFF7AAFF04F01F04103455F8240045F8246070BD08ED00E038B504460D46072902D90020AE
:4025C000FFF798FF1F2C02D90020FFF793FF04F01F0000F1604000F564406D01EDB2057038BD00BF08B5FFF777FE064A137843F0080313701032137843F008031370FFF7C5
:402600006FFE08BDA043004070B506460D4600240CE00120FFF78EFF064B1B7813F0010FF7D0054B1B7833550134E4B2AC42F3D3204670BD224700402047004070B41D4CB5
:40264000247814F0020F2CD01B4CB6252570D5252570022525700234247814F0020F22D1154C2070002404E0165D134D2E700134A4B29C42F8D3B3F5807F16D13F2816D830
:4026800000F5103001EB00214801002305E01A5CD2B209490A7001339BB21F2BF7D9072006E0042004E0092002E0072000E0072070BC7047224700402047004030B4104C65
:4026C000247814F0020F15D00E4CB6252570D8252570052525700234247814F0020F0BD1084C2070080A2070C9B2217022702370072002E0042000E0092030BC704700BF17
:4027000022470040204700400C4B1B7813F0020F0FD00B4BB6221A70E1221A700E221A7002331B7813F0020F05D1054B187007207047042070470920704700BF22470040E2
:402740002047004010B5FFF7C7FD0F4B1B78A3B901220D4B1A700D4B1B6813F0010F0ED00A4A136823F00103136000BF00BF00BF0122054B5A60002402E0042400E0002424
:40278000FFF7AEFD204610BDDC81FF1F0400084008B5FFF7A1FD0A4B00221A705B68012B0AD1084A136843F00103136000BF00BF00BF0022024B5A60FFF792FD08BD00BF7C
:4027C000DC81FF1F04000840074B1B7813F0020F08D0064BB6221A70E0221A700D221A700720704704207047224700402047004008B5FEF75FFEFEF70BFFFEF775FF08BD04
:40280000F8B506460D461746FEF702FF002404E0305DFEF71FFF0134A4B2AC42F8D33D800020F8BD2DE9F0470746894690461D46002414E0FEF7BEFE60B1FEF7BBFE044607
:402840001920FFF761FEFEF7B5FE8442F5D34FF0000A0BE00120FFF757FE0134A4B205EB85035B009C42E5DB4FF0050A0025A8F8005023E0FEF79EFE86B2B8F80030334472
:402880009BB2A8F800304B4508D313E0FEF720FE78550135ADB20134A4B200E00024B442F4D37B1913F8013C172B07D00520FFF72BFE03E09B1BA8F8003003E0FEF77AFEEA
:4028C0000028D7D15046BDE8F08700BF81F0004102E000BF83F0004330B54FEA41044FEA430594EA050F08BF90EA020F1FBF54EA000C55EA020C7FEA645C7FEA655C00F00E
:40290000E2804FEA5454D4EB5555B8BF6D420CDD2C4480EA020281EA030382EA000083EA010180EA020281EA0303362D88BF30BD11F0004F4FEA01314FF4801C4CEA11312A
:4029400002D0404261EB410113F0004F4FEA03334CEA133302D0524263EB430394EA050F00F0A780A4F10104D5F1200E0DDB02FA0EFC22FA05F2801841F1000103FA0EF23E
:40298000801843FA05F359410EE0A5F120050EF1200E012A03FA0EFC28BF4CF0020C43FA05F3C01851EBE37101F0004507D54FF0000EDCF1000C7EEB00006EEB0101B1F538
:4029C000801F1BD3B1F5001F0CD349085FEA30004FEA3C0C04F101044FEA445212F5800F80F09A80BCF1004F08BF5FEA500C50F1000041EB045141EA050130BD5FEA4C0C89
:402A0000404141EB010111F4801FA4F10104E9D191F0000F04BF01460020B1FA81F308BF2033A3F10B03B3F120020CDA0C3208DD02F1140CC2F10C0201FA0CF021FA02F1B2
:402A40000CE002F11402D8BFC2F1200C01FA02F120FA0CFCDCBF41EA0C019040E41AA2BF01EB0451294330BD6FEA04041F3C1CDA0C340EDC04F11404C4F1200220FA04F071
:402A800001FA02F340EA030021FA04F345EA030130BDC4F10C04C4F1200220FA02F001FA04F340EA0300294630BD21FA04F0294630BD94F0000F83F4801306BF81F48011D1
:402AC0000134013D4EE77FEA645C18BF7FEA655C29D094EA050F08BF90EA020F05D054EA000C04BF1946104630BD91EA030F1EBF0021002030BD5FEA545C05D14000494172
:402B000028BF41F0004130BD14F580043CBF01F5801130BD01F0004545F0FE4141F470014FF0000030BD7FEA645C1ABF194610467FEA655C1CBF0B46024650EA013406BF4E
:402B400052EA033591EA030F41F4002130BD00BF90F0000F04BF0021704730B54FF4806404F132044FF000054FF0000150E700BF90F0000F04BF0021704730B54FF4806441
:402B800004F1320410F0004548BF40424FF000013EE700BF42004FEAE2014FEA31014FEA02701FBF12F07F4393F07F4F81F06051704792F0000F14BF93F07F4F704730B567
:402BC0004FF4607401F0004521F0004120E700BF50EA010208BF704730B54FF000050AE050EA010208BF704730B511F0004502D5404261EB41014FF4806404F132045FEA3A
:402C0000915C3FF4DCAE4FF003025FEADC0C18BF03325FEADC0C18BF033202EBDC02C2F1200300FA03FC20FA02F001FA03FE40EA0E0021FA02F11444C1E600BF70B54FF022
:402C4000FF0C4CF4E06C1CEA11541DBF1CEA135594EA0C0F95EA0C0F00F0DEF82C4481EA030621EA4C5123EA4C5350EA013518BF52EA033541F4801143F4801338D0A0FBE9
:402C800002CE4FF00005E1FB02E506F00042E0FB03E54FF00006E1FB03569CF0000F18BF4EF0010EA4F1FF04B6F5007F64F5407404D25FEA4E0E6D4146EB060642EAC621C1
:402CC00041EA55514FEAC52040EA5E504FEACE2EB4F1FD0C88BFBCF5E06F1ED8BEF1004F08BF5FEA500E50F1000041EB045170BD06F0004646EA010140EA020081EA030189
:402D0000B4EB5C04C2BFD4EB0C0541EA045170BD41F480114FF0000E013C00F3AB8014F1360FDEBF002001F0004170BDC4F10004203C35DA0C341BDC04F11404C4F1200580
:402D400000FA05F320FA04F001FA05F240EA020001F0004221F0004110EBD37021FA04F642EB06015EEA430E08BF20EAD37070BDC4F10C04C4F1200500FA04F320FA05F0B0
:402D800001FA04F240EA020001F0004110EBD37041F100015EEA430E08BF20EAD37070BDC4F1200500FA05F24EEA020E20FA04F301FA05F243EA020321FA04F001F00041F0
:402DC00021FA04F220EA020000EBD3705EEA430E08BF20EAD37070BD94F0000F0FD101F00046400041EB010111F4801F08BF013CF7D041EA060195F0000F18BF704703F0E0
:402E00000046520043EB030313F4801F08BF013DF7D043EA0603704794EA0C0F0CEA135518BF95EA0C0F0CD050EA410618BF52EA4306D1D181EA030101F000414FF00000C4
:402E400070BD50EA410606BF1046194652EA430619D094EA0C0F02D150EA013613D195EA0C0F05D152EA03361CBF104619460AD181EA030101F0004141F0FE4141F47001F4
:402E80004FF0000070BD41F0FE4141F4780170BD70B54FF0FF0C4CF4E06C1CEA11541DBF1CEA135594EA0C0F95EA0C0F00F0A7F8A4EB050481EA030E52EA03354FEA0131F6
:402EC00000F088804FEA03334FF0805545EA131343EA12634FEA022245EA111545EA10654FEA00260EF000419D4208BF964244F1FD0404F5407402D25B084FEA3202B61A97
:402F000065EB03055B084FEA32024FF480104FF4002CB6EB020E75EB030E22BFB61A754640EA0C005B084FEA3202B6EB020E75EB030E22BFB61A754640EA5C005B084FEAE3
:402F40003202B6EB020E75EB030E22BFB61A754640EA9C005B084FEA3202B6EB020E75EB030E22BFB61A754640EADC0055EA060E18D04FEA051545EA16754FEA06164FEA8F
:402F8000C30343EA52734FEAC2025FEA1C1CC0D111F4801F0BD141EA00014FF000004FF0004CB6E711F4801F04BF01430020B4F1FD0C88BFBCF5E06F3FF6AFAEB5EB030C36
:402FC00004BFB6EB020C5FEA500C50F1000041EB045170BD0EF0004E4EEA113114EB5C04C2BFD4EB0C0541EA045170BD41F480114FF0000E013C90E645EA060E8DE60CEA36
:40300000135594EA0C0F08BF95EA0C0F3FF43BAF94EA0C0F0AD150EA01347FF434AF95EA0C0F7FF425AF104619462CE795EA0C0F06D152EA03353FF4FDAE1046194622E7AE
:4030400050EA410618BF52EA43067FF4C5AE50EA41047FF40DAF52EA43057FF4EBAE12E74FF0FF3C06E000BF4FF0010C02E000BF4FF0010C4DF804CD4FEA410C7FEA6C5C31
:403080004FEA430C18BF7FEA6C5C1BD001B050EA410C0CBF52EA430C91EA030F02BF90EA020F0020704710F1000F91EA030F58BF994208BF90422CBFD8176FEAE37040F079
:4030C000010070474FEA410C7FEA6C5C02D150EA013C07D14FEA430C7FEA6C5CD6D152EA033CD3D05DF8040B704700BF8446104662468C461946634600E000BF01B5FFF7FA
:40310000B7FF002848BF10F1000F01BD4DF808EDFFF7F4FF0CBF012000205DF808FB00BF4DF808EDFFF7EAFF34BF012000205DF808FB00BF4DF808EDFFF7E0FF94BF0120AF
:4031400000205DF808FB00BF4DF808EDFFF7CEFF94BF012000205DF808FB00BF4DF808EDFFF7C4FF34BF012000205DF808FB00BF00210A2200F0E8B80E4B70B51E460E4C19
:403180000025E41AA410A54204D056F8253098470135F8E700F02CFD084B094C1E46E41AA4100025A54204D056F8253098470135F8E770BDFC3B0000FC3B0000FC3B0000C6
:4031C000043C000010B5431E0A44914204D011F8014B03F8014FF8E710BD03460244934202D003F8011BFAE77047034611F8012B03F8012B002AF9D17047034613F8012B73
:40320000002AFBD1181A0138704730B5037823B90B78002B18BF002030BD03461A7801303AB100228C5C34B19D5CA542F5D10132F8E7104630BD184630BD00002DE9F0472F
:403240000F46404CD4F800903D4615F801EB09EB0E04667806F0080404F0FF060CB12F46F2E774462D2C03D1BD1C7C78012603E02B2C04BF7C78BD1C13B1102B0AD15AE0F2
:40328000302C56D12C7804F0DF04582C4CD16C7810230235002E14BF4FF000486FF00048B8FBF3FA0027BE4603FB1A8809EB040C9CF801C01CF0040F01D0303C0BE01CF0DB
:4032C000030C1BD0BCF1010F0CBF4FF0370C4FF0570CCCEB04049C4210DAB7F1FF3F0AD0D64506D801D1444503DC03FB0E4E012701E04FF0FF3715F8014BD7E77C1C73466E
:403300000AD1002E4FF0220114BF4FF000436FF0004301602AB911E00EB1CEF100036AB107B1691E116009E03024002BB2D10823B0E70A23AEE7302CACD1A3E71846BDE8D5
:40334000F08700BF8881FF1F30B505460C461346034A294610682246BDE83040FFF76EBF8481FF1F003D0000680000000000000043534520343934303A20576972656C65EB
:40338000737320436865737320426F6172640D0A0D0A00006D6F76696E6720780D0A0D0A000000006D6F76696E6720790D0A0D0A000000006D6F76696E6720686F6D650DC8
:4033C0000A0D0A006D61676E6574206E6F77206F6E0D0A0D0A0000006D61676E6574206E6F77206F66660D0A0D0A0000200000002E636F6E6E6563740000000038000000A8
:403400002E72656164790000360000002E67696200000000340000002B4950442C0000000A0D210041542B43495053544152543D22544350222C223139322E3136382E316B
:4034400037332E31222C3636360D0A0041542B43495053454E443D00F0510040100000000140000A800A01408005001401408006001B0140000100400140000A004C0140FD
:403480000002005001402000000A0140E43900008000801A0140643A00008000085200400364004003650040020701406608014048090140180A01403C0B014002170140BF
:4034C0006818014047190140171A01403F1B0140054001400441014004420140074301400447014006480140064C01400B4D0140085001400151014004FF08400940240F05
:403500002802290234C06407880F89388A728838890F8B72E202E64000100240041006AC0A030C090D180ED00F24140C1552167117241814191F1B601F4024DC2622291F9D
:403540002B202E202F2D310432E03378341F370339803A083B083F4140254103450B460C470E481549FF4AFF4BFF4EF04F44500C54015604580459045A045B045F0166C069
:403580006A406B028450850288028A0C8B018C308E448F0190249240944096309A019C40A201A870AA08B001B27CB301B402B502BB02BE11BF14C003C540C9FFCA07CBFF41
:4035C000CC40CD20CEF0CF05D008D418D604D804D904DA04DB04DC01DD01DF01E040E1A8E240E3200050022005500640071009200AA00B020E200F08111012801540170457
:4036000018101A081B011D101E201F042004210627912DC02E202F0635403604371439A03A043F8043084620471049024B024D804F0850085480560457405A025C045F91C6
:4036400060086202630266017808790886068E0191A09202A120A280A502B480C0F7C26FC4AACA30CC70CE1ED062D210D6F1D88DE408E6408301850289028C018E0E9102F7
:4036800098229A519C449E31A467A867B102B218B460B501B607BE04D608D804D904DB04DD90DF0100440102030405400601081009020A200B010C100E080F0110A8120113
:4036C0001728180419171A201D481E081F2021602205244027442951300231063360370238283A423E143F014040412848024A08511052805A085C80664067016A146B2A90
:4037000070BC72028D018E08C08FC2CFC46FCA0DCC8FCEEFD007D20CD612D810E204E60802400430060D0A800E301405163819011E802220264028052A182C022E0C3080CB
:4037400031013240343C360338803A203E053F014004460449FF4A074BFF4C404D204EF04F05500854185604580459045A045B045D105F01604061A862406320820284B87C
:403780008645885689138AA18B0C8D138F0492469520970599039B049CB89E439F08A140A680A90AAAA9AB14B080B218B340B463B50FB607B730B808B980BAA0BB20BE0566
:4037C000BF04C026C104C50CC6BEC80DC9FFCAFFCBFFCEF0CF44D00CD401D604D804D904DA04DB04DC11DD11DF01E6C0EA40EB02000801320426054008800A820E200F028F
:4038000010381651171019201A421B081C041D401E081F05200821102254250129212B803028324035103840392040C04110470148285220538056415702581059015A48C7
:403840005E0263806602670A834086029440951096A099129B119D409E40A008A210A624A70AAA04AB01B080B310C0FEC2A9C4F6CA05CC2ECE0CD085D204D68FD8B104015A
:4038800006260C0A0E511C141E491F01249F289F2C80301831013207346036803E105608580459045B045C115D905F0100400108022003100542072809800C800D280E4073
:4038C000102A154217141840190A1B501C011D281E401F2821012422250426112C802D402F283180354236203C013E68452447404D404FA0561057015A805E2061C06C2A4D
:403900007480762877288001834C8E4094229E10A601A701B501C0F5C2F1C4F7CAF0CCB8CEF0D070D230D628D8083202338035803708CCF09D809F08A602A7809D809F08A2
:40394000A602A78086028F089D809F08A602A780E2408602A620B620EA08818087809D80A780E220E6100D8066029A02A620C201D80102205C108D809010A180A620B41071
:40398000C008D604E208E808000301010C030D01100311011C031D0100FF0000FF000000000000000708080000000000400080404000400000000000007F7F000000000074
:4039C00000FFFF00000000000F00000000000000020005020200020000000000C0FF3F0000000000F3200C004C30A300001040000002B300FF7F00004F70900F010100008E
:403A00004200000B084F0030040000000C780007030300000F038C407C38000400802A0000000004640502000300EC000CFFFFFF62A0F0410C000000000002120404040413
:403A4000000000010000000000004002001030100010101200000000000000000000000000000000017800070C100000043000004270000F4F019000FF000000F3030C000F
:403A800008020000002040004C4FA330037F00000000B30B8C0300380F407C040080AA0000000010250103000600E0C028FFFFFF62A0F0410C0000000000021104040404C8
:403AC00011110001000000000000400200103010001010120000000000000000000000000000000069F0152E0028010143000020202020202020202028282828282020208E
:403B00002020202020202020202020202020208810101010101010101010101010101004040404040404040404101010101010104141414141410101010101010101010105
:403B400001010101010101010101101010101010424242424242020202020202020202020202020202020202020210101010200000000000000000000000000000000000C7
:403B80000000000000000000000000000000000000000000000000000000000000000000000000000000000000000000000000000000000000000000000000000000000005
:403BC000000000000000000000000000000000000000000000000000000000000000000000000000000000000000000000000000F8B500BFF8BC08BC9E46704751000000F5
:403C0000F90B0000F8B500BFF8BC08BC9E4670472D000000283C00000881FF1F88000000D0010000000000000000000064330000683300000000C05D80BB000030000000B6
:403C4000006CDC020000000000000000000000000000000000000000000000000000000000000000EC3A0000000000000000000000000000000000000000000000000000D4
:403C80000000000000000000000000000000000000000000000000000000000000000000000000002481FF1FEE3A0000000000000000000000000000000000000000000019
:403CC00000000000000000000000000000000000000000000000000000000000000000000000000000000000000000000000000000000000000000000000000000000000C4
:403D00000000000000000000000000000000000000000000000000000000000000000000000000000000000000000000000000000000000000000000000000000000000083
:403D40000000000000000000000000000000000000000000000000000000000000000000000000000000000000000000000000000000000000000000000000000000000043
:403D80000000000000000000000000000000000000000000000000000000000000000000000000000000000000000000000000000000000000000000000000000000000003
:020000040003F7
:40FFC00000000000000000000000000000000000000000000100010000000000000000000000000000000000000000000000000000000000000000000000000000000000FF
:0200000480007A
:4000000000000000000000000000000000000000000000000000000000000000000000000000000000000000000000000000000000000000000000000000000000000000C0
:400040000000000000000000000000000000000000000000000000000000000000000000000000000000000000000000000000000000000000000000000000000000000080
:400080000000000000000000000000000000000000000000000000000000000000000000000000000000000000000000000000000000000000000000000000000000000040
:4000C0000000000000000000000000000000000000000000000000000000000000000000000000000000000000000000000000000000000000000000000000000000000000
:0200000490006A
:0400000000004005B7
:0200000490105A
:04000000BC90ACAF55
:0200000490303A
:02000000790283
:0200000490402A
:4000000000000000000000000000000000000000000000000000000000000000000000000000000000000000000000000000000000000000000000000000000000000000C0
:400040000000000000000000000000000000000000000000000000000000000000000000000000000000000000000000000000000000000000000000000000000000000080
:400080000000000000000000000000000000000000000000000000000000000000000000000000000000000000000000000000000000000000000000000000000000000040
:4000C0000000000000000000000000000000000000000000000000000000000000000000000000000000000000000000000000000000000000000000000000000000000000
:0200000490501A
:0C00000000012E15F06900012E2C696B28
:00000001FF